:020000040800F2
:10000000A8040020450100081B1000089B0F0008F1
:1000100019100008250200089515000800000000CE
:100020000000000000000000000000001F10000899
:1000300051020008000000001D10000821100008F7
:100040005F0100085F0100085F0100085F01000810
:100050005F0100085F0100085F0100085F01000800
:100060005F0100085F0100085F0100085F010008F0
:100070005F0100085F0100085F0100085F010008E0
:100080005F0100085F0100085F0100085F010008D0
:100090005F0100085F0100085F0100085F010008C0
:1000A0005F0100085F0100085F0100085F010008B0
:1000B0005F0100085F0100085F0100085F010008A0
:1000C0005F0100085F0100085F0100085F01000890
:1000D0005F0100085F0100085F0100085F01000880
:1000E0005F0100085F0100085F0100085F01000870
:1000F0005F0100085F0100085F0100085F01000860
:100100005F0100085F0100085F0100085F0100084F
:100110005F0100085F0100085F0100085F0100083F
:100120005F0100085F0100085F0100085F0100082F
:10013000DFF80CD000F040F80048004765170008D1
:10014000A80400200648804706480047FEE7FEE76F
:10015000FEE7FEE7FEE7FEE7FEE7FEE7FEE7FEE777
:100160008310000831010008D2B201E000F8012B31
:10017000491EFBD270470022F6E710B513460A4627
:1001800004461946FFF7F0FF204610BD30B50B4678
:10019000014600202022012409E021FA02F59D42B7
:1001A00005D303FA02F5491B04FA02F52844151E8B
:1001B000A2F10102F1DC30BD064C074D06E0E0681B
:1001C00040F0010394E8070098471034AC42F6D39E
:1001D000FFF7B2FF281800084818000830B50F488C
:1001E00085B0816941F00401816180690C4D00F0A6
:1001F0000400049001200402CDE900400220029096
:10020000032003906946284600F036F80022214674
:10021000284600F02DF905B030BD00000010024066
:1002200000080140FEE700000848074901604FF45C
:10023000E131416000218160C160016181610C2177
:10024000416100F0F2BD00000038014018000020BC
:100250007047000070B5044600F010F90546601CB8
:1002600002D004480078044400F008F9401BA04282
:10027000FAD370BD040000202DE9F84FDFF8C891D3
:100280000024A9F1040B23460F2709F1040AABF15E
:10029000040ED1E00125A54006EA0502AA4276D166
:1002A000DFF8A8C14E68A6EB0C0866452BD00DDC24
:1002B000032E34D005DC36B3012E19D0022E2FD1F7
:1002C0001BE0112E16D0122E2AD119E0B8F5881F86
:1002D00019D006DCB8F5803F15D0B8F5801F1FD1C6
:1002E00011E0B8F5001F0ED0B8F5041F18D10AE0D0
:1002F000CB6815E0CB681B1D12E0CB6808330FE01C
:10030000CB680C330CE08B682BB1012B4FF008034A
:1003100003D0456104E0042302E0056100E000230E
:10032000FF2A01D8064601E000F104064FEA8405E1
:1003300001D9A5F12005D6F8008007FA05FC28EAC6
:100340000C0803FA05F548EA0508C6F800804D6870
:10035000ED0070D53E4DAE6946F00106AE61AD6967
:1003600024F0030605F0010500953A4D06EB050C57
:10037000DCF80850A607360F07FA06F825EA080544
:10038000DFF8D480404503D14FF0000825E052E06B
:10039000DFF8C880404502D14FF001081DE0DFF8CA
:1003A000C080404502D14FF0020816E0DFF8B4806B
:1003B000404502D14FF003080FE0DFF8AC80404524
:1003C00002D14FF0040808E0DFF8A080404502D1D8
:1003D0004FF0050801E04FF0060808FA06F848EA71
:1003E0000508CCF808804D68D9F80060ED024D464C
:1003F00001D5164300E096432E604D68DAF80060A0
:10040000AD02554601D5164300E096432E604D6877
:10041000DBF80060AD035D4601D5164300E096436E
:100420002E604D68DEF80060ED03754601D5164379
:1004300000E096432E60641C0A681646E2407FF492
:1004400029AFBDE8F88F000008040140000011103A
:10045000001002400000014000080140000C014073
:10046000001001400014014000180140001C014030
:100470000AB1016170470904FBE700000148806888
:10048000704700000400002002488168027811448F
:10049000816070470400002070B50D4D04464FF494
:1004A0007A712878B1FBF0F00A490968B1FBF0F0E5
:1004B00000F09EFA48B9102C07D200222146501EA7
:1004C00000F00AF800206C6070BD012070BD0000D3
:1004D0000400002010000020F0B40E4B1B680C46F6
:1004E000C3F30223C3F10705042D00D90425191D08
:1004F000072901D2002300E0DB1E012606FA05F1E0
:10050000491E214099409E40761E16403143F0BC62
:1005100001F052B80CED00E02DE9F0470F46050060
:1005200061D0434E306800F00700B84209D230680D
:1005300020F0070038433060306800F00700B84210
:1005400051D128683B4C810712D5400703D560681C
:1005500040F4E06060602878000703D5606840F4EC
:10056000605060606068A96820F0F0000843606037
:100570002878C00728D06868012810D02168022890
:1005800010D0890700292EDA616821F003010143A8
:100590006160FFF773FF804641F288390DE0216802
:1005A0008903EFE78901EDE7FFF768FFA0EB08019A
:1005B000494502D90320BDE8F0876068696800F00A
:1005C0000C00B0EB810FEFD1306800F00700B842AB
:1005D0000BD9306820F0070038433060306800F0F5
:1005E0000700B84201D00120E5E72878400705D58B
:1005F0006068E96820F4E0600843606028780007DC
:1006000006D56068296920F4605040EAC100606046
:1006100000F038F86168084AC1F30311515CC84022
:100620000649086006480068FFF736FF0020C2E769
:1006300000200240001002400E18000810000020A8
:10064000080000200448054900684968044AC1F3CD
:100650000221515CC8407047100000200010024089
:100660001E1800080448054900684968044AC1F397
:10067000C221515CC84070471000002000100240A9
:100680001E1800080E4A51680E4801F00C03042B96
:1006900011D0082B0FD10C48C1F38343C903C05CB0
:1006A0000AD55168084AC1F34041921E515C054A7F
:1006B0005043B0FBF1F070470449484370470000D5
:1006C0000010024000127A00FE17000800093D00E9
:1006D0002DE9F84F040070D02078C04DC00749D0F4
:1006E0006868C0F38100012807D06868C0F3810002
:1006F000022809D16868C00306D52868800339D567
:1007000060680028E7D035E06068B0F5803F0BD026
:1007100010B1B0F5A02F11D0286820F480302860E7
:10072000286820F4802002E0286840F480302860A7
:10073000606890B1FFF7A2FE06460AE0286840F420
:1007400080202860F0E700BFFFF798FE801B642838
:1007500073D828688003F7D50CE0FFF78FFE0646B4
:1007600005E000BFFFF78AFE801B6428F0D82868E8
:100770008003F7D420789A4E80074FF001094FF09C
:10078000000839D5686810F00C0F07D06868C0F30E
:100790008100022809D16868C00306D42868800750
:1007A00014D52069012808D110E02069B0B1C6F83D
:1007B0000090FFF763FE074605E00AE1FFF75EFEE3
:1007C000C01B0228C4D828688007F7D5286861694B
:1007D00020F0F80040EAC10028600DE0C6F8008073
:1007E000FFF74CFE074604E0FFF748FEC01B022857
:1007F00023D828688007F7D4207800072CD57948BB
:10080000A169D9B1C0F80090FFF738FE074604E0AF
:10081000FFF734FEC01B02280FD8686A8007F7D59F
:1008200071484FF4FA510068B0FBF1F0009000BF3E
:100830000098411E0091FAD20EE080E0C0F80080DE
:10084000FFF71CFE074604E0FFF718FEC01B022856
:1008500075D8686A8007F7D42078400760D5E869C2
:100860000027C00008D4E86940F08050E861E869DA
:10087000012700F0805000905C480168C90513D43E
:100880000168834641F480710160FFF7F7FD8246FD
:1008900006E000BFFFF7F2FDA0EB0A0064284ED887
:1008A000DBF80000C005F5D5E06801280AD008B1E2
:1008B000052813D0286A20F001002862286A20F059
:1008C000040002E0286A40F001002862E06841F27A
:1008D000883B98B1FFF7D2FD82460BE0286A40F0D2
:1008E00004002862EEE700BFFFF7C8FDA0EB0A0195
:1008F00059455AD8286A8007F6D50CE0FFF7BEFDA7
:10090000824605E0FFF7BAFDA0EB0A0159454CD835
:10091000286A8007F6D41FB1E86920F08050E861AA
:10092000E06988B36968C1F38101022944D00228D3
:10093000C6F8608004D0FFF7A1FD044638E034E03B
:10094000FFF79CFD074604E0FFF798FDC01B022857
:100950002BD828688001F7D4206AB0F5803F05D1F4
:100960006868A16820F4003008436860D4E9080191
:100970000843696821F4741108436860C6F8609000
:10098000FFF77CFD044606E025E000BFFFF776FD9B
:10099000001B022809D828688001F7D51BE000BF9A
:1009A000FFF76CFD001B022802D90320BDE8F88F79
:1009B00028688001F4D40EE00128F7D06868226A24
:1009C00000F48031914204D1616A00F470108842D1
:1009D00001D00120EAE70020E8E700000010024013
:1009E000000042428004424210000020007000409B
:1009F00010B5401EB0F1807F01D3012010BD4FF033
:100A0000E02460610F21601700F0D6FD0020A06196
:100A100007202061002010BD70B590F83C20012A0D
:100A20002CD0012480F83C40022280F83D2003684D
:100A30005A689D6822F070060A6832435A60104B6B
:100A400002689A420ED00F4B9A420BD0B2F1804FFF
:100A500008D00D4B9A4205D00C4B9A4202D00C4B59
:100A60009A4204D1496825F080031943916080F8C7
:100A70003D40002180F83C10084670BD022070BD4A
:100A8000002C0140003401400004004000080040F8
:100A9000000C004010B5040003D094F83D0010B1E4
:100AA00007E0012010BD002084F83C00204600F043
:100AB0001FF8022084F83D00211D206800F0E2FAB2
:100AC000012084F8460084F83E0084F83F0084F852
:100AD000400084F8410084F8420084F8430084F820
:100AE000440084F8450084F83D00002010BD00005B
:100AF0000E4800B5C16985B041F00801C161C16906
:100B000001F008010491816941F00401816180696B
:100B1000694600F00400049000200190022000903B
:100B200002900348FFF7A8FB05B000BD001002408B
:100B30000008014070B5044690F83C0000250128EB
:100B400017D0012684F83C60022084F83D0020681C
:100B5000826822F0770222F47F428260086850287F
:100B600038D00DDC20284FD005DC90B3102811D1EF
:100B70004AE0022070BD302846D040280AD13BE030
:100B800060282FD070280DD0B0F5805F03D0B0F56D
:100B9000005F12D0012584F83D60002084F83C00FD
:100BA000284670BDCB68D1E90121206800F0BDFA6C
:100BB0002068816841F0770109E0CB68D1E9012123
:100BC000206800F0B2FA2068816841F480418160B9
:100BD000E1E719E0CA684968206800F0B8FA5021D6
:100BE000206806E0CA684968206800F0F7FA6021CA
:100BF000206800F0A4FACEE7CA684968206800F0CF
:100C0000A6FA40212068F4E7226801461046F0E782
:100C10002DE9F041054690F83C0000260C460128DD
:100C200010D0012085F83C0072B1042A1CD0082A9B
:100C30002CD00C2A50D00126002085F83C003046EC
:100C4000BDE8F0810220FBE7D4E90012E3682868E0
:100C500000F08EFA2868816921F00C018161286812
:100C60008169A26811430FE0D4E90012E3682868A3
:100C700000F0C6FA2868816921F440618161286822
:100C80008169A26841EA02218161D5E72868D4E937
:100C9000002C277B036A016A21F480710162C1691B
:100CA00023F4007321F0030141EA0C0121F0F00C60
:100CB00039074FF400774CEA116107EA02221A4320
:100CC000C16102622868C16921F00C01C161286814
:100CD000C169A26811432BE02868D4E90021E768C4
:100CE000036AD0F820C02CF4805CC0F820C0D0F893
:100CF0001CC023F400532CF4407C4CEA012121F465
:100D0000704C4FF6FF7101EA07314FF4005741EA8A
:100D10000C0107EA02321A43C16102622868C16904
:100D200021F44061C1612868C169A26841EA0221D9
:100D3000C16181E710B5044651B104290DD00829DD
:100D400010D094F8410094F84520012811D10EE00C
:100D500094F83E0094F84220F7E794F83F0094F8A6
:100D60004320F2E794F8400094F84420EDE7012A8C
:100D700001D0012010BD022049B304292CD008293C
:100D80002FD084F8410084F845000122206800F04B
:100D9000BFF91649206888420ED0154988420BD009
:100DA000B0F1804F08D01349884205D012498842DB
:100DB00002D01249884204D1816801F00701062956
:100DC00003D0016841F001010160002010BD84F8EA
:100DD0003E0084F84200D8E784F83F0084F84300DE
:100DE000D3E784F8400084F84400CEE7002C0140AB
:100DF000003401400004004000080040000C0040A6
:100E00000246002041B1042909D008290AD00C2942
:100E100001D11068006C70471068406B7047106813
:100E2000806B70471068C06B704770B5040004D0C9
:100E300094F84100002510B106E0012070BD84F84F
:100E40004050204600F024F8242084F84100206817
:100E5000C16821F40051C160204600F003FB206806
:100E6000016921F4904101612068416921F02A0162
:100E700041612068C16841F40051C160656420206F
:100E800084F8410084F842006563002070BD0000D2
:100E9000194810B5816986B041F48041816181694A
:100EA00001F480410491816941F00401816181690B
:100EB00001F004010491816941F0040181618069BC
:100EC0000E4C00F0040004904FF4007000900220DB
:100ED0000190012002900320039069462046FFF70D
:100EE000CBF9201500900020019069462046FFF7BD
:100EF000C3F906B010BD0000001002400008014018
:100F00002DE9F843044690F841001F4616460D4669
:100F1000202802D00220BDE8F8837DB176B1002000
:100F20006064212084F84100FFF7A8FAA684804677
:100F3000E684A068B0F5805F02D003E00120EAE714
:100F4000206910B12E4600250EE000260CE080211D
:100F5000204600F0E3FAA0B9AEB116F8010B216803
:100F60004860E08C401EE084E08C43464FF0000275
:100F700000970028EBD14FF04001204600F0CEFA58
:100F800030B10320C7E735F8020BC0F30800E6E7ED
:100F9000202084F841000020BDE7FEE7F0B51C48A2
:100FA00085B0816941F008018161816901F0080122
:100FB0000491816941F008018161816901F00801B2
:100FC0000491816941F0080181618069012400F088
:100FD0000800049003202026CDE90240CDE90064FA
:100FE0000C4F69463846FFF747F969463846009482
:100FF000FFF742F90225694638460095FFF73CF9AC
:101000000448103006600460056005B0F0BD0000C3
:1010100000100240000C0140FEE7FEE770477047F9
:10102000FFF732BA30B58FB028216846FFF7A3F832
:1010300014210AA8FFF79FF801210804CDE9001048
:101040000024029402250491CDE907504FF4E010EA
:1010500009906846FFF73CFB08B172B6FEE70F2027
:10106000CDE90A054FF48060CDE90C4002210AA8C1
:101070000E94FFF751FA002801D072B6FEE70FB0C8
:1010800030BD7047F0B502681C4B1D4D1D4E1E4F04
:101090001E4C4FF0804C984209D0A04207D06045CA
:1010A00005D0A84203D0B04201D0B84204D122F00A
:1010B000700E4A6842EA0E02984209D0A04207D058
:1010C000604505D0A84203D0B04201D0B84203D158
:1010D00022F44075CA682A434D6922F080022A43EF
:1010E00002608A68C2620A688262984201D0A042A5
:1010F00001D10969016301214161F0BD002C01406A
:101100000004004000080040000C00400034014092
:1011100010B501F01F030121046A99408C43046259
:10112000016A9A401143016210BD10B5846842EA19
:10113000032224F47F440A432243826010BD826864
:1011400022F070020A4342F007018160704710B537
:10115000036A046A24F001040462846924F0F00440
:1011600044EA021423F00A020A438461026210BDB9
:1011700070B5056A046A24F0010404628469124EA1
:10118000B0420ED0114EB0420BD0B0F1804F08D01B
:101190000F4EB04205D00F4EB04202D00E4EB042BC
:1011A00003D124F00304144301E044F001041A07BE
:1011B00024F0F00444EA126225F00A0301F00A0167
:1011C00019438261016270BD002C0140003401406E
:1011D0000004004000080040000C004010B5036A05
:1011E000046A24F010040462846923F0A00324F448
:1011F000704444EA023243EA01118261016210BD87
:1012000030B5046A056A25F010050562856925F484
:10121000407545EA022222F470454FF6FF7202EA59
:10122000033224F0A0032A43A02404EA0111194345
:101230008261016230BD000010B500F06FF809480E
:101240004FF60B62016803E0486A80B2904208D80A
:101250000869C0434007F7D404210248FFF7D0FDD6
:1012600080B210BD6000002030B585B000F0CCF831
:1012700004212148FFF75EFD00256C46FFF7DCFFE7
:1012800024F815000A20FEF7E5FF6D1CEDB20A2DCB
:10129000F4D30020411C0B460BE000BF34F81020B3
:1012A00034F81150AA4203D924F8105024F8112020
:1012B000491CC9B20A29F1D3D8B20928EAD30021BE
:1012C0005FF0020034F81020401CC0B2114408281E
:1012D000F8D30620B1FBF0F0084C6080618808A0CC
:1012E00000F05AF96088B0F5004F02D3012005B034
:1012F00030BD0020FBE7000060000020000000205F
:101300000D0A20747061645F64656661756C745F5A
:1013100076616C3A2564200D0A000000184810B56B
:10132000816986B041F0040181618069154C00F04B
:1013300004000490002202212046FFF799F80120C2
:101340000190022000900320039069462046FEF79A
:1013500093FF0520FEF77EFF0B4A002110684162D3
:101360001268881F10610191029169462046FEF7BC
:1013700083FF04210448FFF7DDFC06B010BD000028
:101380000010024000080140600000202DE9F041FB
:101390000027164D032610B10626002028700024D1
:1013A00005E000BFFFF748FFA04200D90446761EC3
:1013B000F6B2F7D221460EA000F0EEF8688864304D
:1013C00084420BD9688800EB8000B4EB400F05D253
:1013D000287800B901270320287001E0287810B18F
:1013E000C0B2401E28703846BDE8F08100000020E1
:1013F0000D0A207363616E5F7276616C203D20255B
:1014000064200D0A0000000010B515488AB0134989
:1014100001602F2141604FF6FF710024C0E90241B5
:101420000461FFF737FB4FF48050069006A90C4883
:10143000FFF780FB049404A909480594FFF7ECFA30
:101440000320CDE902400120019000940422694666
:101450000348FFF7DDFB0AB010BD0000000C0040A0
:101460006000002070B5044600680169E26821F45C
:101470004051114301612169A06808436169084333
:101480002168CA6841F20C639A430243CA6020682B
:101490004169A26921F44071114341611E492068EC
:1014A000884202D1FFF7DEF801E0FFF7CBF800EB4E
:1014B000C00101EB0012606864218000B2FBF0F310
:1014C000B3FBF1F36FF018067343B2FBF0F5B2FB18
:1014D000F0F605EB8305322303EB0515B5FBF1F5BB
:1014E000B6FBF1F605F0F00505EB0615B2FBF0F6DC
:1014F000B2FBF0F0B0FBF1F06FF01802504306EBD6
:10150000800003EB0010B0FBF1F0216800F00F0049
:101510002844886070BD0000003801402DE9F0418A
:10152000984617460E460446069D27E0681C25D0BF
:101530002DB1FEF7A3FFA0EB0800A8421ED920683A
:101540000C3050E8001F21F4D07140E80012002A4E
:10155000F5D12068143050E8001F21F0010140E867
:101560000012002AF5D1202084F8410084F84200BE
:10157000002084F840000320BDE8F0812068006866
:1015800036EA000004D00020B842CFD00020F3E7B4
:101590000120F9E7FEE700000FB4054B10B503A9E1
:1015A000044A029800F028F810BC5DF814FB000013
:1015B0004D170008140000200907090E002804DB5D
:1015C00000F1E02080F80014704700F00F0000F1F7
:1015D000E02080F8141D704702E008C8121F08C1FF
:1015E000002AFAD170477047002001E001C1121FA4
:1015F000002AFBD1704700002DE9FF4F89B09B46C0
:101600000446002506E025280BD05A460B99904742
:10161000641C6D1C20780028F5D10DB02846BDE86B
:10162000F08F0027B8460122474900E0074314F82D
:10163000013F203B02FA03F00842F7D120782E2820
:1016400019D114F8010F47F004072A280ED06FF0C3
:101650002F022078A0F1300109290CD808EB88016D
:1016600002EB410100EB0108641CF2E70A98641CDC
:1016700050F8048B0A9020780028CED0642808D037
:10168000692806D075281ED05A460B9990476D1CC4
:1016900058E00A994FF00A0901C90A91002802DAB4
:1016A00040422D2102E0390504D52B218DF8201070
:1016B000012103E0F90704D02021F7E78A4608AEAC
:1016C0000DE00021FAE70A994FF00A0901C90A91D1
:1016D000F7E74946FEF75AFD303106F8011D0028AC
:1016E000F7D1ADEB060000F12009780701D44FF0E7
:1016F0000108C84502DDA8EB090000E00020804693
:10170000002706E008A85A46C05D0B9990476D1C5B
:101710007F1C5745F6DB04E030205A460B99904772
:101720006D1CB8F10001A8F10108F5DC05E016F820
:10173000010B5A460B9990476D1CB9F10001A9F1B4
:101740000109F4DC641C65E70928010013B54FF4B6
:101750007A73012269460248FFF7D2FB00981CBD4C
:1017600018000020FFF75EFCFFF718FCFEF736FDBF
:10177000FEF75AFD0EA0FFF70FFF17A0FFF70CFFB3
:10178000FFF772FD1C4C4FF480750020FFF7FEFD43
:101790000028FAD0012229462046FEF769FE1E20C5
:1017A000FEF758FD002229462046FEF761FEECE7D1
:1017B0000D0AD2B0BBF053544D333220CAE4C8EB0B
:1017C000B2B6BBF1B5E7C8DDB0B4BCFCBCECB2E26C
:1017D000CAB5D1E90D0A00000D0AB4A5C3FEB5E7EC
:1017E000C8DDB0B4BCFCA3ACB7E4C3F9C6F7D4F20F
:1017F000BBE1CFEC0D0A000000080140010202032A
:101800000405060708090A0B0C0D0E0F1010000046
:1018100000000000000001020304060708090000A0
:101820000000010203040000481800080000002026
:1018300018000000D81500086018000818000020E3
:1018400090040000E81500080000000001000000FE
:1018500010000000000000000024F4000000000060
:0400000508000131BD
:00000001FF
