:020000040800F2
:10000000B804002045010008830F0008A90E00086D
:10001000810F00083B030008991100080000000050
:100020000000000000000000000000006110000857
:100030006503000800000000850F00086310000839
:100040005F0100085F0100085F0100085F01000810
:100050005F0100085F0100085F0100085F01000800
:100060005F0100085F0100085F0100085F010008F0
:100070005F0100085F0100085F0100085F010008E0
:100080005F0100085F0100085F0100085F010008D0
:100090005F0100085F0100085F0100085F010008C0
:1000A0005F0100085F0100085F0100085F010008B0
:1000B0005F0100085F0100085F0100085F010008A0
:1000C0005F0100085F0100085F0100085F01000890
:1000D0005F010008811100085F0100085F0100084E
:1000E0005F0100085F0100085F0100085F01000870
:1000F0005F0100085F0100085F0100085F01000860
:100100005F0100085F0100085F0100085F0100084F
:100110005F0100085F0100085F0100085F0100083F
:100120005F0100085F0100085F0100085F0100082F
:10013000DFF80CD000F02AF800480047E71100086B
:10014000B80400200648804706480047FEE7FEE75F
:10015000FEE7FEE7FEE7FEE7FEE7FEE7FEE7FEE777
:10016000C510000831010008D2B201E000F8012BEF
:10017000491EFBD270470022F6E710B513460A4627
:1001800004461946FFF7F0FF204610BD064C074D08
:1001900006E0E06840F0010394E807009847103457
:1001A000AC42F6D3FFF7C8FF301300085013000825
:1001B0002DE9F041244886B0816941F48051816184
:1001C000816901F480510491816941F004018161E8
:1001D00080692025022700240095CDE9017400F0F4
:1001E0000400CDE90370DFF864806946404600F002
:1001F000CDF8C020CDE90007CDE902476946404669
:1002000000F0C4F810200126CDE90006CDE9024730
:100210006946404600F0BAF80E480D4901604FF4B7
:1002200082714160A902C0E9021489118161C0E9AB
:100230000446C0E9075407214462C0E90A4100F0BE
:10024000A3FC06B0BDE8F0810010024000080140A8
:10025000003001405C00002070B5FFF7A9FF0D4D94
:100260004FF4004400222146284600F08BF9052077
:1002700000F07AF801222146284600F083F9052093
:1002800000F072F800F00FF8BDE870400121084658
:1002900000F002B80008014040EAC100C2B20921E2
:1002A000052000F005B8002209210620AFF30080E8
:1002B00038B5002341EA001000938DF80000100AC1
:1002C0008DF801000B4C8DF802201A4610212046B3
:1002D00000F058F900F080FF0F230322694606481A
:1002E00000F0ACFC00F078FF01221021204600F065
:1002F00049F938BD000801405C00002010B50B4CE6
:100300000949206831F81010401C2060012000F0DD
:100310000FF82068802801D100202060BDE810403F
:10032000052000F021B800000412000800000020A1
:100330000A4601460320FFF7BBBFFEE7084807490E
:1003400001604FF4E131416000218160C1600161D1
:1003500081610C21416100F03CBD0000003801408A
:10036000140000207047000070B5044600F010F93A
:100370000546601C02D004480078044400F008F9E7
:10038000401BA042FAD370BD040000202DE9F84FB5
:10039000DFF8C8910024A9F1040B23460F2709F1C7
:1003A000040AABF1040ED1E00125A54006EA0502DE
:1003B000AA4276D1DFF8A8C14E68A6EB0C086645C4
:1003C0002BD00DDC032E34D005DC36B3012E19D032
:1003D000022E2FD11BE0112E16D0122E2AD119E099
:1003E000B8F5881F19D006DCB8F5803F15D0B8F5F0
:1003F000801F1FD111E0B8F5001F0ED0B8F5041F03
:1004000018D10AE0CB6815E0CB681B1D12E0CB6861
:1004100008330FE0CB680C330CE08B682BB1012B59
:100420004FF0080303D0456104E0042302E00561B6
:1004300000E00023FF2A01D8064601E000F104068F
:100440004FEA840501D9A5F12005D6F8008007FA06
:1004500005FC28EA0C0803FA05F548EA0508C6F881
:1004600000804D68ED0070D53E4DAE6946F0010646
:10047000AE61AD6924F0030605F0010500953A4D23
:1004800006EB050CDCF80850A607360F07FA06F84D
:1004900025EA0805DFF8D480404503D14FF0000875
:1004A00025E052E0DFF8C880404502D14FF0010856
:1004B0001DE0DFF8C080404502D14FF0020816E091
:1004C000DFF8B480404502D14FF003080FE0DFF8B9
:1004D000AC80404502D14FF0040808E0DFF8A0806E
:1004E000404502D14FF0050801E04FF0060808FA38
:1004F00006F848EA0508CCF808804D68D9F800608D
:10050000ED024D4601D5164300E096432E604D683E
:10051000DAF80060AD02554601D5164300E0964377
:100520002E604D68DBF80060AD035D4601D51643D3
:1005300000E096432E604D68DEF80060ED037546DE
:1005400001D5164300E096432E60641C0A681646E7
:10055000E2407FF429AFBDE8F88F000008040140B5
:10056000000011100010024000000140000801408E
:10057000000C01400010014000140140001801402F
:10058000001C01400AB1016170470904FBE700004B
:10059000014880687047000004000020024881681C
:1005A000027811448160704704000020074810B5AC
:1005B000016841F010010160032000F067F80F208E
:1005C00000F006F800F024F8002010BD00200240E2
:1005D00070B50D4D04464FF47A712878B1FBF0F0F8
:1005E0000A490968B1FBF0F000F0DFFB48B9102CB4
:1005F00007D200222146501E00F028F800206C602F
:1006000070BD012070BD000004000020100000201B
:100610000C4808B5816941F001018161816901F0EF
:1006200001010091C16941F08051C161C06900F0D0
:10063000805000900448416821F0E06141F0007171
:10064000416008BD0010024000000140F0B40E4BB4
:100650001B680C46C3F30223C3F10705042D00D920
:100660000425191D072901D2002300E0DB1E012605
:1006700006FA05F1491E214099409E40761E16401B
:100680003143F0BC00F089BD0CED00E0064900F0FC
:10069000070208684FF6FF03184040EA0220034AA9
:1006A00010430860704700000CED00E00000FA0500
:1006B0002DE9F0470F46050061D0434E306800F049
:1006C0000700B84209D2306820F007003843306094
:1006D000306800F00700B84251D128683B4C8107D0
:1006E00012D5400703D5606840F4E0606060287868
:1006F000000703D5606840F4605060606068A968D6
:1007000020F0F000084360602878C00728D06868AF
:10071000012810D02168022810D0890700292EDA7C
:10072000616821F0030101436160FFF731FF8046FA
:1007300041F288390DE021688903EFE78901EDE78F
:10074000FFF726FFA0EB0801494502D90320BDE8C9
:10075000F0876068696800F00C00B0EB810FEFD1A2
:10076000306800F00700B8420BD9306820F007006D
:1007700038433060306800F00700B84201D00120F3
:10078000E5E72878400705D56068E96820F4E0606F
:10079000084360602878000706D56068296920F45E
:1007A000605040EAC100606000F038F86168084AB3
:1007B000C1F30311515CC84006490860064800684F
:1007C000FFF706FF0020C2E70020024000100240B1
:1007D00016130008100000200800002004480549F6
:1007E00000684968044AC1F30221515CC84070475F
:1007F000100000200010024026130008044805499C
:1008000000684968044AC1F3C221515CC84070477E
:100810001000002000100240261300080E4A516804
:100820000E4801F00C03042B11D0082B0FD10C48FB
:10083000C1F38343C903C05C0AD55168084AC1F3B8
:100840004041921E515C054A5043B0FBF1F07047A5
:1008500004494843704700000010024000127A002B
:100860000613000800093D002DE9F84F040070D080
:100870002078C04DC00749D06868C0F381000128C6
:1008800007D06868C0F38100022809D16868C003F6
:1008900006D52868800339D560680028E7D035E0A0
:1008A0006068B0F5803F0BD010B1B0F5A02F11D02B
:1008B000286820F480302860286820F4802002E036
:1008C000286840F480302860606890B1FFF760FECF
:1008D00006460AE0286840F480202860F0E700BF60
:1008E000FFF756FE801B642873D828688003F7D56D
:1008F0000CE0FFF74DFE064605E000BFFFF748FE9F
:10090000801B6428F0D828688003F7D420789A4E9A
:1009100080074FF001094FF0000839D5686810F0E2
:100920000C0F07D06868C0F38100022809D16868FD
:10093000C00306D42868800714D52069012808D18F
:1009400010E02069B0B1C6F80090FFF721FE07461D
:1009500005E00AE1FFF71CFEC01B0228C4D8286886
:100960008007F7D52868616920F0F80040EAC100E7
:1009700028600DE0C6F80080FFF70AFE074604E095
:10098000FFF706FEC01B022823D828688007F7D48B
:10099000207800072CD57948A169D9B1C0F800901A
:1009A000FFF7F6FD074604E0FFF7F2FDC01B022843
:1009B0000FD8686A8007F7D571484FF4FA5100687C
:1009C000B0FBF1F0009000BF0098411E0091FAD2F8
:1009D0000EE080E0C0F80080FFF7DAFD074604E093
:1009E000FFF7D6FDC01B022875D8686A8007F7D4C8
:1009F0002078400760D5E8690027C00008D4E8697E
:100A000040F08050E861E869012700F080500090D4
:100A10005C480168C90513D40168834641F48071BC
:100A20000160FFF7B5FD824606E000BFFFF7B0FDAD
:100A3000A0EB0A0064284ED8DBF80000C005F5D50D
:100A4000E06801280AD008B1052813D0286A20F0F0
:100A500001002862286A20F0040002E0286A40F0C1
:100A600001002862E06841F2883B98B1FFF790FDF1
:100A700082460BE0286A40F004002862EEE700BFDF
:100A8000FFF786FDA0EB0A0159455AD8286A80076E
:100A9000F6D50CE0FFF77CFD824605E0FFF778FD18
:100AA000A0EB0A0159454CD8286A8007F6D41FB13B
:100AB000E86920F08050E861E06988B36968C1F3B3
:100AC0008101022944D00228C6F8608004D0FFF7D3
:100AD0005FFD044638E034E0FFF75AFD074604E0C6
:100AE000FFF756FDC01B02282BD828688001F7D4D9
:100AF000206AB0F5803F05D16868A16820F4003015
:100B000008436860D4E908010843696821F4741156
:100B100008436860C6F86090FFF73AFD044606E0B7
:100B200025E000BFFFF734FD001B022809D8286824
:100B30008001F7D51BE000BFFFF72AFD001B02284C
:100B400002D90320BDE8F88F28688001F4D40EE0B4
:100B50000128F7D06868226A00F48031914204D1FC
:100B6000616A00F47010884201D00120EAE7002099
:100B7000E8E70000001002400000424280044242C8
:100B8000100000200070004070B5040009D0606AB9
:100B9000002540B125616561A56294F8510040B11E
:100BA0000CE0012070BD6068B0F5827FF4D0E56193
:100BB000F2E784F85050204600F03FF8022084F815
:100BC00051002068016821F040010160A08821895E
:100BD00000F4827001F404410843A18901F400612A
:100BE0000843217C01F002010843217D01F001014D
:100BF0000843218B01F400710843217F01F0380183
:100C0000084394F8201001F080010843218D01F47D
:100C10000051084321680860A069042101EA1040DE
:100C2000216848602068C16921F40061C16165657F
:100C3000012084F85100002070BD70472DE9F84F65
:100C4000044690F850000026984615468A4601282A
:100C50000CD0012784F85070FFF79AFC814694F875
:100C60005100B346012804D002269AE00220BDE8D4
:100C7000F88FBAF1000F6FD0002D6DD0032084F8EB
:100C80005100C4F854B0C4F830A0A586E586C4F875
:100C900038B0A4F83CB0A4F83EB0C4F844B0C4F8EE
:100CA00040B0A068B0F5004F09D12068016821F07C
:100CB000400101602068016841F4804101602068C2
:100CC0000168490603D4016841F040010160E06811
:100CD000B0F5006F606803D058B3012D29D049E00A
:100CE00008B1012D1FD1206B21680088C86006E083
:100CF00020688168890709D5216B0988C160206B4C
:100D0000801C2063E08E401EE0860CE0FFF740FC74
:100D1000A0EB0901414503D3B8F1FF3F03D006E042
:100D2000B8F1000F03D0E08E0028E1D125E00326C2
:100D300035E0206B21680078087306E02068816840
:100D400089070AD5216B09780173206B401C206349
:100D5000E08E401EE0860DE01FE0FFF719FCA0EBDF
:100D60000901414503D3B8F1FF3F03D0DFE7B8F1F4
:100D7000000FDCD0E08E0028E0D14A4641462046F4
:100D800000F001F908B120206065A06818B920685A
:100D9000C16880680090606D08B1012601E084F8A8
:100DA000517084F850B0304661E710B5401EB0F184
:100DB000807F01D3012010BD4FF0E02460610F213E
:100DC000601700F0EAF90020A061072020610020F0
:100DD00010BD70B5040004D094F84100002510B196
:100DE00006E0012070BD84F84050204600F024F851
:100DF000242084F841002068C16821F40051C160BA
:100E0000204600F061F92068016921F490410161F8
:100E10002068416921F02A0141612068C16841F4DC
:100E20000051C1606564202084F8410084F84200CC
:100E30006563002070BD0000194810B5816986B057
:100E400041F480418161816901F4804104918169AB
:100E500041F004018161816901F00401049181691B
:100E600041F00401816180690E4C00F0040004909F
:100E70004FF40070009002200190012002900320A6
:100E8000039069462046FFF781FA20150090002064
:100E9000019069462046FFF779FA06B010BD0000C0
:100EA0000010024000080140FEE70000124800B5B3
:100EB000816985B041F004018161816901F004011B
:100EC0000491816941F0100181618069002100F085
:100ED000100004900120CDE9000102916946074805
:100EE000FFF754FA4FF40050009069460448FFF7AA
:100EF0004DFA05B000BD000000100240000801409E
:100F000000100140F0B51C4885B0816941F008012E
:100F10008161816901F008010491816941F0080152
:100F20008161816901F008010491816941F0080142
:100F300081618069012400F00800049003202026CC
:100F4000CDE90240CDE900640C4F69463846FFF711
:100F50001DFA694638460094FFF718FA02256946DB
:100F600038460095FFF712FA044810300660046016
:100F7000056005B0F0BD000000100240000C01400B
:100F8000FEE7FEE7704738B50B46009204460022A4
:100F9000802100F009F8002804D0606D40F02000A6
:100FA0006065032038BD00002DE9F8431E469146D8
:100FB00088460446089DFFF7EBFA401B351AFFF7F9
:100FC000E7FA074625480068C0F3CB30684338E0AD
:100FD000701C37D0FFF7DCFAC01BA84203D215B152
:100FE000009860B32CE02068416821F0E001416086
:100FF0006068B0F5827F0BD1A068B0F5004F02D0D9
:10100000B0F5806F04D12068016821F040010160D3
:10101000A06AB0F5005F09D12068016821F4005191
:1010200001602068016841F400510160012084F8EA
:101030005100002084F850000320BDE8F88300250B
:10104000401E00902068816838EA010004D0002129
:101050004945BDD10020F0E70121F9E7100000204B
:101060007047FFF79BBA30B58FB028216846FFF76D
:1010700082F814210AA8FFF77EF801210804CDE9BF
:1010800000100024029402250491CDE907504FF48A
:10109000E01009906846FFF7E7FB08B172B6FEE77B
:1010A0000F20CDE90A054FF48060CDE90C40022104
:1010B0000AA80E94FFF7FCFA002801D072B6FEE7EA
:1010C0000FB030BD7047000070B50446006801697C
:1010D000E26821F44051114301612169A06808438D
:1010E000616908432168CA6841F20C639A4302436C
:1010F000CA6020684169A26921F4407111434161CD
:101100001E492068884202D1FFF778FB01E0FFF713
:1011100065FB00EBC00101EB0012606864218000F8
:10112000B2FBF0F3B3FBF1F36FF018067343B2FBBD
:10113000F0F5B2FBF0F605EB8305322303EB051562
:10114000B5FBF1F5B6FBF1F605F0F00505EB06157C
:10115000B2FBF0F6B2FBF0F0B0FBF1F06FF018026A
:10116000504306EB800003EB0010B0FBF1F0216868
:1011700000F00F002844886070BD00000038014076
:10118000044800680168C943890602D44168C9B2AD
:101190004160704714000020FEE70907090E00288F
:1011A00004DB00F1E02080F80014704700F00F002D
:1011B00000F1E02080F8141D704702E008C8121FFB
:1011C00008C1002AFAD170477047002001E001C130
:1011D000121F002AFBD17047002000BF401C80B2C4
:1011E0003228FAD37047FFF7E1F9FFF73CFFFFF72A
:1011F00089FEFFF7A3F8FFF759FEFFF72DF8FFF779
:101200007DF8FCE700805486A58CEE922A99579FC2
:1012100071A573AB59B121B7C6BC45C29BC7C4CC3D
:10122000BDD182D611DB68DF82E35EE7FAEA52EED7
:1012300065F131F4B5F6EEF8DBFA7BFCCEFDD1FEBC
:1012400085FFE9FFFDFFC1FF35FF59FE2EFDB5FB10
:10125000EEF9DBF77CF5D4F2E4EFAEEC34E978E5B7
:101260007CE144DDD1D826D446CF35CAF6C48BBF45
:10127000F8B941B46AAE75A867A2439C0E96CB8FAD
:101280007E892A83D67C82763570F269BD63995D4A
:101290008B579651BF4B084675400A3BCB35BA3049
:1012A000DA2B2F27BC22841E881ACC1652131C104E
:1012B0002C0D840A250812064B04D202A701CB008C
:1012C0003F00030017007B002F0132028503250534
:1012D00012074B09CF0B9B0EAE110615A2187E1CF0
:1012E0009820EF247E29432E3C336538BB3D3A439A
:1012F000DF48A74E8D548F5AA960D666126D5B7376
:10130000AC790080010202030405060708090A0BF4
:101310000C0D0E0F10100000000000000000010274
:10132000030406070809000000000102030400008E
:10133000501300080000002014000000BA1100083B
:101340006413000814000020A4040000CA1100085F
:10135000000000000100000010000000000000007C
:041360000024F40071
:0400000508000131BD
:00000001FF
