:020000040800F2
:100000006804002045010008D30B0008BD0A000861
:10001000D10B0008B1010008F50C00080000000039
:10002000000000000000000000000000D70B0008E6
:10003000DD01000800000000D50B0008D90B000806
:100040005F0100085F0100085F0100085F01000810
:100050005F0100085F0100085F0100085F01000800
:100060005F0100085F0100085F0100085F010008F0
:100070005F0100085F0100085F0100085F010008E0
:100080005F0100085F0100085F0100085F010008D0
:100090005F0100085F0100085F0100085F010008C0
:1000A0005F0100085F0100085F0100085F010008B0
:1000B0005F0100085F0100085F0100085F010008A0
:1000C0005F0100085F0100085F0100085F01000890
:1000D0005F0100085F0100085F0100085F01000880
:1000E0005F0100085F0100085F0100085F01000870
:1000F0005F0100085F0100085F0100085F01000860
:100100005F0100085F0100085F0100085F0100084F
:100110005F0100085F0100085F0100085F0100083F
:100120005F0100085F0100085F0100085F0100082F
:10013000DFF80CD000F02AF800480047350D000821
:10014000680400200648804706480047FEE7FEE7AF
:10015000FEE7FEE7FEE7FEE7FEE7FEE7FEE7FEE777
:100160003B0C000831010008D2B201E000F8012B7D
:10017000491EFBD270470022F6E710B513460A4627
:1001800004461946FFF7F0FF204610BD064C074D08
:1001900006E0E06840F0010394E807009847103457
:1001A000AC42F6D3FFF7C8FFB80D0008D80D000821
:1001B000FEE700000848074901604FF4E131416063
:1001C00000218160C160016181610C21416100F009
:1001D0000BBC0000003801401000002070470000F8
:1001E0002DE9F84FDFF8C8910024A9F1040B23464C
:1001F0000F2709F1040AABF1040ED1E00125A54057
:1002000006EA0502AA4276D1DFF8A8C14E68A6EB3D
:100210000C0866452BD00DDC032E34D005DC36B33C
:10022000012E19D0022E2FD11BE0112E16D0122E26
:100230002AD119E0B8F5881F19D006DCB8F5803F3F
:1002400015D0B8F5801F1FD111E0B8F5001F0ED0F2
:10025000B8F5041F18D10AE0CB6815E0CB681B1D68
:1002600012E0CB6808330FE0CB680C330CE08B68EE
:100270002BB1012B4FF0080303D0456104E00423A8
:1002800002E0056100E00023FF2A01D8064601E0F4
:1002900000F104064FEA840501D9A5F12005D6F83E
:1002A000008007FA05FC28EA0C0803FA05F548EA7D
:1002B0000508C6F800804D68ED0070D53E4DAE696A
:1002C00046F00106AE61AD6924F0030605F00105B4
:1002D00000953A4D06EB050CDCF80850A607360FE2
:1002E00007FA06F825EA0805DFF8D480404503D16F
:1002F0004FF0000825E052E0DFF8C880404502D109
:100300004FF001081DE0DFF8C080404502D14FF0FA
:10031000020816E0DFF8B480404502D14FF0030830
:100320000FE0DFF8AC80404502D14FF0040808E050
:10033000DFF8A080404502D14FF0050801E04FF002
:10034000060808FA06F848EA0508CCF808804D685F
:10035000D9F80060ED024D4601D5164300E0964302
:100360002E604D68DAF80060AD02554601D516439F
:1003700000E096432E604D68DBF80060AD035D46FB
:1003800001D5164300E096432E604D68DEF800600C
:10039000ED03754601D5164300E096432E60641CBC
:1003A0000A681646E2407FF429AFBDE8F88F0000E6
:1003B000080401400000111000100240000001403C
:1003C00000080140000C01400010014000140140F1
:1003D00000180140001C01408068084000D0012046
:1003E000704700000148806870470000000000204E
:1003F00070B5040011D021684CF6CC40086021682B
:1004000045F255500860D4E9000141602168A068B8
:100410008860FFF7E7FF05460DE0012070BD00BFD3
:10042000FFF7E0FF401B272805D92068C068800738
:1004300001D0032070BD2068C0688007F0D121681A
:100440004AF6AA200860002070BD00684AF6AA217A
:100450000160002070470000024881680278114462
:10046000816070470000002070B50D4D04464FF4C8
:100470007A712878B1FBF0F00A490968B1FBF0F015
:1004800000F09EFA48B9102C07D200222146501ED7
:1004900000F00AF800206C6070BD012070BD000003
:1004A000000000200C000020F0B40E4B1B680C462E
:1004B000C3F30223C3F10705042D00D90425191D38
:1004C000072901D2002300E0DB1E012606FA05F110
:1004D000491E214099409E40761E16403143F0BC93
:1004E00000F009BC0CED00E02DE9F0470F460500D7
:1004F00061D0434E306800F00700B84209D230683E
:1005000020F0070038433060306800F00700B84240
:1005100051D128683B4C810712D5400703D560684C
:1005200040F4E06060602878000703D5606840F41C
:10053000605060606068A96820F0F0000843606067
:100540002878C00728D06868012810D021680228C0
:1005500010D0890700292EDA616821F003010143D8
:100560006160FFF73FFF804641F288390DE0216866
:100570008903EFE78901EDE7FFF734FFA0EB0801FE
:10058000494502D90320BDE8F0876068696800F03A
:100590000C00B0EB810FEFD1306800F00700B842DB
:1005A0000BD9306820F0070038433060306800F025
:1005B0000700B84201D00120E5E72878400705D5BB
:1005C0006068E96820F4E06008436060287800070C
:1005D00006D56068296920F4605040EAC100606077
:1005E00000F038F86168084AC1F30311515CC84053
:1005F0000649086006480068FFF736FF0020C2E79A
:1006000000200240001002409E0D00080C00002057
:10061000040000200448054900684968044AC1F301
:100620000221515CC84070470C00002000100240BD
:10063000AE0D00080448054900684968044AC1F342
:10064000C221515CC84070470C00002000100240DD
:10065000AE0D00080E4A51680E4801F00C03042B41
:1006600011D0082B0FD10C48C1F38343C903C05CE0
:100670000AD55168084AC1F34041921E515C054AAF
:100680005043B0FBF1F07047044948437047000005
:100690000010024000127A008E0D000800093D0093
:1006A0002DE9F84F040070D02078C04DC00749D024
:1006B0006868C0F38100012807D06868C0F3810032
:1006C000022809D16868C00306D52868800339D597
:1006D00060680028E7D035E06068B0F5803F0BD057
:1006E00010B1B0F5A02F11D0286820F48030286018
:1006F000286820F4802002E0286840F480302860D8
:10070000606890B1FFF76EFE06460AE0286840F484
:1007100080202860F0E700BFFFF764FE801B64289C
:1007200073D828688003F7D50CE0FFF75BFE064618
:1007300005E000BFFFF756FE801B6428F0D828684C
:100740008003F7D420789A4E80074FF001094FF0CC
:10075000000839D5686810F00C0F07D06868C0F33E
:100760008100022809D16868C00306D42868800780
:1007700014D52069012808D110E02069B0B1C6F86D
:100780000090FFF72FFE074605E00AE1FFF72AFE7B
:10079000C01B0228C4D828688007F7D5286861697B
:1007A00020F0F80040EAC10028600DE0C6F80080A3
:1007B000FFF718FE074604E0FFF714FEC01B0228EF
:1007C00023D828688007F7D4207800072CD57948EB
:1007D000A169D9B1C0F80090FFF704FE074604E014
:1007E000FFF700FEC01B02280FD8686A8007F7D504
:1007F00071484FF4FA510068B0FBF1F0009000BF6F
:100800000098411E0091FAD20EE080E0C0F800800E
:10081000FFF7E8FD074604E0FFF7E4FDC01B0228F0
:1008200075D8686A8007F7D42078400760D5E869F2
:100830000027C00008D4E86940F08050E861E8690A
:10084000012700F0805000905C480168C90513D46E
:100850000168834641F480710160FFF7C3FD824661
:1008600006E000BFFFF7BEFDA0EB0A0064284ED8EB
:10087000DBF80000C005F5D5E06801280AD008B112
:10088000052813D0286A20F001002862286A20F089
:10089000040002E0286A40F001002862E06841F2AA
:1008A000883B98B1FFF79EFD82460BE0286A40F036
:1008B00004002862EEE700BFFFF794FDA0EB0A01F9
:1008C00059455AD8286A8007F6D50CE0FFF78AFD0B
:1008D000824605E0FFF786FDA0EB0A0159454CD89A
:1008E000286A8007F6D41FB1E86920F08050E861DB
:1008F000E06988B36968C1F38101022944D0022804
:10090000C6F8608004D0FFF76DFD044638E034E09F
:10091000FFF768FD074604E0FFF764FDC01B0228EF
:100920002BD828688001F7D4206AB0F5803F05D124
:100930006868A16820F4003008436860D4E90801C1
:100940000843696821F4741108436860C6F8609030
:10095000FFF748FD044606E025E000BFFFF742FD33
:10096000001B022809D828688001F7D51BE000BFCA
:10097000FFF738FD001B022802D90320BDE8F88FDD
:1009800028688001F4D40EE00128F7D06868226A54
:1009900000F48031914204D1616A00F47010884201
:1009A00001D00120EAE70020E8E700000010024043
:1009B00000004242800442420C00002000700040CF
:1009C00010B5401EB0F1807F01D3012010BD4FF063
:1009D000E02460610F21601700F08DF90020A06114
:1009E00007202061002010BD70B5040004D094F8E9
:1009F0004100002510B106E0012070BD84F8405090
:100A0000204600F023F8242084F841002068C168C3
:100A100021F40051C160204600F010F920680169FE
:100A200021F4904101612068416921F02A0141616E
:100A30002068C16841F40051C1606564202084F8D9
:100A4000410084F842006563002070BD194810B56C
:100A5000816986B041F480418161816901F48041FE
:100A60000491816941F004018161816901F004010F
:100A70000491816941F00401816180690E4C00F0AC
:100A8000040004904FF400700090022001900120B7
:100A900002900320039069462046FFF7A1FB201532
:100AA00000900020019069462046FFF799FB06B0B0
:100AB00010BD00000010024000080140FEE70000E9
:100AC000044A034B1360C2E901011046FFF790BCD2
:100AD0000030004058000020124800B5816985B000
:100AE00041F004018161816901F00401049181698F
:100AF00041F0100181618069002100F01000049034
:100B00000120CDE90001029169460748FFF768FB23
:100B10004FF40050009069460448FFF761FB05B0B0
:100B200000BD00000010024000080140001001401C
:100B300070B50C460546FFF74FFC012801D0002098
:100B400070BD21462846FFF747FC0128F9D0012057
:100B500070BD0000F0B51C4885B0816941F0080106
:100B60008161816901F008010491816941F0080106
:100B70008161816901F008010491816941F00801F6
:100B800081618069012400F0080004900320202680
:100B9000CDE90240CDE900640C4F69463846FFF7C5
:100BA0001FFB694638460094FFF71AFB0225694689
:100BB00038460095FFF714FB0448103006600460C7
:100BC000056005B0F0BD000000100240000C0140BF
:100BD000FEE7FEE770477047FFF73EBC30B58FB0C9
:100BE00028216846FFF7C7FA14210AA8FFF7C3FABD
:100BF00001210804CDE9001000240294022504918B
:100C0000CDE907504FF4E01009906846FFF748FD22
:100C100008B172B6FEE70F20CDE90A054FF48060F7
:100C2000CDE90C4002210AA80E94FFF75DFC0028D4
:100C300001D072B6FEE70FB030BD704770B5044604
:100C400000680169E26821F44051114301612169A2
:100C5000A0680843616908432168CA6841F20C63CF
:100C60009A430243CA6020684169A26921F4407135
:100C7000114341611E492068884202D1FFF7DAFC26
:100C800001E0FFF7C7FC00EBC00101EB0012606858
:100C900064218000B2FBF0F3B3FBF1F36FF01806B0
:100CA0007343B2FBF0F5B2FBF0F605EB830532239C
:100CB00003EB0515B5FBF1F5B6FBF1F605F0F00514
:100CC00005EB0615B2FBF0F6B2FBF0F0B0FBF1F06D
:100CD0006FF01802504306EB800003EB0010B0FBEE
:100CE000F1F0216800F00F002844886070BD00001A
:100CF00000380140FEE70907090E002804DB00F177
:100D0000E02080F80014704700F00F0000F1E020B0
:100D100080F8141D704702E008C8121F08C1002A9D
:100D2000FAD170477047002001E001C1121F002A6C
:100D3000FBD17047FFF752FFFFF70CFFFFF73AFABE
:100D4000FFF7CAFE40F271210420FFF7B9FE0C4CF8
:100D50004FF4001020600120206002252560DFF89C
:100D600024802026070401214046FFF7E1FE0128E8
:100D7000F9D10548FFF769FB266027602560F2E797
:100D8000100C01400008014058000020010202033D
:100D90000405060708090A0B0C0D0E0F10100000C1
:100DA000000000000000010203040607080900001B
:100DB0000000010203040000D80D0008000000201C
:100DC00010000000160D0008E80D000810000020BB
:100DD00058040000260D000801000000100000006B
:080DE000000000000024F400F3
:0400000508000131BD
:00000001FF
