:020000040800F2
:10000000D0050020450100087B100008FB0F000808
:10001000791000080702000805140008000000001D
:100020000000000000000000000000007F10000839
:1000300009020008000000007D100008811000087F
:100040005F0100085F0100085F0100085F01000810
:100050005F0100085F0100085F0100085F01000800
:100060005F0100085F0100085F0100085F010008F0
:100070005F0100085F0100085F0100085F010008E0
:100080005F0100085F0100085F0100085F010008D0
:100090005F0100085F0100085F0100085F010008C0
:1000A0005F0100085F0100085F0100085F010008B0
:1000B0005F010008E51000085F0100085F0100080B
:1000C0005F0100085F0100085F0100085F01000890
:1000D0005F0100085F0100085F0100085F01000880
:1000E0005F0100085F0100085F0100085F01000870
:1000F0005F0100085F0100085F0100085F01000860
:100100005F0100085F0100085F0100085F0100084F
:100110005F0100085F0100085F0100085F0100083F
:100120005F0100085F0100085F0100085F0100082F
:10013000DFF80CD000F02AF800480047451400080A
:10014000D00500200648804706480047FEE7FEE746
:10015000FEE7FEE7FEE7FEE7FEE7FEE7FEE7FEE777
:10016000E310000831010008D2B201E000F8012BD1
:10017000491EFBD270470022F6E710B513460A4627
:1001800004461946FFF7F0FF204610BD064C074D08
:1001900006E0E06840F0010394E807009847103457
:1001A000AC42F6D3FFF7C8FFD8140008F8140008D3
:1001B00070B58C1810F8015B15F0070301D110F829
:1001C000013B2A1106D110F8012B03E010F8016B56
:1001D00001F8016B5B1EF9D12B0705D40023521ED9
:1001E0000DD401F8013BFAE710F8013BCB1A921C41
:1001F00003E013F8015B01F8015B521EF9D5A1423F
:10020000D8D3002070BDFEE7704701B5009801E02B
:10021000401E00900028FBD108BD00002DE9F84FDA
:10022000DFF8C8910024A9F1040B23460F2709F138
:10023000040AABF1040ED1E00125A54006EA05024F
:10024000AA4276D1DFF8A8C14E68A6EB0C08664535
:100250002BD00DDC032E34D005DC36B3012E19D0A3
:10026000022E2FD11BE0112E16D0122E2AD119E00A
:10027000B8F5881F19D006DCB8F5803F15D0B8F561
:10028000801F1FD111E0B8F5001F0ED0B8F5041F74
:1002900018D10AE0CB6815E0CB681B1D12E0CB68D3
:1002A00008330FE0CB680C330CE08B682BB1012BCB
:1002B0004FF0080303D0456104E0042302E0056128
:1002C00000E00023FF2A01D8064601E000F1040601
:1002D0004FEA840501D9A5F12005D6F8008007FA78
:1002E00005FC28EA0C0803FA05F548EA0508C6F8F3
:1002F00000804D68ED0070D53E4DAE6946F00106B8
:10030000AE61AD6924F0030605F0010500953A4D94
:1003100006EB050CDCF80850A607360F07FA06F8BE
:1003200025EA0805DFF8D480404503D14FF00008E6
:1003300025E052E0DFF8C880404502D14FF00108C7
:100340001DE0DFF8C080404502D14FF0020816E002
:10035000DFF8B480404502D14FF003080FE0DFF82A
:10036000AC80404502D14FF0040808E0DFF8A080DF
:10037000404502D14FF0050801E04FF0060808FAA9
:1003800006F848EA0508CCF808804D68D9F80060FE
:10039000ED024D4601D5164300E096432E604D68B0
:1003A000DAF80060AD02554601D5164300E09643E9
:1003B0002E604D68DBF80060AD035D4601D5164345
:1003C00000E096432E604D68DEF80060ED03754650
:1003D00001D5164300E096432E60641C0A68164659
:1003E000E2407FF429AFBDE8F88F00000804014027
:1003F0000000111000100240000001400008014000
:10040000000C0140001001400014014000180140A0
:10041000001C014001488068704700007401002002
:10042000024881680278114481607047740100209D
:1004300070B50D4D04464FF47A712878B1FBF0F099
:100440000A490968B1FBF0F000F08CFA48B9102CA9
:1004500007D200222146501E00F018F800206C60E0
:1004600070BD012070BD00007401002080010020DB
:10047000002809DB00F01F020121914040098000A3
:1004800000F1E020C0F8001170470000F0B40E4BFE
:100490001B680C46C3F30223C3F10705042D00D9E2
:1004A0000425191D072901D2002300E0DB1E0126C7
:1004B00006FA05F1491E214099409E40761E1640DD
:1004C0003143F0BC00F09FBF0CED00E02DE9F04798
:1004D0000F46050061D0434E306800F00700B84277
:1004E00009D2306820F0070038433060306800F0EF
:1004F0000700B84251D128683B4C810712D540070C
:1005000003D5606840F4E06060602878000703D598
:10051000606840F4605060606068A96820F0F00096
:10052000084360602878C00728D06868012810D088
:100530002168022810D0890700292EDA616821F08D
:10054000030101436160FFF765FF804641F288398E
:100550000DE021688903EFE78901EDE7FFF75AFF16
:10056000A0EB0801494502D90320BDE8F087606887
:10057000696800F00C00B0EB810FEFD1306800F03B
:100580000700B8420BD9306820F0070038433060CC
:10059000306800F00700B84201D00120E5E7287874
:1005A000400705D56068E96820F4E06008436060B2
:1005B0002878000706D56068296920F4605040EA71
:1005C000C100606000F018F86168084AC1F30311C7
:1005D000515CC8400649086006480068FFF728FFDC
:1005E0000020C2E70020024000100240C6140008AC
:1005F00080010020780100200E4A51680E4801F069
:100600000C03042B11D0082B0FD10C48C1F38343EA
:10061000C903C05C0AD55168084AC1F34041921E23
:10062000515C054A5043B0FBF1F070470449484320
:10063000704700000010024000127A00B614000853
:1006400000093D002DE9F84F040070D02078C04D1E
:10065000C00749D06868C0F38100012807D06868E6
:10066000C0F38100022809D16868C00306D5286854
:10067000800339D560680028E7D035E06068B0F5C0
:10068000803F0BD010B1B0F5A02F11D0286820F416
:1006900080302860286820F4802002E0286840F438
:1006A00080302860606890B1FFF7B4FE06460AE02B
:1006B000286840F480202860F0E700BFFFF7AAFE1A
:1006C000801B642873D828688003F7D50CE0FFF7F7
:1006D000A1FE064605E000BFFFF79CFE801B6428D4
:1006E000F0D828688003F7D420789A4E80074FF01E
:1006F00001094FF0000839D5686810F00C0F07D0D9
:100700006868C0F38100022809D16868C00306D474
:100710002868800714D52069012808D110E02069D5
:10072000B0B1C6F80090FFF775FE074605E00AE194
:10073000FFF770FEC01B0228C4D828688007F7D5D1
:100740002868616920F0F80040EAC10028600DE0E7
:10075000C6F80080FFF75EFE074604E0FFF75AFE8A
:10076000C01B022823D828688007F7D42078000708
:100770002CD57948A169D9B1C0F80090FFF74AFE9D
:10078000074604E0FFF746FEC01B02280FD8686A40
:100790008007F7D571484FF4FA510068B0FBF1F0CB
:1007A000009000BF0098411E0091FAD20EE080E058
:1007B000C0F80080FFF72EFE074604E0FFF72AFE90
:1007C000C01B022875D8686A8007F7D420784007D4
:1007D00060D5E8690027C00008D4E86940F080507F
:1007E000E861E869012700F0805000905C480168EA
:1007F000C90513D40168834641F480710160FFF795
:1008000009FE824606E000BFFFF704FEA0EB0A00E7
:1008100064284ED8DBF80000C005F5D5E068012853
:100820000AD008B1052813D0286A20F001002862F8
:10083000286A20F0040002E0286A40F001002862E3
:10084000E06841F2883B98B1FFF7E4FD82460BE097
:10085000286A40F004002862EEE700BFFFF7DAFDE7
:10086000A0EB0A0159455AD8286A8007F6D50CE052
:10087000FFF7D0FD824605E0FFF7CCFDA0EB0A01B3
:1008800059454CD8286A8007F6D41FB1E86920F092
:100890008050E861E06988B36968C1F38101022989
:1008A00044D00228C6F8608004D0FFF7B3FD0446A8
:1008B00038E034E0FFF7AEFD074604E0FFF7AAFD9D
:1008C000C01B02282BD828688001F7D4206AB0F515
:1008D000803F05D16868A16820F400300843686053
:1008E000D4E908010843696821F474110843686079
:1008F000C6F86090FFF78EFD044606E025E000BFD5
:10090000FFF788FD001B022809D828688001F7D569
:100910001BE000BFFFF77EFD001B022802D9032069
:10092000BDE8F88F28688001F4D40EE00128F7D0E4
:100930006868226A00F48031914204D1616A00F44F
:100940007010884201D00120EAE70020E8E70000AB
:100950000010024000004242800442428001002018
:100960000070004010B5401EB0F1807F01D301201F
:1009700010BD4FF0E02460610F21601700F043FDCF
:100980000020A06107202061002010BD7047704743
:1009900070B590F83C20012A2CD0012480F83C400E
:1009A000022280F83D2003685A689D6822F0700694
:1009B0000A6832435A60104B02689A420ED00F4BBD
:1009C0009A420BD0B2F1804F08D00D4B9A4205D01D
:1009D0000C4B9A4202D00C4B9A4204D1496825F044
:1009E00080031943916080F83D40002180F83C105D
:1009F000084670BD022070BD002C0140003401404B
:100A00000004004000080040000C004010B5040045
:100A100003D094F83D0010B107E0012010BD002084
:100A200084F83C00204600F01FF8022084F83D00C6
:100A3000211D206800F05CFB012084F8460084F84A
:100A40003E0084F83F0084F8400084F8410084F8B8
:100A5000420084F8430084F8440084F8450084F898
:100A60003D00002010BD0000124808B5816941F02A
:100A700001018161816901F0010100910E494A681B
:100A800022F4406242F0E06242F400624A60C169CE
:100A900041F00201C161C069002200F00200009033
:100AA00011461D20FFF7F2FCBDE808401D20FFF7AE
:100AB000DFBC0000001002400000014090F83D1033
:100AC000012901D001207047022180F83D10016802
:100AD000CA6842F00102CA6000680E4988420ED01E
:100AE0000D4988420BD0B0F1804F08D00B498842A5
:100AF00005D00B49884202D00A49884204D1816856
:100B000001F00701062903D0016841F001010160ED
:100B100000207047002C01400034014000040040D8
:100B200000080040000C004070B5044690F83C00FE
:100B30000025012817D0012684F83C60022084F8A3
:100B40003D002068826822F0770222F47F428260B2
:100B50000868502838D00DDC20284FD005DC90B331
:100B6000102811D14AE0022070BD302846D040281C
:100B70000AD13BE060282FD070280DD0B0F5805FFF
:100B800003D0B0F5005F12D0012584F83D6000204D
:100B900084F83C00284670BDCB68D1E9012120686B
:100BA00000F0F9FA2068816841F0770109E0CB682C
:100BB000D1E90121206800F0EEFA2068816841F453
:100BC00080418160E1E719E0CA684968206800F067
:100BD000B7FB5021206806E0CA684968206800F029
:100BE000C0FB6021206800F0E0FACEE7CA684968DF
:100BF000206800F0A5FB40212068F4E72268014648
:100C00001046F0E7704770B50446006801694FF080
:100C10000005C943890715D4C168C943890711D4A0
:100C2000E91E016101202077206880698007204645
:100C300002D0FFF7E7FF04E000F0CAF8204600F01A
:100C40002EF9257720680169C943490717D4C1687F
:100C5000C943490713D46FF00401016102202077D2
:100C60002068806910F4407F204602D0FFF7CAFF59
:100C700004E000F0ADF8204600F011F92577206877
:100C80000169C943090716D4C168C943090712D4C9
:100C90006FF008010161042020772068C069800797
:100CA000204602D0FFF7AEFF04E000F091F82046A6
:100CB00000F0F5F8257720680169C943C90617D403
:100CC000C168C943C90613D46FF01001016108203F
:100CD00020772068C06910F4407F204602D0FFF7DB
:100CE00091FF04E000F074F8204600F0D8F8257772
:100CF00020680169C943C90708D1C168C943C90748
:100D000004D1891E0161204600F024F920680169A0
:100D1000C943090609D4C168C943090605D46FF05F
:100D2000800101612046FFF731FE20680169C94357
:100D3000490609D4C168C943490605D46FF040018A
:100D40000161204600F058F920680169C94389060D
:100D50000BD4C168C943890607D46FF02001016133
:100D60002046BDE87040FFF712BE70BD2DE9F0418E
:100D7000154886B0816941F00801816180690127C9
:100D800000F0080003260097CDE90360DFF83C80FF
:100D90000224002569464046CDE90145FFF73EFAA9
:100DA00001AA009782E8700069464046FFF736FACC
:100DB000CDE902560194694640460094FFF72EFAA9
:100DC00006B0BDE8F081000000100240000C0140B8
:100DD000704770B5044690F83C0000260D46012887
:100DE0000FD0012084F83C006AB1042A1DD0082AE3
:100DF0002FD00C2A3FD00126002084F83C0030463A
:100E000070BD022070BD206800F0D8F920688169AB
:100E100041F0080181612068816921F0040181614C
:100E2000206881692A69114311E0206800F0F6F911
:100E30002068816941F4006181612068816921F441
:100E400080618161206881692A6941EA02218161AA
:100E5000D2E7206800F018FA2068C16941F0080163
:100E6000C1612068C16921F00401C1612068C169C4
:100E70002A69114311E0206800F03AFA2068C1693C
:100E800041F40061C1612068C16921F48061C161E0
:100E90002068C1692A6941EA0221C161ACE7704753
:100EA00010B50446022249B104290ED0082913D0F6
:100EB00094F84100012816D0012010BD94F83E009E
:100EC0000128F9D184F83E200FE094F83F00012872
:100ED000F2D184F83F2008E094F840000128EBD1DB
:100EE00084F8402001E084F841200122206800F0CD
:100EF00045F913492068134A884201D0904203D132
:100F0000436C43F400434364206888420DD0904210
:100F10000BD0B0F1804F08D00B49884205D00B4967
:100F2000884202D00A49884204D1816801F0070151
:100F3000062903D0016841F001010160002010BDC5
:100F4000002C014000340140000400400008004033
:100F5000000C004070B52248224C00228188491CB8
:100F60008BB2014683800988FF2B15D943885B1C0F
:100F70009BB24380142B0DD334F811301A4C2468E3
:100F8000E363491C194B89B201801B88994200D345
:100F900002804280828070BD15480568C5F307460F
:100FA000144D9E4203D334F811602E6000E02A6095
:100FB0000568C5F307260F4D2D1D9E4203D334F857
:100FC00011602E6000E02A600068C5B20948083050
:100FD0009D4203D334F81110016070BD026070BDF2
:100FE000040000200A00002084010020720100207B
:100FF00000000020380400407047FEE7F0B51C48B0
:1010000085B0816941F008018161816901F00801C1
:101010000491816941F008018161816901F0080151
:101020000491816941F0080181618069012400F027
:101030000800049003202026CDE90240CDE9006499
:101040000C4F69463846FFF7E9F869463846009480
:10105000FFF7E4F80225694638460095FFF7DEF809
:101060000448103006600460056005B0F0BD000063
:1010700000100240000C0140FEE7FEE77047704799
:10108000FFF7CEB930B58FB028216846FFF773F867
:1010900014210AA8FFF76FF801210804CDE9001018
:1010A0000024029402250491CDE907504FF4E0108A
:1010B00009906846FFF7C6FA08B172B6FEE70F203E
:1010C000CDE90A054FF48060CDE90C4002210AA861
:1010D0000E94FFF7FBF9002801D072B6FEE70FB0BF
:1010E00030BD70470148FFF78EBD0000840100202D
:1010F000F0B502681C4B1D4D1D4E1E4F1E4C4FF08F
:10110000804C984209D0A04207D0604505D0A84243
:1011100003D0B04201D0B84204D122F0700E4A6828
:1011200042EA0E02984209D0A04207D0604505D09D
:10113000A84203D0B04201D0B84203D122F4407596
:10114000CA682A434D6922F080022A4302608A68F5
:10115000C2620A688262984201D0A04201D1096944
:10116000016301214161F0BD002C014000040040F9
:1011700000080040000C00400034014010B501F0B0
:101180001F030121046A99408C430462016A9A405A
:101190001143016210BD10B5846842EA032224F4B1
:1011A0007F440A432243826010BD826822F07002AD
:1011B0000A4342F00701816070470000F0B5036AFE
:1011C000026A22F00102026242688469124E24F02F
:1011D00073050C682C4323F002058B682B430D4DDF
:1011E000A84201D0B04205D123F00807CB683B43A9
:1011F00023F00403A84201D0B04205D14D6922F486
:10120000407215438A692A43426084614968416398
:101210000362F0BD002C014000340140F0B5026AC9
:10122000036A23F010030362436884690D6824F4A1
:10123000E64444EA05248D6822F0200242EA0512C1
:101240000F4D104EA84201D0B04206D1CF6822F017
:10125000800242EA071222F04002A84201D0B042C6
:1012600007D14D6923F4406343EA85038D6943EA5E
:10127000850343608461496881630262F0BD0000B8
:10128000002C014000340140F0B5026A036A23F4E7
:10129000807303624368C46922F4007224F073050A
:1012A0000C68124E2C438D6842EA05220E4DA8426E
:1012B00001D0B04206D1CF6822F4006242EA072290
:1012C00022F48062A84201D0B04207D14D6923F4D4
:1012D000405343EA05138D6943EA05134360C46133
:1012E0004968C1630262F0BD002C01400034014036
:1012F00030B5046A026A22F4805202624268C3690D
:101300000D6823F4E64343EA05238D6824F4005472
:1013100044EA0534084DA84202D0084DA84204D141
:101320004D6922F4804242EA85124260C3614968F5
:101330000164046230BD0000002C01400034014013
:1013400010B5036A046A24F001040462846924F07D
:10135000F00444EA021423F00A020A4384610262A0
:1013600010BD10B5036A046A24F010040462846995
:1013700023F0A00324F4704444EA023243EA01114A
:101380008261016210BD000010B51C488EB01A4980
:1013900001600921416040F2FF110024C0E90314FB
:1013A0008460FFF733FB4FF48050079007A9134880
:1013B000FFF7BAFB0B940BA910480C94FFF7E8FA5F
:1013C000602000900E480294049400880190082246
:1013D00069460A48FFF7FDFC042269460748FFF703
:1013E000F8FC0C2269460548FFF7F3FC0348FFF7B9
:1013F000BDFC0EB010BD00000004004084010020C0
:101400000A000020FEE70907090E002804DB00F1AE
:10141000E02080F80014704700F00F0000F1E02099
:1014200080F8141D704702E008C8121F08C1002A86
:10143000FAD170477047002001E001C1121F002A55
:10144000FBD17047FFF71EFEFFF7D8FDFFF79CFFAB
:101450001348FFF733FB08211148FFF721FD042152
:101460000F48FFF71DFD0C210D48FFF719FD0D4931
:101470000D4D0E4E0E4F4FF0FF146FF060420C609A
:101480001046FEF7C2FE0D601046FEF7BEFE0E606F
:101490001046FEF7BAFE0F601046FEF7B6FEEEE706
:1014A0008401002000000020FF8080000080FF00F9
:1014B0000EC9FF00010202030405060708090A0B12
:1014C0000C0D0E0F101000000000000000000102C3
:1014D0000304060708090000F814000800000020B3
:1014E00084010000B00100080016000884010020FB
:1014F0004C0400003614000812FF12FF52019A013A
:1015000002DA02025A03025A04023A05021A0602D9
:101510001A07021A08021A0902120A120B1A0C02FE
:10152000120D120E120F12111212121312141216A1
:1015300012171219121B121D121F12211224122629
:101540001229122C122F12331236123A123F124362
:101550001248124D12531259125F1266126E127512
:10156000127E12871291129C12A712B312C012CED1
:1015700012DD12ED12FE3812100124013901500162
:10158000690183019F01BD01DDA71ADD0A1A9F12BF
:101590001A691A1A39221C1001FE2E1ADD361AC0D9
:1015A0003E1AA7461A914E1A7E561A6E5E1A5F664A
:1015B0001A536E1A48761A3F7E1A36861A2F8E1ADA
:1015C00029961A249E1A1FA61A1BAE1A17B61A14A9
:1015D000BE1A12C61A0FCE3A0DD81A0BE229E82904
:1015E000F029F81A06023A05025A04025A030219AF
:1015F00099B9029A01021AB4042182101324F4004A
:0400000508000131BD
:00000001FF
