:020000040800F2
:10000000B804002045010008AB160008AF15000831
:10001000A91600089F09000839190008000000000F
:100020000000000000000000000000008917000828
:10003000C909000800000000AD1600088B17000871
:100040005F0100085F0100085F0100085F01000810
:100050005F0100085F0100085F0100085F01000800
:100060005F0100085F0100085F0100085F010008F0
:100070005F0100085F0100085F0100085F010008E0
:100080005F0100085F0100085F0100085F010008D0
:100090005F0100085F0100085F0100085F010008C0
:1000A0005F0100085F0100085F0100085F010008B0
:1000B0005F0100085F0100085F0100085F010008A0
:1000C0005F0100085F0100085F0100085F01000890
:1000D0005F010008211900085F0100085F010008A6
:1000E0005F0100085F0100085F0100085F01000870
:1000F0005F0100085F0100085F0100085F01000860
:100100005F0100085F0100085F0100085F0100084F
:100110005F0100085F0100085F0100085F0100083F
:100120005F0100085F0100085F0100085F0100082F
:10013000DFF80CD000F0F8FA00480047552200081C
:10014000B80400200648804706480047FEE7FEE75F
:10015000FEE7FEE7FEE7FEE7FEE7FEE7FEE7FEE777
:10016000ED17000831010008202A04DB203A21FAAB
:1001700002F00021704721FA02F3D040C2F12002C0
:100180009140084319467047D2B201E000F8012BB4
:10019000491EFBD270470022F6E710B513460A4607
:1001A00004461946FFF7F0FF204610BD80EA010221
:1001B00010B502F00043400022D04A001FD0010ECB
:1001C00001EB1261C0F35600C2F3560240F4000086
:1001D00042F40002A0FB022000047F39140400D086
:1001E000401C50EA124001D44000491EC2B20C0625
:1001F00004EBD010401C4008802A02D003E000200D
:1002000010BD20F00100002900DA0020184310BDC5
:1002100030B480EA010202F0004530F0004221F0E3
:10022000004013D090B1C30DD40DC2F31601C0F33A
:100230001600E41A41F4000140F400027D349142BA
:1002400001D3641C00E04900002C02DA30BC00201D
:1002500070474FF400000023914201D3891A0343F1
:1002600040084FEA4101F7D151B1914202D14FF01C
:10027000004105E002D24FF0010101E06FF0010101
:1002800003EBC450284430BC00F05FB89623002232
:10029000114600F063B800F0004230F000400AD090
:1002A000C10D01F56071C0F3160042EA0151C208A8
:1002B00040071143704700200146704730B50B4698
:1002C000014600202022012409E021FA02F59D4286
:1002D00005D303FA02F5491B04FA02F52844151E5A
:1002E000A2F10102F1DC30BD2DE9F05F05460020EE
:1002F00092469B4688460646814640241BE0284697
:10030000414647462246FFF72FFF53465A46C01A3A
:10031000914110D311461846224600F017FA2D1AC3
:1003200067EB01084F4622460120002100F00EFA3B
:1003300017EB00094E41201EA4F10104DFDC484602
:1003400031462A464346BDE8F09F0029A8BF7047C2
:10035000401C490008BF20F00100704710B4B0FAFB
:1003600080FC00FA0CF050EA010404BF10BC704796
:1003700049B1CCF1200421FA04F411FA0CF118BFB0
:10038000012121430843A3EB0C01CB1D4FEA00617F
:100390004FEA102042BF002010BC704700EBC35052
:1003A00010440029A4BF10BC7047401C490008BF7E
:1003B00020F0010010BC70472DE9FE4F804681EA15
:1003C0000300C00F0C46009021F0004123F00045CF
:1003D000B8EB0200A94105D24046214690461C4692
:1003E0000B46024623F00040104347D0270DC7F3C9
:1003F0000A00C3F30A510290401A019040286BDAB8
:10040000C3F3130040F4801B0098924620B10023F0
:10041000D2EB030A63EB0B0B01985946C0F1400283
:10042000504600F093F906460D4650465946019A4B
:1004300000F09BF910EB08006141002487EA11529B
:1004400084EAE7731A4340D0009A62B3019A012A02
:100450004FEA075215DC001B61EB02014FF000422E
:1004600002EA0752CDE90042001C41F580113246F4
:100470002B4600F09BF903B0BDE8F08F40462146C3
:10048000F9E7001B61EB0201001C41F58013001825
:100490005B412018A2F5001747EB030140EAD57035
:1004A000B6196D4111E06D084FEA360645EAC07590
:1004B0004FEA0752001B61EB0201001C41F580115D
:1004C00049084FEA30000019514132462B4603B02B
:1004D000BDE8F04F00F05BB9009801224000002316
:1004E000D0EB020263EBE073009821464FEAE07420
:1004F000B8EB000061EB0401E9E783F000435BE740
:1005000081F0004158E72DE9FE4F81EA030404F031
:10051000004421F0004100944FF0000B23F0004311
:1005200050EA01045ED052EA03045BD0C3F30A54DC
:10053000C1F30A552C44A4F2F3340194A0FB0254F5
:10054000C1F3130141F48011C3F3130343F4801387
:1005500001FB024400FB034E840A970A44EA8154DB
:1005600047EA8357A4FB076802958D0A05FB0785B8
:100570004FEA932C04FB0C542705029D4FEA0658C2
:1005800047EA1637B5EB08056EEB070C870E920E9F
:1005900047EA811742EA8312A7FB0201B6EB0B017F
:1005A00064EB00042B0D43EA0C335E1844EB1C5043
:1005B000DA465146E7FB0201C5F313044FEA0B3359
:1005C00043EA14534FEA0432019C43EA0603A4F1C0
:1005D0000C040294009CCDE900B400F0E7F803B0ED
:1005E000BDE8F08F00200146F9E72DE9F04D81EAE2
:1005F000030404F0004B21F0004514464FF0000ABC
:1006000023F0004150EA050220D054EA01021DD037
:10061000C5F30A570246C5F31303C1F31300C1F330
:100620000A5640F4801543F48013A7EB0608101B0C
:10063000D64608F2FD3873EB050002D308F1010835
:1006400001E092185B41B8F1000F03DA0020014687
:10065000BDE8F08D00204FF48011064684460EE080
:10066000171B73EB050705D3121B63EB050306434A
:100670004CEA010C49084FEA300092185B4150EAFD
:100680000107EDD152EA030012D082EA040083EAA6
:100690000501084305D0101BAB4106D201220023FF
:1006A00006E000224FF0004302E06FF00102531019
:1006B0001AEB06004CEB085110EB0A0041EB0B0162
:1006C000BDE8F04D00F063B8C1F30A52C1F3130165
:1006D00040F2FF3341F480119A4202DA00200146D1
:1006E000704740F233439A42A2F2334202DC524254
:1006F000FFF73ABD00F02AB830B5041E71F10004CE
:1007000004DB4FF00044404264EB0101141E73F11E
:10071000000405DB1C464FF00043524263EB040328
:10072000994208BF904230BD064C074D06E0E06894
:1007300040F0010394E8070098471034AC42F6D328
:10074000FFF7FAFC5C2400087C240008202A04DB64
:10075000203A00FA02F1002070479140C2F12003D4
:1007600020FA03F3194390407047202A06DBCB1789
:10077000203A41FA02F043EAE07306E041FA02F35C
:10078000D040C2F12002914008431946704710B58D
:10079000141E73F1000408DA401C41F100019218A4
:1007A0005B411A4301D120F0010010BD2DE9F04D4D
:1007B00092469B4611B1B1FA81F202E0B0FA80F2A2
:1007C00020329046FFF7C2FF04460F4640EA0A0077
:1007D00041EA0B0153465A46084313D0114653EAE7
:1007E000010019D0C8F140025046FFF7BDFC054694
:1007F0000E46504659464246FFF7A8FF084305D02B
:10080000012004E020463946BDE8F08D0020054374
:1008100046EAE0762C4337430A986305E40AA0EBE6
:1008200008000022FD0A44EA47540A3002D500209D
:100830000146E9E7010510196941DDE9084500199C
:100840006941BDE8F04DA2E72DE9F041244886B0AA
:10085000816941F480518161816901F48051049181
:10086000816941F00401816180692025022700240B
:100870000095CDE9017400F00400CDE90370DFF8C4
:1008800064806946404600F0B3F8C020CDE9000717
:10089000CDE902476946404600F0AAF8102001263B
:1008A000CDE90006CDE902476946404600F0A0F8D0
:1008B0000E480D4901604FF482714160A902C0E900
:1008C000021489118161C0E90446C0E90754072177
:1008D0004462C0E90A4100F08DFC06B0BDE8F08139
:1008E0000010024000080140003001405C00002080
:1008F00070B5FFF7A9FF0D4D4FF4004400222146CB
:10090000284600F076F9052000F060F80122214623
:10091000284600F06EF9052000F058F800F00FF8B6
:10092000BDE870400121084600F002B8000801400F
:1009300040EAC100C2B20921052000F005B800223A
:1009400009210620AFF3008038B5002341EA0010EA
:1009500000938DF80000100A8DF801000B4C8DF803
:1009600002201A461021204600F043F901F05FFCF6
:100970000F2303226946064800F096FC01F057FC5D
:1009800001221021204600F034F938BD0008014052
:100990005C0000200A4601460320FFF7D5BFFEE7B2
:1009A0000848074901604FF4E1314160002181604E
:1009B000C160016181610C21416100F040BD000016
:1009C00000380140140000207047000070B5044654
:1009D00000F014F90546601C02D004480078044475
:1009E00000F00CF9401BA042FAD370BD00000020BB
:1009F0002DE9F84FDFF8C8910024A9F1040B234634
:100A00000F2709F1040AABF1040ED1E00125A5403E
:100A100006EA0502AA4276D1DFF8A8C14E68A6EB25
:100A20000C0866452BD00DDC032E34D005DC36B324
:100A3000012E19D0022E2FD11BE0112E16D0122E0E
:100A40002AD119E0B8F5881F19D006DCB8F5803F27
:100A500015D0B8F5801F1FD111E0B8F5001F0ED0DA
:100A6000B8F5041F18D10AE0CB6815E0CB681B1D50
:100A700012E0CB6808330FE0CB680C330CE08B68D6
:100A80002BB1012B4FF0080303D0456104E0042390
:100A900002E0056100E00023FF2A01D8064601E0DC
:100AA00000F104064FEA840501D9A5F12005D6F826
:100AB000008007FA05FC28EA0C0803FA05F548EA65
:100AC0000508C6F800804D68ED0070D53E4DAE6952
:100AD00046F00106AE61AD6924F0030605F001059C
:100AE00000953A4D06EB050CDCF80850A607360FCA
:100AF00007FA06F825EA0805DFF8D480404503D157
:100B00004FF0000825E052E0DFF8C880404502D1F0
:100B10004FF001081DE0DFF8C080404502D14FF0E2
:100B2000020816E0DFF8B480404502D14FF0030818
:100B30000FE0DFF8AC80404502D14FF0040808E038
:100B4000DFF8A080404502D14FF0050801E04FF0EA
:100B5000060808FA06F848EA0508CCF808804D6847
:100B6000D9F80060ED024D4601D5164300E09643EA
:100B70002E604D68DAF80060AD02554601D5164387
:100B800000E096432E604D68DBF80060AD035D46E3
:100B900001D5164300E096432E604D68DEF80060F4
:100BA000ED03754601D5164300E096432E60641CA4
:100BB0000A681646E2407FF429AFBDE8F88F0000CE
:100BC0000804014000001110001002400000014024
:100BD00000080140000C01400010014000140140D9
:100BE00000180140001C01408068084000D001202E
:100BF00070470AB1016170470904FBE7014880684A
:100C0000704700000000002002488168027811440B
:100C10008160704700000020074810B5016841F06E
:100C200010010160032000F067F80F2000F006F8C3
:100C300000F024F8002010BD0020024070B50D4DDA
:100C400004464FF47A712878B1FBF0F00A4909683C
:100C5000B1FBF0F000F0DFFB48B9102C07D2002206
:100C60002146501E00F028F800206C6070BD012065
:100C700070BD0000000000200C0000200C4808B5EA
:100C8000816941F001018161816901F001010091F7
:100C9000C16941F08051C161C06900F0805000908D
:100CA0000448416821F0E06141F00071416008BDF5
:100CB0000010024000000140F0B40E4B1B680C46CF
:100CC000C3F30223C3F10705042D00D90425191D20
:100CD000072901D2002300E0DB1E012606FA05F1F8
:100CE000491E214099409E40761E16403143F0BC7B
:100CF00000F034BE0CED00E0064900F00702086881
:100D00004FF6FF03184040EA0220034A10430860F0
:100D1000704700000CED00E00000FA052DE9F047F7
:100D20000F46050061D0434E306800F00700B8421E
:100D300009D2306820F0070038433060306800F096
:100D40000700B84251D128683B4C810712D54007B3
:100D500003D5606840F4E06060602878000703D540
:100D6000606840F4605060606068A96820F0F0003E
:100D7000084360602878C00728D06868012810D030
:100D80002168022810D0890700292EDA616821F035
:100D9000030101436160FFF731FF804641F288396A
:100DA0000DE021688903EFE78901EDE7FFF726FFF2
:100DB000A0EB0801494502D90320BDE8F08760682F
:100DC000696800F00C00B0EB810FEFD1306800F0E3
:100DD0000700B8420BD9306820F007003843306074
:100DE000306800F00700B84201D00120E5E728781C
:100DF000400705D56068E96820F4E060084360605A
:100E00002878000706D56068296920F4605040EA18
:100E1000C100606000F038F86168084AC1F303114E
:100E2000515CC8400649086006480068FFF706FFA5
:100E30000020C2E7002002400010024042240008C7
:100E40000C0000200400002004480549006849689F
:100E5000044AC1F30221515CC84070470C000020D5
:100E600000100240522400080448054900684968FF
:100E7000044AC1F3C221515CC84070470C000020F5
:100E800000100240522400080E4A51680E4801F03A
:100E90000C03042B11D0082B0FD10C48C1F3834352
:100EA000C903C05C0AD55168084AC1F34041921E8B
:100EB000515C054A5043B0FBF1F070470449484388
:100EC000704700000010024000127A00322400082F
:100ED00000093D002DE9F84F040070D02078C04D86
:100EE000C00749D06868C0F38100012807D068684E
:100EF000C0F38100022809D16868C00306D52868BC
:100F0000800339D560680028E7D035E06068B0F527
:100F1000803F0BD010B1B0F5A02F11D0286820F47D
:100F200080302860286820F4802002E0286840F49F
:100F300080302860606890B1FFF760FE06460AE0E6
:100F4000286840F480202860F0E700BFFFF756FED5
:100F5000801B642873D828688003F7D50CE0FFF75E
:100F60004DFE064605E000BFFFF748FE801B6428E3
:100F7000F0D828688003F7D420789A4E80074FF085
:100F800001094FF0000839D5686810F00C0F07D040
:100F90006868C0F38100022809D16868C00306D4DC
:100FA0002868800714D52069012808D110E020693D
:100FB000B0B1C6F80090FFF721FE074605E00AE150
:100FC000FFF71CFEC01B0228C4D828688007F7D58D
:100FD0002868616920F0F80040EAC10028600DE04F
:100FE000C6F80080FFF70AFE074604E0FFF706FE9A
:100FF000C01B022823D828688007F7D42078000770
:101000002CD57948A169D9B1C0F80090FFF7F6FD59
:10101000074604E0FFF7F2FDC01B02280FD8686AFC
:101020008007F7D571484FF4FA510068B0FBF1F032
:10103000009000BF0098411E0091FAD20EE080E0BF
:10104000C0F80080FFF7DAFD074604E0FFF7D6FDA1
:10105000C01B022875D8686A8007F7D4207840073B
:1010600060D5E8690027C00008D4E86940F08050E6
:10107000E861E869012700F0805000905C48016851
:10108000C90513D40168834641F480710160FFF7FC
:10109000B5FD824606E000BFFFF7B0FDA0EB0A00F9
:1010A00064284ED8DBF80000C005F5D5E0680128BB
:1010B0000AD008B1052813D0286A20F00100286260
:1010C000286A20F0040002E0286A40F0010028624B
:1010D000E06841F2883B98B1FFF790FD82460BE053
:1010E000286A40F004002862EEE700BFFFF786FDA3
:1010F000A0EB0A0159455AD8286A8007F6D50CE0BA
:10110000FFF77CFD824605E0FFF778FDA0EB0A01C2
:1011100059454CD8286A8007F6D41FB1E86920F0F9
:101120008050E861E06988B36968C1F381010229F0
:1011300044D00228C6F8608004D0FFF75FFD044663
:1011400038E034E0FFF75AFD074604E0FFF756FDAC
:10115000C01B02282BD828688001F7D4206AB0F57C
:10116000803F05D16868A16820F4003008436860BA
:10117000D4E908010843696821F4741108436860E0
:10118000C6F86090FFF73AFD044606E025E000BF90
:10119000FFF734FD001B022809D828688001F7D525
:1011A0001BE000BFFFF72AFD001B022802D9032025
:1011B000BDE8F88F28688001F4D40EE00128F7D04C
:1011C0006868226A00F48031914204D1616A00F4B7
:1011D0007010884201D00120EAE70020E8E7000013
:1011E0000010024000004242800442420C000020F5
:1011F0000070004070B5040009D0606A002540B15D
:1012000025616561A56294F8510040B10CE00120B0
:1012100070BD6068B0F5827FF4D0E561F2E784F8D4
:101220005050204600F03FF8022084F8510020681A
:10123000016821F040010160A088218900F48270DA
:1012400001F404410843A18901F400610843217CB1
:1012500001F002010843217D01F001010843218BC7
:1012600001F400710843217F01F03801084394F82C
:10127000201001F080010843218D01F40051084342
:1012800021680860A069042101EA104021684860D3
:101290002068C16921F40061C1616565012084F89D
:1012A0005100002070BD70472DE9F84F044690F8BA
:1012B00050000026984615468A4601280CD0012782
:1012C00084F85070FFF79AFC814694F85100B346B9
:1012D000012804D002269AE00220BDE8F88FBAF176
:1012E000000F6FD0002D6DD0032084F85100C4F89A
:1012F00054B0C4F830A0A586E586C4F838B0A4F888
:101300003CB0A4F83EB0C4F844B0C4F840B0A06803
:10131000B0F5004F09D12068016821F0400101605B
:101320002068016841F48041016020680168490635
:1013300003D4016841F040010160E068B0F5006F3E
:10134000606803D058B3012D29D049E008B1012DC0
:101350001FD1206B21680088C86006E02068816882
:10136000890709D5216B0988C160206B801C206327
:10137000E08E401EE0860CE0FFF740FCA0EB090188
:10138000414503D3B8F1FF3F03D006E0B8F1000FA9
:1013900003D0E08E0028E1D125E0032635E0206B64
:1013A00021680078087306E02068816889070AD5FB
:1013B000216B09780173206B401C2063E08E401E76
:1013C000E0860DE01FE0FFF719FCA0EB09014145A5
:1013D00003D3B8F1FF3F03D0DFE7B8F1000FDCD053
:1013E000E08E0028E0D14A464146204600F05FF9F1
:1013F00008B120206065A06818B92068C1688068BD
:101400000090606D08B1012601E084F8517084F805
:1014100050B0304661E710B5401EB0F1807F01D377
:10142000012010BD4FF0E02460610F21601700F033
:1014300095FA0020A06107202061002010BD70B542
:10144000040004D094F84100002510B106E001200A
:1014500070BD84F84050204600F024F8242084F821
:1014600041002068C16821F40051C160204600F0AD
:10147000BFF92068016921F4904101612068416948
:1014800021F02A0141612068C16841F40051C16026
:101490006564202084F8410084F8420065630020E0
:1014A00070BD0000194810B5816986B041F48041D3
:1014B0008161816901F480410491816941F00401F5
:1014C0008161816901F004010491816941F00401A5
:1014D000816180690E4C00F0040004904FF40070AC
:1014E00000900220019001200290032003906946A1
:1014F0002046FFF77DFA20150090002001906946F4
:101500002046FFF775FA06B010BD0000001002403B
:10151000000801402DE9F843044690F841001F46B9
:1015200016460D46202802D00220BDE8F8837DB182
:1015300076B100206064212084F84100FFF75EFB53
:10154000A6848046E684A068B0F5805F02D003E000
:101550000120EAE7206910B12E4600250EE00026A2
:101560000CE08021204600F09FF9A0B9AEB116F83A
:10157000010B21684860E08C401EE084E08C43460B
:101580004FF0000200970028EBD14FF040012046B9
:1015900000F08AF930B10320C7E735F8020BC0F339
:1015A0000800E6E7202084F841000020BDE7FEE7C0
:1015B000124800B5816985B041F0040181618169FB
:1015C00001F004010491816941F010018161806999
:1015D000002100F0100004900120CDE900010291EB
:1015E00069460748FFF704FA4FF400500090694637
:1015F0000448FFF7FDF905B000BD000000100240EF
:10160000000801400010014070B50C460546FFF788
:10161000EBFA012801D0002070BD21462846FFF7D3
:10162000E3FA0128F9D0012070BD0000F0B51C4894
:1016300085B0816941F008018161816901F008018B
:101640000491816941F008018161816901F008011B
:101650000491816941F0080181618069012400F0F1
:101660000800049003202026CDE90240CDE9006463
:101670000C4F69463846FFF7BBF969463846009477
:10168000FFF7B6F90225694638460095FFF7B0F92D
:101690000448103006600460056005B0F0BD00002D
:1016A00000100240000C0140FEE7FEE7704738B52D
:1016B0000B46009204460022802100F009F8002821
:1016C00004D0606D40F020006065032038BD00004C
:1016D0002DE9F8431E46914688460446089DFFF7CB
:1016E0008DFA401B351AFFF789FA0746254800682E
:1016F000C0F3CB30684338E0701C37D0FFF77EFA78
:10170000C01BA84203D215B1009860B32CE020683A
:10171000416821F0E00141606068B0F5827F0BD143
:10172000A068B0F5004F02D0B0F5806F04D12068FA
:10173000016821F040010160A06AB0F5005F09D1A5
:101740002068016821F4005101602068016841F4BB
:1017500000510160012084F85100002084F85000FD
:101760000320BDE8F8830025401E009020688168B2
:1017700038EA010004D000214945BDD10020F0E73E
:101780000121F9E70C0000207047FFF73DBA30B5A2
:101790008FB028216846FEF7FEFC14210AA8FEF748
:1017A000FAFC01210804CDE900100024029402256E
:1017B0000491CDE907504FF4E01009906846FFF717
:1017C00089FB08B172B6FEE70F20CDE90A054FF498
:1017D0008060CDE90C4002210AA80E94FFF79EFA22
:1017E000002801D072B6FEE70FB030BD7047000090
:1017F00070B5044600680169E26821F44051114364
:1018000001612169A0680843616908432168CA68C9
:1018100041F20C639A430243CA6020684169A2699D
:1018200021F44071114341611E492068884202D170
:10183000FFF71AFB01E0FFF707FB00EBC00101EB2C
:101840000012606864218000B2FBF0F3B3FBF1F397
:101850006FF018067343B2FBF0F5B2FBF0F605EB40
:101860008305322303EB0515B5FBF1F5B6FBF1F665
:1018700005F0F00505EB0615B2FBF0F6B2FBF0F053
:10188000B0FBF1F06FF01802504306EB800003EB61
:101890000010B0FBF1F0216800F00F0028448860D0
:1018A00070BD0000003801402DE9F0419846174610
:1018B0000E460446069D27E0681C25D02DB1FFF793
:1018C0009DF9A0EB0800A8421ED920680C3050E812
:1018D000001F21F4D07140E80012002AF5D12068E1
:1018E000143050E8001F21F0010140E80012002AE6
:1018F000F5D1202084F8410084F84200002084F8CB
:1019000040000320BDE8F0812068006836EA00004E
:1019100004D00020B842CFD00020F3E70120F9E73F
:10192000044800680168C943890602D44168C9B205
:101930004160704714000020FEE700000FB4054B23
:1019400010B503A9044A029800F0DAF810BC5DF85B
:1019500014FB00003D220008100000200907090EBA
:10196000002804DB00F1E02080F80014704700F04C
:101970000F0000F1E02080F8141D704702E008C855
:10198000121F08C1002AFAD170477047002001E0F9
:1019900001C1121F002AFBD1704700002DE9FF5F33
:1019A000DDE90220010DDDF838B0024318D044F61D
:1019B0001050A1F2FF3141430D140F98012820D09F
:1019C000A5EB0B00401C5FEA000A4FF00004474EF5
:1019D000DFF81C91A046504616D5CAF1000728E052
:1019E0000F98012443A2012808D0002100980F9BE2
:1019F000C0E90021C0E90243BDE8FF9F6FEA0B0187
:101A0000F4E7CBF10000DEE7074612E0F80707D065
:101A10002246334640464946FEF775FD80468946D4
:101A20002246334610461946FEF76DFD04460E4623
:101A30007F10002FEAD1DDE90201BAF1000F424622
:101A40004B4602DAFEF75FFD01E0FEF7CEFD0446ED
:101A50000E460022284BFEF74FFE03D84FF0FF3012
:101A6000014607E00022254B20463146FEF7A4FC44
:101A7000FEF72AFE102409E0002C0ADB0A220023CC
:101A8000FEF732FC019B30321A55641E50EA010207
:101A9000F2D1641C019AC4F1110314440F9A012A73
:101AA00003D0012208430DD10AE0084304D00020EE
:101AB0004FF0110B0F9080E7A3EB0B056D1E0DE0AF
:101AC0005B4504DD4FF0000205F1010504E003DA97
:101AD0004FF00002A5F10105002AECD000980F9903
:101AE000C0E90231C0E9004586E70000000024405B
:101AF0000000F03F300000000000F0430000E03F35
:101B00002DE9FF4F95B09B468946064600250FE21A
:101B1000252877D100242746F84A0121059400E0C2
:101B2000044316F8013F203B01FA03F01042F7D1BD
:101B300030782A2811D06FF02F033078A0F13002CE
:101B4000092A16D8059A44F0020402EB820203EB3C
:101B500042021044761C0590EFE759F8042B0592D9
:101B6000002A03DA504244F40054059044F0020481
:101B7000761C30782E2816D116F8010F44F0040494
:101B80002A280DD06FF02F023078A0F13003092BF6
:101B900009D807EB870302EB4303C718761CF3E76A
:101BA00059F8047B761C30786C280FD006DC4C2862
:101BB00017D068280DD06A2814D104E0742810D0FA
:101BC0007A280FD10DE044F400140AE044F48014A4
:101BD00001E044F440147278824202D104F580148A
:101BE000761C761C307866280BD013DC582877D00A
:101BF00009DC002875D04528F6D04628F4D04728BF
:101C00001AD19DE118E0632835D0642879D0652881
:101C100012D195E1702873D008DC6728F1D06928CB
:101C20006FD06E280DD06F2806D1B5E073282CD068
:101C3000752875D0782874D05A46179990476D1C2E
:101C400075E1C4F30250022809D003280DD0D9F859
:101C5000001004280DD00D6009F1040967E1D9F8DE
:101C60000010EA17C1E90052F6E7D9F800100D801C
:101C7000F2E70D70F0E719F8041B8DF80010002052
:101C80008DF80100EA46012003E059F804AB4FF05B
:101C9000FF3061074FF0000102D40DE008F10101AF
:101CA0008846B9420FDA8045F8DB1AF80810002997
:101CB000F4D108E008F1010188468142FADB1AF804
:101CC00008100029F6D105985B46A0EB08072146CD
:101CD0003846179A00F094FA284400EB080507E00C
:101CE0004DE029E10DE01AF8010B5A46179990478B
:101CF000B8F10108F7D25B4621463846179A13E13E
:101D000042E00A220092C4F302524FF0000A022A73
:101D100008D059F804CB032A4FEAEC710AD00DE041
:101D200029E02AE009F1070121F00702F2E802C1E7
:101D3000914609E00FFA8CFC4FEAEC71042A03D1BA
:101D40004FFA8CFC4FEAEC71002907DA0A460021B1
:101D5000DCF1000C61EB02012D2202E0220504D52A
:101D60002B228DF80420012203E0E20701D020227B
:101D7000F7E7904659E00A2102E010220DE0102119
:101D80004FF0000A00910BE010224FF0000A44F0DF
:101D900004040827009203E008224FF0000A009292
:101DA000C4F30252022A05D059F804CB0021032AB9
:101DB00008D009E009F1070121F00702F2E802C1A9
:101DC000914605E01FFA8CFC042A01D10CF0FF0CAF
:101DD0004FF00008220728D5702806D0009B83F01A
:101DE000100353EA0A0305D00EE040228DF80420C8
:101DF000012208E05CEA010206D030228DF80420BE
:101E00008DF8050002229046009B83F0080353EAF8
:101E10000A030AD15CEA010201D1620705D530222A
:101E20008DF804204FF001087F1E582804D034A0FC
:101E300003900EA802900DE036A0F9E753466046E5
:101E4000009AFEF751FA84460398825C0298401E7D
:101E5000029002705CEA0100F0D1029806A9081A0B
:101E600000F1200A600702D524F4803400E0012745
:101E7000574502DDA7EB0A0000E0002000EB0A0155
:101E8000009005984144401A0590E00306D45B4653
:101E90002146179A059800F0B3F90544002706E09B
:101EA00001A85A46C05D179990476D1C7F1C474595
:101EB000F6DBE0030CD55B462146179A059800F047
:101EC0009FF9054404E030205A46179990476D1C4D
:101ED0000099481E00900029F5DC08E0029802995C
:101EE0005A460078491C0291179990476D1CBAF127
:101EF0000001AAF1010AF1DC65E1000009280100F6
:101F0000303132333435363738396162636465666F
:101F10000000000030313233343536373839414231
:101F2000434445460000000000F058F90544761C83
:101F3000307800287FF4ECAD19B02846BDE8F08F6A
:101F4000620700D4062709F1070222F0070CFCE81B
:101F50000223E14603F000485FEA080C02D00FF2CA
:101F6000702C0DE05FEA045C02D50FF2682C07E0EC
:101F70005FEAC47C02D00FF2602C01E0AFF2700C7B
:101F80004FF0FF3823F00043CDF850C065280CD047
:101F900006DC452809D046281DD047283DD13DE024
:101FA000662818D067287ED138E00021112F01DB88
:101FB000112000E0781CCDE9000106A90EA8FFF76A
:101FC000EDFCDDE90F010E9A03910021009207F16B
:101FD000010A04914DE04FF000400097CDE9011057
:101FE00006A90EA8FFF7DAFCDDE90F0203920E9BAB
:101FF00011990022DDF80CA00093049211B9791C0C
:1020000000EB010AB7EB0A0004D4C0F1FF3007F17E
:10201000010A0490AAEB0700019044E0012F00DAC6
:1020200001270021112F01DD112000E03846CDE904
:10203000000106A90EA8FFF7B1FCDDE90F010E9A19
:102040000391002104910092BA4621070CD4039910
:10205000514500DA8A46BAF1010F05DD009AAAF16E
:102060000101515C302908D0B84202DA10F1040FA6
:1020700006DA0121CDE9011015E0AAF10101E9E735
:10208000002805DC049901440491AAEB000102E058
:10209000411C514500DD8A460499401A401C0190BC
:1020A0004FF000400290200704D40198504501DB16
:1020B000CDF8048000208DF84F0002980DF14F07F5
:1020C000B0F1004F25D02B200E9002984FF002085F
:1020D00000280CDA404202902D200E9007E00A21E1
:1020E0000298FEF7EBF83031029007F8011DB8F1C5
:1020F0000001A8F10108F2DC02980028EFD1791E56
:102100000E980870307800F0200040F0450007F885
:10211000020D12A8C01B00F107081498007800B146
:10212000012000EB0A01019801EBE07105984144A0
:10213000401A401E0590E00306D45B462146179ADC
:10214000059800F05DF805441498007818B15A46D7
:10215000179990476D1CE00324D55B462146179ADA
:10216000059800F04DF805441CE00498002807DBB2
:10217000DDE90301884203DD0098405C179901E026
:10218000179930205A469047049805F10105401CE4
:1021900004900198401E019004D12E205A461799B0
:1021A00090476D1CBAF10001AAF1010ADDDC05E0DF
:1021B00017F8010B5A46179990476D1CB8F10001AA
:1021C000A8F10108F4DC5B462146179A0598ABE6B6
:1021D0002D0000002B000000200000002DE9F04140
:1021E000044600251E461746880404D405E03946F7
:1021F0002020B0476D1C641EF9D52846BDE8F0814B
:102200002DE9F041044600251E469046C80301D53D
:10221000302700E02027880404D505E041463846F1
:10222000B0476D1C641EF9D52846BDE8F08100203A
:1022300000BF401C80B23228FAD3704713B54FF468
:102240007A73012269460248FFF764F900981CBDC1
:102250001400002047F6FF74FEF7DEFCFFF797FA44
:10226000FFF7E4F9FEF79CFB4BA0FFF767FB51A0DB
:10227000FFF764FBFFF79CF9FEF73AFB21460120CC
:10228000FEF788FB4FF401410820FEF783FBDFF8DF
:1022900054B1DFF854A1DFF85481DFF854914FF6C0
:1022A000FF7601215846FFF7AFF9012834D104F534
:1022B0000074A4B22146FEF76DFB351B29460820A9
:1022C000FEF768FB2046FDF7E1FF5146FDF76EFF84
:1022D0004146FDF79DFF07462846FDF7D7FF5146CB
:1022E000FDF764FF4146FDF793FF05464946384632
:1022F000FDF78EFFFDF7CFFF02460B463DA0FFF72F
:102300001DFB49462846FDF783FFFDF7C4FF024643
:102310000B463FA0FFF712FB4FF400514348FFF775
:1023200073F9012834D1A4F50074A4B22146FEF754
:1023300031FB351B29460820FEF72CFB2046FDF714
:10234000A5FF5146FDF732FF4146FDF761FF074605
:102350002846FDF79BFF5146FDF728FF4146FDF754
:1023600057FF054649463846FDF752FFFDF793FFF4
:1023700002460B461FA0FFF7E1FA49462846FDF743
:1023800047FFFDF788FF02460B4621A0FFF7D6FA6C
:102390001420FEF71BFB84E70D0A20414435363834
:1023A00039B5E7D1B9CAE4B3F62DCBABCDA8B5C0EA
:1023B000200D0A00B0B4CFC24B455931D4F6B4F366
:1023C000CAE4B3F6B5E7D1B9A3ACB0B4CFC24B45BC
:1023D0005932BCF5D0A1CAE4B3F6B5E7D1B90D0ABC
:1023E000000000000008014000007A4400FF7F4721
:1023F0000000C842566F6C74616765204368616E67
:102400006E656C31203D2025302E3266560D0A0057
:10241000566F6C74616765204368616E6E656C32DF
:10242000203D2025302E3266560D0A000010014056
:10243000010202030405060708090A0B0C0D0E0F22
:102440001010000000000000000001020304060755
:102450000809000000000102030400007C240008B9
:1024600000000020140000007C19000890240008DF
:1024700014000020A40400008C19000801000000D2
:1024800010000000000000000024F4000000000024
:0400000508000131BD
:00000001FF
