:020000040800F2
:1000000000040020450100085F0E0008DF0D000815
:100010005D0E00085B020008F90F000800000000F8
:10002000000000000000000000000000630E000857
:100030008502000800000000610E0008650E00083F
:100040006301000863010008630100086301000800
:1000500063010008630100086301000863010008F0
:1000600063010008630100086301000863010008E0
:1000700063010008630100086301000863010008D0
:1000800063010008630100086301000863010008C0
:1000900063010008630100086301000863010008B0
:1000A00063010008630100086301000863010008A0
:1000B0006301000863010008630100086301000890
:1000C0006301000863010008630100086301000880
:1000D0006301000863010008630100086301000870
:1000E0006301000863010008630100086301000860
:1000F0006301000863010008630100086301000850
:10010000630100086301000863010008630100083F
:10011000630100086301000863010008630100082F
:10012000630100086301000863010008630100081F
:10013000DFF80CD000F070F8004800478513000885
:1001400000040020074880470748804707480047C9
:10015000FEE7FEE7FEE7FEE7FEE7FEE7FEE7FEE777
:10016000FEE7FEE7C70E0008710300083101000832
:10017000202A04DB203A21FA02F00021704721FAFC
:1001800002F3D040C2F12002914008431946704763
:10019000D2B201E000F8012B491EFBD270470022C9
:1001A000F6E710B513460A4604461946FFF7F0FF76
:1001B000204610BD2DE9F05F0546002092469B4683
:1001C00088460646814640241BE02846414647466D
:1001D0002246FFF7CDFF53465A46C01A914110D32D
:1001E00011461846224600F029F82D1A67EB01083F
:1001F0004F4622460120002100F020F817EB0009AD
:100200004E41201EA4F10104DFDC484631462A4657
:100210004346BDE8F09F0000064C074D06E0E0684D
:1002200040F0010394E8070098471034AC42F6D33D
:10023000FFF782FF2418000854180008202A04DB66
:10024000203A00FA02F1002070479140C2F12003E9
:1002500020FA03F3194390407047FEE70848074926
:1002600001604FF4E131416000218160C1600161B2
:1002700081610C21416100F0FABC000000380140AE
:100280002C5000207047000030B5B3F5804F05D0EA
:100290006FF0704140F82210002030BD8C690B686F
:1002A0008D6823434C688989240144EA052423434B
:1002B00043EA014150F82230014C23401943E9E759
:1002C0000000F0CF10B50A6850F8223023F0010387
:1002D00040F822308C68082C23D000234A6822433F
:1002E000CC681C430B6922431A434B690E4C1A43DA
:1002F000CB691A430B6A1A434B6A1A438B6A1A4337
:10030000CB6A1A430B6B1A438B6913434A6B096818
:100310001A4350F82130A343134340F82130002002
:1003200010BD4023DAE700007FFF0F0030B5D1E9B0
:10033000003443EA04138C688D89240244EA05449E
:1003400023430C8A094D00EB820005EB0454234340
:100350000C7D6D0105EB0464896923430B434168FF
:1003600001F040410B434360002030BD0000F0FF2E
:10037000144910B54FF0204008601348486001F15F
:100380004802002008231060C2E90103D060106118
:10039000506190610422C1E90220086188619202E3
:1003A000C861C1E90902C86208634863886300F054
:1003B0000DF8044ABDE8104048321146014800F0EB
:1003C0000FBC000074500020040100A0244810B5A8
:1003D000416986B041F480714161416901F48071E5
:1003E0000491816941F020018161816901F020015E
:1003F0000491816941F040018161816901F040010E
:100400000491816941F080018161816901F080017D
:100410000491816941F48071816180694FF6337480
:1004200000F48070049002200190012002900320CB
:100430000390694600940B4800F01CF869460A488E
:10044000009400F017F869460848009400F012F88C
:1004500069460748009400F00DF806B010BD000092
:10046000001002400014014000180140001C01402F
:10047000002001402DE9F84FDFF8C8910024A9F1D0
:10048000040B23460F2709F1040AABF1040ED1E057
:100490000125A54006EA0502AA4276D1DFF8A8C1E7
:1004A0004E68A6EB0C0866452BD00DDC032E34D02D
:1004B00005DC36B3012E19D0022E2FD11BE0112EF0
:1004C00016D0122E2AD119E0B8F5881F19D006DCF3
:1004D000B8F5803F15D0B8F5801F1FD111E0B8F5F1
:1004E000001F0ED0B8F5041F18D10AE0CB6815E044
:1004F000CB681B1D12E0CB6808330FE0CB680C33D0
:100500000CE08B682BB1012B4FF0080303D0456141
:1005100004E0042302E0056100E00023FF2A01D883
:10052000064601E000F104064FEA840501D9A5F171
:100530002005D6F8008007FA05FC28EA0C0803FA23
:1005400005F548EA0508C6F800804D68ED0070D54D
:100550003E4DAE6946F00106AE61AD6924F003067A
:1005600005F0010500953A4D06EB050CDCF8085046
:10057000A607360F07FA06F825EA0805DFF8D48043
:10058000404503D14FF0000825E052E0DFF8C88075
:10059000404502D14FF001081DE0DFF8C080404522
:1005A00002D14FF0020816E0DFF8B480404502D1D6
:1005B0004FF003080FE0DFF8AC80404502D14FF068
:1005C000040808E0DFF8A080404502D14FF005089C
:1005D00001E04FF0060808FA06F848EA0508CCF8EA
:1005E00008804D68D9F80060ED024D4601D51643EC
:1005F00000E096432E604D68DAF80060AD02554683
:1006000001D5164300E096432E604D68DBF800608C
:10061000AD035D4601D5164300E096432E604D685C
:10062000DEF80060ED03754601D5164300E0964301
:100630002E60641C0A681646E2407FF429AFBDE8CC
:10064000F88F000008040140000011100010024063
:100650000000014000080140000C01400010014072
:100660000014014000180140001C0140014880684E
:100670007047000008500020024881680278114449
:10068000816070470850002070B50D4D04464FF44E
:100690007A712878B1FBF0F00A490968B1FBF0F0F3
:1006A00000F0D1FA48B9102C07D200222146501E82
:1006B00000F00AF800206C6070BD012070BD0000E1
:1006C0000850002014500020F0B40E4B1B680C465C
:1006D000C3F30223C3F10705042D00D90425191D16
:1006E000072901D2002300E0DB1E012606FA05F1EE
:1006F000491E214099409E40761E16403143F0BC71
:1007000000F08CBC0CED00E02DE9F0470F46050031
:1007100061D0434E306800F00700B84209D230681B
:1007200020F0070038433060306800F00700B8421E
:1007300051D128683B4C810712D5400703D560682A
:1007400040F4E06060602878000703D5606840F4FA
:10075000605060606068A96820F0F0000843606045
:100760002878C00728D06868012810D0216802289E
:1007700010D0890700292EDA616821F003010143B6
:100780006160FFF773FF804641F288390DE0216810
:100790008903EFE78901EDE7FFF768FFA0EB0801A8
:1007A000494502D90320BDE8F0876068696800F018
:1007B0000C00B0EB810FEFD1306800F00700B842B9
:1007C0000BD9306820F0070038433060306800F003
:1007D0000700B84201D00120E5E72878400705D599
:1007E0006068E96820F4E0600843606028780007EA
:1007F00006D56068296920F4605040EAC100606055
:1008000000F038F86168084AC1F30311515CC84030
:100810000649086006480068FFF736FF0020C2E777
:100820000020024000100240D216000814500020A0
:100830000C5000200448054900684968044AC1F387
:100840000221515CC8407047145000200010024043
:10085000E21600080448054900684968044AC1F3E3
:10086000C221515CC8407047145000200010024063
:10087000E21600080E4A51680E4801F00C03042BE2
:1008800011D0082B0FD10C48C1F38343C903C05CBE
:100890000AD55168084AC1F34041921E515C054A8D
:1008A0005043B0FBF1F070470449484370470000E3
:1008B0000010024000127A00C216000800093D0034
:1008C0002DE9F84F040070D02078C04DC00749D002
:1008D0006868C0F38100012807D06868C0F3810010
:1008E000022809D16868C00306D52868800339D575
:1008F00060680028E7D035E06068B0F5803F0BD035
:1009000010B1B0F5A02F11D0286820F480302860F5
:10091000286820F4802002E0286840F480302860B5
:10092000606890B1FFF7A2FE06460AE0286840F42E
:1009300080202860F0E700BFFFF798FE801B642846
:1009400073D828688003F7D50CE0FFF78FFE0646C2
:1009500005E000BFFFF78AFE801B6428F0D82868F6
:100960008003F7D420789A4E80074FF001094FF0AA
:10097000000839D5686810F00C0F07D06868C0F31C
:100980008100022809D16868C00306D4286880075E
:1009900014D52069012808D110E02069B0B1C6F84B
:1009A0000090FFF763FE074605E00AE1FFF75EFEF1
:1009B000C01B0228C4D828688007F7D52868616959
:1009C00020F0F80040EAC10028600DE0C6F8008081
:1009D000FFF74CFE074604E0FFF748FEC01B022865
:1009E00023D828688007F7D4207800072CD57948C9
:1009F000A169D9B1C0F80090FFF738FE074604E0BE
:100A0000FFF734FEC01B02280FD8686A8007F7D5AD
:100A100071484FF4FA510068B0FBF1F0009000BF4C
:100A20000098411E0091FAD20EE080E0C0F80080EC
:100A3000FFF71CFE074604E0FFF718FEC01B022864
:100A400075D8686A8007F7D42078400760D5E869D0
:100A50000027C00008D4E86940F08050E861E869E8
:100A6000012700F0805000905C480168C90513D44C
:100A70000168834641F480710160FFF7F7FD82460B
:100A800006E000BFFFF7F2FDA0EB0A0064284ED895
:100A9000DBF80000C005F5D5E06801280AD008B1F0
:100AA000052813D0286A20F001002862286A20F067
:100AB000040002E0286A40F001002862E06841F288
:100AC000883B98B1FFF7D2FD82460BE0286A40F0E0
:100AD00004002862EEE700BFFFF7C8FDA0EB0A01A3
:100AE00059455AD8286A8007F6D50CE0FFF7BEFDB5
:100AF000824605E0FFF7BAFDA0EB0A0159454CD844
:100B0000286A8007F6D41FB1E86920F08050E861B8
:100B1000E06988B36968C1F38101022944D00228E1
:100B2000C6F8608004D0FFF7A1FD044638E034E049
:100B3000FFF79CFD074604E0FFF798FDC01B022865
:100B40002BD828688001F7D4206AB0F5803F05D102
:100B50006868A16820F4003008436860D4E908019F
:100B60000843696821F4741108436860C6F860900E
:100B7000FFF77CFD044606E025E000BFFFF776FDA9
:100B8000001B022809D828688001F7D51BE000BFA8
:100B9000FFF76CFD001B022802D90320BDE8F88F87
:100BA00028688001F4D40EE00128F7D06868226A32
:100BB00000F48031914204D1616A00F470108842DF
:100BC00001D00120EAE70020E8E700000010024021
:100BD0000000424280044242145000200070004055
:100BE00070B515460E46040007D0A069B0F5807FA9
:100BF00003D094F8410010B107E0012070BD00203F
:100C000084F84000204600F01DF804F10801206837
:100C1000FFF758FB3146A2682068FFF787FBD4E94D
:100C200001022946236BFFF72FFBA168206850F8CB
:100C3000212042F0010240F82120012084F84100E7
:100C4000002070BD704710B5401EB0F1807F01D309
:100C5000012010BD4FF0E02460610F21601700F00B
:100C6000DDF90020A06107202061002010BD70B5D3
:100C7000040004D094F84100002510B106E00120E2
:100C800070BD84F84050204600F024F8242084F8F9
:100C900041002068C16821F40051C160204600F085
:100CA00013F92068016921F49041016120684169CC
:100CB00021F02A0141612068C16841F40051C160FE
:100CC0006564202084F8410084F8420065630020B8
:100CD00070BD0000194810B5816986B041F48041AB
:100CE0008161816901F480410491816941F00401CD
:100CF0008161816901F004010491816941F004017D
:100D0000816180690E4C00F0040004904FF4007083
:100D10000090022001900120029003200390694678
:100D20002046FFF7A7FB20150090002001906946A0
:100D30002046FFF79FFB06B010BD000000100240E8
:100D4000000801402DE9F843044690F841001F4691
:100D500016460D46202802D00220BDE8F8837DB15A
:100D600076B100206064212084F84100FFF77EFC0A
:100D7000A6848046E684A068B0F5805F02D003E0D8
:100D80000120EAE7206910B12E4600250EE000267A
:100D90000CE08021204600F0F3F8A0B9AEB116F8BF
:100DA000010B21684860E08C401EE084E08C4346E3
:100DB0004FF0000200970028EBD14FF04001204691
:100DC00000F0DEF830B10320C7E735F8020BC0F3BE
:100DD0000800E6E7202084F841000020BDE7FEE798
:100DE000F0B51C4885B0816941F0080181618169D5
:100DF00001F008010491816941F008018161816974
:100E000001F008010491816941F008018161806964
:100E1000012400F00800049003202026CDE90240C0
:100E2000CDE900640C4F69463846FFF723FB69465D
:100E300038460094FFF71EFB0225694638460095A8
:100E4000FFF718FB0448103006600460056005B029
:100E5000F0BD000000100240000C0140FEE7FEE77C
:100E600070477047FFF708BC30B58FB0282168463F
:100E7000FFF795F914210AA8FFF791F90121080459
:100E8000CDE900100024029402250491CDE9075019
:100E90004FF4E01009906846FFF712FD08B172B6F2
:100EA000FEE70F20CDE90A054FF48060CDE90C4044
:100EB00002210AA80E94FFF727FC002801D072B681
:100EC000FEE70FB030BD704770B504460068016999
:100ED000E26821F44051114301612169A06808438F
:100EE000616908432168CA6841F20C639A4302436E
:100EF000CA6020684169A26921F4407111434161CF
:100F00001E492068884202D1FFF7A4FC01E0FFF7E8
:100F100091FC00EBC00101EB0012606864218000CD
:100F2000B2FBF0F3B3FBF1F36FF018067343B2FBBF
:100F3000F0F5B2FBF0F605EB8305322303EB051564
:100F4000B5FBF1F5B6FBF1F605F0F00505EB06157E
:100F5000B2FBF0F6B2FBF0F0B0FBF1F06FF018026C
:100F6000504306EB800003EB0010B0FBF1F021686A
:100F700000F00F002844886070BD00000038014078
:100F80002DE9F041984617460E460446069D27E097
:100F9000681C25D02DB1FFF769FBA0EB0800A84223
:100FA0001ED920680C3050E8001F21F4D07140E8B1
:100FB0000012002AF5D12068143050E8001F21F0FB
:100FC000010140E80012002AF5D1202084F84100F8
:100FD00084F84200002084F840000320BDE8F0813E
:100FE0002068006836EA000004D00020B842CFD064
:100FF0000020F3E70120F9E7FEE700000FB4054BFE
:1010000010B503A9044A029800F028F810BC5DF856
:1010100014FB00001D130008185000200907090EDA
:10102000002804DB00F1E02080F80014704700F095
:101030000F0000F1E02080F8141D704702E008C89E
:10104000121F08C1002AFAD170477047002001E042
:1010500001C1121F002AFBD1704700002DE9FF4F8C
:101060008DB09B460F460446002606E025280BD08F
:101070005A460F999047641C761C20780028F5D1B9
:1010800011B03046BDE8F08F0025A84601229849EE
:1010900000E0054314F8013F203B02FA03F0084248
:1010A000F7D120782E2817D114F8010F45F0040548
:1010B0002A280ED06FF02F022078A0F130010929E4
:1010C0000AD808EB880102EB410100EB0108641C1F
:1010D000F2E757F8048B641C20786C280DD004DCF0
:1010E0004C2812D06A2811D104E074280DD07A2837
:1010F0000CD10AE045F4001507E0617845F480154D
:10110000814202D1641C05F58015641C2278692A8D
:1011100045D008DC002AB3D0582A69D0632A10D001
:10112000642A08D13BE0702A67D0732A13D0752A4D
:101130005CD0782A5CD010465A460F999047761CAE
:10114000D3E017F8040B8DF8000000208DF80100A3
:10115000E946012003E057F8049B4FF0FF30690790
:101160004FF0000501D40AE06D1C45450DDA8542BB
:10117000FADB19F805100029F6D106E06D1C85424E
:10118000FCDB19F805100029F8D12E4404E019F809
:10119000010B5A460F9990476D1EF8D2A5E00A2020
:1011A0000021CDE90801C5F3025002280DD001CF7E
:1011B000C117031E71F100030DDA4FF0000CD0EBE4
:1011C0000C006CEB01012D2308E0FF1D27F0070741
:1011D000F7E80201EDE72B0504D52B238DF8283025
:1011E00001233BE0EB0739D02023F7E70A2000E09A
:1011F00010200021CDE9080107E01020002145F072
:101200000405CDE908014FF00808C5F30250022893
:101210000FD001CF00214FF0000A2B071FD5702AF5
:101220000DD0DDE908C38CF0100C5CEA030C0CD087
:1012300015E0FF1D27F00707F7E80201EBE7402262
:101240008DF828204FF0010A0BE050EA010306D088
:1012500030238DF828308DF8292002239A46582A09
:1012600004D024A20DF120090B9209E026A2F9E78F
:10127000DDE90823FEF79EFF0B9B9B5C09F8013D0F
:1012800050EA0102F4D1ADEB090020300890680764
:1012900001D44FF001080899884502DDA8EB010050
:1012A00000E000208046002506E00AA85A46405D7E
:1012B0000F9990476D1C761C5545F6DB04E03020F5
:1012C0005A460F999047761CB8F10001A8F1010821
:1012D000F5DC05E019F8010B5A460F999047761C8A
:1012E0000899481E08900029F4DC641CC5E600003B
:1012F00009280100303132333435363738396162EC
:1013000063646566000000003031323334353637AF
:1013100038394142434445460000000013B54FF4BC
:101320007A73012269460248FFF70CFD00981CBD44
:101330002C50002010B5002821D0114B0022001F96
:10134000196803E0814203D80A4649680029F9D1A7
:1013500052B11368841A9C4204D10068184410608A
:10136000104602E0506000E0186039B102680B1AC4
:10137000934203D10B681A4402604968416010BD72
:101380001C5000201CB50A200190FFF76DFDFFF7EF
:1013900027FDFEF763FF33A0FFF730FE41A0FFF704
:1013A0002DFE01A94FA0019AFFF728FE57A0FFF7D5
:1013B00025FE6648011D42684AA0FFF71FFE64A093
:1013C000FFF71CFE7148011D426846A0FFF716FE9C
:1013D0006F48FFF713FE5D488178009143780278EB
:1013E00001466CA0FFF70AFE7548FFF707FE674845
:1013F0008178009143780278014666A0FFF7FEFDF0
:101400000C2000F027F90125002821D020C002215E
:1014100001600321041D41606A48FFF7EFFD6A483F
:10142000FFF7ECFD214669A0FFF7E8FD73A02168F6
:10143000FFF7E4FD54F8041C70A0083CFFF7DEFD44
:1014400074A02168FFF7DAFD2046FFF773FF02E082
:1014500075A0FFF7D3FD7E482021016005600903D8
:101460000160FEE70D0A20534354CEC4BCFED3A650
:10147000D3C3A1AAA1AAD3C5CFC8CAB9D3C3C4DA5A
:10148000B2BF5352414DB2A2B0D1B6D1B7D6C5E426
:10149000D6B8B6A8BFD5BCE420CAB5D1E9200D0A9C
:1014A000000000000D0A20CAB9D3C3A1B075696E4F
:1014B0007433325F7420696E65727465737456613B
:1014C0006C7565203D2031303BA1B1D3EFBEE4B651
:1014D000A8D2E5B5C4BED6B2BFB1E4C1BF20200DCD
:1014E0000A000000BDE1B9FBA3BACBFCB5C4B5D876
:1014F000D6B7CEAAA3BA307825782CB1E4C1BFD62E
:10150000B5CEAAA3BA25640D0A0000000D0A20CAB0
:10151000B9D3C3A1B075696E7433325F742074653A
:10152000737456616C7565205F5F455852414D3D3F
:1015300020373BA1B1D3EFBEE4B6A8D2E5B5C4BE17
:10154000D6B2BFB1E4C1BF20200D0A002450002054
:101550000D0A20CAB9D3C3A1B075696E7433325F66
:1015600074207465737456616C756532203D203744
:101570003BA1B1D3EFBEE4B6A8D2E5B5C4BED6B2A6
:10158000BFB1E4C1BF20200D0A00000000500020C0
:1015900030170008BDE1B9FBA3BACBFCB5C4B5D880
:1015A000D6B7CEAAA3BA307825782CB1E4C1BFD67D
:1015B000B5CEAAA3BA25642C25642C25640D0A0097
:1015C000EC1600087C170008D8170008BDE1B9FB2D
:1015D000A3BAB2D9D7F7BAF3CBFCB5C4B5D8D6B74E
:1015E000CEAAA3BA30782578A3ACB2E9BFB4B2D9F9
:1015F000D7F7B1E4C1BFA3BA0D0A00002A28706F63
:10160000696E7465722D2D29203D2025642C0D0AEC
:10161000000000002A28706F696E74657229203DF1
:101620002025642C0D0A00000D0A20CAB9D3C36D11
:10163000616C6C6F63B6AFCCACB7D6C5E4B1E4C136
:10164000BFB3F6B4EDA3A1A3A1A3A1200D0A00008E
:10165000100C0140F0B50B30154D20F007010024AF
:10166000144A0FE003688B420BD38B4205D95E1AF4
:1016700043184768C3E9006700E04368136002C08D
:1016800004E0021D10680028ECD12046002802D199
:10169000286808B10020F0BD064A07481060074AD4
:1016A000121A22F00702C0E9002401202860D7E7BF
:1016B000205000201C500020DC500020D852002078
:1016C000010202030405060708090A0B0C0D0E0FA0
:1016D00010100000000000000000010203040607D3
:1016E0000809000000000102030400000D0A20CADE
:1016F000B9D3C3A1B075696E7433325F7420746559
:10170000737447726F7570325B335D203D207B30A0
:101710002C312C327D3BA1B1D3EFBEE4B6A8D2E58B
:10172000B5C4BED6B2BFB1E4C1BF20200D0A0000CF
:101730000D0A20CAB9D3C3A1B075696E7433325F84
:1017400074207465737447726F75705B335D205FCE
:101750005F455852414D203D207B312C322C337D4A
:101760003BA1B1D3EFBEE4B6A8D2E5B5C4BED6B2B4
:10177000BFB1E4C1BF20200D0A0000000D0A20CA3D
:10178000B9D3C3A1B075696E7433325F74202A2057
:10179000706F696E746572203D202875696E7433B0
:1017A000325F74202A296D616C6C6F632873697ACB
:1017B000656F662875696E7433325F74292A332920
:1017C0003BA1B1B6AFCCACB7D6C5E4B5C4B1E4C1AA
:1017D000BF200D0A000000000D0A20B6A8D2E5BA0D
:1017E000F3B5C4B2D9D7F7CEAAA3BA200D0A2A28D6
:1017F000706F696E7465722B2B29203D20313B0D73
:101800000A2A28706F696E7465722B2B29203D207F
:10181000323B0D0A2A706F696E746572203D203369
:101820003B0D0A0054180008005000202C00000056
:101830003C100008541800080000002000040000BC
:101840004C100008801800082C500020AC0200004A
:101850004C10000801020300070000000100000016
:1018600010000000000000000024F4000000000050
:10187000000000000000000001020300070000005B
:0400000508000131BD
:00000001FF
