:020000040800F2
:10000000A012002045010008634E0008634200086A
:10001000614E0008CD2F000851510008000000007B
:10002000000000000000000000000000674E000813
:10003000B530000800000000654E0008BD4F000804
:100040005F0100085F0100085F0100085F01000810
:100050005F0100085F0100085F0100085F01000800
:100060005F0100085F0100085F0100085F010008F0
:100070005F0100085F0100085F0100085F010008E0
:100080005F0100085F0100085F0100085F010008D0
:100090005F0100085F0100085F0100085F010008C0
:1000A0005F0100085F0100085F0100085F010008B0
:1000B0005F0100085F0100085F0100085F010008A0
:1000C0005F0100085F0100085F0100085F01000890
:1000D0005F0100085F0100085F0100085F01000880
:1000E000B93000085F0100085F0100085F010008E7
:1000F0005F0100085F0100085F0100085F01000860
:100100005F0100085F0100085F0100085F0100084F
:100110005F0100085F0100085F0100085F0100083F
:100120005F0100085F0100085F0100085F0100082F
:10013000DFF80CD002F038FF00480047018B0008C0
:10014000A01200200648804706480047FEE7FEE769
:10015000FEE7FEE7FEE7FEE7FEE7FEE7FEE7FEE777
:100160001F5000083101000810B5F949C4074FF0CD
:1001700040434FF0804205D08B66CB66C1E91C320C
:100180008A67CA67840709D5C1F80031C1F804310C
:10019000C1E94232C1F81021C1F81421400709D544
:1001A000C1F89831C1F89C31C1E96832C1F8A82181
:1001B000C1F8AC2110BD2DE9F14F82B000210298A9
:1001C0008A468946806F00287DD000220020401C8E
:1001D0000428FCDB02984FF0000C00EBC203D3E9CB
:1001E0000010A1FB0167D3E9065400FB017701FB76
:1001F0000077CDE90067A646AE1B64EB0704AB466B
:100200000327A6FB075804FB078406FB0C44DDE923
:100210000067AD197C41A5FB016704FB017405FB78
:100220000045D3E90C47341B65EB0705CDE90045D4
:100230005D46A5FB05670324A6FB04580EFB0B7760
:100240000BFB0E7707FB048406FB0C44D3E9126317
:10025000761B63EB04034C18A4FB017C40EB000508
:1002600005FB01C504FB0055A7FB014C05FB01C5BF
:1002700007FB0055A4FB017C05FB01C504FB0054F2
:10028000F6196341DDE90045AD0045EA9475A40027
:10029000A4FB017C05FB01C104FB0014F01B73EB04
:1002A000040103D50023404263EB0101BAEB0004D3
:1002B00079EB010301DA82468946521C032A85DB69
:1002C0005046494600E010E002F03EFCA149896B2F
:1002D00002F043FA02F08CFC9D4AD2F80C2203B0E3
:1002E0009200BDE8F04F02F05DB9002003B0014676
:1002F000BDE8F08F2DE9F14F0020009A0146926F82
:10030000F2B300240022521C042AFCDB009A02EB08
:10031000C405AA46D5E90029A2FB023CD5E9067628
:100320009E46FB1A0325A3FB057809FB02CC02FBC2
:1003300009CB66EB0B0606FB05854FF0000C03FBB3
:100340000C5617EB0E03A3FB027C46EB0B0606FBD9
:1003500002C203FB0923DAE90C25BA1AAB4103D523
:100360000025524265EB0303851A71EB030501DAA0
:1003700010461946641C032CC4DB02F0E5FB00E0C8
:100380000EE07449896B02F0E8F902F031FC704A22
:10039000D2F80C22BDE8F84F02EB420202F002B99B
:1003A00000200146BDE8F88F2DE9FE43684D8046E8
:1003B0000024D5F810626F4605EBC4013246D1E93E
:1003C000020102F0D0F805EB8401B1F884100904B1
:1003D000401847F8240004F10104032CECDB5C48CE
:1003E0009821083002F017F90120FFF7BDFE95F8BB
:1003F000E8010199042807D1D5F81802B0F5201FAB
:1004000002DD052085F8E801524C0098636AC11AA4
:1004100001D40E4600E01E1A0198A26A801A01D487
:10042000074601E0019FD71BBE4206DD002901D42B
:10043000084606E00098181A03E0002801D5019844
:10044000101A029AE16A521A01D4134601E0029B83
:10045000CB1A834205DB002A01D4104601E0029842
:10046000081AD8F8241007F040FED5F81812814277
:1004700006DD0321684608F039FA022008F088FA00
:10048000009860620198A0620298E062BDE8FE8375
:10049000304AC2E9020170472E4AC2E9060170479C
:1004A0002C4AC2E904017047294AD2F8E0310360BE
:1004B000D2E97402C1E900027047254AD2F8E0315E
:1004C0000360D2E97602C1E9000270472DE9FE47D8
:1004D00081460020EA468A6F22B901EB800339F990
:1004E0001020DA6701EB800239F91030D46F1D1B40
:1004F0004AF82050136E9D4200DD1566D36E9D4272
:1005000000DAD5660123002422464FEAE578A3FBF2
:10051000056704FB057403FB0844334602EB4206FF
:1005200001EBC60606EBC00CDCE90076FF1866415D
:10053000CCE90076521C042AE9DB401C0328CADB04
:10054000886F401C88670120C1F89000BDE8FE87D5
:10055000E0070020400A002030B5002302EB8305AD
:1005600050F823405B1CEC66032BF7DBC2F88810C5
:10057000916F79B1002102EB810450F82130E56FD1
:100580005B1B00D55B42256E9D4200DA2366491C49
:100590000329F0DB906F401C90670120C2F89000A7
:1005A00030BD10B500210B4600EB8102491CD46E12
:1005B000D46713660329F7DBD0F8881040F8783F3A
:1005C000C0E9051310BDD0E92210081A7047014692
:1005D000D1E91802824200DB1046896E814200DBBD
:1005E000084670472DE9F0478046501E0126864098
:1005F0008946C2F12007404601F0D4FF04460D466B
:10060000404649463A4601F0AEFF3A4601F0CAFF7D
:10061000B04203DD641C45F1000505E071428842EB
:1006200002DA641E45F1FF3520462946BDE8F08711
:10063000F7490020086248628862C862086448641A
:100640008864C864086348638863C863086548654C
:100650008865C865704730B5EE4AD2F8483223B194
:10066000D2E990542D1A8C4101DAC2E990015B1C49
:10067000C2F8483230BD30B5E64AD2F8583223B11C
:10068000D2E994542D1A8C4101DAC2E994015B1C21
:10069000C2F8583230BD30B5DE4AD2F828322BB11C
:1006A000D2E98845041B71EB050401DAC2E988012F
:1006B0005B1CC2F8283230BD30B5D64AD2F8383289
:1006C0002BB1D2E98C45041B71EB050401DAC2E9B8
:1006D0008C015B1CC2F8383230BD2DE9F047024670
:1006E000CC48012508308046C36E016E046FC91ADC
:1006F000436E1B1B8B4200DB1946836ED8F87400D7
:10070000181A884200DB0146C14F6037F86B8842F7
:1007100004DA002400F00AFA204687E7108E01244C
:10072000BC4EC0054FF000010ED5D6F880303068C1
:10073000834209DBB2F87420D20506D5D6F8B02181
:10074000824201DB052400E00C4674B3600719D532
:10075000AF48C8388146FFF72EFD000D40EA013052
:100760000915C6E97601D7E904321B1A8A4102DA73
:100770000025FFF7A1FF9821484601F04CFF042017
:10078000FFF7F2FCE0070ED04046FFF714FDC6E984
:100790007C01D7E906340246181A8C4103DA002599
:1007A0001046FFF778FF284640E7FFE702203DE7C5
:1007B0001EB5044690F83000C0F38110032804D120
:1007C0009449201D0831FFF781FE94F87400C0F3AE
:1007D0008110032805D18E4904F14800C839FFF77C
:1007E00075FED4F8B8008B4AC0F38113A032694675
:1007F000032B0FD0C0F3411003281AD1002004EBC3
:100800008003D3F8A0309B1341F82030401C03280C
:10081000F5DB09E0002004EB4003B3F98C3041F82C
:100820002030401C0328F6DB6846D4F8C010FFF7E0
:1008300093FE1EBD2DE9F04705460020296BCA0531
:1008400067D501F05001402900D1012095F87410BE
:1008500001F05001402900D1012095F8B8106D4CED
:1008600001F05001402900D030B100F05FF90020C4
:10087000C4F8E00184F8E801654ED4F80812E86A8B
:100880006036814225D0C4F808020A28306B0ADAA3
:1008900040002060716B491CC4F80C1202F046F94C
:1008A00009F082FE04E02060706BC4F80C02B06BAB
:1008B000C4F81402D4F80C02C0F11000C4F81002FD
:1008C0004FF48040C4F8180296F83410192088407C
:1008D000F0632846FFF76CFF94F8E811DFF83491D5
:1008E00005274FF0020809F1A009072911D2DFE816
:1008F00001F0041127305E7E8500D4F8E001411C30
:10090000C4F8E0110A2804DB00F010F9012084F893
:10091000E80186E0D4F89800012810D12846FFF7B6
:10092000DCFE10B1012803D004E084F8E87101E096
:1009300084F8E8814846FFF734FEFFF779FE70E05F
:10094000032084F8E8012846FFF72EFD00F0EEF8BA
:1009500067E02846FFF7C1FEF0B3012861D1B5F882
:10096000B8004FF00403C00515D54846FFF72FFE29
:100970000146C017C4E97410D6E902C2BCEB0101FC
:10098000824102DA84F8E87108E04846FFF71BFE6E
:10099000316A884202D384F8E83124E0F4E9760130
:1009A000FFF769FED4E90601FFF755FE39E0B5F817
:1009B000B800C0050BD54846FFF709FE0146C01731
:1009C000C4E97410D6E90232591A824108DB28467C
:1009D000FFF783FE00B100E002E0012803D020E031
:1009E00084F8E8711DE02846FFF7DEFCD6E7062014
:1009F00084F8E801012007F0CBFF0DE02846FFF75F
:100A00006CFE012801D038B10BE084F8E88108E0E1
:100A1000E0090020E007002000F088F84846FFF7D2
:100A2000C0FD002002E610B500214010002802D0D1
:100A300001F10101F9DC454C4FF0010001F1010128
:100A400000FA01F0C4E90C0102F070F809F0ACFD05
:100A5000A06394F8341019208840E06310BD10B5ED
:100A60004FF418713A4801F0D6FD4021374801F0A3
:100A7000D2FD0720FFF778FB344840F2DC5100221A
:100A8000C0E906121421C0E902124FF41671C0E940
:100A9000041230492E4C01620120C4F8E4011920EF
:100AA000FFF7C1FF0020C4F8080210BD10B54FF4D5
:100AB0001871274801F0AFFD0720FFF755FB2448C8
:100AC00001210022C0F8E41180F8E811032101207F
:100AD00007F054FF07226421AFF2A720BDE81040C1
:100AE00007F088BD10B5012007F052FFAFF2BB2020
:100AF000BDE8104007F0BABF10B5FFF7B0FF0028FF
:100B000005D1AFF25700BDE8104007F0FBBD10BDA6
:100B100010B5FFF7E7FFAFF26B00BDE8104007F03C
:100B2000CBBF0B49D1E97C0170477047084810B52D
:100B30009821083001F06FFD9821074801F06BFD06
:100B4000BDE810400520FFF70FBB0000400A002061
:100B5000E00700200008AF2F180900202DE9FC5FF6
:100B60000D460026416B99469246B046002904DBAB
:100B7000D0F8BC00032800D10126FF492422081F19
:100B800001F022FDFC4FC03F0024C7F8E05007EB06
:100B90008400D0F8BC10404601F055FD641C80462E
:100BA0000A2CF4DBF54901F0D8FDF54C80464FF0F6
:100BB000C80BC7F8E400BAF1320F21DB4846C7F88A
:100BC0001CB101F0B3FF00900190EE49284601F0FE
:100BD000C4FD019901F08FFD214601F0BEFD0446E0
:100BE000BAF57A7F33DBE8492846009C01F0B5FD71
:100BF000214601F080FDE24901F0AFFD044626E008
:100C000041F2883199FBF1F04042D7F81C1100EB1A
:100C100080004018C7F81C0102D50020C7F81C014D
:100C2000484601F083FF8246D849284601F095FDE9
:100C3000514601F060FD214601F08FFD0446D7F8D2
:100C40001C0120B9D7F82801012800D10024D7F8C9
:100C5000200100B12C46CE49894500D12C4614F024
:100C6000FF4F11D04046C7F8E880414601F03DFDF6
:100C700020F00040C74902F04DF822D2D7F8B80062
:100C800010F0FF4F03D01CE0D7F8E800EDE7C6B145
:100C90004846C7F81CB101F06DFF04460E462846D1
:100CA00001F0E6FF0022BC4B01F0BAFE22463346BB
:100CB00001F044FE0022B94B01F0B2FE02F004F84C
:100CC00004462046BDE8FC9F2DE9F04FABB04FF045
:100CD000000AA94FCDF810A0C03FCDF814A0CDF860
:100CE00018A00446D7F82011022003297DD0002641
:100CF00020AD07EB8600D0F8A80001F017FF6FF0D9
:100D00001D0101F068FD45F82600761C042EF0DB7D
:100D10000FA806F019FE24A806F05CFE964B24AA44
:100D2000183B0FA92046279300F0F4F9064604F17A
:100D3000180006F0BFFE82099548D7F8303183428B
:100D400000DB034631462046FFF708FFBB4607F1AC
:100D5000B806D7F8EC1001F0CEFC30600BA806F016
:100D6000F3FD13A90BA807F0D7FB83480FAA3C306B
:100D70000BA9064607F00EFA31460BA807F0EFF96B
:100D800000210DF13C080DF14C090DF1100E00226F
:100D90001346104601EB410C0CEB000759F8276095
:100DA00008EB8007401C7F680328C6FB0723F3DBA2
:100DB000900F40EA83004EF82100491C0329E6DB2E
:100DC000DBF820015F4600287DD05046CDF818A002
:100DD000404201F0ABFE6FF01D09494601F0FBFCFB
:100DE00005F0D6F9D046564600E074E0CDE9000A99
:100DF0000698CDF808A0404201F098FE494601F05F
:100E0000EAFC09F00DFB0390D7F8300141F288317C
:100E100090FBF1F04FF0804A01F088FE2890299075
:100E2000069801F083FEDFF878B1594601F095FC91
:100E3000299901F092FC514601F08FFC01F0ABFEC4
:100E400040000690DDF8A0A001F070FE594601F0C8
:100E500052FC514601F04FFC01F09DFE069001F05E
:100E600065FE494601F0B7FC05F092F9CDE90706A9
:100E70000996069801F05AFE494601F0ACFC09F0CB
:100E8000CFFA0A901CAA694620A807F0DBF96A4647
:100E900007A91CA807F0D6F9D4F8BC00EA46002838
:100EA00010DD00261E215AF8260045F8260001F024
:100EB00092FC01F070FE07EB8601761CC1F8A800D9
:100EC000042EEFDB00E00BE0D4F8BC004FF0FF3560
:100ED00003280AD106E0C7F820012BB0BDE8F08F47
:100EE000069875E701F007FBF0B357F8A80F01F07B
:100EF0001DFE4E46494601F06EFC1C90786801F0DC
:100F000015FE314601F067FC1D90B86801F00EFE39
:100F1000314601F060FC1E90F86801F007FE314692
:100F200001F059FC1F90B86FA83F0028D5D0D7F822
:100F3000B8002946A83701F04EFC05F029F91E211A
:100F400001F049FC01F027FEC7E90008C7F8088056
:100F50002946386901F03FFC09F062FA1E2101F0D0
:100F60003AFC01F018FE00E01CE0F860D4F8C01074
:100F7000A83F279844E00000400B002000002041DB
:100F800000409C4500004843000048420000C84320
:100F900040420F000E2DB23D000079400088B34062
:100FA000E10237472946D7F8B80001F014FC05F0F4
:100FB000EFF8CDE90708CDF824802946D7F8B80026
:100FC00001F009FC09F02CFA0A906A4607A920A84A
:100FD00007F038F9684607F0F2F9002556461E2159
:100FE00056F8250001F0F7FB01F0D5FD07EB850170
:100FF0006D1CC1F8A800042DF1DBD4F8C0102798AF
:1010000007F01EFCD7F8200100288FD0401E62E7B1
:1010100070B590F8B810664ACC064FF000034FF058
:10102000030101D4C2E94813B0F82041E40509D412
:10103000048EE40503D5B0F87440E40502D4C2E997
:1010400048131AE0D2F8341139B1D0E93013C91A73
:101050004FF47A73B1FBF3F105E0D0F8B01044F629
:101060002064A14202DBC2F830110AE0D2F82C5110
:101070002944C2F82C11A14201DA002070BDC2E956
:101080004B31FFF721FEF8E710B54FF49C7148484B
:1010900001F0C1FA464C4FF080400021C4F8FC003A
:1010A00044F8A80F4248A83007F0CAFB4FF47A7002
:1010B00060674FF07E50606410BD3D49C1F8EC00A0
:1010C000002070473A49C1F828010020704738498C
:1010D000C1F834010020704704224FF41671AFF2BA
:1010E000CF0007F087BAAFF2D70007F0BFBC10B54A
:1010F000FFF7CAFF2E490020C1F82801C1F83401CA
:10110000AFF22B00BDE8104007F0FCBAAFF2370099
:1011100007F0D2BC2DE9FF470C4625491546074686
:1011200099463C220C31224801F04EFA20495022C7
:101130005831A1F1100001F047FA1D4E95E8070063
:1011400006F13C031B4D83E807001ECC06F1980016
:1011500080E81E00D6F82401401CC6F824010628A9
:1011600002DD0620C6F82401C0F1060407F1A0083C
:1011700018E006EB04116A464846483107F00AF8C1
:1011800004EB440006EB80016A46404606F068FA2C
:10119000074625F0004120F0004001F0B1FD00D2EB
:1011A0003D46641C062CE4DB04B02846BDE8F0870D
:1011B000800A0020002474491FB5014610226846A9
:1011C00001F002FAF6489DE80E0080E80E00F549AD
:1011D0009DF80C0081F8B001002004B010BD1FB5CF
:1011E000EF490EC98DE80E00EE49102291F8B011BA
:1011F0008DF80C10694601F0E7F90020EDE72DE9C4
:10120000F04F91B000251821684601F004FA00243F
:10121000182106A801F0FFF9E249A046C14691F85D
:10122000C00101287ED1D1F8B8B1D1F8B4A1002213
:10123000C2EBC20000EB4001DA4800EB810E9EF8E1
:1012400050000F90002863D000215EE05EF821304E
:10125000DDE900676D1CD8170E939B197841CDE925
:1012600000300EEB8100EDB243690D93DDE9027CA5
:10127000DE17DB1946EB0C06CDE90236836ADDE9A1
:10128000047CDE170C93DB1946EB0C06CDE9043623
:10129000C06B0E9BDDE9067C83FB0063360C46EADF
:1012A0000346F6194CEB2343CDE906630D9BDDE9BC
:1012B000087C83FB00634FEA164646EA0346F619AC
:1012C0004CEB2343CDE908630C9BDDE90A7C83FBEF
:1012D00000634FEA164646EA0346F6194CEB2343F1
:1012E000CDE90A6380FB00634FEA164646EA0346EF
:1012F00016EB080849EB23490444584501DA8346B4
:1013000002E0504500DD8246491C0F9888429DDC72
:10131000521C052A8CDBA348AAEB0B01D0F8BC01B8
:10132000814200E053E052DBA5FB0872E017002683
:101330000F9006FB082005FB09000E9084FB0410AB
:10134000090C41EA00410014CDE90C0106A800EBAC
:10135000C601D1E90002A0FB05BC02FB05C20021C9
:1013600000FB012C684600EBC601D1E90002A0FB9E
:10137000043802FB04820F9900FB0120190C0CAA0F
:1013800041EA00494FEA204A92E80B0087EA01024D
:1013900083EA000852EA080212D07A1A63EB0003CB
:1013A000BBEB09006CEB0A0C4FEA0C4141EA10411F
:1013B000000401F0A7F87B4901EB8601C1F8A40104
:1013C000761C032EC2DB7748012180F8B01111B0E2
:1013D0000020BDE8F08FF8B5724D0E460446D5E901
:1013E0006D01091A052291FBF2F1301A90FBF1F020
:1013F000C0B28DF80000042801D92020F8BDC0EB50
:10140000C00000EB400005EB800191F8500005287A
:1014100016D0421C81F850209DF80010C1EBC1018C
:1014200001EB410105EB810202EB8001CE632368F1
:1014300042F8203060684861A06888620020F8BDEA
:1014400001F14003181F1022194601F0BDF89DF864
:1014500000001022C0EBC00000EB400005EB800054
:10146000011D01F0B1F89DF800001022C0EBC00092
:1014700000EB400005EB800000F11801143001F092
:10148000A3F89DF800001022C0EBC00000EB400064
:1014900005EB800000F12C01283001F095F80420C4
:1014A000BAE730B585B0044603A9684606F0CAFA23
:1014B00004A806F06FFB02282BD0D4F8E4000399AF
:1014C000401A384991F8B02112B308B3D1F8A421D9
:1014D000009C80FB0232150445EA1342224400922C
:1014E000D1F8A821019C80FB0232150445EA134281
:1014F00022440192D1F8AC11029A80FB011003043E
:1015000043EA1140104402900321684607F0EEF9C7
:101510000CE0606B032809D106F0A6FA30B16846EA
:101520000399FFF758FF08B9FFF769FE05B00020DF
:1015300030BD10B54FF4E2711A4801F06CF819484B
:101540001949C0F8B4114FF4AA01C0F8B8114FF40A
:10155000A021C0F8BC11012180F8C011002010BDED
:101560001049C1F8B801002070470E49C1F8B40114
:10157000002070470B49C1F8BC010020704758B1EA
:101580000849D1F8A4210260D1F8A8214260D1F81D
:10159000AC118160002070470520704724207047FF
:1015A0005C0D0020B80B00200000D8FF20B12D49B1
:1015B00081F8C0010020704724207047294B93F820
:1015C000B101002818D0D3E96D10401A052190FB15
:1015D000F1F00020C0EBC00101EB410103EB810100
:1015E00091F8502022B1002100E0491C8A42FCDC25
:1015F000401C0528EEDB00207047082296211A487F
:1016000006F0F8BF184807F031BA10B5FFF791FFA0
:101610004FF49A7310221549154807F03DF820B988
:10162000AFF2290007F06EF808B1012010BD0D4996
:10163000012081F8B101002010BD10B5094C94F8CB
:10164000B101002808D0084807F010FAAFF25500A1
:1016500007F032FA08B1012010BD002084F8B10172
:1016600010BD0000B80B0020A3140008DF11000813
:10167000B91100082DE9F043044699B01D46914682
:101680000E46806801F052FA014601F034F88046B7
:10169000606801F04BFA014601F02DF8074620681A
:1016A00001F044FA014601F026F8394600F0CBFF7C
:1016B000414600F0C8FF08F077FF074620F00040E1
:1016C0004FF08D4101F026FB7ED2306801F02EFAFA
:1016D0006FF01D08414601F07EF80490706801F03B
:1016E00025FA414601F077F80590B06801F01EFA3E
:1016F000414601F070F80690F06801F017FA414693
:1017000001F069F800260C960790206801F00EFAA7
:10171000394601F022F80D90606801F007FA394669
:1017200001F01BF80E90A06801F000FA394601F0B4
:1017300014F80F9010AA0CA904A806F083FD14A9B0
:1017400004A806F018FD6A4614A910A806F07AFD50
:101750000199084600F0CFFF02990446084600F0C0
:10176000CAFF214600F06FFFFE49884201DAFE4CB5
:101770000BE0FE49884201DAFD4C06E0FD49884253
:1017800002DA4FF07A5400E0FB4C484601F0CEF903
:10179000FA4900F0E2FF214600F0ADFF044608964A
:1017A0002146029800F0A7FF09900198214680F099
:1017B000004000F0A0FFCDE90A066A4604A908A887
:1017C00006F040FD6A4600E025E004A9104606F058
:1017D000ADFC684606F0B1FD1E21009800F0FBFF4D
:1017E00001F0D9F928601E21019800F0F4FF01F002
:1017F000D2F968601E21029800F0EDFF01F0CBF9EC
:10180000A8601E21039800F0E6FF01F0C4F9E8602B
:1018100019B0BDE8F08396E80F0085E80F00F7E700
:101820002DE9F05F05460C46806801F07FF901461E
:1018300000F061FF0746686801F078F9014600F0A2
:101840005AFF0646286801F071F9014600F053FF7F
:10185000314600F0F8FE394600F0F5FE08F0A4FE2F
:101860004FF07E59002706464FF08048484505DC7A
:10187000C4E90087A760E760BDE8F09FA86801F0B1
:1018800055F9314600F069FF82460146484600F0AE
:101890002CFF4FF40006B04200DA00204FF0FF3179
:1018A00000F099FF08F080FE83464946504600F05C
:1018B000CAFEB04200DA00204FF0FF3100F08BFF8B
:1018C00008F072FE8246686801F030F9014600F0C7
:1018D00012FF0646286801F029F9014600F00BFFC7
:1018E000314600F0B0FE08F05FFE06464845BFDD19
:1018F0001E21504600F06FFF01F04DF9206068682E
:1019000001F014F9314600F028FF594600F0F3FECB
:101910001E2100F060FF01F03EF96060286801F0D0
:1019200005F9314600F019FF594600F0E4FE9449EC
:1019300000F0E1FE01F02FF9C4E902079CE72DE970
:10194000F04105460C46C06801F0F0F8014600F091
:10195000D2FE8046A86801F0E9F8014600F0CBFE0F
:101960000746686801F0E2F8014600F0C4FE06464A
:10197000286801F0DBF8014600F0BDFE314600F0BA
:1019800062FE394600F05FFE414600F05CFEB0F5B5
:10199000000F06DA4FF08040206000206060A060F9
:1019A0002DE008F001FE01464FF07E5000F0D5FE1C
:1019B0001E2100F010FF0646286801F0B7F83146F6
:1019C00000F099FE01F0E7F82060686801F0AEF8D9
:1019D000314600F090FE01F0DEF86060A86801F08A
:1019E000A5F8314600F087FE01F0D5F8A060E86860
:1019F00001F09CF8314600F07EFE01F0CCF8E0608A
:101A0000BDE8F08170B5044690F8300088B040061B
:101A100076D5A069002801DB014600E041424FF481
:101A200080320026574D91420BDAE169002900DA35
:101A30004942914205DA216A002900DA494291427D
:101A400060DB002800DA40424FF4C80188420BDC1A
:101A5000E069002800DA4042884205DC206A00285C
:101A600000DA4042884201DD032000E00220A86342
:101A7000696BA06A814219D06863A06A01F056F8C8
:101A8000414900F06AFE1D2100F0A5FE01F0F0F8CA
:101A90003E4A3F4B00F052FF082201F030F800228E
:101AA0003C4B00F0BDFF01F0C4F828630496296B9D
:101AB000A06906F01AFB0590296BE06906F015FB9A
:101AC0000690296B206A06F010FB07906A4604A96D
:101AD0002C4806F05FFB00982A4A8001009001988C
:101AE000694680010190029880010290039880016C
:101AF0000390104606F008FB22490846FFF71FFF37
:101B000008B070BDAE63FBE72DE9F0430446D0F8A2
:101B100020018FB041067CD51A4DD4F810111E4B10
:101B20002A68891AD4F82C215A438A4201DA0321FF
:101B300000E00221A963810504F58870804601D583
:101B40001049D4E0002104A805F07CFF0D490C22C7
:101B50003C3104A800F06AFD08BBD4F82801A96D47
:101B600088421BE017B75139A69BC43B0AD7233CD8
:101B70008FC2753DCDCC4C3ECDCCCC3E0014CD4774
:101B8000000080CE7C0D002000247449112D4454A7
:101B9000FB2109400080664071981C007ED020889F
:101BA00007AB80B204AA616A05F0ACFD099800F0A9
:101BB000BDFF014600F09FFD0746089800F0B6FF04
:101BC000014600F098FD0646079800F0AFFF014679
:101BD00000F091FD314600F036FD394600F033FD4E
:101BE00008F0E2FC0646E84900F085FDE74900F010
:101BF000B4FD6FF00F0100F0EEFD0746D4F82801A8
:101C000000F094FF394600F076FDE14900F0A5FDB3
:101C100000E06EE04FF0FF3100F0DDFD074604F01C
:101C2000B7FA8146384608F0FBFB07464FF0804084
:101C3000864204DAA8640020E864286533E01E21A7
:101C4000484600F0C8FD00F0A6FFA864079800F021
:101C50006DFF8146CF49384600F04DFD07464946A5
:101C600000F049FD314600F078FD00F094FFE86493
:101C7000089800F05BFF0146384600F03CFD314615
:101C800000F06BFD00F087FF2865099800F04EFF1B
:101C90000146384600F02FFD314600E00EE000F02E
:101CA0005CFD00F078FF04AB686593E8070005F180
:101CB0003C0383E80700D4F82801A8656A46B649C2
:101CC000404606F067FAB4480AAA1430694604464A
:101CD00006F060FA2146404606F041FAAE486A46F0
:101CE0000AA9483806F056FAAB4968464839FFF762
:101CF00026FE0FB08DE51FB50446A7486946483853
:101D000006F02DFAA44A6946283A204606F042FA1F
:101D1000A1491DCC383981E81D001FBD2DE9F047D0
:101D20009D4E0446483E90F8740006F15C0A06F1A8
:101D30002008012500F05001103692B004F5887992
:101D400004F15C07402906D094F8200100F050000F
:101D500040280DD01EE031463846FFF761FDB4F84B
:101D60002001C0050CD55146484606F0F8F907E0B9
:101D70005146484606F0F3F9B4F87400C00509D599
:101D800085486946483806F0EAF9424669463046D1
:101D900006F000FAB4F82001C005204602D5FFF78E
:101DA000B3FE01E0FFF72EFE7B493246483940463C
:101DB00006F0F0F994F87400400671D5208EB4F85E
:101DC00020110843C00578D50FAA3946304606F0E1
:101DD0007BFBD4E9172080FB0001C2FB0201626E8D
:101DE0006D4FC2FB0201483F4FF08042801A71F1F3
:101DF000020014DB04A805F08FFEDDE9042080FB5F
:101E00000001C2FB0201069AC2FB02014FF08042B0
:101E1000801A71F1020002DB0420B8630BE0B86B9A
:101E2000042808D041F28832022806D0032804D0C2
:101E300001283AD009E0002507E0E16E91FBF2F5B8
:101E4000012D00DA0125032800D0AD0053480024FD
:101E50004543109807948002294606F046F90890F9
:101E60000F9829464042800206F03FF9CDE9090467
:101E70000BAA314607A806F08DF932460BA9104689
:101E800006F042F931460846FFF759FD42486946D7
:101E9000483806F064F942466946304606F07AF959
:101EA00012B00020BDE8F08707E0E06E90FBF2F092
:101EB000012800DA01204500C7E7334619463846B5
:101EC000E26EFFF7D7FBE1E770B50446008EC1056F
:101ED000D4F8200107D4B4F87410C90503D4C1059F
:101EE00001D4002070BDC0F30120032808D0204693
:101EF000FFF714FF2848A16B383806F0A7FDF0E77C
:101F000004F5887124482EC9383880E82E00F1E79E
:101F1000234806F0ABBD204810B56C21483800F0CE
:101F20007AFB1D484FF08041483801610160016231
:101F3000C163C165002010BD1D4810B5082219A15C
:101F4000006800F073FB08B1322010BD1322BDE819
:101F50001040C821124806F04DBB10B5FFF7DBFF5B
:101F6000002805D1AFF22F00BDE8104006F0CABB33
:101F700010BD10B50A4806F079FDAFF24300BDE888
:101F8000104006F099BD0000DB0F494000003443CB
:101F900000247449000080CEC40D0020A69BC4001C
:101FA000C91E0008654D504C20352E310000000040
:101FB00000000020002803DDFE490122C1E92002C3
:101FC0000020704710B5B821FA4800F024FBF9480A
:101FD000F949C160F9498160F9490160F9494160F5
:101FE0004FF0804141664FF4FA61C167F649C0F88D
:101FF0009C10002010BD2DE9F041EE4C0E46074626
:102000000025216800F086FE11D33846616800F093
:1020100077FE0CD32069012813D13046E16800F027
:1020200079FE04D33046A16800F06AFE09D2606FE1
:1020300020B9E048A16D183006F002FC0120C4E987
:102040001D05D4E91E01884204DB606F012800D120
:10205000E5656567BDE8F08170B50C46054605F09D
:102060007DFCD44A002110B9D848854202DD1161B7
:10207000516102E01069002808D150692044506184
:10208000B0F5FA7F02DD0120C2E9040170BDF0B5B0
:102090008DB00D4614460646694606F03DFA09AA7B
:1020A0003146284606F076F82946304606F057F8BD
:1020B0000021EC460DF1240E00231A46184601EBD0
:1020C00041073D180EEB80065CF825507668401CF1
:1020D000C5FB06320328F4DB980F40EA820044F87F
:1020E0002100491C0329E7DB0DB0F0BDB1490020F8
:1020F000C1F88C00704770B50446806800F016FD8A
:10210000014600F0F8FA0546606800F00FFD014650
:1021100000F0F1FA0646206800F008FD014600F0E4
:10212000EAFA314600F08FFA294600F08CFA08F0FE
:102130003BFABDE870406FF00F0100F04CBB70B58A
:102140000E4600259B4C012130B101280CD0C4F86B
:10215000981044F88C5F29E0C4F8A060C4E92965B0
:10216000E4E92415A56070BD3046D4F8A01000F055
:10217000BCFA20F00040D4F89C1000F0C1FD13D24E
:1021800054F8945F31466D1C2560206900F05BFABD
:102190002061943C312DE6DD022144F8901F8C49EA
:1021A00000F0DBFAA06170BD44F8905F656070BD1F
:1021B0002DE9FF4F8BB000267E4C05460396049612
:1021C0000596D4F888009346374600287ED005F05F
:1021D00057FC10B103A805F027FCD4F88000A146F5
:1021E000002819DD01204C46C9F8840005F048FCA0
:1021F00048B103A805F05EFC8009B0F5C87F02D2A3
:10220000D4F8800004E0D4F88000401BC4F88000BB
:10221000002801DCC4F8847005F0B6FE002855D013
:1022200000240E9850F8240000F080FC82465BF8F1
:10223000240000F07BFC6FF00F08414600F0CBFA61
:10224000514600F058FA414600F0C5FA314600F018
:10225000FAF9641C0646032CE3DB5846FFF74BFFF4
:1022600001460690304600F078FA4FF07E58DFF8CD
:1022700064A1404501DD404602E0504500D950468A
:1022800003F09CFD8346D9F88C004E4670B131684E
:10229000069800F035FD09D27168069800F03AFD05
:1022A00004D25946D6F89000FFF749FF684605F07A
:1022B00051FC40490C22AC31684600F0B7F918B91E
:1022C000D6F8980001286CD13A4800E0C6E09DE8B5
:1022D0000E00AC3080E80E00009818B9019808B9DB
:1022E000029858B36846FFF706FF044610F0FF4F08
:1022F00057D0DFF8E4902046494600F0F6F9014651
:1023000000F0F9F908F050F970604946204600F0F5
:102310009AF9014600F0EFF908F046F930600298AA
:1023200000F004FC6FF00F0100F055FA214600F0B8
:1023300014FA044640451FDD444620E02048306042
:1023400020487060D6F89800012804D01B48B0607F
:102350001948F06025E0D6F89C80D6F8A8404146A0
:10236000204600F0C2F9B0604146204600F06BF90B
:10237000C6F89870F06014E0544500D954462046E1
:1023800003F01CFDD6F89C1000F0AFF9B0602046B9
:1023900003F014FDD6F89C1000F055F9C6F88C70C7
:1023A000F060DFF81080F16D08F1580801BB0120E2
:1023B000002413E0E80D00200000B4420000B4C285
:1023C000000070420000F0417B142E3E00401C468D
:1023D00000004842000080BF00002041F06506EB8D
:1023E00004104146183005F0E1FA641C042CF6DBB9
:1023F000434907AA0C460C98FFF749FE21460C9862
:1024000005F0ADFE03A805F055FB00F098FB6FF05A
:10241000050100F0E0F92946FFF71EFE594606982F
:10242000FFF7E9FDD6E91E01884201DA2844B067CA
:10243000706F90B9306E28443066B0F57A7F0CDD4D
:102440002F4930223C39A1F11000376600F0BCF86A
:102450002B4841461C3805F0A9FA706F0FB0BDE853
:10246000F08F70B588B0044604A805F0B3FAD4E93B
:102470003001451A684605F067FA064604AB04F1D8
:10248000A00269462846FFF793FE06F0E9F908B076
:10249000304670BD04224FF49671AFF2390006F059
:1024A000A9B8AFF2410006F0E1BA10B5FFF78AFD16
:1024B00000280DD1124800216438C0F88C10012189
:1024C000C0F88810AFF23300BDE8104006F01AB92A
:1024D00010BD10B5AFF2750006F0C8FAAFF27D007E
:1024E000BDE8104006F0C2BA054901206439C1F8C0
:1024F0008C000020704702486438406F704700002D
:102500004C0E00202DE9F0410024061B254671F1F8
:10251000000605DA01240027D0EB070067EB010174
:10252000161E73F1000605DA0027D2EB070201251B
:1025300067EB030300F00EFC86460E4617469C46EA
:10254000AC4204D00025D0EB050E65EB010624B1AA
:102550000020D2EB000760EB030C704631463A4690
:102560006346BDE8F081202A04DB203A00FA02F13C
:10257000002070479140C2F1200320FA03F3194371
:1025800090407047202A04DB203A21FA02F0002113
:10259000704721FA02F3D040C2F120029140084373
:1025A00019467047202A06DBCB17203A41FA02F081
:1025B00043EAE07306E041FA02F3D040C2F12002A0
:1025C000914008431946704710B5431A934209D207
:1025D0008318881803E010F8011D03F8011D521E2E
:1025E000F9D210BD40EA01039B0703D009E008C9F6
:1025F000121F08C0042AFAD203E011F8013B00F8C8
:10260000013B521EF9D210BDD2B201E000F8012BFD
:10261000491EFBD270470022F6E710B513460A4662
:1026200004461946FFF7F0FF204610BD30B50446BA
:102630000020034600E05B1C934203D2E05CCD5CCB
:10264000401BF8D030BDF0B480EA0102D40F420044
:10265000B2EB410F02D20246084611464A0042D070
:10266000C30DDDB2C1F3C752AD1A202D35DAC1F367
:10267000160141F4000204B15242C5F1200602FAEB
:1026800006F12A411044B3EBD05F23D0C4B1012D31
:10269000A0EBC35009DCF0BC4FF0004202EAC35289
:1026A000DBB200F5000000F08FBB400000F180704D
:1026B00000EBC350A0F1807040EAD170490009E0FE
:1026C000490841EAC071A0EBC35000F50000400882
:1026D00000EBC350F0BC00F06EBB6142012202EB84
:1026E0004101001BF6E7F0BC704781F00041AAE70A
:1026F00080F00040A7E780EA010210B502F0004335
:10270000400022D04A001FD0010E01EB1261C0F33D
:102710005600C2F3560240F4000042F40002A0FB4F
:10272000022000047F39140400D0401C50EA1240FB
:1027300001D44000491EC2B20C0604EBD010401C6C
:102740004008802A02D003E0002010BD20F00100E4
:10275000002900DA0020184310BD30B480EA0102DD
:1027600002F0004530F0004221F0004013D090B15B
:10277000C30DD40DC2F31601C0F31600E41A41F4E0
:10278000000140F400027D34914201D3641C00E05A
:102790004900002C02DA30BC002070474FF40000E2
:1027A0000023914201D3891A034340084FEA4101B3
:1027B000F7D151B1914202D14FF0004105E002D270
:1027C0004FF0010101E06FF0010103EBC450284418
:1027D00030BC00F0F0BA420005D0C0F3C7525242FC
:1027E000914201DC0020704700EBC15070472DE999
:1027F000FE4F804681EA0300C00F0C46009021F096
:10280000004123F00045B8EB0200A94105D2404643
:10281000214690461C460B46024623F000401043DA
:1028200047D0270DC7F30A00C3F30A510290401A9C
:10283000019040286BDAC3F3130040F4801B00982A
:10284000924620B10023D2EB030A63EB0B0B0198F5
:102850005946C0F140025046FFF785FE06460D4638
:1028600050465946019AFFF79DFE10EB0800614162
:10287000002487EA115284EAE7731A4340D0009A91
:1028800062B3019A012A4FEA075215DC001B61EB83
:1028900002014FF0004202EA0752CDE90042001C5B
:1028A00041F5801132462B4600F018FB03B0BDE81D
:1028B000F08F40462146F9E7001B61EB0201001C46
:1028C00041F5801300185B412018A2F5001747EB73
:1028D000030140EAD570B6196D4111E06D084FEA69
:1028E000360645EAC0754FEA0752001B61EB02014C
:1028F000001C41F5801149084FEA30000019514190
:1029000032462B4603B0BDE8F04F00F0D8BA00982D
:10291000012240000023D0EB020263EBE073009839
:1029200021464FEAE074B8EB000061EB0401E9E7EF
:1029300083F000435BE781F0004158E72DE9FE4F4B
:1029400081EA030404F0004421F0004100944FF0B8
:10295000000B23F0004350EA01045ED052EA030466
:102960005BD0C3F30A54C1F30A552C44A4F2F334E8
:102970000194A0FB0254C1F3130141F48011C3F38D
:10298000130343F4801301FB024400FB034E840A4B
:10299000970A44EA815447EA8357A4FB07680295E3
:1029A0008D0A05FB07854FEA932C04FB0C54270581
:1029B000029D4FEA065847EA1637B5EB08056EEB5D
:1029C000070C870E920E47EA811742EA8312A7FB93
:1029D0000201B6EB0B0164EB00042B0D43EA0C3350
:1029E0005E1844EB1C50DA465146E7FB0201C5F382
:1029F00013044FEA0B3343EA14534FEA0432019CA9
:102A000043EA0603A4F10C040294009CCDE900B44F
:102A100000F064FA03B0BDE8F08F00200146F9E74A
:102A20002DE9F04D81EA030404F0004B21F000454C
:102A300014464FF0000A23F0004150EA050220D06E
:102A400054EA01021DD0C5F30A570246C5F3130329
:102A5000C1F31300C1F30A5640F4801543F4801308
:102A6000A7EB0608101BD64608F2FD3873EB0500ED
:102A700002D308F1010801E092185B41B8F1000FA0
:102A800003DA00200146BDE8F08D00204FF48011EC
:102A9000064684460EE0171B73EB050705D3121B91
:102AA00063EB050306434CEA010C49084FEA30008A
:102AB00092185B4150EA0107EDD152EA030012D0AF
:102AC00082EA040083EA0501084305D0101BAB41EC
:102AD00006D20122002306E000224FF0004302E06C
:102AE0006FF0010253101AEB06004CEB085110EB8B
:102AF0000A0041EB0B01BDE8F04D00F0E0B970B504
:102B000021F0004303430CD0C1F30A550024D5EB58
:102B1000040564EB0403D617AD1AB34102DB0020B1
:102B2000014670BD201841EB025170BDC10F80EA13
:102B3000E0700844CA079623002100F045B99623A7
:102B40000022114600F040B9F0B4CA17CB0F504034
:102B50005140C61841F100054FEAC37231462800C2
:102B60004FF0960303D0B623F0BC00F02DB93046E9
:102B70000021F9E70EB5C10F80EAE0700844CA07EA
:102B8000002140F233438DE80E000A460B4600F068
:102B9000A5F903B000BD00F0004220F00040C10DD7
:102BA000C0F3160040F400007F2901DA00207047CE
:102BB000962903DCC1F19601C84001E096398840AE
:102BC000002AF4D04042704720F00040C10DC0F30D
:102BD000160040F400007F2901DA00207047962992
:102BE00003DCC1F19601C8407047963988407047B0
:102BF00010B500F0004420F00040C20DC0F31600F4
:102C000040F400007F2A02DA0020014610BD0021B6
:102C1000962A03DCC2F19602D04002E0963AFFF712
:102C2000A2FC002CF2D00023D0EB030063EB0101E7
:102C300010BD70B5C1F30A5201F000450024C1F384
:102C4000130140F2FF3341F480119A4201DA00206F
:102C500070BD40F233439A42A2F2334203DC524247
:102C6000FFF790FC00E090402C43F1D0404270BD53
:102C700000F0004230F000400AD0C10D01F5607153
:102C8000C0F3160042EA0151C208400711437047E1
:102C9000002001467047000030B5041E71F10004A9
:102CA00004DB4FF00044404264EB0101141E73F159
:102CB000000405DB1C464FF00043524263EB040363
:102CC000994208BF904230BD01F0004330B421F07A
:102CD000004150EA010206D00A0DA2F56072C1F36C
:102CE0001301002A02DC30BC00207047440F44EA84
:102CF000C104C100E01830BC00EBC25000F05BB86A
:102D0000002801DBC0F10040002901DBC1F10041D6
:102D100081427047002801DBC0F10040002901DB3F
:102D2000C1F100418842704730B50B460146002092
:102D30002022012409E021FA02F59D4205D303FA7D
:102D400002F5491B04FA02F52844151EA2F10102FE
:102D5000F1DC30BD2DE9F05F0546002092469B4630
:102D600088460646814640241BE0284641464746A1
:102D70002246FFF707FC53465A46C01A914110D32A
:102D8000114618462246FFF7EEFB2D1A67EB0108A5
:102D90004F46224601200021FFF7E5FB17EB000913
:102DA0004E41201EA4F10104DFDC484631462A468C
:102DB0004346BDE8F09F0029A8BF7047401C49006A
:102DC00008BF20F00100704710B4B0FA80FC00FA90
:102DD0000CF050EA010404BF10BC704749B1CCF1BB
:102DE000200421FA04F411FA0CF118BF0121214347
:102DF0000843A3EB0C01CB1D4FEA00614FEA102002
:102E000042BF002010BC704700EBC35010440029A3
:102E1000A4BF10BC7047401C490008BF20F001004F
:102E200010BC7047F0B4002802DCF0BC00207047F2
:102E3000C0F3C751C0F3160040F40000CA0701D127
:102E40004000491E3F2202EB6105002211464FF46B
:102E5000000626FA01F31344D418844201D8001B5B
:102E60001A464000491C1729F3DD5100814202D265
:102E70004FF0FF3100E0002102EBC550F0BCFFF73E
:102E80009ABF10B541000CD0C0F3C751962908DC99
:102E90007E2909DC06DB410204D000F0004040F04E
:102EA0007E5010BD002010BDC1F19604C4F1200178
:102EB00000FA01F1E040FFF77EFFA04010BD10B521
:102EC000141E73F1000408DA401C41F1000192184D
:102ED0005B411A4301D120F0010010BD2DE9F04DF6
:102EE00092469B4611B1B1FA81F202E0B0FA80F24B
:102EF00020329046FFF737FB04460F4640EA0A00AF
:102F000041EA0B0153465A46084313D0114653EA8F
:102F1000010019D0C8F140025046FFF733FB0546C7
:102F20000E46504659464246FFF71DFB084305D062
:102F3000012004E020463946BDE8F08D002005431D
:102F400046EAE0762C4337430A986305E40AA0EB8F
:102F500008000022FD0A44EA47540A3002D5002046
:102F60000146E9E7010510196941DDE90845001945
:102F70006941BDE8F04DA2E7C1F30A52C1F3130164
:102F800040F2FF3341F480119A4202DA00200146F8
:102F9000704740F233439A42A2F2334202DC52427B
:102FA000FFF7F0BAFFF7DFBA064C074D06E0E0681E
:102FB00040F0010394E8070098471034AC42F6D380
:102FC000FDF7BAF854B9000874B90008FEE700002C
:102FD0000848074901604FF4E131416000218160F8
:102FE000C160016181610C21416101F082B8000082
:102FF00000380140E80000202DE9F0418EB006467F
:10300000AA208DF800008DF80100904601200A46A4
:1030100000258DF80200264C2F468DF803502146DE
:103020001046FFF768FBFFF7B6FD010A8DF80410A4
:103030008DF8050021463046FFF75DFBFFF7ABFD3D
:103040004042010A8DF806108DF8070021464046DF
:10305000FFF751FBFFF79FFD010A8DF808108DF86F
:10306000090000208DF80A008DF80C008DF80B0087
:103070008DF80D00A0208DF80E000F240B208DF888
:1030800003006E46705D6D1C3844EDB2C7B2A542B8
:10309000F8D337550025641C04E0705D02F05AF83F
:1030A0006D1CEDB2A542F8D30EB0BDE8F081000072
:1030B0000000C8427047000010B5044C20680005AD
:1030C00003D504F073F8E014206010BD140401402F
:1030D000104800B5816985B041F0040181618069C3
:1030E000694600F0040004900B4801904FF4006022
:1030F00000900020029003200390084800F096F80A
:1031000000221146282000F021FD282000F010FDAB
:1031100005B000BD00100240000011100008014081
:1031200030B5B3F5804F05D06FF0704140F82210F4
:10313000002030BD8C690B688D6823434C688989F9
:10314000240144EA0524234343EA014150F8223094
:10315000014C23401943E9E70000F0CF10B50A689D
:1031600050F8223023F0010340F822308C68082CFC
:1031700023D000234A682243CC681C430B692243B6
:103180001A434B690E4C1A43CB691A430B6A1A4314
:103190004B6A1A438B6A1A43CB6A1A430B6B1A4366
:1031A0008B6913434A6B09681A4350F82130A343D3
:1031B000134340F82130002010BD4023DAE700001F
:1031C0007FFF0F0030B5D1E9003443EA04138C6867
:1031D0008D89240244EA054423430C8A094D00EBFF
:1031E000820005EB045423430C7D6D0105EB046460
:1031F000896923430B43416801F040410B4343601D
:10320000002030BD0000F0FF70B5044600F00AF960
:103210000546601C02D004480078044400F002F91E
:10322000401BA042FAD370BD280000202DE9F84FC2
:10323000DFF8C8910024A9F1040B23460F2709F1F8
:10324000040AABF1040ED1E00125A54006EA05020F
:10325000AA4276D1DFF8A8C14E68A6EB0C086645F5
:103260002BD00DDC032E34D005DC36B3012E19D063
:10327000022E2FD11BE0112E16D0122E2AD119E0CA
:10328000B8F5881F19D006DCB8F5803F15D0B8F521
:10329000801F1FD111E0B8F5001F0ED0B8F5041F34
:1032A00018D10AE0CB6815E0CB681B1D12E0CB6893
:1032B00008330FE0CB680C330CE08B682BB1012B8B
:1032C0004FF0080303D0456104E0042302E00561E8
:1032D00000E00023FF2A01D8064601E000F10406C1
:1032E0004FEA840501D9A5F12005D6F8008007FA38
:1032F00005FC28EA0C0803FA05F548EA0508C6F8B3
:1033000000804D68ED0070D53E4DAE6946F0010677
:10331000AE61AD6924F0030605F0010500953A4D54
:1033200006EB050CDCF80850A607360F07FA06F87E
:1033300025EA0805DFF8D480404503D14FF00008A6
:1033400025E052E0DFF8C880404502D14FF0010887
:103350001DE0DFF8C080404502D14FF0020816E0C2
:10336000DFF8B480404502D14FF003080FE0DFF8EA
:10337000AC80404502D14FF0040808E0DFF8A0809F
:10338000404502D14FF0050801E04FF0060808FA69
:1033900006F848EA0508CCF808804D68D9F80060BE
:1033A000ED024D4601D5164300E096432E604D6870
:1033B000DAF80060AD02554601D5164300E09643A9
:1033C0002E604D68DBF80060AD035D4601D5164305
:1033D00000E096432E604D68DEF80060ED03754610
:1033E00001D5164300E096432E60641C0A68164619
:1033F000E2407FF429AFBDE8F88F000008040140E7
:1034000000001110001002400000014000080140BF
:10341000000C014000100140001401400018014060
:10342000001C01400148806870470000280000200F
:1034300010B5040013D0242084F83D0020680168F2
:1034400021F001010160204600F048FB00202064CB
:1034500084F83D0044F8300FA073207310BD0120A4
:1034600010BD90F83D00704770B5040025D094F869
:103470003D00002520B984F83C50204600F02FFB89
:10348000242084F83D002068016821F001010160DA
:103490002068016841F4004101602068016821F45E
:1034A0000041016000F008FC4D4A6168914201D87A
:1034B0004C4900E04C49884201D2012070BD4B4983
:1034C0002368B0FBF1F15E6826F03F060E435E60B4
:1034D0006368934206D94FF4967359434FF47A7355
:1034E000B1FBF3F12368491C1E6A26F03F06314305
:1034F00019626168914210D84900401EB0FBF1F298
:10350000521CC2F30B02042A01D2042022E0B0FBB9
:10351000F1F0401CC0F30B001CE0A268F2B301EB19
:10352000C10303EB0116431EB3FBF6F35B1C43F42C
:1035300080431B0549D092B301EBC10202EB01119C
:10354000401EB0FBF1F0401CC0F30B0040F4804083
:1035500040F400402168CA694CF6FF739A43104357
:10356000C861D4E9071001432068026822F0C00254
:1035700011430160D4E9030101432068826848F2E5
:10358000FF339A4311438160D4E905010843216860
:10359000CA6822F0FF021043C86001E00EE016E0A6
:1035A0002068016841F0010101602564202084F851
:1035B0003D00256384F83E50002070BD01EB4106BC
:1035C000431EB3FBF6F35B1CB3E70120C2E701EB3C
:1035D0004101401EB0FBF1F0401CC0F30B00B7E707
:1035E000A086010080841E0000093D0040420F00BB
:1035F0002DE9FF4F81B089460446FFF713FF0546CA
:1036000094F83D004FF0000820287DD119230122B5
:1036100050492046009500F093FF002874D194F89B
:103620003C00012870D0012084F83C00206801682B
:10363000C90703D1016841F00101016020680168F8
:1036400021F400610160242084F83D0000262664F6
:103650004148E0624FF0011B20272068016841F4D7
:10366000807101600095002259462046049B00F0BD
:1036700067FF50B120680068C00502D54FF40070A4
:103680002064032005B0BDE8F08F216809F0FE003A
:103690000861FFF7C7FE2168054648694969C0F31C
:1036A0004000C1F380214FF0A00A0FE0FFF7BAFEFF
:1036B000411B0498814200D808B984F83DA02168D4
:1036C00048694969C0F34000C1F3802194F83D2066
:1036D000A02A02D008B90029E8D084F83D702068FB
:1036E0004169C943890716D4016841F4007101603A
:1036F00020684169806919230122164920460095F6
:1037000000F01EFFB8B900E021E084F83D7084F8B5
:103710003C600020B6E7016841F400710160216857
:103720006FF480604861192301220A492046009500
:1037300000F006FF08B10120A4E7039808F1010892
:1037400080458AD384F83D7084F83C60F3E702201A
:1037500098E70000020010000000FFFF2DE9FF4F76
:1037600083B00025DDE910799A4693460446DDF8DA
:1037700048800095FFF756FE064694F83D00202845
:103780007CD11923012285492046009600F0D8FEFD
:103790000028F5D194F83C0001286FD0012084F86E
:1037A0003C0020680168C90703D1016841F00101AC
:1037B00001602068016821F400610160222084F822
:1037C0003D00402084F83E0025646762A4F82A90FA
:1037D000608D20857248E062CDE9008653465A46E6
:1037E0002046049900F0AEFD00287DD1208DDFF841
:1037F000B491202768B1012814D0022820680168FC
:103800001ED041F4806101602068416980690090A8
:10381000B6E02068416981690091016841F4007156
:103820000160ADE02068016821F48061016072B63A
:103830002068416981690091016841F400710AE0E2
:1038400041F40061016072B62068416981690091AC
:10385000016821F48061016062B691E0032868D8B4
:1038600001280CD0022843464FF00002494620466A
:1038700000960FD000F064FEB0BB10E08BE0324643
:103880004146204600F002FF70BB20680069616A73
:1038900008706CE000F054FE30BB72B634E0206873
:1038A000016821F48061016072B620680069616A74
:1038B0000870606A401C6062208D401E2085608D0B
:1038C000401E6085384846F2A8110068B0FBF1F050
:1038D000C0EBC00000EB80000090401E009008D0BC
:1038E00020684069C04300E029E040070CD50098FB
:1038F000F3E744F8305F6773A573206940F0200058
:10390000206162B625731AE02068016841F40071F5
:10391000016020680069616A0870606A401C60622A
:10392000218D491E2185618D491E618562B6216800
:103930001BE032464146204600F0A8FE18B10120A7
:1039400007B0BDE8F08F20680069616A0870606A9E
:10395000401C6062218D491E2185618D491E618553
:1039600021684A69D24352070AD409690170606A22
:10397000401C6062208D401E2085608D401E608549
:10398000208D00287FF46AAF84F83D7084F83E50A3
:1039900084F83C50D4E70220D2E700000200100077
:1039A0000000FFFF04000100640000202DE9FF4F2C
:1039B00083B09A46DDE9119793460446DDF84080CE
:1039C000FFF730FD054694F83D0020287FD11923EC
:1039D000012240492046009500F0B2FD002876D132
:1039E00094F83C00012872D0012084F83C00206843
:1039F0000168C90703D1016841F001010160206835
:103A0000016821F400610160212084F83D0040201C
:103A100084F83E0000262664C4F82480A4F82A9086
:103A2000608D20852C48E062CDE9007553465A46EA
:103A30002046049900F004FD70B930E02A4639466A
:103A4000204600F05BFE58B1206C042804D12068A9
:103A5000016841F400710160012007B0BDE8F08FFA
:103A6000606A216800780861606A401C6062218D8C
:103A7000491E89B22185628D521E62852268536972
:103A8000DB435B070BD469B100781061606A401CAE
:103A90006062208D401E2085608D401E6085208DD7
:103AA0000028CBD12A463946204600F01DFD0028CB
:103AB000CAD154F83D0B016841F400710160202027
:103AC00004F81E09E67766770020C6E7FFE70220C4
:103AD000C3E70000020010000000FFFF70477047BE
:103AE00002488168027811448160704728000020F4
:103AF00070B50D4D04464FF47A712878B1FBF0F0A3
:103B00000A490968B1FBF0F000F0DFFA48B9102C5F
:103B100007D200222146501E00F018F800206C60E9
:103B200070BD012070BD000028000020640000204E
:103B3000002809DB00F01F020121914040098000AC
:103B400000F1E020C0F8001170470000F0B40E4B07
:103B50001B680C46C3F30223C3F10705042D00D9EB
:103B60000425191D072901D2002300E0DB1E0126D0
:103B700006FA05F1491E214099409E40761E1640E6
:103B80003143F0BC01F08BBB0CED00E02DE9F047B8
:103B90000F46050061D0434E306800F00700B84280
:103BA00009D2306820F0070038433060306800F0F8
:103BB0000700B84251D128683B4C810712D5400715
:103BC00003D5606840F4E06060602878000703D5A2
:103BD000606840F4605060606068A96820F0F000A0
:103BE000084360602878C00728D06868012810D092
:103BF0002168022810D0890700292EDA616821F097
:103C0000030101436160FFF70DFC804641F28839F2
:103C10000DE021688903EFE78901EDE7FFF702FC7A
:103C2000A0EB0801494502D90320BDE8F087606890
:103C3000696800F00C00B0EB810FEFD1306800F044
:103C40000700B8420BD9306820F0070038433060D5
:103C5000306800F00700B84201D00120E5E728787D
:103C6000400705D56068E96820F4E06008436060BB
:103C70002878000706D56068296920F4605040EA7A
:103C8000C100606000F038F86168084AC1F30311B0
:103C9000515CC8400649086006480068FFF728FFE5
:103CA0000020C2E70020024000100240C9B800080E
:103CB000640000202C000020044805490068496881
:103CC000044AC1F30221515CC840704764000020DF
:103CD00000100240D9B80008044805490068496846
:103CE000044AC1F3C221515CC840704764000020FF
:103CF00000100240D9B800080E4A51680E4801F081
:103D00000C03042B11D0082B0FD10C48C1F38343B3
:103D1000C903C05C0AD55168084AC1F34041921EEC
:103D2000515C054A5043B0FBF1F0704704494843E9
:103D3000704700000010024000127A0042AC0008F8
:103D400000093D002DE9F84F040070D02078C04DE7
:103D5000C00749D06868C0F38100012807D06868AF
:103D6000C0F38100022809D16868C00306D528681D
:103D7000800339D560680028E7D035E06068B0F589
:103D8000803F0BD010B1B0F5A02F11D0286820F4DF
:103D900080302860286820F4802002E0286840F401
:103DA00080302860606890B1FFF73CFB06460AE06F
:103DB000286840F480202860F0E700BFFFF732FB5E
:103DC000801B642873D828688003F7D50CE0FFF7C0
:103DD00029FB064605E000BFFFF724FB801B642893
:103DE000F0D828688003F7D420789A4E80074FF0E7
:103DF00001094FF0000839D5686810F00C0F07D0A2
:103E00006868C0F38100022809D16868C00306D43D
:103E10002868800714D52069012808D110E020699E
:103E2000B0B1C6F80090FFF7FDFA074605E00AE1D9
:103E3000FFF7F8FAC01B0228C4D828688007F7D516
:103E40002868616920F0F80040EAC10028600DE0B0
:103E5000C6F80080FFF7E6FA074604E0FFF7E2FA4B
:103E6000C01B022823D828688007F7D420780007D1
:103E70002CD57948A169D9B1C0F80090FFF7D2FAE2
:103E8000074604E0FFF7CEFAC01B02280FD8686A85
:103E90008007F7D571484FF4FA510068B0FBF1F094
:103EA000009000BF0098411E0091FAD20EE080E021
:103EB000C0F80080FFF7B6FA074604E0FFF7B2FA51
:103EC000C01B022875D8686A8007F7D4207840079D
:103ED00060D5E8690027C00008D4E86940F0805048
:103EE000E861E869012700F0805000905C480168B3
:103EF000C90513D40168834641F480710160FFF75E
:103F000091FA824606E000BFFFF78CFAA0EB0A00A8
:103F100064284ED8DBF80000C005F5D5E06801281C
:103F20000AD008B1052813D0286A20F001002862C1
:103F3000286A20F0040002E0286A40F001002862AC
:103F4000E06841F2883B98B1FFF76CFA82460BE0DB
:103F5000286A40F004002862EEE700BFFFF762FA2B
:103F6000A0EB0A0159455AD8286A8007F6D50CE01B
:103F7000FFF758FA824605E0FFF754FAA0EB0A0172
:103F800059454CD8286A8007F6D41FB1E86920F05B
:103F90008050E861E06988B36968C1F38101022952
:103FA00044D00228C6F8608004D0FFF73BFA0446EC
:103FB00038E034E0FFF736FA074604E0FFF732FA5C
:103FC000C01B02282BD828688001F7D4206AB0F5DE
:103FD000803F05D16868A16820F40030084368601C
:103FE000D4E908010843696821F474110843686042
:103FF000C6F86090FFF716FA044606E025E000BF19
:10400000FFF710FA001B022809D828688001F7D5AD
:104010001BE000BFFFF706FA001B022802D90320AD
:10402000BDE8F88F28688001F4D40EE00128F7D0AD
:104030006868226A00F48031914204D1616A00F418
:104040007010884201D00120EAE70020E8E7000074
:1040500000100240000042428004424264000020FE
:104060000070004070B515460E46040007D0A069E8
:10407000B0F5807F03D094F8410010B107E0012033
:1040800070BD002084F84000204600F01DF804F1C7
:1040900008012068FFF762F83146A2682068FFF740
:1040A00091F8D4E901022946236BFFF739F8A1689A
:1040B000206850F8212042F0010240F82120012020
:1040C00084F84100002070BD704710B5401EB0F16B
:1040D000807F01D3012010BD4FF0E02460610F21EB
:1040E000601701F0DCF80020A061072020610020AB
:1040F00010BD70B5040004D094F84100002510B143
:1041000006E0012070BD84F84050204600F024F8FD
:10411000242084F841002068C16821F40051C16066
:10412000204600F07DFF2068016921F49041016183
:104130002068416921F02A0141612068C16841F489
:104140000051C1606564202084F8410084F8420079
:104150006563002070BD0000194810B5816986B004
:1041600041F480418161816901F480410491816958
:1041700041F004018161816901F0040104918169C8
:1041800041F00401816180690E4C00F0040004904C
:104190004FF4007000900220019001200290032053
:1041A000039069462046FFF741F820150090002053
:1041B000019069462046FFF739F806B010BD0000AF
:1041C00000100240000801402DE9F843044690F831
:1041D00041001F4616460D46202802D00220BDE8A9
:1041E000F8837DB176B100206064212084F841001D
:1041F000FFF718F9A6848046E684A068B0F5805FD2
:1042000002D003E00120EAE7206910B12E46002524
:104210000EE000260CE08021204600F05DFFA0B9F2
:10422000AEB116F8010B21684860E08C401EE084B6
:10423000E08C43464FF0000200970028EBD14FF08E
:104240004001204600F048FF30B10320C7E735F8B1
:10425000020BC0F30800E6E7202084F841000020AC
:10426000BDE7FEE770B5264C86B0E06940F400106B
:10427000E061E06900F400100490A06940F00800DB
:10428000A061A06900F008000490A06940F0080057
:10429000A061A069002500F0080004904020009073
:1042A0001220CDE901050320164E039069463046E1
:1042B000FEF7BCFF8020009069463046FEF7B6FF4F
:1042C0001148FFF7CEF8002817D1206940F40010FC
:1042D0002061206920F4001020610B480B49016027
:1042E0000B49C0E901154FF48041C0E90351456114
:1042F0008561C5610562FFF7B7F806B070BD0000C3
:1043000000100240000C01409400002000540040C6
:10431000801A060001684A69D24352050FD46FF42F
:1043200080624A61002140F8301F2022427381736D
:10433000026942F00402026101730120704700200B
:10434000704700002DE9F84F0446006889460B9D30
:1043500001689846174641F4806101602068016851
:1043600041F48071016000954FF0011B0022594615
:1043700020460A9B00F0E4F84FF4007A40B1206830
:104380000068C00501D5C4F840A00320BDE8F88F3F
:10439000216809F0FE0008612B46284920460A9A48
:1043A00000F016F9F0BB20684169806900902A4648
:1043B00020460A9900F0A2F940B1206C04283AD1B5
:1043C0002068016841F40071016034E0FEB2B8F188
:1043D000010F09D02168380A08612A4620460A9947
:1043E00000F08CF90028E8D1206806612A462046B2
:1043F0000A9900F083F90028DFD12068016841F4B0
:104400008071016000950022594620460A9B00F009
:1044100097F80028B3D1216809F0FF0040F00100AF
:10442000086100E007E02B46044920460A9A00F0A4
:10443000CFF80028AAD00120A8E700000200010060
:104440002DE9F843044600680D46DDE90897016848
:104450009846164641F4807101604B4600224FF0A9
:1044600001112046009700F06BF848B12068006801
:10447000C00502D54FF4007020640320BDE8F88326
:10448000216805F0FE0008613B464A461549204672
:1044900000F09EF888B920684169806900903A462A
:1044A0004946204600F02AF948B1206C042804D17E
:1044B0002068016841F4007101600120DEE7F5B277
:1044C000B8F1010F09D02168300A08613A4649461F
:1044D000204600F013F90028E7D12068056100208C
:1044E000CCE700000200010070B516460D460446F8
:1044F0001EE02046FFF70EFF08B1012070BD681CCA
:1045000016D0FEF78FFF801BA84200D885B920681F
:104510004069C04340070BD5002044F8300F2021EC
:104520006173A073216941F0200121612073E4E7E8
:1045300020684069C0434007DBD4002070BD000004
:104540002DE9F047984617460D460446C1F3074645
:10455000DDF820902AE000BFB8F1FF3F26D0FEF73B
:1045600061FFA0EB0901414502D8B8F1000F1DD150
:104570002068012E16D0806925EA00000004000C96
:1045800012D00020B84211D1002044F8300F202171
:104590006173A073216941F0200121612073012022
:1045A000BDE8F0874069E7E70120EBE72068012ECE
:1045B0000AD0806925EA00000004000C06D0002023
:1045C000B842C9D00020EBE74069F3E70120F7E7E4
:1045D0002DE9F047984616460D4604464FF000096F
:1045E0004FF0200AC1F3074723E020684069C04329
:1045F000400515D42068016841F40071016021680C
:104600006FF480604861C4F8309084F83DA084F86D
:104610003E90216C41F00401216484F83C9021E03B
:10462000701C06D0FEF7FEFEA0EB0800B04203D8D7
:1046300016B1012F1FD021E02068012F15D080690D
:1046400025EA00000004000C18D000BF44F8309F99
:1046500084F80DA084F80E90216941F020012161B9
:1046600084F80C900120BDE8F087406925EA00003D
:104670000004000CEAD12068406901E020688069EC
:1046800025EA00000004000CAFD1ECE72DE9F04171
:10469000002590460E460446202728E04069C04386
:1046A000C0060CD454F8301B6FF01000486144F879
:1046B00010596777A577206A2062257714E0FEF706
:1046C000B1FEA0EB0800B04200D886B9206840696E
:1046D000C04340060BD544F8305F6773A57320696B
:1046E00040F02000206125730120BDE8F0812068A2
:1046F0004169C9434906D1D40020F6E770B5164692
:104700000D4604461EE02046FFF704FE08B10120D6
:1047100070BD681C16D0FEF785FE801BA84200D82D
:1047200085B920684069C04300060BD5002044F8D5
:10473000300F20216173A073216941F020012161B4
:104740002073E4E720684069C0430006DBD4002002
:1047500070BD000010B50348FEF76AFEBDE81040CA
:10476000FFF780BD94000020034908B1080601E06E
:104770004FF48050086070471014014070B51C461B
:10478000154600F05BF9044905FB04F04989BDE8D2
:10479000704000F097B800001800002001B50098A4
:1047A00001E0401E00900028FBD108BDF0B5184E76
:1047B000203A1FFA82FCF568AA88EB882D6802FB74
:1047C00003F7FC1707EB5474C4F3C7040CFB045540
:1047D00000F034F92C20C106088000217289338949
:1047E0000C4E802710E0002015F801C027FA00FECB
:1047F0001CEA0E0F01D0338000E03280401CC0B2B2
:104800000828F1D3491CC9B2A142ECD3F0BD000085
:104810001800002000000260F0B516460F4605465D
:104820000F4C18E0E068638881882944994203D9D5
:10483000C188002539448FB2C088A1883844884295
:1048400000D9002539462846FFF7B0FFE068761CFE
:104850008088284485B23278002AE3D1F0BD000078
:104860001800002010B515484FF0204100F1480213
:10487000016013494160002108231160C2E901135E
:10488000D1605C061161C2E905148160C0E90313BF
:104890001022C0E905211202C161C0E90912C162FA
:1048A00001634163816300F01BF8044ABDE81040D6
:1048B000483211460148FFF7D5BB00003001002007
:1048C000040100A010B500222C23DC062380034B3A
:1048D00001E01980521C8242FBD310BD000002602F
:1048E00070B5274886B0816941F0200181618169F6
:1048F00001F020010491816941F0400181618169E9
:1049000001F040010491816941F080018161816978
:1049100001F080010491816941F4807181618169B4
:1049200001F480710491416941F4807141614069F1
:10493000144D00F480700490012001900290032037
:1049400003904FF48050009069462846FEF76EFCB5
:104950000D4E0224694630460094FEF767FC4CF683
:10496000B370CDE9000469462846FEF75FFC4FF6B8
:104970008070009069463046FEF758FC06B070BD66
:1049800000100240001401400018014030B5072813
:104990003AD81E49C4074FF0F00208704FF4A073D4
:1049A00013D04B808A80362213071A80CC88184A8D
:1049B000A4F51345413D04D0A4F50545523D07D06B
:1049C00008E0082444EA401003E04A808B80EAE7CC
:1049D000400110802A201880002010801080488814
:1049E000401EC0F307241480C0B210802B20188012
:1049F0000020108010808888401EC0F3072111809D
:104A0000C0B210802C20188030BD0000180000209B
:104A10000000026010B5FFF763FFFFF723FF0120DE
:104A2000FFF7A2FE00F0BEF900F028F80248007877
:104A3000BDE81040FFF7AABF1800002070B54FF086
:104A4000C0452A242C800C4C060A2680C6B226803B
:104A50001044401E020A2280C0B220802B202880F1
:104A6000080A2080C8B22080C818401E010A218090
:104A7000C0B2208070BD00000000026010B500F0E0
:104A80006DF9B349B44AA0F51343C880B1494FF05A
:104A9000C044413B7ED0A0F50543523B7BD1CF20A3
:104AA000208000200880C120088030200880ED2070
:104AB0002080642008800320088012200880812044
:104AC0000880E82020808520088010200880782039
:104AD0000880CB202080392008802C2008800020EE
:104AE00008803420088002200880F72020802020C1
:104AF0000880EA202080002008800880C0202080D4
:104B000021200880C120208011200880C52020801D
:104B10002D20088033200880362020800020088047
:104B20003A20208055200880B12020800020088075
:104B300017200880B62020800A200880A220088044
:104B4000F62020800120088030200880F22020807C
:104B5000002008802620208001200880E02020807E
:104B6000D0200880002008800220088007200880CC
:104B70000B2008801A2008803120088054200880EB
:104B800040200880292008801220088008800880A2
:104B9000172001E029E027E00880E1202080D020D4
:104BA0000880002008800220088007200880052057
:104BB0000880252008802D2008804420088045207A
:104BC00008801C20088018200880162008801C20DF
:104BD00008801D200880112020801046FFF7DEFD90
:104BE000292020802C20208010BDCF202080002074
:104BF00008808120088030200880ED2020806420FB
:104C00000880032008801220088081200880E82086
:104C10002080852008801020088078200880CB2004
:104C20002080392008802C20088000200880342033
:104C3000088006200880F720208020200880EA20B5
:104C40002080002008800880B1202080002008807B
:104C50001B200880B62020800A200880A22008801F
:104C6000C020208035200880C120208011200880AD
:104C7000C5202080452008800880C7202080A220F1
:104C80000880F2202080002008802620208001203B
:104C90000880E02020800F20088026200880242023
:104CA00008800B2008800E200880092008805420EE
:104CB0000880A8200880462008800C200880172043
:104CC0000880092008800F20088007200880002025
:104CD0000880E120208000200880192008801B2007
:104CE00008800420088010200880072008802A20DF
:104CF000088047200880392008800320088006208B
:104D00000880088030200880382008800F20088024
:104D100036202080C82008802A202080002008809B
:104D200008800880EF2008802B2020800020088049
:104D30000880012008803F2008803A2020805520EC
:104D40000880112020801046FFF728FD29204AE71F
:104D50001800002000000260FCBF020010B54FF0F8
:104D6000C043042018800E490888088808884FF638
:104D7000FF7202EA002408882043A0F50544523C53
:104D80000DD0D320188008880888088802EA0022FD
:104D900008881043A0F51341413900D0002010BD10
:104DA0000000026070B5084C4FF40030206040F6FF
:104DB000FF252846FFF7F2FC022020602846BDE8C8
:104DC0007040FFF7EBBC000010180140014A108151
:104DD00051817047180000200149C86070470000E9
:104DE00018000020F0B51C4885B0816941F0080129
:104DF0008161816901F008010491816941F0080134
:104E00008161816901F008010491816941F0080123
:104E100081618069012400F00800049003202026AD
:104E2000CDE90240CDE900640C4F69463846FEF7F3
:104E3000FDF9694638460094FEF7F8F902256946FF
:104E400038460095FEF7F2F9044810300660046019
:104E5000056005B0F0BD000000100240000C0140EC
:104E6000FEE7FEE77047704770B58EB0AA248DF854
:104E700000408DF80140002202248DF802408DF898
:104E800003204C788DF804400C788DF80540CC78E0
:104E90008DF806408C788DF807404C798DF80840E5
:104EA00009798DF8091041788DF80A1001788DF88C
:104EB0000B10C1788DF80C1081788DF80D104179A8
:104EC0008DF80E1000798DF80F0000208DF810007D
:104ED00000218DF8110012208DF814108DF8121099
:104EE0008DF8151013468DF8131016248DF8030055
:104EF0006E46B05C521C1844D2B2C3B2A242F8D380
:104F000033550025641C04E0705D00F023F96D1C2E
:104F1000EDB2A542F8D30EB070BD0000FEB5064656
:104F2000CDE900320A464FF480550146029501232F
:104F30000D48FEF713FC040002D03046FFF70AFCD0
:104F40000948FEF78EFA2028FAD12A462B46314628
:104F50000548FEF74DFB0328F7D00348FEF781FA1A
:104F60002028FAD12046FEBD94000020FEB506465A
:104F7000CDE900320A464FF48055014602950123DF
:104F80000D48FEF713FD040002D03046FFF7E2FBA8
:104F90000948FEF766FA2028FAD12A462B46314600
:104FA0000548FEF725FB0328F7D00348FEF759FA1A
:104FB0002028FAD12046FEBD94000020FEF790BDC7
:104FC00030B58FB028216846FDF725FB14210AA8CB
:104FD000FDF721FB01210804CDE900100024029413
:104FE00002250491CDE907504FF4E010099068467E
:104FF000FEF7A8FE08B172B6FEE70F20CDE90A055C
:105000004FF48060CDE90C4002210AA80E94FEF70F
:10501000BDFD002801D072B6FEE70FB030BD70476D
:1050200070B5044600680169E26821F440511143FB
:1050300001612169A0680843616908432168CA6861
:1050400041F20C639A430243CA6020684169A26935
:1050500021F44071114341611E492068884202D108
:10506000FEF73AFE01E0FEF727FE00EBC00101EB80
:105070000012606864218000B2FBF0F3B3FBF1F32F
:105080006FF018067343B2FBF0F5B2FBF0F605EBD8
:105090008305322303EB0515B5FBF1F5B6FBF1F6FD
:1050A00005F0F00505EB0615B2FBF0F6B2FBF0F0EB
:1050B000B0FBF1F06FF01802504306EB800003EBF9
:1050C0000010B0FBF1F0216800F00F002844886068
:1050D00070BD0000003801402DE9F04198461746A8
:1050E0000E460446069D27E0681C25D02DB1FEF72C
:1050F00099F9A0EB0800A8421ED920680C3050E8AE
:10510000001F21F4D07140E80012002AF5D1206878
:10511000143050E8001F21F0010140E80012002A7D
:10512000F5D1202084F8410084F84200002084F862
:1051300040000320BDE8F0812068006836EA0000E6
:1051400004D00020B842CFD00020F3E70120F9E7D7
:10515000FEE7000001B54FF47A7301226946024868
:10516000FFF732F808BD0000E80000200FB42DE979
:10517000F0430446C9B0092C3FD2DFE804F005052E
:1051800005050505053E050053AA06A8529900F03D
:1051900061F8061E32DD18216846FDF73CFA24202E
:1051A0008DF8000001208DF801008DF802400D20DF
:1051B0008DF815000A208DF8160000256C460DF1BB
:1051C0001809DFF8448016E0701B122800DB12205B
:1051D000C7B21221E01CFDF71EFA09EB05013A46A1
:1051E000E01CFDF7F1F900204246215C1160401CF3
:1051F0001728FADB1235B542E6DB002049B0BDE8DE
:10520000F0035DF814FB0000043801400FB4054BB7
:1052100010B503A9044A029800F0F4F910BC5DF837
:1052200014FB0000C56D0008680000200FB4084B97
:1052300010B504A902AA039800F0E4F9044602A9F3
:10524000002000F076FD204610BC5DF814FB000045
:10525000335D000837B514460846064B6A462146BA
:1052600000F0D0F904466946002000F062FD2046B7
:105270003EBD0000335D00084100080218BF042055
:105280000A0E18BF40F001004FF07F4232EA0101E0
:1052900008BF40F00200012808BF05207047090739
:1052A000090E002804DB00F1E02080F800147047AC
:1052B00000F00F0000F1E02080F8141D704701217C
:1052C000FDF789BAFDF7BFB900210846FDF745BAD9
:1052D0006FF05E010807FDF77EBA00002DE9F04D82
:1052E0000D4614464FF07F41B1EB440F9EBF4FF087
:1052F000FF312960BDE8F08D4FF0004040EA042105
:10530000C4F3C750783810F01F024A4B4FEA601CB4
:10531000C2F120067B44C4F3C750A0F178004FEAE5
:10532000601003EB800053F82C3008BFD0E901C6B1
:1053300012D0D0F804C093402CFA06F73B4387689C
:105340000CFA02FC27FA06F8C06807FA02F2F040ED
:105350004CEA080C42EA0006A3FB0132ACFB01C098
:10536000A6FB016101EB0C068E4234BF4FF0010C2D
:105370004FF0000CC1186144BCF1000F02D0814213
:1053800002D903E0814201D2012000E00020104454
:1053900000F120024FEA92188006CA0C40EA42301F
:1053A0004F03C5F80080FDF7C1FB82463846FDF784
:1053B000C6FB6FF01201FDF70EFA07463046FDF707
:1053C000BEFB6FF02501FDF706FA834639465046CD
:1053D000FDF739F95946FDF736F900F500666FF328
:1053E0000B0651463046FDF780F93946FDF77DF949
:1053F0005946FDF77DF91049FDF77DF907460F493C
:105400003046FDF778F93946FDF71DF907460C4996
:105410003046FDF770F93946FDF715F914F0004FE5
:1054200008BFBDE8F08DC8F1805180F000402960D0
:10543000BDE8F08DCC650000DB0FC92F22AAFD2945
:105440000000C92F0EB50092CDE901300B4603A232
:1054500000210620FFF78AFE0EBD000025737C2583
:10546000737C25642072657475726E696E67202581
:10547000640A000002E008C8121F08C1002AFAD11D
:1054800070477047002001E001C1121F002AFBD1C4
:105490007047000001490860704700006C00002060
:1054A0002DE9FF5FDDE90220010DDDF838B0024390
:1054B00018D044F61050A1F2FF3141430D140F985B
:1054C000012820D0A5EB0B00401C5FEA000A4FF03A
:1054D0000004474EDFF81C91A046504616D5CAF18D
:1054E000000728E00F98012443A2012808D00021DA
:1054F00000980F9BC0E90021C0E90243BDE8FF9F6F
:105500006FEA0B01F4E7CBF10000DEE7074612E09B
:10551000F80707D02246334640464946FDF70EFAC3
:10552000804689462246334610461946FDF706FA5C
:1055300004460E467F10002FEAD1DDE90201BAF1E0
:10554000000F42464B4602DAFDF7F8F901E0FDF79D
:1055500067FA04460E460022284BFDF79DFB03D850
:105560004FF0FF30014607E00022254B2046314630
:10557000FDF73DF9FDF700FD102409E0002C0ADBE2
:105580000A220023FDF7E6FB019B30321A55641E08
:1055900050EA0102F2D1641C019AC4F111031444CF
:1055A0000F9A012A03D0012208430DD10AE00843D3
:1055B00004D000204FF0110B0F9080E7A3EB0B05F8
:1055C0006D1E0DE05B4504DD4FF0000205F10105A5
:1055D00004E003DA4FF00002A5F10105002AECD047
:1055E00000980F99C0E90231C0E9004586E7000044
:1055F000000024400000F03F300000000000F043B5
:105600000000E03F2DE9FF4F95B09B4689460646D6
:1056100000250FE2252877D100242746F84A0121EA
:10562000059400E0044316F8013F203B01FA03F023
:105630001042F7D130782A2811D06FF02F0330783C
:10564000A0F13002092A16D8059A44F0020402EBB0
:10565000820203EB42021044761C0590EFE759F8F2
:10566000042B0592002A03DA504244F400540590BA
:1056700044F00204761C30782E2816D116F8010F5B
:1056800044F004042A280DD06FF02F023078A0F1E6
:105690003003092B09D807EB870302EB4303C71834
:1056A000761CF3E759F8047B761C30786C280FD011
:1056B00006DC4C2817D068280DD06A2814D104E0E5
:1056C000742810D07A280FD10DE044F400140AE0B9
:1056D00044F4801401E044F440147278824202D110
:1056E00004F58014761C761C307866280BD013DC09
:1056F000582877D009DC002875D04528F6D04628F0
:10570000F4D047281AD19DE118E0632835D06428E9
:1057100079D0652812D195E1702873D008DC67280C
:10572000F1D069286FD06E280DD06F2806D1B5E072
:1057300073282CD0752875D0782874D05A461799BC
:1057400090476D1C75E1C4F30250022809D003286C
:105750000DD0D9F8001004280DD00D6009F104090E
:1057600067E1D9F80010EA17C1E90052F6E7D9F865
:1057700000100D80F2E70D70F0E719F8041B8DF8AA
:10578000001000208DF80100EA46012003E059F8DE
:1057900004AB4FF0FF3061074FF0000102D40DE081
:1057A00008F101018846B9420FDA8045F8DB1AF8A2
:1057B00008100029F4D108E008F10101884681426F
:1057C000FADB1AF808100029F6D105985B46A0EB21
:1057D000080721463846179A00F094FA284400EB4F
:1057E000080507E04DE029E10DE01AF8010B5A46E3
:1057F00017999047B8F10108F7D25B462146384621
:10580000179A13E142E00A220092C4F302524FF0C9
:10581000000A022A08D059F804CB032A4FEAEC7197
:105820000AD00DE029E02AE009F1070121F0070282
:10583000F2E802C1914609E00FFA8CFC4FEAEC71E4
:10584000042A03D14FFA8CFC4FEAEC71002907DAE5
:105850000A460021DCF1000C61EB02012D2202E07E
:10586000220504D52B228DF80420012203E0E20753
:1058700001D02022F7E7904659E00A2102E01022E9
:105880000DE010214FF0000A00910BE010224FF0C4
:10589000000A44F004040827009203E008224FF0B5
:1058A000000A0092C4F30252022A05D059F804CB30
:1058B0000021032A08D009E009F1070121F00702BD
:1058C000F2E802C1914605E01FFA8CFC042A01D1DE
:1058D0000CF0FF0C4FF00008220728D5702806D0E6
:1058E000009B83F0100353EA0A0305D00EE0402228
:1058F0008DF80420012208E05CEA010206D0302283
:105900008DF804208DF8050002229046009B83F05C
:10591000080353EA0A030AD15CEA010201D16207D3
:1059200005D530228DF804204FF001087F1E58283D
:1059300004D034A003900EA802900DE036A0F9E741
:1059400053466046009AFDF705FA84460398825C48
:105950000298401E029002705CEA0100F0D10298A9
:1059600006A9081A00F1200A600702D524F4803441
:1059700000E00127574502DDA7EB0A0000E0002008
:1059800000EB0A01009005984144401A0590E0039D
:1059900006D45B462146179A059800F0B3F90544F2
:1059A000002706E001A85A46C05D179990476D1C74
:1059B0007F1C4745F6DBE0030CD55B462146179A72
:1059C000059800F09FF9054404E030205A461799E5
:1059D00090476D1C0099481E00900029F5DC08E0F6
:1059E000029802995A460078491C029117999047EB
:1059F0006D1CBAF10001AAF1010AF1DC65E10000B9
:105A00000928010030313233343536373839616294
:105A10006364656600000000303132333435363758
:105A200038394142434445460000000000F058F92F
:105A30000544761C307800287FF4ECAD19B0284678
:105A4000BDE8F08F620700D4062709F1070222F0B3
:105A5000070CFCE80223E14603F000485FEA080C6B
:105A600002D00FF2702C0DE05FEA045C02D50FF259
:105A7000682C07E05FEAC47C02D00FF2602C01E0E2
:105A8000AFF2700C4FF0FF3823F00043CDF850C058
:105A900065280CD006DC452809D046281DD04728AB
:105AA0003DD13DE0662818D067287ED138E000213E
:105AB000112F01DB112000E0781CCDE9000106A9BF
:105AC0000EA8FFF7EDFCDDE90F010E9A039100210E
:105AD000009207F1010A04914DE04FF00040009759
