:020000040800F2
:100000006849002045010008771E0008CB1300084E
:10001000751E0008A5070008AD21000800000000BB
:100020000000000000000000000000001520000893
:10003000D107000800000000791E00081720000802
:100040005F0100085F0100085F0100085F01000810
:100050005F0100085F0100085F0100085F01000800
:100060005F0100085F0100085F0100085F010008F0
:100070005F0100085F0100085F0100085F010008E0
:100080005F0100085F0100085F0100085F010008D0
:100090005F0100085F0100085F0100085F010008C0
:1000A0005F0100085F0100085F0100085F010008B0
:1000B0005F0100085F0100085F0100085F010008A0
:1000C0005F0100085F0100085F0100085F01000890
:1000D0005F0100085F0100085F0100085F01000880
:1000E0005F0100085F0100085F0100085F01000870
:1000F0005F0100085F0100085F0100085F01000860
:100100005F0100085F0100085F0100085F0100084F
:100110005F0100085F0100085F0100085F0100083F
:100120005F0100085F0100085F0100085F0100082F
:10013000DFF80CD000F024FB00480047ED2A00084F
:10014000684900200648804706480047FEE7FEE76A
:10015000FEE7FEE7FEE7FEE7FEE7FEE7FEE7FEE777
:100160007920000831010008202A04DB203A21FA16
:1001700002F00021704721FA02F3D040C2F12002C0
:100180009140084319467047D2B201E000F8012BB4
:10019000491EFBD270470022F6E710B513460A4607
:1001A00004461946FFF7F0FF204610BD421C10F828
:1001B000011B0029FBD1801A70472DE9FE4F8046B4
:1001C00081EA0300C00F0C46009021F0004123F0AB
:1001D0000045B8EB0200A94105D2404621469046B1
:1001E0001C460B46024623F00040104347D0270D23
:1001F000C7F30A00C3F30A510290401A0190402845
:100200006BDAC3F3130040F4801B0098924620B1D0
:100210000023D2EB030A63EB0B0B01985946C0F1A4
:100220004002504600F0E6F806460D465046594654
:10023000019A00F0EEF810EB08006141002487EA13
:10024000115284EAE7731A4340D0009A62B3019ACC
:10025000012A4FEA075215DC001B61EB02014FF047
:10026000004202EA0752CDE90042001C41F580112C
:1002700032462B4600F025F903B0BDE8F08F40462A
:100280002146F9E7001B61EB0201001C41F58013D8
:1002900000185B412018A2F5001747EB030140EA64
:1002A000D570B6196D4111E06D084FEA360645EA82
:1002B000C0754FEA0752001B61EB0201001C41F5BB
:1002C000801149084FEA30000019514132462B464F
:1002D00003B0BDE8F04F00F0E5B8009801224000FF
:1002E0000023D0EB020263EBE073009821464FEA53
:1002F000E074B8EB000061EB0401E9E783F0004330
:100300005BE781F0004158E700F0004230F0004028
:100310000AD0C10D01F56071C0F3160042EA015127
:10032000C20840071143704700200146704701F0A2
:10033000004330B421F0004150EA010206D00A0D1A
:10034000A2F56072C1F31301002A02DC30BC002068
:100350007047440F44EAC104C100E01830BC00EB10
:10036000C25000F068B830B50B460146002020228C
:10037000012409E021FA02F59D4205D303FA02F5B2
:10038000491B04FA02F52844151EA2F10102F1DC12
:1003900030BD2DE9F05F0546002092469B46884619
:1003A0000646814640241BE02846414647462246F1
:1003B000FFF7DAFE53465A46C01A914110D3114650
:1003C0001846224600F016F82D1A67EB01084F4632
:1003D00022460120002100F00DF817EB00094E41E4
:1003E000201EA4F10104DFDC484631462A4643467C
:1003F000BDE8F09F202A04DB203A00FA02F1002039
:1004000070479140C2F1200320FA03F31943904052
:100410007047202A06DBCB17203A41FA02F043EA64
:10042000E07306E041FA02F3D040C2F120029140AD
:100430000843194670470029A8BF7047401C49006F
:1004400008BF20F00100704710B4B0FA80FC00FA39
:100450000CF050EA010404BF10BC704749B1CCF164
:10046000200421FA04F411FA0CF118BF01212143F0
:100470000843A3EB0C01CB1D4FEA00614FEA1020AB
:1004800042BF002010BC704700EBC350104400294D
:10049000A4BF10BC7047401C490008BF20F00100F9
:1004A00010BC704710B5141E73F1000408DA401C2C
:1004B00041F1000192185B411A4301D120F0010083
:1004C00010BD2DE9F04D92469B4611B1B1FA81F273
:1004D00002E0B0FA80F220329046FFF78BFF04462C
:1004E0000F4640EA0A0041EA0B0153465A460843C8
:1004F00013D0114653EA010019D0C8F1400250460A
:10050000FFF732FE05460E46504659464246FFF773
:1005100071FF084305D0012004E020463946BDE8BC
:10052000F08D0020054346EAE0762C4337430A98D5
:100530006305E40AA0EB08000022FD0A44EA4754E0
:100540000A3002D500200146E9E70105101969418A
:10055000DDE9084500196941BDE8F04DA2E72DE944
:10056000FE4F81EA030404F0004421F000410094AE
:100570004FF0000B23F0004350EA01045ED052EA32
:1005800003045BD0C3F30A54C1F30A552C44A4F20C
:10059000F3340194A0FB0254C1F3130141F4801120
:1005A000C3F3130343F4801301FB024400FB034E27
:1005B000840A970A44EA815447EA8357A4FB0768F0
:1005C00002958D0A05FB07854FEA932C04FB0C541A
:1005D0002705029D4FEA065847EA1637B5EB08058E
:1005E0006EEB070C870E920E47EA811742EA8312E0
:1005F000A7FB0201B6EB0B0164EB00042B0D43EAF1
:100600000C335E1844EB1C50DA465146E7FB0201FE
:10061000C5F313044FEA0B3343EA14534FEA043291
:10062000019C43EA0603A4F10C040294009CCDE96A
:1006300000B4FFF746FF03B0BDE8F08F002001468D
:10064000F9E72DE9F04D81EA030404F0004B21F0B5
:10065000004514464FF0000A23F0004150EA05021D
:1006600020D054EA01021DD0C5F30A570246C5F353
:100670001303C1F31300C1F30A5640F4801543F489
:100680008013A7EB0608101BD64608F2FD3873EB63
:10069000050002D308F1010801E092185B41B8F1AE
:1006A000000F03DA00200146BDE8F08D00204FF472
:1006B0008011064684460EE0171B73EB050705D331
:1006C000121B63EB050306434CEA010C49084FEA91
:1006D000300092185B4150EA0107EDD152EA030065
:1006E00012D082EA040083EA0501084305D0101BFA
:1006F000AB4106D20122002306E000224FF0004366
:1007000002E06FF0010253101AEB06004CEB0851A7
:1007100010EB0A0041EB0B01BDE8F04DFFF7C2BE44
:10072000C1F30A52C1F3130140F2FF3341F48011C7
:100730009A4202DA00200146704740F233439A425F
:10074000A2F2334202DC5242FFF70EBDFFF752BE67
:1007500030B5041E71F1000404DB4FF00044404248
:1007600064EB0101141E73F1000405DB1C464FF01D
:100770000043524263EB0403994208BF904230BDEC
:10078000064C074D06E0E06840F0010394E80700DE
:1007900098471034AC42F6D3FFF7CEFC74550008EE
:1007A00094550008FEE700000848074901604FF42F
:1007B000E131416000218160C160016181610C21F2
:1007C000416100F04ABD0000003801406400002093
:1007D0007047000030B5B3F5804F05D06FF0704121
:1007E00040F82210002030BD8C690B688D682343CF
:1007F0004C688989240144EA0524234343EA0141E2
:1008000050F82230014C23401943E9E70000F0CFB3
:1008100010B50A6850F8223023F0010340F8223066
:100820008C68082C23D000234A682243CC681C43E0
:100830000B6922431A434B690E4C1A43CB691A4386
:100840000B6A1A434B6A1A438B6A1A43CB6A1A43E0
:100850000B6B1A438B6913434A6B09681A4350F8B0
:100860002130A343134340F82130002010BD402322
:10087000DAE700007FFF0F0030B5D1E9003443EA2A
:1008800004138C688D89240244EA054423430C8AAE
:10089000094D00EB820005EB045423430C7D6D01F0
:1008A00005EB0464896923430B43416801F040412F
:1008B0000B434360002030BD0000F0FF70B5104EC8
:1008C00005460C46307818B901F036FB012030702F
:1008D000210AA139C1EB0112E0B202EB411100EB98
:1008E00041000102A1F52141C81701EB50700549F3
:1008F000202201EBE001284601F0F8FA002070BD4B
:1009000038000020003018002DE9F84FDFF8C891BA
:100910000024A9F1040B23460F2709F1040AABF1C7
:10092000040ED1E00125A54006EA0502AA4276D1CF
:10093000DFF8A8C14E68A6EB0C0866452BD00DDC8D
:10094000032E34D005DC36B3012E19D0022E2FD160
:100950001BE0112E16D0122E2AD119E0B8F5881FEF
:1009600019D006DCB8F5803F15D0B8F5801F1FD12F
:1009700011E0B8F5001F0ED0B8F5041F18D10AE039
:10098000CB6815E0CB681B1D12E0CB6808330FE085
:10099000CB680C330CE08B682BB1012B4FF00803B4
:1009A00003D0456104E0042302E0056100E0002378
:1009B000FF2A01D8064601E000F104064FEA84054B
:1009C00001D9A5F12005D6F8008007FA05FC28EA30
:1009D0000C0803FA05F548EA0508C6F800804D68DA
:1009E000ED0070D53E4DAE6946F00106AE61AD69D1
:1009F00024F0030605F0010500953A4D06EB050CC1
:100A0000DCF80850A607360F07FA06F825EA0805AD
:100A1000DFF8D480404503D14FF0000825E052E0D4
:100A2000DFF8C880404502D14FF001081DE0DFF833
:100A3000C080404502D14FF0020816E0DFF8B480D4
:100A4000404502D14FF003080FE0DFF8AC8040458D
:100A500002D14FF0040808E0DFF8A080404502D141
:100A60004FF0050801E04FF0060808FA06F848EADA
:100A70000508CCF808804D68D9F80060ED024D46B5
:100A800001D5164300E096432E604D68DAF8006009
:100A9000AD02554601D5164300E096432E604D68E1
:100AA000DBF80060AD035D4601D5164300E09643D8
:100AB0002E604D68DEF80060ED03754601D51643E3
:100AC00000E096432E60641C0A681646E2407FF4FC
:100AD00029AFBDE8F88F00000804014000001110A4
:100AE000001002400000014000080140000C0140DD
:100AF000001001400014014000180140001C01409A
:100B0000014880687047000050000020024881685A
:100B100002781144816070475000002070B50D4D7F
:100B200004464FF47A712878B1FBF0F00A4909685D
:100B3000B1FBF0F000F07DFB48B9102C07D2002289
:100B40002146501E00F00AF800206C6070BD0120A4
:100B500070BD0000500000205C000020F0B40E4B7F
:100B60001B680C46C3F30223C3F10705042D00D90B
:100B70000425191D072901D2002300E0DB1E0126F0
:100B800006FA05F1491E214099409E40761E164006
:100B90003143F0BC01F030BB0CED00E02DE9F04733
:100BA0000F46050061D0434E306800F00700B842A0
:100BB00009D2306820F0070038433060306800F018
:100BC0000700B84251D128683B4C810712D5400735
:100BD00003D5606840F4E06060602878000703D5C2
:100BE000606840F4605060606068A96820F0F000C0
:100BF000084360602878C00728D06868012810D0B2
:100C00002168022810D0890700292EDA616821F0B6
:100C1000030101436160FFF773FF804641F28839A9
:100C20000DE021688903EFE78901EDE7FFF768FF31
:100C3000A0EB0801494502D90320BDE8F0876068B0
:100C4000696800F00C00B0EB810FEFD1306800F064
:100C50000700B8420BD9306820F0070038433060F5
:100C6000306800F00700B84201D00120E5E728789D
:100C7000400705D56068E96820F4E06008436060DB
:100C80002878000706D56068296920F4605040EA9A
:100C9000C100606000F038F86168084AC1F30311D0
:100CA000515CC8400649086006480068FFF736FFF7
:100CB0000020C2E700200240001002400255000858
:100CC0005C00002054000020044805490068496881
:100CD000044AC1F30221515CC84070475C00002007
:100CE0000010024012550008044805490068496890
:100CF000044AC1F3C221515CC84070475C00002027
:100D000000100240125500080E4A51680E4801F0CA
:100D10000C03042B11D0082B0FD10C48C1F38343D3
:100D2000C903C05C0AD55168084AC1F34041921E0C
:100D3000515C054A5043B0FBF1F070470449484309
:100D4000704700000010024000127A00F2540008C0
:100D500000093D002DE9F84F040070D02078C04D07
:100D6000C00749D06868C0F38100012807D06868CF
:100D7000C0F38100022809D16868C00306D528683D
:100D8000800339D560680028E7D035E06068B0F5A9
:100D9000803F0BD010B1B0F5A02F11D0286820F4FF
:100DA00080302860286820F4802002E0286840F421
:100DB00080302860606890B1FFF7A2FE06460AE026
:100DC000286840F480202860F0E700BFFFF798FE15
:100DD000801B642873D828688003F7D50CE0FFF7E0
:100DE0008FFE064605E000BFFFF78AFE801B6428E1
:100DF000F0D828688003F7D420789A4E80074FF007
:100E000001094FF0000839D5686810F00C0F07D0C1
:100E10006868C0F38100022809D16868C00306D45D
:100E20002868800714D52069012808D110E02069BE
:100E3000B0B1C6F80090FFF763FE074605E00AE18F
:100E4000FFF75EFEC01B0228C4D828688007F7D5CC
:100E50002868616920F0F80040EAC10028600DE0D0
:100E6000C6F80080FFF74CFE074604E0FFF748FE97
:100E7000C01B022823D828688007F7D420780007F1
:100E80002CD57948A169D9B1C0F80090FFF738FE98
:100E9000074604E0FFF734FEC01B02280FD8686A3B
:100EA0008007F7D571484FF4FA510068B0FBF1F0B4
:100EB000009000BF0098411E0091FAD20EE080E041
:100EC000C0F80080FFF71CFE074604E0FFF718FE9D
:100ED000C01B022875D8686A8007F7D420784007BD
:100EE00060D5E8690027C00008D4E86940F0805068
:100EF000E861E869012700F0805000905C480168D3
:100F0000C90513D40168834641F480710160FFF77D
:100F1000F7FD824606E000BFFFF7F2FDA0EB0A00F6
:100F200064284ED8DBF80000C005F5D5E06801283C
:100F30000AD008B1052813D0286A20F001002862E1
:100F4000286A20F0040002E0286A40F001002862CC
:100F5000E06841F2883B98B1FFF7D2FD82460BE092
:100F6000286A40F004002862EEE700BFFFF7C8FDE2
:100F7000A0EB0A0159455AD8286A8007F6D50CE03B
:100F8000FFF7BEFD824605E0FFF7BAFDA0EB0A01C0
:100F900059454CD8286A8007F6D41FB1E86920F07B
:100FA0008050E861E06988B36968C1F38101022972
:100FB00044D00228C6F8608004D0FFF7A1FD0446A3
:100FC00038E034E0FFF79CFD074604E0FFF798FDAA
:100FD000C01B02282BD828688001F7D4206AB0F5FE
:100FE000803F05D16868A16820F40030084368603C
:100FF000D4E908010843696821F474110843686062
:10100000C6F86090FFF77CFD044606E025E000BFCF
:10101000FFF776FD001B022809D828688001F7D564
:101020001BE000BFFFF76CFD001B022802D9032064
:10103000BDE8F88F28688001F4D40EE00128F7D0CD
:101040006868226A00F48031914204D1616A00F438
:101050007010884201D00120EAE70020E8E7000094
:101060000010024000004242800442425C00002026
:101070000070004070B5040009D0606A002540B1DE
:1010800025616561A56294F8510040B10CE0012032
:1010900070BD6068B0F5827FF4D0E561F2E784F856
:1010A0005050204600F040F8022084F8510020689B
:1010B000016821F040010160A088218900F482705C
:1010C00001F404410843A18901F400610843217C33
:1010D00001F002010843217D01F001010843218B49
:1010E00001F400710843217F01F03801084394F8AE
:1010F000201001F080010843218D01F400510843C4
:1011000021680860A069042101EA10402168486054
:101110002068C16921F40061C1616565012084F81E
:101120005100002070BD000030B5254885B08169B0
:1011300041F480518161816901F480510491816998
:1011400041F004018161816901F004010491816928
:1011500041F004018161816901F004010491816918
:1011600041F004018161816901F004010491816908
:1011700041F0100181618069012400F010000490A9
:10118000202000900220CDE9010403200D4D0390A2
:1011900069462846FFF7B8FB40200090694628467C
:1011A000FFF7B2FB8020009069462846FFF7ACFBB2
:1011B0000094694604480194FFF7A6FB05B030BDD2
:1011C00000100240000801400010014070B51546B3
:1011D0000E46040007D0A069B0F5807F03D094F8D4
:1011E000410010B107E0012070BD002084F84000EC
:1011F000204600F01DF804F108012068FFF708FB05
:101200003146A2682068FFF737FBD4E9010229467E
:10121000236BFFF7DFFAA168206850F8212042F025
:10122000010240F82120012084F84100002070BD17
:10123000704710B5401EB0F1807F01D3012010BD72
:101240004FF0E02460610F21601700F0D5FF00200F
:10125000A06107202061002010BD70B5040004D0FB
:1012600094F84100002510B106E0012070BD84F81B
:101270004050204600F024F8242084F841002068E3
:10128000C16821F40051C160204600F0F7FE2068DB
:10129000016921F4904101612068416921F02A012E
:1012A00041612068C16841F40051C160656420203B
:1012B00084F8410084F842006563002070BD00009E
:1012C000194810B5816986B041F480418161816916
:1012D00001F480410491816941F0040181618169D7
:1012E00001F004010491816941F004018161806988
:1012F0000E4C00F0040004904FF4007000900220A7
:101300000190012002900320039069462046FFF7D8
:10131000FBFA201500900020019069462046FFF757
:10132000F3FA06B010BD00000010024000080140B2
:101330002DE9F843044690F841001F4616460D4635
:10134000202802D00220BDE8F8837DB176B10020CC
:101350006064212084F84100FFF7D2FBA684804618
:10136000E684A068B0F5805F02D003E00120EAE7E0
:10137000206910B12E4600250EE000260CE08021E9
:10138000204600F0D7FEA0B9AEB116F8010B2168D7
:101390004860E08C401EE084E08C43464FF0000241
:1013A00000970028EBD14FF04001204600F0C2FE2C
:1013B00030B10320C7E735F8020BC0F30800E6E7B9
:1013C000202084F841000020BDE7FEE7034908B172
:1013D000080601E04FF48050086070471014014087
:1013E00070B51C46154600F0B5F9044905FB04F03C
:1013F0004989BDE8704000F0F1B800003C000020D1
:1014000001B5009801E0401E00900028FBD108BD06
:10141000F0B51446102389B01A4600F09BF92C2031
:10142000C106088021466846FFF748FA1349144E62
:1014300000204B890A896F464FF6FF7E4FF4004526
:1014400007EB400417F8101094F801C00EEA0121D0
:101450004CEA010C5FF0000125FA01F414EA0C0FCC
:1014600001D0328000E03380491CC9B21029F3D387
:10147000401CC0B21028E3D309B0F0BD3C000020EE
:1014800000000260F0B5184E203A1FFA82FCF568A1
:10149000AA88EB882D6802FB03F7FC1707EB54744E
:1014A000C4F3C7040CFB045500F054F92C20C1060A
:1014B00008800021728933890C4E802710E00020BB
:1014C00015F801C027FA00FE1CEA0E0F01D0338088
:1014D00000E03280401CC0B20828F1D3491CC9B2D8
:1014E000A142ECD3F0BD00003C00002000000260EF
:1014F0002DE9F0410F46054600241F4E37E07E2AB5
:101500001AD8F068738881882144994203D9C18828
:10151000002429448DB2C088B1882844884201D96A
:101520000024254629462046FFF7ACFFF0687F1CC3
:101530008088204484B21AE0718804F11000884247
:1015400002D900241035ADB2B18805F110008842EF
:1015500001D9002425463888010201EB102082B20F
:1015600029462046FFF754FF1034A4B2BF1C3A7836
:10157000002AC4D1BDE8F0813C00002010B5154818
:101580004FF0204100F14802016013494160002101
:1015900008231160C2E90113D1605C061161C2E940
:1015A00005148160C0E903131022C0E9052112026D
:1015B000C161C0E90912C16201634163816300F046
:1015C0001BF8044ABDE81040483211460148FFF7B5
:1015D000FDBD0000AC440020040100A010B50022B5
:1015E0002C23DC062380034B01E01980521C82422D
:1015F000FBD310BD0000026070B5274886B081693A
:1016000041F020018161816901F02001049181692B
:1016100041F040018161816901F0400104918169DB
:1016200041F080018161816901F08001049181694B
:1016300041F480718161816901F480710491416993
:1016400041F4807141614069144D00F48070049050
:10165000012001900290032003904FF480500090ED
:1016600069462846FFF750F90D4E02246946304678
:101670000094FFF749F94CF6B370CDE900046946D0
:101680002846FFF741F94FF68070009069463046D2
:10169000FFF73AF906B070BD001002400014014097
:1016A0000018014030B507283AD81E49C4074FF04A
:1016B000F00208704FF4A07313D04B808A8036225A
:1016C00013071A80CC88184AA4F51345413D04D06D
:1016D000A4F50545523D07D008E0082444EA40102F
:1016E00003E04A808B80EAE7400110802A201880BE
:1016F0000020108010804888401EC0F3072414800A
:10170000C0B210802B2018800020108010808888A4
:10171000401EC0F307211180C0B210802C20188019
:1017200030BD00003C0000200000026010B5FFF753
:1017300063FFFFF723FF0120FFF748FE00F0BEF92B
:1017400000F028F802480078BDE81040FFF7AABF73
:101750003C00002070B54FF0C0452A242C800C4C72
:10176000060A2680C6B226801044401E020A228045
:10177000C0B220802B202880080A2080C8B2208098
:10178000C818401E010A2180C0B2208070BD000030
:101790000000026010B500F06DF9B349B44AA0F53D
:1017A0001343C880B1494FF0C044413B7ED0A0F5FF
:1017B0000543523B7BD1CF20208000200880C120F0
:1017C000088030200880ED202080642008800320DD
:1017D00008801220088081200880E8202080852051
:1017E00008801020088078200880CB2020803920B5
:1017F00008802C20088000200880342008800220E7
:101800000880F720208020200880EA202080002007
:1018100008800880C020208021200880C1202080EE
:1018200011200880C52020802D20088033200880CA
:1018300036202080002008803A2020805520088013
:10184000B12020800020088017200880B62020804A
:101850000A200880A2200880F6202080012008802D
:1018600030200880F2202080002008802620208060
:1018700001200880E0202080D020088000200880FF
:1018800002200880072008800B2008801A2008808A
:1018900031200880542008804020088029200880BA
:1018A0001220088008800880172001E029E027E046
:1018B0000880E1202080D0200880002008800220BD
:1018C00008800720088005200880252008802D201A
:1018D000088044200880452008801C2008801820AB
:1018E0000880162008801C2008801D2008801120F8
:1018F00020801046FFF784FD292020802C202080A6
:1019000010BDCF202080002008808120088030205A
:101910000880ED20208064200880032008801220A9
:10192000088081200880E820208085200880102001
:10193000088078200880CB202080392008802C2047
:101940000880002008803420088006200880F720C6
:10195000208020200880EA20208000200880088045
:10196000B1202080002008801B200880B620208025
:101970000A200880A2200880C0202080352008800E
:10198000C120208011200880C520208045200880AB
:101990000880C7202080A2200880F220208000201C
:1019A00008802620208001200880E02020800F2051
:1019B000088026200880242008800B2008800E2024
:1019C00008800920088054200880A820088046202C
:1019D00008800C20088017200880092008800F202C
:1019E00008800720088000200880E1202080002057
:1019F0000880192008801B200880042008801020FF
:101A00000880072008802A20088047200880392085
:101A10000880032008800620088008803020088085
:101A2000382008800F20088036202080C8200880B9
:101A30002A2020800020088008800880EF2008806D
:101A40002B202080002008800880012008803F2073
:101A500008803A20208055200880112020801046E0
:101A6000FFF7CEFC29204AE73C000020000002607E
:101A7000FCBF020010B54FF0C043042018800E498F
:101A80000888088808884FF6FF7202EA0024088850
:101A90002043A0F50544523C0DD0D320188008887F
:101AA0000888088802EA002208881043A0F513413C
:101AB000413900D0002010BD0000026070B5084C14
:101AC0004FF40030206040F6FF252846FFF798FCD1
:101AD000022020602846BDE87040FFF791BC00005E
:101AE000101801400349CA68D3884A88014600207B
:101AF000FFF776BC3C0000200148C068704700003A
:101B00003C000020014A1081518170473C000020B8
:101B10000149C860704700003C000020014908816D
:101B2000704700003C000020F0B5824C9BB020784C
:101B3000401C20706068FEF7E7FB7F4A7F4BFEF792
:101B40003CFBFEF7F4FB60607D48FFF7E1FF0021FE
:101B50004FF47840FFF7D6FF7A487B4E0021038888
:101B600032880846FFF73CFC227878A101A800F0F3
:101B70002FFBFFF7C1FFC08800EB800080B2FFF7AA
:101B8000B1FFFFF7B9FFC08801A900EB800080B268
:101B9000FFF7AEFC6068FEF7B7FB02460B466FA18D
:101BA00001A800F015FBFFF7A7FFC0884FF6FF75EF
:101BB00000EB400005EA4000FFF794FFFFF79CFFB1
:101BC000C08801A900EB400005EA4000FFF790FC47
:101BD0006068FEF799FB02460B4665A101A800F07C
:101BE000F7FAFFF789FFC088C0EBC00080B2FFF7AB
:101BF00079FFFFF781FFC08801A9C0EBC00080B268
:101C0000FFF776FC4FF4FC60FFF788FF60A00090C0
:101C10002023022263A101A800F0DAFAFFF76CFF8B
:101C2000C08800EBC00080B2FFF75CFFFFF764FFE5
:101C3000C08801A900EBC00080B2FFF759FCFFF794
:101C40005BFFC08800EB400101EBC00080B257A1F0
:101C5000FFF74EFC5B48FFF75BFF5BA4FFF74CFF11
:101C600080883188B1FBF0F72046FEF79FFA381ADA
:101C7000420820234BA101A8009400F0A9FAFFF725
:101C80003BFFC08800EB400005EA4000FFF72AFF59
:101C9000FFF732FFC08801A900EB400005EA4000D1
:101CA000FFF726FC2648FFF733FF49A42046FEF73E
:101CB0007DFA31882023C0EBD100420839A101A868
:101CC000009400F085FAFFF717FFC088C0EB001002
:101CD00080B2FFF707FFFFF70FFFC08801A9C0EB35
:101CE000001080B2FFF704FC3DA42046FEF75EFA28
:101CF00031882023C0EBD10042082AA101A800941A
:101D000000F066FAFFF7F8FEC08805EA0010FFF75A
:101D1000E9FEFFF7F1FEC08801A905EA0010FFF710
:101D2000E7FB6FF07F400090401E0090FCD11BB09D
:101D3000F0BD0000000000209A9999999999B93F47
:101D400028000020400000203E000020CFD4CABE62
:101D5000D5FBD0CDB1E4C1BF3A256400CFD4CABE13
:101D6000B8A1B5E3D0CDB1E4C1BF3A25660000000B
:101D7000CFD4CABEB8A1B5E3D0CD28B1A3C1F4C1B8
:101D8000BDCEBBD0A1CAFD293A252E326600000087
:101D9000B2E5C8EB32B8F6D3A2CEC4BFD5B8F1CA0B
:101DA000BEC0FD00252A632573000000B4BFD3A286
:101DB000CEC43234783332BED3D6D0CABEC0FDA32F
:101DC000BA0000003000002041424344454647002D
:101DD000D6D0CEC4BED3D6D0CFD4CABEA3BA00000C
:101DE000BAACD3A2CEC4BED3D6D0CABEC0FD414287
:101DF0004344454647000000F0B51C4885B0816962
:101E000041F008018161816901F008010491816953
:101E100041F008018161816901F008010491816943
:101E200041F0080181618069012400F008000490FC
:101E300003202026CDE90240CDE900640C4F69461D
:101E40003846FEF761FD694638460094FEF75CFDB2
:101E50000225694638460095FEF756FD04481030C5
:101E600006600460056005B0F0BD0000001002408F
:101E7000000C0140FEE7FEE7704700002DE9F0414D
:101E8000154E00245FF0000516F81400A840000667
:101E900001D512A000E012A000F08AF96D1C082DF7
:101EA000F2DB002506EB44077878A840000601D550
:101EB0000AA000E00AA000F07BF96D1C082DF3DBFE
:101EC00008A000F075F9641C102CDBDBBDE8F041C4
:101ED00005A000F06DB90000080000202A000000F5
:101EE000200000000A0000000A0A00002DE9F0416D
:101EF000104F06464FF4803014460D4638610320DB
:101F000000F03EF8C5F3074000F03AF8C5F30720AB
:101F100000F036F8E8B200F033F804E0FF2000F0FB
:101F20002FF806F8010B641EA4B2F7D20120386125
:101F3000BDE8F0810010014010B5104C0E480221A0
:101F400020604FF4827060600020A060C4E903014B
:101F5000012161614902A1610821C4E907106062A1
:101F6000A0620720E0622046FFF784F8206801683D
:101F700041F04001016010BD0030014010450020DB
:101F800070B512494FF480550D60114B1C6805E087
:101F90000A68561E0E6001D200200CE0A268D243EF
:101FA0009207F5D4E0600D601A6808E00868431EE7
:101FB0000B6004D2012000F00DF8C0B270BD906833
:101FC000C043C007F2D1D068F7E700004C00002002
:101FD0001045002010B5014602A000F0E9F80020ED
:101FE00010BD00003C3C2D464C4153482D455252FB
:101FF0004F522D3E3E2053504920B5C8B4FDB3ACDE
:10200000CAB121206572726F72436F6465203D20F2
:1020100025640A007047FEF779BD30B58FB02821DE
:102020006846FEF7B8F814210AA8FEF7B4F80121B3
:102030000804CDE900100024029402250491CDE9A2
:1020400007504FF4E01009906846FEF783FE08B190
:1020500072B6FEE70F20CDE90A054FF48060CDE9A6
:102060000C4002210AA80E94FEF798FD002801D02A
:1020700072B6FEE70FB030BD7047000070B5044681
:1020800000680169E26821F440511143016121694E
:10209000A0680843616908432168CA6841F20C637B
:1020A0009A430243CA6020684169A26921F44071E1
:1020B000114341611E492068884202D1FEF714FE97
:1020C00001E0FEF701FE00EBC00101EB00126068C9
:1020D00064218000B2FBF0F3B3FBF1F36FF018065C
:1020E0007343B2FBF0F5B2FBF0F605EB8305322348
:1020F00003EB0515B5FBF1F5B6FBF1F605F0F005C0
:1021000005EB0615B2FBF0F6B2FBF0F0B0FBF1F018
:102110006FF01802504306EB800003EB0010B0FB99
:10212000F1F0216800F00F002844886070BD0000C5
:10213000003801402DE9F041984617460E46044606
:10214000069D27E0681C25D02DB1FEF7D9FCA0EB39
:102150000800A8421ED920680C3050E8001F21F466
:10216000D07140E80012002AF5D12068143050E800
:10217000001F21F0010140E80012002AF5D12020C3
:1021800084F8410084F84200002084F840000320D5
:10219000BDE8F0812068006836EA000004D0002025
:1021A000B842CFD00020F3E70120F9E7FEE70000B6
:1021B0000FB4054B10B503A9044A029800F0EEF8DD
:1021C00010BC5DF814FB0000D52A00086000002058
:1021D0000FB4084B10B504A902AA039800F0DEF86A
:1021E000044602A9002000F070FC204610BC5DF8F7
:1021F00014FB0000CB2A00080907090E002804DBA5
:1022000000F1E02080F80014704700F00F0000F1AA
:10221000E02080F8141D704702E008C8121F08C1B2
:10222000002AFAD170477047002001E001C1121F57
:10223000002AFBD1704700002DE9FF5FDDE9022095
:10224000010DDDF838B0024318D044F61050A1F269
:10225000FF3141430D140F98012820D0A5EB0B004E
:10226000401C5FEA000A4FF00004474EDFF81C9163
:10227000A046504616D5CAF1000728E00F98012461
:1022800043A2012808D0002100980F9BC0E900213B
:10229000C0E90243BDE8FF9F6FEA0B01F4E7CBF111
:1022A0000000DEE7074612E0F80707D02246334673
:1022B00040464946FEF753F9804689462246334652
:1022C00010461946FEF74BF904460E467F10002FC4
:1022D000EAD1DDE90201BAF1000F42464B4602DACB
:1022E000FEF73DF901E0FEF7ACF904460E46002288
:1022F000284BFEF72DFA03D84FF0FF30014607E0D8
:102300000022254B20463146FDF757FFFEF708FA1D
:10231000102409E0002C0ADB0A220023FEF739F81A
:10232000019B30321A55641E50EA0102F2D1641C3E
:10233000019AC4F1110314440F9A012A03D0012217
:1023400008430DD10AE0084304D000204FF0110BE0
:102350000F9080E7A3EB0B056D1E0DE05B4504DDE0
:102360004FF0000205F1010504E003DA4FF000022E
:10237000A5F10105002AECD000980F99C0E90231BF
:10238000C0E9004586E70000000024400000F03F5F
:10239000300000000000F0430000E03F2DE9FF4F57
:1023A00095B09B468946064600250FE2252877D141
:1023B00000242746F84A0121059400E0044316F85A
:1023C000013F203B01FA03F01042F7D130782A2870
:1023D00011D06FF02F033078A0F13002092A16D8FF
:1023E000059A44F0020402EB820203EB420210441D
:1023F000761C0590EFE759F8042B0592002A03DAC2
:10240000504244F40054059044F00204761C3078A5
:102410002E2816D116F8010F44F004042A280DD0F6
:102420006FF02F023078A0F13003092B09D807EBA9
:10243000870302EB4303C718761CF3E759F8047BC4
:10244000761C30786C280FD006DC4C2817D0682812
:102450000DD06A2814D104E0742810D07A280FD146
:102460000DE044F400140AE044F4801401E044F464
:1024700040147278824202D104F58014761C761CD6
:10248000307866280BD013DC582877D009DC002878
:1024900075D04528F6D04628F4D047281AD19DE1BA
:1024A00018E0632835D0642879D0652812D195E1E9
:1024B000702873D008DC6728F1D069286FD06E28A7
:1024C0000DD06F2806D1B5E073282CD0752875D0B3
:1024D000782874D05A46179990476D1C75E1C4F35B
:1024E0000250022809D003280DD0D9F80010042882
:1024F0000DD00D6009F1040967E1D9F80010EA1761
:10250000C1E90052F6E7D9F800100D80F2E70D702E
:10251000F0E719F8041B8DF8001000208DF8010079
:10252000EA46012003E059F804AB4FF0FF306107A1
:102530004FF0000102D40DE008F101018846B942D4
:102540000FDA8045F8DB1AF808100029F4D108E00A
:1025500008F1010188468142FADB1AF808100029C7
:10256000F6D105985B46A0EB080721463846179A36
:1025700000F094FA284400EB080507E04DE029E15B
:102580000DE01AF8010B5A4617999047B8F1010867
:10259000F7D25B4621463846179A13E142E00A22F9
:1025A0000092C4F302524FF0000A022A08D059F8F0
:1025B00004CB032A4FEAEC710AD00DE029E02AE0AF
:1025C00009F1070121F00702F2E802C1914609E092
:1025D0000FFA8CFC4FEAEC71042A03D14FFA8CFC01
:1025E0004FEAEC71002907DA0A460021DCF1000C01
:1025F00061EB02012D2202E0220504D52B228DF889
:102600000420012203E0E20701D02022F7E79046F0
:1026100059E00A2102E010220DE010214FF0000ADB
:1026200000910BE010224FF0000A44F00404082748
:10263000009203E008224FF0000A0092C4F3025215
:10264000022A05D059F804CB0021032A08D009E05A
:1026500009F1070121F00702F2E802C1914605E005
:102660001FFA8CFC042A01D10CF0FF0C4FF000087B
:10267000220728D5702806D0009B83F0100353EA68
:102680000A0305D00EE040228DF80420012208E064
:102690005CEA010206D030228DF804208DF8050096
:1026A00002229046009B83F0080353EA0A030AD1F2
:1026B0005CEA010201D1620705D530228DF80420C1
:1026C0004FF001087F1E582804D034A003900EA8B4
:1026D00002900DE036A0F9E753466046009AFDF7F8
:1026E00058FE84460398825C0298401E0290027055
:1026F0005CEA0100F0D1029806A9081A00F1200A4C
:10270000600702D524F4803400E00127574502DD3C
:10271000A7EB0A0000E0002000EB0A0100900598FA
:102720004144401A0590E00306D45B462146179ABF
:10273000059800F0B3F90544002706E001A85A46C1
:10274000C05D179990476D1C7F1C4745F6DBE00381
:102750000CD55B462146179A059800F09FF9054471
:1027600004E030205A46179990476D1C0099481E86
:1027700000900029F5DC08E0029802995A4600789A
:10278000491C0291179990476D1CBAF10001AAF1FA
:10279000010AF1DC65E10000092801003031323323
:1027A000343536373839616263646566000000008D
:1027B0003031323334353637383941424344454677
:1027C0000000000000F058F90544761C307800281D
:1027D0007FF4ECAD19B02846BDE8F08F620700D455
:1027E000062709F1070222F0070CFCE80223E14664
:1027F00003F000485FEA080C02D00FF2702C0DE0E5
:102800005FEA045C02D50FF2682C07E05FEAC47C43
:1028100002D00FF2602C01E0AFF2700C4FF0FF38E5
:1028200023F00043CDF850C065280CD006DC4528C5
:1028300009D046281DD047283DD13DE0662818D054
:1028400067287ED138E00021112F01DB112000E044
:10285000781CCDE9000106A90EA8FFF7EDFCDDE923
:102860000F010E9A03910021009207F1010A0491D1
:102870004DE04FF000400097CDE9011006A90EA8E9
:10288000FFF7DAFCDDE90F0203920E9B119900229B
:10289000DDF80CA00093049211B9791C00EB010A39
:1028A000B7EB0A0004D4C0F1FF3007F1010A04902D
:1028B000AAEB0700019044E0012F00DA0127002174
:1028C000112F01DD112000E03846CDE9000106A9F5
:1028D0000EA8FFF7B1FCDDE90F010E9A039100216C
:1028E00004910092BA4621070CD40399514500DAAD
:1028F0008A46BAF1010F05DD009AAAF10101515C87
:10290000302908D0B84202DA10F1040F06DA0121AA
:10291000CDE9011015E0AAF10101E9E7002805DC85
:10292000049901440491AAEB000102E0411C5145C5
:1029300000DD8A460499401A401C01904FF0004087
:102940000290200704D40198504501DBCDF80480A3
:1029500000208DF84F0002980DF14F07B0F1004FA5
:1029600025D02B200E9002984FF0020800280CDA98
:10297000404202902D200E9007E00A210298FDF7B8
:10298000F2FC3031029007F8011DB8F10001A8F106
:102990000108F2DC02980028EFD1791E0E98087029
:1029A000307800F0200040F0450007F8020D12A832
:1029B000C01B00F107081498007800B1012000EB5B
:1029C0000A01019801EBE07105984144401A401E4C
:1029D0000590E00306D45B462146179A059800F05F
:1029E0005DF805441498007818B15A461799904735
:1029F0006D1CE00324D55B462146179A059800F02C
:102A00004DF805441CE00498002807DBDDE90301CC
:102A1000884203DD0098405C179901E01799302047
:102A20005A469047049805F10105401C049001980E
:102A3000401E019004D12E205A46179990476D1CD4
:102A4000BAF10001AAF1010ADDDC05E017F8010B7B
:102A50005A46179990476D1CB8F10001A8F101087A
:102A6000F4DC5B462146179A0598ABE62D00000082
:102A70002B000000200000002DE9F0410446002555
:102A80001E461746880404D405E039462020B04786
:102A90006D1C641EF9D52846BDE8F0812DE9F04192
:102AA000044600251E469046C80301D5302700E0A5
:102AB0002027880404D505E041463846B0476D1C00
:102AC000641EF9D52846BDE8F0810A68531C0B60E6
:102AD0001070704713B54FF47A73012269460248AB
:102AE000FEF726FC00981CBD64000020FFF795FA55
:102AF000FFF782F9FDF758FEFEF718FE07A0FFF773
:102B000057FB1648FFF754FB0620FEF7CBFDFFF7F7
:102B1000B5F900BFFFF708F8FCE700000D0A202A0E
:102B20002A2A2A2A2A2A2A2A2A20D2BABEA7CFD477
:102B3000CABEB1E4C1BFCABEC0FDA3A8D5FBCAFDD1
:102B40005FB8A1B5E3CAFDB5C8A3A92A2A2A2A2AD3
:102B50002A2A2A2A2A2A200D0A0000001C550008C9
:102B60000000000000000000000000000000000065
:102B7000000000181818181818080008180000009D
:102B800000000034242424000000000000000000A5
:102B90000000000016247F2424247E24240000004A
:102BA000000000083E6848681C1612127C101000D5
:102BB00000000061D296740810162949C600000072
:102BC000000000003C646438724ACE467F0000007A
:102BD0000000001818181800000000000000000095
:102BE00000000004081810303030301010180C04A9
:102BF000000000201008080C0404040C0818102021
:102C0000000000080A341C6A0800000000000000F0
:102C10000000000000001818187F181818000000A5
:102C2000000000000000000000000018180830003C
:102C30000000000000000000003C00000000000058
:102C40000000000000000000000000181800000054
:102C50000000000206040C080810102020400000AC
:102C6000000000003C6642475B7342663C00000087
:102C70000000000018784808080808087E000000D6
:102C8000000000003C460606040810207E000000FC
:102C9000000000007C0606043C0202067C000000E6
:102CA000000000000C1C14246444FF040400000015
:102CB000000000007E6060607E0202067C00000072
:102CC000000000001E306048764242623C00000076
:102CD000000000007E0206040C08181030000000FE
:102CE000000000003C6242361C6642423C0000008C
:102CF000000000003C664242661A020478000000B0
:102D00000000000000001818000000181800000063
:102D1000000000000000181800000018180830001B
:102D200000000000000004183060100C06000000D5
:102D300000000000000000007E007E000000000097
:102D4000000000000000301804060C1020000000F5
:102D5000000000301C0606061810001010000000CD
:102D60000000001C224141DDB5A5A5AF94C0403C48
:102D700000000000181C342426627E43C1000000BD
:102D8000000000007C4642467C4242427C0000003B
:102D9000000000001E204040404040603E00000017
:102DA000000000007C464243434342467800000056
:102DB000000000007E6060607E6060607E00000059
:102DC000000000007E6060607E6060606000000067
:102DD000000000001E604040CE4242623E00000003
:102DE00000000000424242427E4242424200000055
:102DF000000000007E181818181818187E0000002F
:102E0000000000007C040404040404447800000072
:102E1000000000004244485070584C4442000000FA
:102E20000000000020202020202020203E00000064
:102E3000000000006266675F5B5BC1C1C10000000B
:102E400000000000626272525A4A4E46460000007C
:102E5000000000003C6243C3C3C343623C00000067
:102E6000000000007C46424246784040400000009E
:102E7000000000003C6243C3C3C343623C180F0020
:102E8000000000007C6662667C6C64666200000084
:102E9000000000003E6040601C0602027C00000052
:102EA000000000007F1818181818181818000000E3
:102EB0000000000042424242424242623C000000A6
:102EC00000000000C14342622624341C18000000A8
:102ED00000000000C1C141495B5B766666000000EE
:102EE0000000000043663418181C2466C30000006C
:102EF00000000000C14266341C18181818000000B9
:102F0000000000007E02040C181020607E0000000B
:102F10000000001C10101010101010101010101CC9
:102F2000000000402020101008080C0406020000D9
:102F30000000003C0C0C0C0C0C0C0C0C0C0C0C3C95
:102F400000000000181C24620000000000000000C7
:102F5000000000000000000000000000000000FF72
:102F60000000002010000000000000000000000031
:102F70000000000000003C06023E42467A000000CD
:102F80000000004040405C62424242427C0000003F
:102F90000000000000001E20604060203E00000095
:102FA0000000000202023E62424242663A00000015
:102FB0000000000000003C62427E40603E000000D5
:102FC0000000000F1810107E1010101010000000EC
:102FD0000000000000003F66426658403E43423C0D
:102FE0000000004040405C62424242424200000019
:102FF0000000001818007808080808087E00000083
:10300000000000040C007C040404040404040C7894
:10301000000000606060626C7870686462000000AC
:103020000000007808080808080808087E0000006A
:10303000000000000000764B4B4B4B4B4B00000058
:103040000000000000005C62424242424200000078
:103050000000000000003C62424342623C0000006D
:103060000000000000005C62424242427C4040405E
:103070000000000000003E62424242663A02020244
:103080000000000000006E7263606060600000007D
:103090000000000000003E20203C06027C000000F2
:1030A000000000001010FE10101010101E00000094
:1030B0000000000000004242424242663A00000026
:1030C000000000000000434266243418180000008D
:1030D000000000000000C1C15B5A5E66660000008F
:1030E00000000000000062261C181C266200000080
:1030F00000000000000043426624341C181830E031
:103100000000000000007E060C1810207E00000069
:103110000000000E18101010307010101010180E53
:10312000000008080808080808080808080808082F
:1031300000000030180808080C0E080808081830AD
:103140000000000000000000714B060000000000BD
:10315000000000000000000000000000000000006F
:10316000000000000000000000000000000000005F
:10317000000000000000000000000000000000004F
:10318000000000000000000000000000000000003F
:10319000000000000000000000000000000000002F
:1031A000000000000000000000000000000000001F
:1031B000000000000000000000000000000000000F
:1031C0000000003C00003C00003C00003C00003CD3
:1031D00000003C00003C00003C00003C00003C00C3
:1031E000003C00003C00003C00003C0000000000EF
:1031F0000000003C00007E00003C000000000000D9
:1032000000000000000000000000000000000000BE
:1032100000000000000000000000000000000000AE
:10322000000003C3E003C3E003C3C003C3C003C380
:10323000C003C3C003C1C0000000000000000000C4
:10324000000000000000000000000000000000007E
:10325000000000000000000000000000000000006E
:10326000000000000000000000000000000000005E
:10327000000000000000000000000000000000004E
:10328000000000000000000001E0E001C0E001C01B
:10329000E001C0E03FFFFE3FFFFE03C1C00381C06D
:1032A0000381C00381C07FFFFC7FFFFC0783800791
:1032B00003800703800703800707800000000000E9
:1032C00000000000000000000000000000000000FE
:1032D00000000000000000000000000000000000EE
:1032E0000700000F00000E0001FFF007FFF01F0EA7
:1032F000001E1E001E1C001E1C000FDC0007FC0030
:1033000000FF80003FF00038F800387800783C007B
:1033100070783071F83FFFE01FFF0000E00000E030
:103320000000E000000000000000000000000000BD
:10333000000000000000000000000000000000008D
:1033400000000F800F3FE01E78703C70707070704E
:10335000E07071C03FE3801FC700000E00001C003A
:1033600000780000F0F001E7FC03CF0E078E0E0F8F
:103370000E0E1E0E0E3C07BC7003F800000000008D
:10338000000000000000000000000000000000003D
:10339000000000000000000000000000000000002D
:1033A000000000000001FF0007FF800F03C00F03B3
:1033B000C00F03C00F0780079F0003FE0003F0004B
:1033C0000FF83C3E7C3C3C1F3C780FF87807F87CBB
:1033D00001F03E03F81FFFFC07FE1F000000000085
:1033E00000000000000000000000000000000000DD
:1033F00000000000000000000000000000000000CD
:103400000000003E00003C00003C00003C00003C8E
:1034100000003C00003C0000000000000000000034
:10342000000000000000000000000000000000009C
:10343000000000000000000000000000000000008C
:10344000000000000000000000000000000000007C
:10345000000000000000000000000000000000006C
:1034600000800001C0000780000F00001E00003C2B
:103470000000780000F00000E00001E00001E00042
:1034800001C00003C00003C00001C00001E0000152
:10349000E00000F00000F000007800003C00001E9A
:1034A00000000F000007C00001C000000000000085
:1034B000000000000000000000000000000000000C
:1034C000000003C00001E00000F000007C00003EAE
:1034D00000001E00000F000007800007800003802E
:1034E0000003C00003C00003C00003C0000380004D
:1034F0000780000780000F00001E00003C000078DD
:103500000000F00001E00003800000000000000067
:1035100000000000000000000000000000000000AB
:103520000000001C00001C000018000F18F007DB52
:10353000E0007F0000FF0007DBE00E1870001800BD
:10354000001C00001C000000000000000000000043
:10355000000000000000000000000000000000006B
:10356000000000000000000000000000000000005B
:10357000000000000000000000000000000000004B
:10358000000000000000000000000000000000003B
:1035900000003C00003C00003C00003C00003C00FF
:1035A000003C003FFFFC3FFFFC003C00003C0000F3
:1035B0003C00003C00003C00000000000000000057
:1035C00000000000000000000000000000000000FB
:1035D00000000000000000000000000000000000EB
:1035E00000000000000000000000000000000000DB
:1035F00000000000000000000000000000000000CB
:1036000000000000000000000000000000000000BA
:103610007C00007E00007E00003E00001E00003C9A
:103620000000F80007E000040000000000000000B7
:10363000000000000000000000000000000000008A
:10364000000000000000000000000000000000007A
:10365000000000000000000000000000000000006A
:1036600000000003FFE003FFE00000000000000096
:10367000000000000000000000000000000000004A
:10368000000000000000000000000000000000003A
:10369000000000000000000000000000000000002A
:1036A000000000000000000000000000000000001A
:1036B000000000000000000000000000000000000A
:1036C00000000000000000000000000000000000FA
:1036D0007C0000FE0000FE00007E000000000000F4
:1036E00000000000000000000000000000000000DA
:1036F00000000000000000000000000000000000CA
:1037000000000000780000F00000E00001E000038D
:10371000C0000380000780000F00000E00001E00A4
:10372000003C0000380000700000F00000E00001E4
:10373000C00003C0000780000700000F00001E004B
:10374000001C00000000000000000000000000005D
:103750000000000000000000000000000000000069
:10376000000000000000000001FFC007FFE00F00A4
:10377000F01E00781E003C3C00FC3C07FC3C1FBCDB
:103780003C7C1C3DF03C3FC03C3F003C1E00381ED2
:1037900000780F80F007FFE001FF800000000000CC
:1037A0000000000000000000000000000000000019
:1037B0000000000000000000000000000000000009
:1037C0000000000000000000007E0003FE001FDE7D
:1037D000000E1E00001E00001E00001E00001E0045
:1037E000001E00001E00001E00001E00001E000043
:1037F0001E00001E000FFFF80FFFF8000000000081
:1038000000000000000000000000000000000000B8
:1038100000000000000000000000000000000000A8
:10382000000000000000000003FF800FFFE00E0119
:10383000F00000F00000F00000F00000F00001E0F7
:103840000003C0000F80003E00007C0001F0000378
:10385000C0000F80001FFFFC1FFFFC0000000000E5
:103860000000000000000000000000000000000058
:103870000000000000000000000000000000000048
:1038800000000000000000000FFF800FFFE00001BB
:10389000E00000F00000F00001E00003C001FF00C4
:1038A00001FFC00003F000007800007800007800FD
:1038B00000780001F00FFFC00FFF000000000000C3
:1038C00000000000000000000000000000000000F8
:1038D00000000000000000000000000000000000E8
:1038E0000000000000000000000FC0001FC0003FEB
:1038F000C0007BC000F3C001E3C003C3C00783C0A6
:103900000F03C01C03C03803C07FFFFE7FFFFE0013
:1039100003C00003C00003C00003C000000000009B
:103920000000000000000000000000000000000097
:103930000000000000000000000000000000000087
:1039400000000000000000000FFFE00FFFE00F008C
:10395000000F00000F00000F00000F00000FFF809D
:103960000FFFE00000F00000780000780000780011
:1039700000F00003E00FFFC00FFE00000000000099
:103980000000000000000000000000000000000037
:103990000000000000000000000000000000000027
:1039A0000000000000000000003FF001FFF003E015
:1039B000000780000F00001E00001E1F001FFFE018
:1039C0001FC1F81E00781E003C1E003C1E003C0F6C
:1039D00000780F80F807FFE001FF80000000000082
:1039E00000000000000000000000000000000000D7
:1039F00000000000000000000000000000000000C7
:103A000000000000000000001FFFFC1FFFFC000082
:103A1000780000F00000E00001E00003C000078033
:103A2000000F00000F00001E00003C0000780000A6
:103A3000F00001F00001E00003C000000000000001
:103A40000000000000000000000000000000000076
:103A50000000000000000000000000000000000066
:103A6000000000000000000003FFE00FE3F00F0083
:103A7000781E00781E00780F00F007E3E001FF8059
:103A800001FF8007E7E00F00F81E00781E003C1ED3
:103A9000007C1F00F80FFFF003FFC00000000000D3
:103AA0000000000000000000000000000000000016
:103AB0000000000000000000000000000000000006
:103AC000000000000000000003FF800FC7E01E00A0
:103AD000F01E00783C00783C00783C00381E0078EE
:103AE0000FEFF807FFB80000780000780000F00042
:103AF00001E0000FC00FFF000FF000000000000009
:103B000000000000000000000000000000000000B5
:103B100000000000000000000000000000000000A5
:103B20000000000000000000000000000000000095
:103B300000000000007E00007E00007E00001800F3
:103B40000000000000000000000000000000000075
:103B50003C00007E00007E00003E000000000000EF
:103B60000000000000000000000000000000000055
:103B70000000000000000000000000000000000045
:103B80000000000000000000000000000000000035
:103B900000000000007E00007E00007E0000180093
:103BA0000000000000000000000000000000000015
:103BB0003E00007E00007F00001F00001E00001E6F
:103BC0000000FC0007F000040000000000000000FE
:103BD00000000000000000000000000000000000E5
:103BE00000000000000000000000000000000000D5
:103BF000400001E00007C0001F00007E0001F80047
:103C000003E0000F80000F800003E00000F80000D8
:103C10003E00000F800003E00000E0000000000014
:103C20000000000000000000000000000000000094
:103C30000000000000000000000000000000000084
:103C40000000000000000000000000000000000074
:103C5000000000000000000000000000001FFFF84E
:103C60000000000000000000001FFFF81FFFF80028
:103C70000000000000000000000000000000000044
:103C80000000000000000000000000000000000034
:103C90000000000000000000000000000000000024
:103CA0000000000000000000000000000000000014
:103CB0000007800003E00000F800003E00000F80D5
:103CC0000003E00000F80001F00007C0001F000042
:103CD0007C0001F00007C0000300000000000000AD
:103CE00000000000000000000000000000000000D4
:103CF00000000000000000000000000000000000C4
:103D0000000001C00001FE00007F800007C000012C
:103D1000E00000F00000F00001F00003E0007FC0D0
:103D2000007E0000700000700000700000000000C5
:103D3000000000F80000F80000F80000000000009B
:103D40000000000000000000000000000000000073
:103D50000000000000000000000000000000000063
:103D60000000001F8000FFF003C07807801C0E00D9
:103D70000E1C000E3C000F383FC778FFC770E3C72A
:103D800071C3C7F3C387E3C387E3878EE3878EE3FB
:103D9000CF8EE3FFFC71F9F0700000700000380076
:103DA000003C00000F01C007FFC000000000000041
:103DB0000000000000000000000000000000000003
:103DC0000000000000000000007E00007F0000FFF7
:103DD0000000E78001E78003C3C003C3C00781E0A0
:103DE0000781E00F00F00F00F81FFFF81FFFFC3CF9
:103DF000003C3C001E78001EF0000F000000000098
:103E000000000000000000000000000000000000B2
:103E100000000000000000000000000000000000A2
:103E200000000000000000001FFFC01FFFF01E0088
:103E3000F01E00781E00781E00F01E01F01FFFC06B
:103E40001FFFE01E01F81E00781E003C1E003C1EF5
:103E500000781E00F81FFFE01FFF000000000000B8
:103E60000000000000000000000000000000000052
:103E70000000000000000000000000000000000042
:103E8000000000000000000000FFF803FFF807C07A
:103E9000000F00001E00001E00003C00003C00005F
:103EA0003C00003C00003C00003E00001E00000FF3
:103EB00000000FC00803FFF800FFF800000000003A
:103EC00000000000000000000000000000000000F2
:103ED00000000000000000000000000000000000E2
:103EE00000000000000000003FFF003FFFE03C0139
:103EF000F03C00783C003C3C003C3C003C3C001E5C
:103F00003C001E3C001E3C003C3C003C3C00783C1D
:103F100000F83C07E03FFFC03FFC0000000000004D
:103F20000000000000000000000000000000000091
:103F30000000000000000000000000000000000081
:103F400000000000000000000FFFF00FFFF00F0066
:103F5000000F00000F00000F00000F00000FFFF027
:103F60000FFFF00F00000F00000F00000F00000F08
:103F700000000F00000FFFF00FFFF0000000000036
:103F80000000000000000000000000000000000031
:103F90000000000000000000000000000000000021
:103FA00000000000000000000FFFF00FFFF00F0006
:103FB000000F00000F00000F00000F00000FFFF0C7
:103FC0000FFFF00F00000F00000F00000F00000FA8
:103FD00000000F00000F00000F00000000000000B4
:103FE00000000000000000000000000000000000D1
:103FF00000000000000000000000000000000000C1
:10400000000000000000000000FFFC03FFFC0FC0E8
:10401000041F00001E00003C00003C0000780FFC64
:10402000780FFC78003C3C003C3C003C3E003C1FD0
:10403000003C0FC03C03FFFC00FFF8000000000044
:104040000000000000000000000000000000000070
:104050000000000000000000000000000000000060
:1040600000000000000000003C003C3C003C3C0024
:104070003C3C003C3C003C3C003C3C003C3FFFFCEA
:104080003FFFFC3C003C3C003C3C003C3C003C3CDA
:10409000003C3C003C3C003C3C003C00000000007C
:1040A0000000000000000000000000000000000010
:1040B0000000000000000000000000000000000000
:1040C00000000000000000000FFFF80FFFF8003CA8
:1040D00000003C00003C00003C00003C00003C00B4
:1040E000003C00003C00003C00003C00003C0000A4
:1040F0003C00003C000FFFF80FFFF800000000003C
:1041000000000000000000000000000000000000AF
:10411000000000000000000000000000000000009F
:1041200000000000000000000FFFE00FFFE00001B2
:10413000E00001E00001E00001E00001E00001E03A
:104140000001E00001E00001E00001E00001E0000A
:1041500003C00C07C00FFF8007FE00000000000036
:10416000000000000000000000000000000000004F
:10417000000000000000000000000000000000003F
:1041800000000000000000001E00781E01F01E0369
:10419000C01E07801E1F001E3C001E78001EF0007F
:1041A0001FF0001EF8001E3C001E1E001E0F801E89
:1041B00007C01E01E01E00F81E007C000000000089
:1041C00000000000000000000000000000000000EF
:1041D00000000000000000000000000000000000DF
:1041E000000000000000000007800007800007803A
:1041F000000780000780000780000780000780001C
:104200000780000780000780000780000780000704
:10421000800007800007FFF807FFF800000000009B
:10422000000000000000000000000000000000008E
:10423000000000000000000000000000000000007E
:1042400000000000000000003E007C3F00FC3F81B9
:10425000DC3B81DC3BC39C39C39C38E71C38EF1C3A
:10426000387E1C387C1E383C1E78001E78001E7874
:10427000001E78001E78001E78001E00000000005E
:10428000000000000000000000000000000000002E
:10429000000000000000000000000000000000001E
:1042A00000000000000000001F003C1F803C1FC0F9
:1042B0003C1DC03C1DE03C1CF03C1C783C1C783C88
:1042C0001C3C3C1C1E3C1C0F3C1C0F3C1C07BC1C1B
:1042D00003FC1C01FC1C00FC1C00FC000000000096
:1042E00000000000000000000000000000000000CE
:1042F00000000000000000000000000000000000BE
:10430000000000000000000001FFC007FFF00F00E8
:10431000F81E007C3C003C3C001E78001E78001E0D
:1043200078001E78001E78001E3C003C3C003C1EBD
:1043300000781F00F007FFE001FF80000000000090
:10434000000000000000000000000000000000006D
:10435000000000000000000000000000000000005D
:1043600000000000000000001FFF801FFFF01E0083
:10437000F81E007C1E003C1E003C1E003C1E007807
:104380001E03F01FFFC01FFE001E00001E00001EC7
:1043900000001E00001E00001E00000000000000C3
:1043A000000000000000000000000000000000000D
:1043B00000000000000000000000000000000000FD
:1043C000000000000000000001FFC007FFF00F0028
:1043D000F81E007C3C003C3C001E78001E78001E4D
:1043E00078001E78001E78001E3C003C3C003C1EFD
:1043F00000781F80F007FFE001FF80003C00003CD8
:1044000000001F06000FFF0001F800000000000080
:10441000000000000000000000000000000000009C
:1044200000000000000000000FFF800FFFE00E0101
:10443000F00E00F00E00F00E00F00E01F00FFFC0C5
:104440000FFF000E1F000E07800E03C00E01E00ECE
:1044500000F00E00F80E00780E003C000000000096
:10446000000000000000000000000000000000004C
:10447000000000000000000000000000000000003C
:10448000000000000000000003FFF00FFFF01F001D
:10449000001E00001E00001F00000FC00007FC00EF
:1044A00000FF80000FF00001F800007800007800A5
:1044B00000782000F83FFFE03FFF80000000000090
:1044C00000000000000000000000000000000000EC
:1044D00000000000000000000000000000000000DC
:1044E00000000000000000003FFFFC3FFFFC003C1C
:1044F00000003C00003C00003C00003C00003C0090
:10450000003C00003C00003C00003C00003C00007F
:104510003C00003C00003C00003C000000000000AB
:10452000000000000000000000000000000000008B
:10453000000000000000000000000000000000007B
:1045400000000000000000003C003C3C003C3C003F
:104550003C3C003C3C003C3C003C3C003C3C003CC7
:104560003C003C3C003C3C003C3C003C3C003C1ED5
:1045700000781F00F80FFFE003FF8000000000003C
:10458000000000000000000000000000000000002B
:10459000000000000000000000000000000000001B
:1045A0000000000000000000F8000F78001E3C0032
:1045B0001E3C003C1E00381E00780F00700F00F0FB
:1045C0000781E00781E003C3C003E3C001E7800087
:1045D000F78000FF00007E00007E00000000000069
:1045E00000000000000000000000000000000000CB
:1045F00000000000000000000000000000000000BB
:10460000000000000000000078000E78000E780026
:104610000E78001E38001E38001E383C1C383C1C2A
:10462000387E1C387F1C3CE71C3CE79C3DC39C1D2E
:10463000C3DC1F81DC1F80F81F00F80000000000B1
:10464000000000000000000000000000000000006A
:10465000000000000000000000000000000000005A
:1046600000000000000000003C003C1E00780F002D
:10467000F00781E003C3C001E78000FF00007E0077
:10468000007E0000FF0001FF8003E7C007C3E00FCA
:1046900081F01F00F83E007C7C003E00000000001E
:1046A000000000000000000000000000000000000A
:1046B00000000000000000000000000000000000FA
:1046C000000000000000000078001F3C003E1E00BB
:1046D0007C1F00780F80F007C1E003E3C001E78092
:1046E00000FF00007E00003C00003C00003C000099
:1046F0003C00003C00003C00003C000000000000CA
:1047000000000000000000000000000000000000A9
:104710000000000000000000000000000000000099
:1047200000000000000000001FFFFC1FFFFC000055
:10473000F80001E00003C0000780000F00001E0029
:10474000003C0000780000F00003E00007C0000F0C
:1047500080001F00003FFFFC3FFFFC000000000046
:104760000000000000000000000000000000000049
:104770000000000000000000000000000000000039
:10478000000001FFC001FFC001E00001E00001E006
:104790000001E00001E00001E00001E00001E000B4
:1047A00001E00001E00001E00001E00001E00001A3
:1047B000E00001E00001E00001E00001E00001E0B4
:1047C0000001E00001E00001FFC000000000000067
:1047D00000000000000000000000000000000000D9
:1047E00000000E00000F000007000003800003C05F
:1047F0000001E00000E00000F00000780000380058
:10480000003C00001E00000E00000F0000078000AA
:1048100003800001C00001E00000E0000070000023
:104820007800003C000000000000000000000000D4
:104830000000000000000000000000000000000078
:10484000000003FF8003FF8000078000078000074F
:104850008000078000078000078000078000078035
:1048600000078000078000078000078000078000A5
:10487000078000078000078000078000078000078E
:104880008000078000078003FF8000000000000018
:104890000000000000000000000000000000000018
:1048A0000000000000000000003C00007E0000E767
:1048B0000001C3800381C00700E00E00F01E0078F5
:1048C00000000000000000000000000000000000E8
:1048D00000000000000000000000000000000000D8
:1048E00000000000000000000000000000000000C8
:1048F00000000000000000000000000000000000B8
:1049000000000000000000000000000000000000A7
:104910000000000000000000000000000000000097
:104920000000000000000000000000000000000087
:104930000000000000000000000000000000000077
:1049400000000000FFFFFFFFFFFF0000000000006D
:104950000000000000000000000000000000000057
:1049600000000F800003E00000F800003C000000A1
:104970000000000000000000000000000000000037
:104980000000000000000000000000000000000027
:104990000000000000000000000000000000000017
:1049A0000000000000000000000000000000000007
:1049B00000000000000000000000000000000000F7
:1049C00000000000000000000000000000000000E7
:1049D0000000000007FFC007E7F00000F0000078CB
:1049E00000007800FFF807FFF80F00781E00781E1F
:1049F00000781E03F80FFFF807FC780000000000A5
:104A000000000000000000000000000000000000A6
:104A10000000000000000000000000000000000096
:104A200000001E00001E00001E00001E00001E00F0
:104A3000001E00001E7FE01EFFF01FC0781F0078E0
:104A40001E003C1E003C1E003C1E003C1E00381E8A
:104A500000781E00F01FFFE007FF000000000000CC
:104A60000000000000000000000000000000000046
:104A70000000000000000000000000000000000036
:104A80000000000000000000000000000000000026
:104A90000000000000FFF003FFF007C0000F8000DF
:104AA0000F00001E00001E00001E00000F00000F7F
:104AB000800007C00003FFF000FFF00000000000CE
:104AC00000000000000000000000000000000000E6
:104AD00000000000000000000000000000000000D6
:104AE00000000000780000780000780000780000E6
:104AF0007800007801FFF807FFF80F00781E0078B3
:104B00001E00783C00783C00783C00781C00781E41
:104B100001F81F03F80FFF7803FC78000000000085
:104B20000000000000000000000000000000000085
:104B30000000000000000000000000000000000075
:104B40000000000000000000000000000000000065
:104B50000000000001FFC007E3F00F00F81E00781E
:104B60001E003C1FFFFC1FFFFC1C00001E00001E5F
:104B700000000F800007FFF801FFF80000000000B0
:104B80000000000000000000000000000000000025
:104B90000000000000000000000000000000000015
:104BA00000000003FC001FFE003E000078000078BB
:104BB000000070000070000070003FFFFC3FFFFC31
:104BC00000700000700000700000700000700000B5
:104BD0007000007000007000007000000000000015
:104BE00000000000000000000000000000000000C5
:104BF00000000000000000000000000000000000B5
:104C000000000000000000000000000000000000A4
:104C10000000000003FFFC07C3FC0F00F01E00F0C3
:104C20001E00F00F00F00F83E00FFFC01E7C001C81
:104C300000001F00000FFFF00FFFFC1E003C3C00B7
:104C40003C3C003C1F81F80FFFE0003800000000F2
:104C50000000000000000000000000000000000054
:104C600000001E00001E00001E00001E00001E00AE
:104C7000001E00001E7FE01EFFF01FC0F01F007826
:104C80001E00781E00781E00781E00781E00781E18
:104C900000781E00781E00781E00780000000000DA
:104CA0000000000000000000000000000000000004
:104CB00000000000000000000000000000000000F4
:104CC0000000003C00007E00007E00003C00000070
:104CD000000000000FFE000FFE00001E00001E007E
:104CE000001E00001E00001E00001E00001E00002E
:104CF0001E00001E000FFFF80FFFF800000000006C
:104D000000000000000000000000000000000000A3
:104D10000000000000000000000000000000000093
:104D200000000003800007E00007E00003800000AF
:104D3000000000000FFFC00FFFC00003C00003C051
:104D40000003C00003C00003C00003C00003C00094
:104D500003C00003C00003C00003C00003C0000381
:104D6000C00007801E3F001FFE0001C000000000C1
:104D70000000000000000000000000000000000033
:104D800000000F00000F00000F00000F00000F00D8
:104D9000000F00000F00F80F01E00F07C00F1F0009
:104DA0000F3C000FF8000FF8000F3E000F1F000F20
:104DB00007C00F03E00F00F80F007C0000000000A8
:104DC00000000000000000000000000000000000E3
:104DD00000000000000000000000000000000000D3
:104DE00000000FFE000FFE00001E00001E00001E4F
:104DF00000001E00001E00001E00001E00001E001D
:104E0000001E00001E00001E00001E00001E00000C
:104E10001E00001E000FFFF80FFFF800000000004A
:104E20000000000000000000000000000000000082
:104E30000000000000000000000000000000000072
:104E40000000000000000000000000000000000062
:104E50000000000039F9F83BBBBC3E3E1C3C3E1C48
:104E6000383C1C383C1C383C1C383C1C383C1C383A
:104E70003C1C383C1C383C1C383C1C00000000002A
:104E80000000000000000000000000000000000022
:104E90000000000000000000000000000000000012
:104EA0000000000000000000000000000000000002
:104EB000000000001E7FE01EFFF01FC0F01F007802
:104EC0001E00781E00781E00781E00781E00781ED6
:104ED00000781E00781E00781E0078000000000098
:104EE00000000000000000000000000000000000C2
:104EF00000000000000000000000000000000000B2
:104F000000000000000000000000000000000000A1
:104F10000000000001FFC007E7F00F00F81E003C92
:104F20003C003C3C003C3C003C3C003C3C003C1E0B
:104F300000781F00F007FFE001FF80000000000084
:104F40000000000000000000000000000000000061
:104F50000000000000000000000000000000000051
:104F60000000000000000000000000000000000041
:104F7000000000001E7FE01EFFF01FC0781F0078B9
:104F80001E003C1E003C1E003C1E003C1E00381E45
:104F900000781E00F01FFFE01FFF001E00001E0033
:104FA000001E00001E00001E0000000000000000A7
:104FB00000000000000000000000000000000000F1
:104FC00000000000000000000000000000000000E1
:104FD0000000000001FFF807F7F80F00781E0078C6
:104FE0001E00783C00783C00783C00781C00781E5D
:104FF00001F81F03F80FFF7803FC78000078000029
:1050000078000078000078000078000000000000C0
:105010000000000000000000000000000000000090
:105020000000000000000000000000000000000080
:10503000000000000F1FF00F7FF80FE03C0F803CD6
:105040000F003C0F00000F00000F00000F00000FCA
:1050500000000F00000F00000F0000000000000023
:105060000000000000000000000000000000000040
:105070000000000000000000000000000000000030
:105080000000000000000000000000000000000020
:105090000000000001FFE007E1E00F00000F00004A
:1050A00007800003FC0000FFC0000FF00000F000CC
:1050B00000780000F00FFFE00FFF8000000000000C
:1050C00000000000000000000000000000000000E0
:1050D00000000000000000000000000000000000D0
:1050E000000000000000000001E00001E00001E01D
:1050F0000001E0007FFFF87FFFF801E00001E00021
:1051000001E00001E00001E00001E00001E0000139
:10511000E00000F000007FF8003FF8000000000011
:10512000000000000000000000000000000000007F
:10513000000000000000000000000000000000006F
:10514000000000000000000000000000000000005F
:10515000000000001E00781E00781E00781E0078F7
:105160001E00781E00781E00781E00781E00780E43
:1051700000F80F03F807FF7803FC78000000000038
:10518000000000000000000000000000000000001F
:10519000000000000000000000000000000000000F
:1051A00000000000000000000000000000000000FF
:1051B000000000003C003C1E007C1E00780F00F048
:1051C0000F80F00781E003C3C003C3C001E7800084
:1051D000E70000FF00007E00003C0000000000002F
:1051E00000000000000000000000000000000000BF
:1051F00000000000000000000000000000000000AF
:10520000000000000000000000000000000000009E
:105210000000000078000E78001E78001E383C1E4A
:10522000383C1C3C7E1C3C7E3C1CE73C1CE7B81D0B
:10523000C3B81FC3F80F81F80F81F0000000000011
:10524000000000000000000000000000000000005E
:10525000000000000000000000000000000000004E
:10526000000000000000000000000000000000003E
:10527000000000001F007C0F80F007C1E003E3C0C6
:1052800000F780007F00003E0000FF0001E7800380
:10529000C3C00781F01F00F83E007C000000000042
:1052A00000000000000000000000000000000000FE
:1052B00000000000000000000000000000000000EE
:1052C00000000000000000000000000000000000DE
:1052D000000000003C003C1E003C1E00780F00F067
:1052E0000780F00781E003C1C003C3C001E780006D
:1052F000F78000FF00007E00003E00003C000078C8
:105300000001F0007FE0007F80000000000000004E
:10531000000000000000000000000000000000008D
:10532000000000000000000000000000000000007D
:10533000000000000FFFF00FFFF00001E00007C0C9
:10534000000F80001E00003C0000F80001E0000398
:10535000C0000780000FFFF80FFFF80000000000FA
:10536000000000000000000000000000000000003D
:10537000000000000000000000000000000000002D
:1053800000000007E0001FE0003C0000380000388B
:1053900000007800007800007800007800007800B5
:1053A0001FF0001F800001F000007800007800006E
:1053B000780000780000780000780000780000385D
:1053C00000003C00001F80000FE000000000000013
:1053D000000000000000000000003C00003C000055
:1053E0003C00003C00003C00003C00003C00003C55
:1053F00000003C00003C00003C00003C00003C0081
:10540000003C00003C00003C00003C00003C000070
:105410003C00003C00003C00003C00003C00003C24
:1054200000003C00003C00003C00000000000000C8
:10543000000000000000000000000000000000006C
:10544000000007E00007F800003C00001E00001EFE
:1054500000001E00001E00001E00001E00000E00C6
:10546000000FF80001F8000F80000E00001E000081
:105470001E00001E00001E00001E00001E00001E78
:1054800000003C0000FC0007F000000000000000ED
:10549000000000000000000000000000000000000C
:1054A00000000000000000000000000000000000FC
:1054B0000000000000000000000000000007C00025
:1054C0001FF01E3C7C1E381FFC7807F8000000000F
:1054D00000000000000000000000000000000000CC
:1054E00000000000000000000000000000000000BC
:1054F000010202030405060708090A0B0C0D0E0F32
:105500001010000000000000000001020304060764
:105510000809000000000102030400000D0A20C871
:10552000F4BABAD7D6CFD4CABEB2BBD5FDB3A3A303
:10553000ACC7EBD4C4B6C1B9A4B3CCD6D0B5C47291
:105540006561646D652E747874CEC4BCFECBB5C342
:10555000F7A3ACB8F9BEDDD2AAC7F3B8F8464C4100
:105560005348D6D8CBA2D7D6C4A3CAFDBEDD0D0AF8
:1055700000000000945500080000002064000000B6
:1055800018220008F85500086400002004490000B3
:10559000282200080000000000000000010021088F
:1055A00011080910092001007FF800080008000810
:1055B0003FF80008000800087FF80008602B00088A
:1055C0000800100050310008180020000000000002
:1055D0000600F000400100000000FFFF280000204E
:1055E00000A000000100000010000000000000000A
:0855F0000024F400000000009B
:0400000508000131BD
:00000001FF
