:020000040800F2
:10000000F048002045010008B71A0008BB1300089B
:10001000B51A000825020008AD2000080000000005
:10002000000000000000000000000000171F000892
:100030005102000800000000B91A0008191F00084A
:100040005F0100085F0100085F0100085F01000810
:100050005F0100085F0100085F0100085F01000800
:100060005F0100085F0100085F0100085F010008F0
:100070005F0100085F0100085F0100085F010008E0
:100080005F0100085F0100085F0100085F010008D0
:100090005F0100085F0100085F0100085F010008C0
:1000A0005F0100085F0100085F0100085F010008B0
:1000B0005F0100085F0100085F0100085F010008A0
:1000C0005F0100085F0100085F0100085F01000890
:1000D0005F0100085F0100085F0100085F01000880
:1000E0005F010008F51A00085F0100085F010008C1
:1000F0005F0100085F0100085F0100085F01000860
:100100005F0100085F0100085F0100085F0100084F
:100110005F0100085F0100085F0100085F0100083F
:100120005F0100085F0100085F0100085F0100082F
:10013000DFF80CD000F040F800480047B12200087A
:10014000F04800200648804706480047FEE7FEE7E3
:10015000FEE7FEE7FEE7FEE7FEE7FEE7FEE7FEE777
:100160007B1F000831010008D2B201E000F8012B2A
:10017000491EFBD270470022F6E710B513460A4627
:1001800004461946FFF7F0FF204610BD30B50B4678
:10019000014600202022012409E021FA02F59D42B7
:1001A00005D303FA02F5491B04FA02F52844151E8B
:1001B000A2F10102F1DC30BD064C074D06E0E0681B
:1001C00040F0010394E8070098471034AC42F6D39E
:1001D000FFF7B2FFCC290008EC29000830B50F4822
:1001E00085B0816941F00401816180690C4D00F0A6
:1001F0000400049001200402CDE900400220029096
:10020000032003906946284600F098F80022214612
:10021000284600F08FF905B030BD00000010024004
:1002200000080140FEE700000848074901604FF45C
:10023000E131416000218160C160016181610C2177
:10024000416101F003B80000003801403000002097
:100250007047000030B5B3F5804F05D06FF07041A6
:1002600040F82210002030BD8C690B688D68234354
:100270004C688989240144EA0524234343EA014167
:1002800050F82230014C23401943E9E70000F0CF39
:1002900010B50A6850F8223023F0010340F82230EC
:1002A0008C68082C23D000234A682243CC681C4366
:1002B0000B6922431A434B690E4C1A43CB691A430C
:1002C0000B6A1A434B6A1A438B6A1A43CB6A1A4366
:1002D0000B6B1A438B6913434A6B09681A4350F836
:1002E0002130A343134340F82130002010BD4023A8
:1002F000DAE700007FFF0F0030B5D1E9003443EAB0
:1003000004138C688D89240244EA054423430C8A33
:10031000094D00EB820005EB045423430C7D6D0175
:1003200005EB0464896923430B43416801F04041B4
:100330000B434360002030BD0000F0FF2DE9F84F73
:10034000DFF8C8910024A9F1040B23460F2709F117
:10035000040AABF1040ED1E00125A54006EA05022E
:10036000AA4276D1DFF8A8C14E68A6EB0C08664514
:100370002BD00DDC032E34D005DC36B3012E19D082
:10038000022E2FD11BE0112E16D0122E2AD119E0E9
:10039000B8F5881F19D006DCB8F5803F15D0B8F540
:1003A000801F1FD111E0B8F5001F0ED0B8F5041F53
:1003B00018D10AE0CB6815E0CB681B1D12E0CB68B2
:1003C00008330FE0CB680C330CE08B682BB1012BAA
:1003D0004FF0080303D0456104E0042302E0056107
:1003E00000E00023FF2A01D8064601E000F10406E0
:1003F0004FEA840501D9A5F12005D6F8008007FA57
:1004000005FC28EA0C0803FA05F548EA0508C6F8D1
:1004100000804D68ED0070D53E4DAE6946F0010696
:10042000AE61AD6924F0030605F0010500953A4D73
:1004300006EB050CDCF80850A607360F07FA06F89D
:1004400025EA0805DFF8D480404503D14FF00008C5
:1004500025E052E0DFF8C880404502D14FF00108A6
:100460001DE0DFF8C080404502D14FF0020816E0E1
:10047000DFF8B480404502D14FF003080FE0DFF809
:10048000AC80404502D14FF0040808E0DFF8A080BE
:10049000404502D14FF0050801E04FF0060808FA88
:1004A00006F848EA0508CCF808804D68D9F80060DD
:1004B000ED024D4601D5164300E096432E604D688F
:1004C000DAF80060AD02554601D5164300E09643C8
:1004D0002E604D68DBF80060AD035D4601D5164324
:1004E00000E096432E604D68DEF80060ED0375462F
:1004F00001D5164300E096432E60641C0A68164638
:10050000E2407FF429AFBDE8F88F00000804014005
:1005100000001110001002400000014000080140DE
:10052000000C01400010014000140140001801407F
:10053000001C01400AB1016170470904FBE700009B
:1005400001488068704700001C0000200248816854
:1005500002781144816070471C00002070B50D4D79
:1005600004464FF47A712878B1FBF0F00A49096823
:10057000B1FBF0F000F056FE48B9102C07D2002273
:100580002146501E00F018F800206C6070BD01205C
:1005900070BD00001C00002028000020002809DB9E
:1005A00000F01F02012191404009800000F1E0208D
:1005B000C0F8001170470000F0B40E4B1B680C46E9
:1005C000C3F30223C3F10705042D00D90425191D27
:1005D000072901D2002300E0DB1E012606FA05F1FF
:1005E000491E214099409E40761E16403143F0BC82
:1005F00001F082BD0CED00E0014901200862704766
:1006000000000E4210B501460020284C04292FD0CE
:100610000BDC012930D0022929D100F06BF9616887
:10062000C1F38131491C49001FE0082920D010295D
:100630001DD161682268D20119D51D48C1F38342DA
:10064000C903805C0AD56168194AC1F34041921E12
:10065000515C184AB2FBF1F1484301E016494843A6
:100660006168490203D440000321B0FBF1F010BDE2
:10067000BDE8104000F04EB9226AC2F30121012901
:1006800003D1920701D5C80310BD022905D1626AC2
:10069000920702D549F6404010BD0329FCD12168DC
:1006A0008903F9D54FF2244010BD0000001002402C
:1006B000A429000800127A0000093D002DE9F84342
:1006C00005460078354CC00754D0E0690026C000CC
:1006D00008D4E06940F08050E061E069012600F054
:1006E000805000902E480168C90512D401688046E8
:1006F00041F480710160FFF723FF074605E000BF6A
:10070000FFF71EFFC01B642823D8D8F80000C005DF
:10071000F6D5206A10F4407021D0A98801F4407108
:1007200081421CD0206A1F49012220F440700A60D7
:1007300000220A602062C00711D0FFF701FF0746C0
:1007400041F2883808E000BFFFF7FAFEC11B4145BF
:1007500002D90320BDE8F883206A8007F4D5206A17
:10076000696820F44070084320621EB1E06920F0FF
:100770008050E0612878800705D56068A96820F47A
:100780004040084360602878C00605D56068696904
:1007900020F48000084360600020DBE70010024086
:1007A00000700040400442422DE9F0470F4605002A
:1007B00061D0434E306800F00700B84209D230687B
:1007C00020F0070038433060306800F00700B8427E
:1007D00051D128683B4C810712D5400703D560688A
:1007E00040F4E06060602878000703D5606840F45A
:1007F000605060606068A96820F0F00008436060A5
:100800002878C00728D06868012810D021680228FD
:1008100010D0890700292EDA616821F00301014315
:100820006160FFF78DFE804641F288390DE0216856
:100830008903EFE78901EDE7FFF782FEA0EB0801EE
:10084000494502D90320BDE8F0876068696800F077
:100850000C00B0EB810FEFD1306800F00700B84218
:100860000BD9306820F0070038433060306800F062
:100870000700B84201D00120E5E72878400705D5F8
:100880006068E96820F4E060084360602878000749
:1008900006D56068296920F4605040EAC1006060B4
:1008A00000F038F86168084AC1F30311515CC84090
:1008B0000649086006480068FFF750FE0020C2E7BE
:1008C0000020024000100240B42900082800002047
:1008D000200000200448054900684968044AC1F323
:1008E0000221515CC84070472800002000100240DF
:1008F000C42900080448054900684968044AC1F34E
:10090000C221515CC84070472800002000100240FE
:10091000C42900080E4A51680E4801F00C03042B4C
:1009200011D0082B0FD10C48C1F38343C903C05C1D
:100930000AD55168084AC1F34041921E515C054AEC
:100940005043B0FBF1F07047044948437047000042
:100950000010024000127A009229000800093D00B0
:100960002DE9F84F040070D02078C04DC00749D061
:100970006868C0F38100012807D06868C0F381006F
:10098000022809D16868C00306D52868800339D5D4
:1009900060680028E7D035E06068B0F5803F0BD094
:1009A00010B1B0F5A02F11D0286820F48030286055
:1009B000286820F4802002E0286840F48030286015
:1009C000606890B1FFF7BCFD06460AE0286840F475
:1009D00080202860F0E700BFFFF7B2FD801B64288D
:1009E00073D828688003F7D50CE0FFF7A9FD064609
:1009F00005E000BFFFF7A4FD801B6428F0D828683D
:100A00008003F7D420789A4E80074FF001094FF009
:100A1000000839D5686810F00C0F07D06868C0F37B
:100A20008100022809D16868C00306D428688007BD
:100A300014D52069012808D110E02069B0B1C6F8AA
:100A40000090FFF77DFD074605E00AE1FFF778FD1E
:100A5000C01B0228C4D828688007F7D528686169B8
:100A600020F0F80040EAC10028600DE0C6F80080E0
:100A7000FFF766FD074604E0FFF762FDC01B022892
:100A800023D828688007F7D4207800072CD5794828
:100A9000A169D9B1C0F80090FFF752FD074604E004
:100AA000FFF74EFDC01B02280FD8686A8007F7D5F4
:100AB00071484FF4FA510068B0FBF1F0009000BFAC
:100AC0000098411E0091FAD20EE080E0C0F800804C
:100AD000FFF736FD074604E0FFF732FDC01B022892
:100AE00075D8686A8007F7D42078400760D5E86930
:100AF0000027C00008D4E86940F08050E861E86948
:100B0000012700F0805000905C480168C90513D4AB
:100B10000168834641F480710160FFF711FD824650
:100B200006E000BFFFF70CFDA0EB0A0064284ED8DA
:100B3000DBF80000C005F5D5E06801280AD008B14F
:100B4000052813D0286A20F001002862286A20F0C6
:100B5000040002E0286A40F001002862E06841F2E7
:100B6000883B98B1FFF7ECFC82460BE0286A40F026
:100B700004002862EEE700BFFFF7E2FCA0EB0A01E9
:100B800059455AD8286A8007F6D50CE0FFF7D8FCFB
:100B9000824605E0FFF7D4FCA0EB0A0159454CD88A
:100BA000286A8007F6D41FB1E86920F08050E86118
:100BB000E06988B36968C1F38101022944D0022841
:100BC000C6F8608004D0FFF7BBFC044638E034E090
:100BD000FFF7B6FC074604E0FFF7B2FCC01B022893
:100BE0002BD828688001F7D4206AB0F5803F05D162
:100BF0006868A16820F4003008436860D4E90801FF
:100C00000843696821F4741108436860C6F860906D
:100C1000FFF796FC044606E025E000BFFFF790FCD6
:100C2000001B022809D828688001F7D51BE000BF07
:100C3000FFF786FC001B022802D90320BDE8F88FCD
:100C400028688001F4D40EE00128F7D06868226A91
:100C500000F48031914204D1616A00F4701088423E
:100C600001D00120EAE70020E8E700000010024080
:100C700000004242800442422800002000700040F0
:100C8000024800EB810091B201607047006C0040A7
:100C900001490120087070471800002010B5044673
:100CA0000068016889070AD54068800707D5204693
:100CB000FFF7EEFF2068416821F00201416003491F
:100CC0004FF4003008600120607410BD140401402E
:100CD000F8B505004FF0000016460C46009006D00F
:100CE0002CB100226946284600F019F808B101200D
:100CF000F8BD287B2070E87BE070697B6170A97B80
:100D0000A17056B100F005FFE070607800F001FFBF
:100D10006070A07800F0FDFEA0700020F8BD2DE905
:100D2000F04791460C465FEA00084AD084B3D8F8F1
:100D300000004068400744D4404600F0CFFF4FF425
:100D400061620546B0FBF2F1B0FBF2F302FB135017
:100D50003C23B0FBF3F0B5FBF2F6607002FB1650DB
:100D6000B0FBF3F203FB1200A070182931D3182056
:100D7000B1FBF0F7B1FBF0F200FB1210207040461F
:100D800000F0A5FF411C04D0A84202D9461B02E096
:100D900017E04FF0FF36A7EB071000EB4000C0EB69
:100DA000001005EBC0152946404601F0A0F840B9F7
:100DB000701C01D0711900E03146404601F083F803
:100DC00010B10120BDE8F0873946404600F0F2FE40
:100DD00000E02170B9F1000F0BD0207800F099FEEF
:100DE0002070607800F095FE6070A07800F091FEB1
:100DF000A0700020E6E7000070B5040003D0607C1E
:100E0000002610B105E0012070BD2674204600F0D8
:100E10003DF802206074204600F0B4F9042550BB70
:100E2000204600F01EFF30BB2068416821F007011A
:100E30004160A06820B11448016821F001010160FF
:100E40001148001F0168A26821F46071114301601C
:100E50006068411C04D10120FFF7D4FB58B1401E4B
:100E60002268C0F303419160216880B2C8602046C7
:100E700000F012FF08B16574C5E7E67301206073E6
:100E8000A0736074002070BD306C004010B5184C29
:100E900092B0E06940F08050E061E06900F080507D
:100EA0001090FFF7A9FBE06940F00060E061E069A5
:100EB000012400F0006010900420009000200790B2
:100EC00003946846FFF74CFD10B10AA001F0F0F85A
:100ED0004FF48070CDE90A400AA8FFF7EFFB10B18C
:100EE00009A001F0E5F80F48046012B010BD000041
:100EF000001002400A0D2052544320C5E4D6C3CA54
:100F0000A7B0DC200D0A00000A0D2052544320CA6D
:100F1000B1D6D3B3F5CABCBBAFCAA7B0DC200D0AAB
:100F2000000000003C0442422DE9F8434FF0000667
:100F300017460D46040000960FD075B1207C01289D
:100F40000ED04FF0010984F8109002206074002246
:100F500069462046FFF7E3FE20B10120BDE8F88393
:100F60000220FBE79DF800004FF4616148439DF8C3
:100F70000110C1EB011100EB81009DF8021000EBA4
:100F800001082878E7B100F0BBFD4FF4616100FB78
:100F900001F7687800F0B4FDC0EB001007EB8007A4
:100FA000A87800F0ADFD3918414501D21748014439
:100FB000204600F088FF70B1042060742674CCE7EE
:100FC0004FF4616148436978C1EB011100EB810086
:100FD000A9780144E8E72068416821F002014160F6
:100FE0002068016841F0020101600948016841F48C
:100FF0000031016006480830016841F400310160A9
:1010000084F8119026740020A8E7000080510100A8
:10101000000401402DE9F0410D4604003BD0C5B36A
:10102000207C01283AD04FF0010884F8108002207B
:101030006074E87872B300F063FDE073687800F0E4
:101040005FFD6073A87800F05BFDA073C2B2617BA6
:10105000E07B00F00DFF20732870204600F03EFE7C
:101060004FF46161B0FBF1F1002518292DD9182248
:10107000B1FBF2F1A1EB011101EB4101C1EB011157
:1010800000EBC1163146204600F031FF0427C8B9F5
:101090000BE000E004E00120BDE8F0810220FBE766
:1010A000E07368786073A878CFE7204600F00FFE01
:1010B000411C0AD0B04208D206490144204600F043
:1010C00002FF10B167742574E5E784F81180257478
:1010D0000020E1E7805101002DE9F0410D460400B8
:1010E00024D01DB3207C012823D04FF0010884F8C0
:1010F0001080022060742878EAB100F001FD4FF4FE
:10110000616100FB01F6687800F0FAFCC0EB0010AA
:1011100006EB8006A87800F0F3FC35182946204637
:1011200000F0E5FE0026042710BB0FE00120BDE81B
:10113000F0810220FBE74FF4616148436978C1EB1D
:10114000011100EB8100A9784518E7E720684168A4
:1011500021F005014160204600F0B9FD411C0AD094
:10116000A84208D206490144204600F0ACFE10B166
:1011700067742674DAE784F8118026740020D6E7B5
:101180008051010070B504000AD02068416821F048
:1011900008014160FFF7D4F905464FF47A7608E07C
:1011A000012070BDFFF7CCF9401BB04201D90320EC
:1011B00070BD206840680007F4D5002070BD70B590
:1011C00015460E46040007D0A069B0F5807F03D015
:1011D00094F8410010B107E0012070BD002084F8B0
:1011E0004000204600F01DF804F108012068FFF7D8
:1011F0004FF83146A2682068FFF77EF8D4E9010273
:101200002946236BFFF726F8A168206850F82120B3
:1012100042F0010240F82120012084F84100002022
:1012200070BD704710B5401EB0F1807F01D3012022
:1012300010BD4FF0E02460610F21601700F05CFFEB
:101240000020A06107202061002010BD70B50400BF
:1012500004D094F84100002510B106E0012070BDD3
:1012600084F84050204600F023F8242084F8410000
:101270002068C16821F40051C160204600F07EFE64
:101280002068016921F4904101612068416921F0E1
:101290002A0141612068C16841F40051C160656460
:1012A000202084F8410084F842006563002070BD6E
:1012B000194810B5816986B041F480418161816926
:1012C00001F480410491816941F0040181618169E7
:1012D00001F004010491816941F004018161806998
:1012E0000E4C00F0040004904FF4007000900220B7
:1012F0000190012002900320039069462046FFF7E9
:101300001DF8201500900020019069462046FFF747
:1013100015F806B010BD00000010024000080140A2
:101320002DE9F843044690F841001F4616460D4645
:10133000202802D00220BDE8F8837DB176B10020DC
:101340006064212084F84100FFF7FAF8A684804603
:10135000E684A068B0F5805F02D003E00120EAE7F0
:10136000206910B12E4600250EE000260CE08021F9
:10137000204600F05FFEA0B9AEB116F8010B21685F
:101380004860E08C401EE084E08C43464FF0000251
:1013900000970028EBD14FF04001204600F04AFEB4
:1013A00030B10320C7E735F8020BC0F30800E6E7C9
:1013B000202084F841000020BDE7FEE7034908B182
:1013C000080601E04FF48050086070471014014097
:1013D00070B51C46154600F05BF9044905FB04F0A6
:1013E0004989BDE8704000F097B80000080000206F
:1013F00001B5009801E0401E00900028FBD108BD17
:10140000F0B5184E203A1FFA82FCF568AA88EB88DE
:101410002D6802FB03F7FC1707EB5474C4F3C704F1
:101420000CFB045500F034F92C20C1060880002183
:10143000728933890C4E802710E0002015F801C016
:1014400027FA00FE1CEA0E0F01D0338000E0328044
:10145000401CC0B20828F1D3491CC9B2A142ECD348
:10146000F0BD00000800002000000260F0B50F464B
:10147000064600250F4C18E0E068638881882944FF
:10148000994203D9C188002531448EB2C088A18811
:101490003044884200D9002531462846FFF7B0FF86
:1014A000E0687F1C8088284485B23A78002AE3D11E
:1014B000F0BD00000800002010B515484FF0204195
:1014C00000F14802016013494160002108231160C6
:1014D000C2E90113D1605C061161C2E905148160A3
:1014E000C0E903131022C0E905211202C161C0E95D
:1014F0000912C16201634163816300F01BF8044A71
:10150000BDE81040483211460148FFF758BE0000C0
:1015100078440020040100A010B500222C23DC0632
:101520002380034B01E01980521C8242FBD310BD83
:101530000000026070B5274886B0816941F0200143
:101540008161816901F020010491816941F04001CC
:101550008161816901F040010491816941F080015C
:101560008161816901F080010491816941F4807198
:101570008161816901F480710491416941F4807154
:1015800041614069144D00F4807004900120019085
:101590000290032003904FF4805000906946284643
:1015A000FEF7CCFE0D4E0224694630460094FEF74D
:1015B000C5FE4CF6B370CDE9000469462846FEF737
:1015C000BDFE4FF68070009069463046FEF7B6FECD
:1015D00006B070BD00100240001401400018014028
:1015E00030B507283AD81E49C4074FF0F0020870FA
:1015F0004FF4A07313D04B808A80362213071A80D1
:10160000CC88184AA4F51345413D04D0A4F50545FE
:10161000523D07D008E0082444EA401003E04A8025
:101620008B80EAE7400110802A201880002010807B
:1016300010804888401EC0F307241480C0B2108078
:101640002B2018800020108010808888401EC0F356
:1016500007211180C0B210802C20188030BD0000FE
:10166000080000200000026010B5FFF763FFFFF7DD
:1016700023FF0120FFF7A2FE00F0BEF900F028F8DA
:1016800002480078BDE81040FFF7AABF080000201C
:1016900070B54FF0C0452A242C800C4C060A2680D9
:1016A000C6B226801044401E020A2280C0B22080AA
:1016B0002B202880080A2080C8B22080C818401E2D
:1016C000010A2180C0B2208070BD000000000260CD
:1016D00010B500F06DF9B349B44AA0F51343C880C2
:1016E000B1494FF0C044413B7ED0A0F50543523B89
:1016F0007BD1CF20208000200880C12008803020AE
:101700000880ED20208064200880032008801220BB
:10171000088081200880E820208085200880102013
:10172000088078200880CB202080392008802C2059
:101730000880002008803420088002200880F720DC
:10174000208020200880EA20208000200880088057
:10175000C020208021200880C12020801120088006
:10176000C52020802D20088033200880362020804E
:10177000002008803A20208055200880B120208059
:101780000020088017200880B62020800A200880CA
:10179000A2200880F62020800120088030200880C8
:1017A000F220208000200880262020800120088050
:1017B000E0202080D02008800020088002200880BF
:1017C000072008800B2008801A200880312008801C
:1017D000542008804020088029200880122008809A
:1017E00008800880172001E029E027E00880E12038
:1017F0002080D02008800020088002200880072058
:10180000088005200880252008802D20088044209D
:101810000880452008801C20088018200880162099
:1018200008801C2008801D20088011202080104680
:10183000FFF7DEFD292020802C20208010BDCF2046
:101840002080002008808120088030200880ED2042
:1018500020806420088003200880122008808120D6
:101860000880E820208085200880102008807820CB
:101870000880CB202080392008802C200880002080
:1018800008803420088006200880F720208020204F
:101890000880EA202080002008800880B120208075
:1018A000002008801B200880B62020800A200880A5
:1018B000A2200880C020208035200880C120208000
:1018C00011200880C5202080452008800880C7207E
:1018D0002080A2200880F22020800020088026207E
:1018E000208001200880E02020800F200880262012
:1018F0000880242008800B2008800E200880092002
:10190000088054200880A8200880462008800C20E9
:10191000088017200880092008800F2008800720F1
:10192000088000200880E120208000200880192005
:1019300008801B20088004200880102008800720D1
:1019400008802A200880472008803920088003204A
:101950000880062008800880302008803820088011
:101960000F20088036202080C82008802A20208070
:101970000020088008800880EF2008802B2020802D
:10198000002008800880012008803F2008803A203D
:10199000208055200880112020801046FFF728FD68
:1019A00029204AE70800002000000260FCBF020076
:1019B00010B54FF0C043042018800E4908880888ED
:1019C00008884FF6FF7202EA002408882043A0F539
:1019D0000544523C0DD0D320188008880888088818
:1019E00002EA002208881043A0F51341413900D0D3
:1019F000002010BD0000026070B5084C4FF40030AC
:101A0000206040F6FF252846FFF7F2FC0220206008
:101A10002846BDE87040FFF7EBBC000010180140FD
:101A20000148C0687047000008000020014A10818A
:101A30005181704708000020F0B51C4885B08169CD
:101A400041F008018161816901F008010491816917
:101A500041F008018161816901F008010491816907
:101A600041F0080181618069012400F008000490C0
:101A700003202026CDE90240CDE900640C4F6946E1
:101A80003846FEF75BFC694638460094FEF756FC84
:101A90000225694638460095FEF750FC0448103090
:101AA00006600460056005B0F0BD00000010024053
:101AB000000C0140FEE7FEE7704700001CB5002265
:101AC00001212920FEF778FD2920FEF767FD00207F
:101AD000019011208DF8000035208DF801001020B4
:101AE0008DF80200012269460148FFF71DFA1CBD6E
:101AF000DC4400200148FFF7D1B80000DC4400209E
:101B0000010901EB810100F00F0000EB4100C0B2C0
:101B10007047002102E00A38C0B2491C0A28FAD2F4
:101B2000090740EA116070471CB523208DF80300B7
:101B300010208DF8010012208DF8020004208DF88D
:101B40000000012269461048FFF764FA10B10FA0A7
:101B500000F0AEFA11208DF8040035208DF8050054
:101B600000208DF80600012201A90748FFF7B4FA0A
:101B700010B10BA000F09CFA43F2F22201210248BE
:101B8000FFF77EF81CBD0000DC4400200D0AB3F511
:101B9000CABCBBAFC8D5C6DACAA7B0DC0D0A000004
:101BA0000D0AB3F5CABCBBAFCAB1D6D3CAA7B0DC65
:101BB0000D0A00002DE9F04104460025C07B627B40
:101BC000A37B42E0012A16D0032A14D0052A12D0A2
:101BD000072A10D0082A0ED00A2A0CD00C2A0AD0C4
:101BE000042A10D0062A0ED0092A0CD00B2A0AD0BB
:101BF000022A0DD028E01F2B0CD30C2A05D101227C
:101C00001346401C20E01E2B04D30123521C1BE072
:101C10001C2B02D203F1010316E011D183B29E07FF
:101C200010D16426B3FBF6F706FB173636B94FF42E
:101C3000C876B3FBF6F706FB17331BB91D2303E089
:101C40001D2B01D1032201236D1C8D42BAD3D1B2C9
:101C5000E0736173DAB2A27300F00AF92073BDE891
:101C6000F08170B50446FEF76BFC05464FF47A76BA
:101C700006E0FEF765FC401BB04201D9032070BDB1
:101C8000206840688006F4D52068416841F0100162
:101C90004160002070BD000070B5044600684168D6
:101CA00021F010014160FEF74BFC05464FF47A76B7
:101CB00007E000BFFEF744FC401BB04201D90320FF
:101CC00070BD206840688006F4D5002070BD0168B2
:101CD000086A496A89B241EA004070470068816930
:101CE0008AB2C1698BB2816989B28A4203D0C06964
:101CF00061F31F40704743EA024070479EB02E4C8C
:101D0000002500221BA92D48FFF709F800221CA975
:101D10002A48FEF7DDFF9DF86E00A84248D09DF8E6
:101D2000700000909DF872309DF871209DF873103E
:101D300023A000F0BDF99DF870109DF87200CDE968
:101D400000019DF871309DF873202AA102A800F0CF
:101D5000BFF9FFF765FEC0884FF6FF7101EA40004A
:101D600002A9FFF783FB9DF86E309DF86D209DF86A
:101D70006C102DA000F09CF99DF86E0000909DF86D
:101D80006D309DF86C2031A102A800F0A1F9FFF799
:101D900047FEC08802A900EB800080B2FFF766FB17
:101DA000207828B131494FF48070086000202070FD
:101DB0009DF86E50A5E7000018000020DC440020CC
:101DC0005468652044617465203A2020593A2530D2
:101DD0002E3264202D204D3A25302E3264202D20C5
:101DE000443A25302E3264202D20573A25302E32A9
:101DF000640D0A005468652044617465203A20200F
:101E0000593A323025302E3264202D204D3A25307B
:101E10002E3264202D20443A25302E3264202D208D
:101E2000573A25302E3264005468652054696D6538
:101E3000203A202025302E32643A25302E32643A62
:101E400025302E3264200D0A0D0A000054686520EA
:101E500054696D65203A202025302E32643A2530B1
:101E60002E32643A25302E32640000001008014002
:101E7000F0B56424C1EBC1030927A500072603EBD5
:101E800001130329B3FBF7F100F5FA601144014493
:101E90000AD2401EB0FBF4F201EB9001B0FBF5F06A
:101EA000891A0844001D08E0B0FBF4F201EB900130
:101EB000B0FBF5F0891A0844801CB0FBF6F106FB74
:101EC0001100C0B2F0BD70B50D4606460024FFF704
:101ED000C8FE48B93168280C08623168A8B2486267
:101EE0003046FFF7D9FE00B10124204670BD70B521
:101EF0000D4606460024FFF7B4FE48B93168280CA9
:101F000088613168A8B2C8613046FFF7C5FE00B1EC
:101F10000124204670BD7047FEF718BB30B58FB066
:101F200028216846FEF727F914210AA8FEF723F9AD
:101F300001210804CDE90010002402940225049137
:101F4000CDE907504FF4E01009906846FEF708FD10
:101F500008B172B6FEE70F20CDE90A054FF48060A4
:101F6000CDE90C4002210AA80E94FEF71DFC0028C2
:101F700001D072B6FEE70FB030BD704770B50446B1
:101F800000680169E26821F440511143016121694F
:101F9000A0680843616908432168CA6841F20C637C
:101FA0009A430243CA6020684169A26921F44071E2
:101FB000114341611E492068884202D1FEF79AFC14
:101FC00001E0FEF787FC00EBC00101EB0012606846
:101FD00064218000B2FBF0F3B3FBF1F36FF018065D
:101FE0007343B2FBF0F5B2FBF0F605EB8305322349
:101FF00003EB0515B5FBF1F5B6FBF1F605F0F005C1
:1020000005EB0615B2FBF0F6B2FBF0F0B0FBF1F019
:102010006FF01802504306EB800003EB0010B0FB9A
:10202000F1F0216800F00F002844886070BD0000C6
:10203000003801402DE9F041984617460E46044607
:10204000069D27E0681C25D02DB1FEF779FAA0EB9C
:102050000800A8421ED920680C3050E8001F21F467
:10206000D07140E80012002AF5D12068143050E801
:10207000001F21F0010140E80012002AF5D12020C4
:1020800084F8410084F84200002084F840000320D6
:10209000BDE8F0812068006836EA000004D0002026
:1020A000B842CFD00020F3E70120F9E7FEE70000B7
:1020B0000FB4054B10B503A9044A029800F03CF890
:1020C00010BC5DF814FB0000992200082C000020D1
:1020D0000FB4084B10B504A902AA039800F02CF81D
:1020E000044602A9002000F0D1F8204610BC5DF89B
:1020F00014FB00008D2200080907090E002804DBEC
:1021000000F1E02080F80014704700F00F0000F1AB
:10211000E02080F8141D704702E008C8121F08C1B3
:10212000002AFAD170477047002001E001C1121F58
:10213000002AFBD1704700002DE9FF4F89B09B4674
:102140000446002506E025280BD05A460B999047F7
:10215000641C6D1C20780028F5D10DB02846BDE820
:10216000F08F0027B8460122474900E0074314F8E2
:10217000013F203B02FA03F00842F7D120782E28D5
:1021800019D114F8010F47F004072A280ED06FF078
:102190002F022078A0F1300109290CD808EB880122
:1021A00002EB410100EB0108641CF2E70A98641C91
:1021B00050F8048B0A9020780028CED0642808D0EC
:1021C000692806D075281ED05A460B9990476D1C79
:1021D00058E00A994FF00A0901C90A91002802DA69
:1021E00040422D2102E0390504D52B218DF8201025
:1021F000012103E0F90704D02021F7E78A4608AE61
:102200000DE00021FAE70A994FF00A0901C90A9185
:10221000F7E74946FDF7BAFF303106F8011D0028FF
:10222000F7D1ADEB060000F12009780701D44FF09B
:102230000108C84502DDA8EB090000E00020804647
:10224000002706E008A85A46C05D0B9990476D1C10
:102250007F1C5745F6DB04E030205A460B99904727
:102260006D1CB8F10001A8F10108F5DC05E016F8D5
:10227000010B5A460B9990476D1CB9F10001A9F169
:102280000109F4DC641C65E7092801000A68531C95
:102290000B6010707047000013B54FF47A73012281
:1022A00069460248FFF73CF800981CBD300000204A
:1022B000FFF734FEFFF7C0FBFDF7B6FF1CA0FFF7EA
:1022C000F7FEFDF78BFFFFF7CFF9204800210388C9
:1022D0001F4802880846FFF77BF84FF4784100203A
:1022E000FFF7A4FB0620FFF77BF91B4819490160A3
:1022F0004FF0FF314160FEF77FFD18B117A0FFF7E7
:10230000D7FE12E0FFF710FCFFF7D8FB1848416A30
:10231000090101D517A003E0406A400102D51AA0C7
:10232000FFF7C6FE1D4901200860FFF7E7FCFEE746
:102330000D0A20D5E2CAC7D2BBB8F6525443C4D660
:10234000D6D3CAB5D1E9200D0A0000000C00002048
:102350000A00002000280040DC4400200D0A205222
:102360005443B3F5CABCBBAFCAA7B0DC200D0A000A
:10237000001002400D0A20B7A2C9FAB5E7D4B4B8DC
:10238000B4CEBB200D0A00000D0A20B7A2C9FACDB9
:10239000E2B2BFB8B4CEBB200D0A0000E004424256
:1023A000000000000000000000000000000000002D
:1023B0000000001818181818180800081800000065
:1023C000000000342424240000000000000000006D
:1023D0000000000016247F2424247E242400000012
:1023E000000000083E6848681C1612127C1010009D
:1023F00000000061D296740810162949C60000003A
:10240000000000003C646438724ACE467F00000041
:10241000000000181818180000000000000000005C
:1024200000000004081810303030301010180C0470
:10243000000000201008080C0404040C08181020E8
:10244000000000080A341C6A0800000000000000B8
:102450000000000000001818187F1818180000006D
:102460000000000000000000000000181808300004
:102470000000000000000000003C00000000000020
:10248000000000000000000000000018180000001C
:102490000000000206040C08081010202040000074
:1024A000000000003C6642475B7342663C0000004F
:1024B0000000000018784808080808087E0000009E
:1024C000000000003C460606040810207E000000C4
:1024D000000000007C0606043C0202067C000000AE
:1024E000000000000C1C14246444FF0404000000DD
:1024F000000000007E6060607E0202067C0000003A
:10250000000000001E306048764242623C0000003D
:10251000000000007E0206040C08181030000000C5
:10252000000000003C6242361C6642423C00000053
:10253000000000003C664242661A02047800000077
:10254000000000000000181800000018180000002B
:1025500000000000000018180000001818083000E3
:1025600000000000000004183060100C060000009D
:1025700000000000000000007E007E00000000005F
:10258000000000000000301804060C1020000000BD
:10259000000000301C060606181000101000000095
:1025A0000000001C224141DDB5A5A5AF94C0403C10
:1025B00000000000181C342426627E43C100000085
:1025C000000000007C4642467C4242427C00000003
:1025D000000000001E204040404040603E000000DF
:1025E000000000007C46424343434246780000001E
:1025F000000000007E6060607E6060607E00000021
:10260000000000007E6060607E606060600000002E
:10261000000000001E604040CE4242623E000000CA
:1026200000000000424242427E424242420000001C
:10263000000000007E181818181818187E000000F6
:10264000000000007C04040404040444780000003A
:10265000000000004244485070584C4442000000C2
:102660000000000020202020202020203E0000002C
:10267000000000006266675F5B5BC1C1C1000000D3
:1026800000000000626272525A4A4E464600000044
:10269000000000003C6243C3C3C343623C0000002F
:1026A000000000007C464242467840404000000066
:1026B000000000003C6243C3C3C343623C180F00E8
:1026C000000000007C6662667C6C6466620000004C
:1026D000000000003E6040601C0602027C0000001A
:1026E000000000007F1818181818181818000000AB
:1026F0000000000042424242424242623C0000006E
:1027000000000000C14342622624341C180000006F
:1027100000000000C1C141495B5B766666000000B5
:102720000000000043663418181C2466C300000033
:1027300000000000C14266341C1818181800000080
:10274000000000007E02040C181020607E000000D3
:102750000000001C10101010101010101010101C91
:10276000000000402020101008080C0406020000A1
:102770000000003C0C0C0C0C0C0C0C0C0C0C0C3C5D
:1027800000000000181C246200000000000000008F
:10279000000000000000000000000000000000FF3A
:1027A00000000020100000000000000000000000F9
:1027B0000000000000003C06023E42467A00000095
:1027C0000000004040405C62424242427C00000007
:1027D0000000000000001E20604060203E0000005D
:1027E0000000000202023E62424242663A000000DD
:1027F0000000000000003C62427E40603E0000009D
:102800000000000F1810107E1010101010000000B3
:102810000000000000003F66426658403E43423CD4
:102820000000004040405C624242424242000000E0
:102830000000001818007808080808087E0000004A
:10284000000000040C007C040404040404040C785C
:10285000000000606060626C787068646200000074
:102860000000007808080808080808087E00000032
:10287000000000000000764B4B4B4B4B4B00000020
:102880000000000000005C62424242424200000040
:102890000000000000003C62424342623C00000035
:1028A0000000000000005C62424242427C40404026
:1028B0000000000000003E62424242663A0202020C
:1028C0000000000000006E72636060606000000045
:1028D0000000000000003E20203C06027C000000BA
:1028E000000000001010FE10101010101E0000005C
:1028F0000000000000004242424242663A000000EE
:102900000000000000004342662434181800000054
:10291000000000000000C1C15B5A5E666600000056
:1029200000000000000062261C181C266200000047
:1029300000000000000043426624341C181830E0F8
:102940000000000000007E060C1810207E00000031
:102950000000000E18101010307010101010180E1B
:1029600000000808080808080808080808080808F7
:1029700000000030180808080C0E08080808183075
:102980000000000000000000714B06000000000085
:10299000010202030405060708090A0B0C0D0E0FBD
:1029A0001010010202030405060708090A0B0C0DAA
:1029B0000E0F1010000000000000000001020304D0
:1029C000060708090000000001020304EC290008C2
:1029D0000000002030000000182100081C2A000818
:1029E00030000020C048000028210008A023000873
:1029F000080010000600F000400100000000FFFF8A
:102A00000000002000000000010000001000000095
:0C2A1000000000000024F40000000000A2
:0400000508000131BD
:00000001FF
