:020000040800F2
:100000004010002045010008771500089F140008E3
:1000100075150008090300081D21000800000000F4
:10002000000000000000000000000000851F000824
:10003000350300080000000079150008871F00083C
:100040005F0100085F0100085F0100085F01000810
:100050005F0100085F0100085F0100085F01000800
:100060005F0100085F0100085F0100085F010008F0
:100070005F0100085F0100085F0100085F010008E0
:100080005F0100085F0100085F0100085F010008D0
:100090005F0100085F0100085F0100085F010008C0
:1000A0005F0100085F0100085F0100085F010008B0
:1000B0005F0100085F0100085F0100085F010008A0
:1000C0005F0100085F0100085F0100085F01000890
:1000D0005F0100085F0100085F0100085F01000880
:1000E0005F0100085F0100085F0100085F01000870
:1000F0005F0100085F0100085F0100085F01000860
:100100005F0100085F0100085F0100085F0100084F
:100110005F0100085F0100085F0100085F0100083F
:100120005F0100085F0100085F0100085F0100082F
:10013000DFF80CD000F040F8004800474D3E0008C2
:10014000401000200648804706480047FEE7FEE7CB
:10015000FEE7FEE7FEE7FEE7FEE7FEE7FEE7FEE777
:10016000E91F000831010008D2B201E000F8012BBC
:10017000491EFBD270470022F6E710B513460A4627
:1001800004461946FFF7F0FF204610BD30B50B4678
:10019000014600202022012409E021FA02F59D42B7
:1001A00005D303FA02F5491B04FA02F52844151E8B
:1001B000A2F10102F1DC30BD064C074D06E0E0681B
:1001C00040F0010394E8070098471034AC42F6D39E
:1001D000FFF7B2FF40F5020860F50208014601484A
:1001E00000F04CBE9809002010B5044800F058FEFD
:1001F000042801D0012010BD002010BD9809002066
:1002000010B50F4900240D480C618C6008604C60EB
:100210000420CC60C1E90540204600F013F80848EE
:1002200000F054FE08B1012406E04FF400610448D8
:1002300000F0CCFC0028F6D1204610BD0080014023
:10024000980900201F4800B5416985B041F48061DC
:100250004161416901F480610491416941F0020109
:100260004161416901F002010491816941F010018D
:100270008161816901F010010491816941F02001DF
:100280008161816901F020010491816941F080015F
:1002900081618069694600F080000490022001902D
:1002A00001200290032003904FF4F850009006487C
:1002B00000F094F8042000906946044800F08EF89D
:1002C00005B000BD001002400010014000140140C4
:1002D00008B5009313460A460146034800F052FE53
:1002E000002800D0012008BD9809002008B500931F
:1002F00013460A460146034800F030FF002800D0AC
:10030000012008BD98090020FEE7000008480749C1
:1003100001604FF4E131416000218160C160016101
:1003200081610C21416101F003B8000000380140F7
:10033000C808002070470022AFF3008030B50E4B94
:10034000054601205C7A012C15D8587A00241C54EB
:10035000587A03EB800045605D7A03F108002A5467
:10036000587A421C5A72303008703A2048702F2058
:100370008870CC70002030BD340C0020002100F0CB
:1003800001B800000B4910B502464B7A0120002B42
:100390000FD01278303AD2B201EB82035C68002CA5
:1003A00007D000200A4458601072487A401E4872F4
:1003B000002010BD340C002070B5044600F00AF98E
:1003C0000546601C02D004480078044400F002F99D
:1003D000401BA042FAD370BD580000202DE9F84F11
:1003E000DFF8C8910024A9F1040B23460F2709F177
:1003F000040AABF1040ED1E00125A54006EA05028E
:10040000AA4276D1DFF8A8C14E68A6EB0C08664573
:100410002BD00DDC032E34D005DC36B3012E19D0E1
:10042000022E2FD11BE0112E16D0122E2AD119E048
:10043000B8F5881F19D006DCB8F5803F15D0B8F59F
:10044000801F1FD111E0B8F5001F0ED0B8F5041FB2
:1004500018D10AE0CB6815E0CB681B1D12E0CB6811
:1004600008330FE0CB680C330CE08B682BB1012B09
:100470004FF0080303D0456104E0042302E0056166
:1004800000E00023FF2A01D8064601E000F104063F
:100490004FEA840501D9A5F12005D6F8008007FAB6
:1004A00005FC28EA0C0803FA05F548EA0508C6F831
:1004B00000804D68ED0070D53E4DAE6946F00106F6
:1004C000AE61AD6924F0030605F0010500953A4DD3
:1004D00006EB050CDCF80850A607360F07FA06F8FD
:1004E00025EA0805DFF8D480404503D14FF0000825
:1004F00025E052E0DFF8C880404502D14FF0010806
:100500001DE0DFF8C080404502D14FF0020816E040
:10051000DFF8B480404502D14FF003080FE0DFF868
:10052000AC80404502D14FF0040808E0DFF8A0801D
:10053000404502D14FF0050801E04FF0060808FAE7
:1005400006F848EA0508CCF808804D68D9F800603C
:10055000ED024D4601D5164300E096432E604D68EE
:10056000DAF80060AD02554601D5164300E0964327
:100570002E604D68DBF80060AD035D4601D5164383
:1005800000E096432E604D68DEF80060ED0375468E
:1005900001D5164300E096432E60641C0A68164697
:1005A000E2407FF429AFBDE8F88F00000804014065
:1005B000000011100010024000000140000801403E
:1005C000000C0140001001400014014000180140DF
:1005D000001C01400148806870470000580000205E
:1005E00002488168027811448160704758000020F9
:1005F000074810B5016841F010010160032000F0C8
:1006000067F80F2000F006F800F024F8002010BD75
:100610000020024070B50D4D04464FF47A712878E1
:10062000B1FBF0F00A490968B1FBF0F000F06CFE94
:1006300048B9102C07D200222146501E00F028F89D
:1006400000206C6070BD012070BD000058000020CB
:10065000640000200C4808B5816941F00101816106
:10066000816901F001010091C16941F08051C161CE
:10067000C06900F0805000900448416821F0E061BA
:1006800041F00071416008BD0010024000000140CF
:10069000F0B40E4B1B680C46C3F30223C3F10705ED
:1006A000042D00D90425191D072901D2002300E0DB
:1006B000DB1E012606FA05F1491E214099409E40A5
:1006C000761E16403143F0BC01F04EBD0CED00E04B
:1006D000064900F0070208684FF6FF03184040EA99
:1006E0000220034A10430860704700000CED00E050
:1006F0000000FA052DE9F0470F46050061D0434E92
:10070000306800F00700B84209D2306820F00700D6
:1007100038433060306800F00700B84251D1286893
:100720003B4C810712D5400703D5606840F4E06078
:1007300060602878000703D5606840F4605060600E
:100740006068A96820F0F000084360602878C0075E
:1007500028D06868012810D02168022810D08907A5
:1007600000292EDA616821F0030101436160FFF77F
:1007700031FF804641F288390DE021688903EFE7B7
:100780008901EDE7FFF726FFA0EB0801494502D9F3
:100790000320BDE8F0876068696800F00C00B0EBEA
:1007A000810FEFD1306800F00700B8420BD93068F4
:1007B00020F0070038433060306800F00700B8428E
:1007C00001D00120E5E72878400705D56068E96891
:1007D00020F4E060084360602878000706D5606870
:1007E000296920F4605040EAC100606000F038F8E8
:1007F0006168084AC1F30311515CC84006490860AA
:1008000006480068FFF706FF0020C2E7002002400C
:100810000010024026F50208640000205C00002061
:100820000448054900684968044AC1F30221515C43
:10083000C8407047640000200010024036F50208EE
:100840000448054900684968044AC1F3C221515C63
:10085000C8407047640000200010024036F50208CE
:100860000E4A51680E4801F00C03042B11D0082BDE
:100870000FD10C48C1F38343C903C05C0AD551684A
:10088000084AC1F34041921E515C054A5043B0FBF7
:10089000F1F07047044948437047000000100240DF
:1008A00000127A0016F5020800093D002DE9F84F04
:1008B000040070D02078C04DC00749D06868C0F3EC
:1008C0008100012807D06868C0F38100022809D19F
:1008D0006868C00306D52868800339D56068002899
:1008E000E7D035E06068B0F5803F0BD010B1B0F5CF
:1008F000A02F11D0286820F480302860286820F4C8
:10090000802002E0286840F480302860606890B160
:10091000FFF760FE06460AE0286840F48020286061
:10092000F0E700BFFFF756FE801B642873D82868E5
:100930008003F7D50CE0FFF74DFE064605E000BF4B
:10094000FFF748FE801B6428F0D828688003F7D49E
:1009500020789A4E80074FF001094FF0000839D5F2
:10096000686810F00C0F07D06868C0F38100022897
:1009700009D16868C00306D42868800714D52069A7
:10098000012808D110E02069B0B1C6F80090FFF747
:1009900021FE074605E00AE1FFF71CFEC01B022806
:1009A000C4D828688007F7D52868616920F0F80066
:1009B00040EAC10028600DE0C6F80080FFF70AFE9B
:1009C000074604E0FFF706FEC01B022823D828686C
:1009D0008007F7D4207800072CD57948A169D9B1D0
:1009E000C0F80090FFF7F6FD074604E0FFF7F2FDC0
:1009F000C01B02280FD8686A8007F7D571484FF4EA
:100A0000FA510068B0FBF1F0009000BF0098411E61
:100A10000091FAD20EE080E0C0F80080FFF7DAFD26
:100A2000074604E0FFF7D6FDC01B022875D8686AA8
:100A30008007F7D42078400760D5E8690027C00018
:100A400008D4E86940F08050E861E869012700F0C7
:100A5000805000905C480168C90513D40168834642
:100A600041F480710160FFF7B5FD824606E000BFEA
:100A7000FFF7B0FDA0EB0A0064284ED8DBF80000B9
:100A8000C005F5D5E06801280AD008B1052813D0C3
:100A9000286A20F001002862286A20F0040002E0A1
:100AA000286A40F001002862E06841F2883B98B172
:100AB000FFF790FD82460BE0286A40F004002862B0
:100AC000EEE700BFFFF786FDA0EB0A0159455AD8B3
:100AD000286A8007F6D50CE0FFF77CFD824605E02A
:100AE000FFF778FDA0EB0A0159454CD8286A80072A
:100AF000F6D41FB1E86920F08050E861E06988B35E
:100B00006968C1F38101022944D00228C6F86080D7
:100B100004D0FFF75FFD044638E034E0FFF75AFDEC
:100B2000074604E0FFF756FDC01B02282BD82868B3
:100B30008001F7D4206AB0F5803F05D16868A168CC
:100B400020F4003008436860D4E90801084369686C
:100B500021F4741108436860C6F86090FFF73AFD0D
:100B6000044606E025E000BFFFF734FD001B022825
:100B700009D828688001F7D51BE000BFFFF72AFDE0
:100B8000001B022802D90320BDE8F88F28688001E5
:100B9000F4D40EE00128F7D06868226A00F48031AE
:100BA000914204D1616A00F47010884201D00120A2
:100BB000EAE70020E8E7000000100240000042429F
:100BC0008004424264000020007000402DE9FE4392
:100BD0000446002603200D4684F83400606C032888
:100BE0005ED0B5F5805F5BD04FF4006700204FF01A
:100BF0008068BD421FD1814600900190002120688D
:100C000000F0D1FC800113D46946204600F0F8FFC3
:100C100007000DD10198400334D5B4F85000010409
:100C2000206800F0F1FC070002D10221206823E0D7
:100C3000A06B384328E01DB1A06B40F0006023E0BA
:100C40008146009001900021206800F0ACFC8001FA
:100C5000EED46946204600F0D3FF0700E8D10198A2
:100C6000C0030FD5B4F850000104206800F0CCFC9C
:100C70000700DDD10021206800F013FD0700D7D167
:100C80004F46D5E74746D3E7A063A06B144F4FF01C
:100C9000010848B12068876384F8348001260EE09B
:100CA000A06B40F08050EFE7211DD4E9050C0EC980
:100CB000CDE90050CDF808C0206800F077FC4FF473
:100CC0000071206800F0D4FC28B121688F63A16B0B
:100CD0000143A163012684F834803046BDE8FE83D9
:100CE000FF054000F0B5426E920F0A70426EC2F3EB
:100CF00083624A70426EC2F301628A70426E120CC5
:100D0000CA70B0F86420120A0A7190F864204A711F
:100D1000826E120DCA80826EC2F303420A72B0F86C
:100D20006820C2F3C0324A72B0F86820C2F3803241
:100D30008A72B0F86820C2F34032CA72B0F86820F4
:100D4000C2F300320A7300264E73426C4FF40075F2
:100D5000012462B1012A3AD0026847499163816B4C
:100D600041F08051816380F834400120F0BDB0F83B
:100D70006820C36E9205120D42EA93720A61C26E38
:100D8000C2F3C2620A75C26EC2F302624A75C26ED3
:100D9000C2F342528A75C26EC2F38242CA75C26EF3
:100DA000C2F3C2320A760A69521C42650B7E03F016
:100DB00007039B1C9A4042650B7A03F00F0704FA65
:100DC00007F383655B0A5A43C0E917250EE090F8E4
:100DD0006820C36E9206920A42EA13420A610A69C7
:100DE000521C92024265C0E91652056630F86C2F1B
:100DF000C2F3803201F8192F0288C2F3C6124A707A
:100E0000027802F07F028A704268D20FCA7042688C
:100E1000C2F341720A714268C2F382624A71426847
:100E2000C2F383528A714268C2F34052CA710E7291
:100E30004268C2F300424A728288C2F3C0328A72A8
:100E40008288C2F38032CA728288C2F340320A7347
:100E50008288C2F300324A738288C2F381228A7385
:100E60008288C2F30122CA730079C0F34600087475
:100E70004C740020F0BD0000FF054000426C0A6089
:100E8000826C4A60C26C8A60026DCA60426D0A61FF
:100E9000826D4A61C26D8A61006EC8610020704730
:100EA00070B50446B0F8500000250104206800F039
:100EB000E0FC18B1A16B0143A16304E000212068AC
:100EC00000F071FB0546C5F3432070BD70B504000A
:100ED0000ED094F83400002518B92577204600F08C
:100EE0004FF8032084F83400204600F00BF808B1D6
:100EF000012070BDA5632563012084F83400002023
:100F000070BD0000FEB50025044676200095CDE9B1
:100F1000015029460B460A46206800F047FB48BBB3
:100F2000154E46F8A05F206800F052FB01253560A1
:100F30000220FFF741FA204600F046FF30B100BF23
:100F400084F83450A16B0143A16313E0204600F004
:100F5000C4FE0028F4D14FF40071206800F088FB33
:100F6000002808D0226805499163A16B0143A16361
:100F700084F834500120FEBD00003042FF054000DF
:100F8000704700002DE9F04F87B09B4616460D468E
:100F90000446FFF71FFB00903DB194F83400012890
:100FA00007D0A06B40F000500DE0A06B40F0006057
:100FB00009E00020A063E26D06EB0B01914204D929
:100FC000A06B40F00070A06386E0032184F8341029
:100FD0002168C862616C012900D076024FF0FF31B0
:100FE00001914FEA4B2102914FF0010803AA902191
:100FF00002278146CDF8188082E8820201A9206884
:1010000000F0BBFABBF1010F05D927633146206818
:1010100000F0A0FB05E0C4F830803146206800F005
:10102000B2FBDFF834A130B12268C2F838A0A16B5E
:101030000143A1634CE0029E1EE0406B000413D507
:1010400096B10027206800F0C7FA05F8010B010AE5
:1010500005F8011B010C05F8021B000E361F7F1C52
:1010600005F8010C082FEDD3FFF7B4FA0099411AE7
:10107000109881421DD2E0B12068426B40F22A31C3
:101080000A42DAD0416BC90509D5BBF1010F06D977
:10109000616C032903D000F01DFC0028C4D1206836
:1010A000416B09071AD5C0F838A0A06B40F00800C2
:1010B00050E02168C1F838A0A06B40F00040A06368
:1010C00084F83480C4F83090032007B0BDE8F08F76
:1010D00084F83480C4F830900120F6E7416B89072A
:1010E00005D5C0F838A0A06B40F0020032E0416B9B
:1010F00089061BD5C0F838A0A06B40F0200029E07D
:1011000000F06AFA05F8010B010A05F8011B010C51
:1011100005F8021B000E05F8010C361FFFF75AFAFE
:101120000099411A109881420ED268B12068416B33
:10113000890201D5002EE3D1216840F23A5088633C
:1011400084F834800020C0E72168C1F838A0A06B83
:1011500040F00040A063BBE7FF0540002DE9F04FE1
:101160008DB09B4616460D460446FFF733FA0A90AB
:101170003DB194F83400012807D0A06B40F0005036
:101180000DE0A06B40F0006009E00020A063E26D7C
:1011900006EB0B01914204D9A06B40F00070A063F4
:1011A0007AE0032184F834102168C862616C012957
:1011B00000D076024FF0FF3103914FEA4B210491AA
:1011C0009021CDE905104FF00109CDE907098246CC
:1011D00003A9206800F0D1F9BBF1010F06D9202046
:1011E00020633146206800F08FFB05E0102020636B
:1011F0003146206800F0A1FB5FEA000806D02168B4
:1012000040488863A06B40EA080071E0049E27E034
:10121000406B40041CD5DEB15FF0000715F8010BF0
:10122000009015F8011B361F40EA0120009015F8C8
:10123000021B40EA0140009015F8011C40EA0160E1
:1012400000906946206800F0DAF97F1C082FE5D38A
:10125000FFF7C0F90A99411A1698814220D2F8B1D5
:101260002068416B40F21A321142D1D0416BC9055E
:1012700023D5BBF1010F20D9616C03291DD000F0EB
:1012800029FBD0B122681F499163A16B0143A1637F
:1012900084F83490C4F830A001200DB0BDE8F08F80
:1012A000216818488863A06B40EA0800A06384F8AE
:1012B0003490C4F830A00320EFE72068416B0907A1
:1012C00005D510498163A06B40F0080010E0416B28
:1012D000890705D50B498163A06B40F0020007E048
:1012E000416BC90606D507498163A06B40F0100029
:1012F000A063CDE740F23A51816384F83490002036
:10130000CBE70000FF05400010B5401EB0F1807F24
:1013100001D3012010BD4FF0E02460610F21601760
:1013200000F022FF0020A06107202061002010BDF6
:1013300070B5040004D094F84100002510B106E017
:10134000012070BD84F84050204600F023F824208E
:1013500084F841002068C16821F40051C160204632
:1013600000F044FE2068016921F490410161206889
:10137000416921F02A0141612068C16841F40051AE
:10138000C1606564202084F8410084F842006563F0
:10139000002070BD194810B5816986B041F48041C4
:1013A0008161816901F480410491816941F0040106
:1013B0008161816901F004010491816941F00401B6
:1013C000816180690E4C00F0040004904FF40070BD
:1013D00000900220019001200290032003906946B2
:1013E0002046FEF7FBFF2015009000200190694683
:1013F0002046FEF7F3FF06B010BD000000100240CB
:10140000000801402DE9F843044690F841001F46CA
:1014100016460D46202802D00220BDE8F8837DB193
:1014200076B100206064212084F84100FFF7D2F8F3
:10143000A6848046E684A068B0F5805F02D003E011
:101440000120EAE7206910B12E4600250EE00026B3
:101450000CE08021204600F025FEA0B9AEB116F8C0
:10146000010B21684860E08C401EE084E08C43461C
:101470004FF0000200970028EBD14FF040012046CA
:1014800000F010FE30B10320C7E735F8020BC0F3BF
:101490000800E6E7202084F841000020BDE7FEE7D1
:1014A000124800B5816985B041F00401816181690C
:1014B00001F004010491816941F0100181618069AA
:1014C000002100F0100004900120CDE900010291FC
:1014D00069460748FEF782FF4FF4005000906946C6
:1014E0000448FEF77BFF05B000BD0000001002407D
:1014F0000008014000100140F0B51C4885B081692A
:1015000041F008018161816901F00801049181695C
:1015100041F008018161816901F00801049181694C
:1015200041F0080181618069012400F00800049005
:1015300003202026CDE90240CDE900640C4F694626
:101540003846FEF74BFF694638460094FEF746FFE3
:101550000225694638460095FEF740FF04481030E2
:1015600006600460056005B0F0BD00000010024098
:10157000000C0140FEE7FEE770470A6842624A68D5
:101580008262D1E902231A43D1E904310B43C16AD3
:101590001A4321F0F7011143C1620020704700682F
:1015A00000F00300704708444069704770B50DF1C2
:1015B000100C11439CE870002343194329434268EF
:1015C000314347F6FF639A430A434260002070BDEF
:1015D0000321016000207047D0F8800070470A683E
:1015E0008260D1E901231A43D1E903310B43C16879
:1015F0001A436FF30B011143C16000207047096863
:10160000C0F880100020704710B585B00446372020
:10161000CDE9001040200290002003904FF480603C
:10162000049069462046FFF7DAFF41F288323721FD
:10163000204600F09BF905B010BD000010B504462F
:101640000A4885B001432920CDE9001040200290CE
:10165000002003904FF48060049069462046FFF715
:10166000BEFF204600F03AFA05B010BD0000108021
:1016700010B585B004461020CDE90010402002903E
:10168000002003904FF48060049069462046FFF7E5
:10169000A6FF41F288321021204600F067F905B01C
:1016A00010BD10B585B004460620CDE900104020DD
:1016B0000290002003904FF4806004906946204619
:1016C000FFF78DFF41F288320621204600F04EF9E7
:1016D00005B010BD30B585B00024054600940194D6
:1016E0004FF480600294CDE9034069462846FFF735
:1016F00076FF0B484FF4FA510068B0FBF1F041F26D
:1017000088314843401E03D24FF0004005B030BD41
:10171000696B0906F6D5C520A8632046F6E70000E8
:101720006400002010B585B004464FF4D5700090D9
:101730000820019040200290002003904FF4806028
:10174000049069462046FFF74AFF204600F02CFA35
:1017500005B010BD10B585B004461220CDE90010CB
:1017600040200290002003904FF48060049069466E
:101770002046FFF734FF41F288321221204600F064
:10178000F5F805B010BD10B585B004461120CDE9BF
:10179000001040200290002003904FF480600490DD
:1017A00069462046FFF71BFF41F28832112120468F
:1017B00000F0DCF805B010BD10B585B00446072078
:1017C000CDE9002040200290002003904FF480607B
:1017D000049069462046FFF702FF41F28832072154
:1017E000204600F0C3F805B010BD10B585B0044622
:1017F00000210220CDE90010C020CDE902014FF404
:101800008060049069462046FFF7E9FE204600F01C
:101810003DF905B010BD10B585B004460920CDE9ED
:101820000010C0200290002003904FF480600490CC
:1018300069462046FFF7D3FE204600F027F905B0A1
:1018400010BD10B585B0044600213320CDE900104D
:101850004020CDE902010001049069462046FFF7CF
:10186000BEFE41F288323321204600F07FF805B0F9
:1018700010BD10B585B004460D20CDE90010402004
:101880000290002003904FF4806004906946204647
:10189000FFF7A5FE41F288320D21204600F066F8E0
:1018A00005B010BD30B585B00C46054600210320BB
:1018B000CDE900104020CDE9020100010490694605
:1018C0002846FFF78CFE22460321284600F028F91F
:1018D00005B030BD10B585B0044600210C20CDE91F
:1018E00000104020CDE90201000104906946204625
:1018F000FFF775FE034A0C21204600F037F805B0CB
:1019000010BD000000E1F50510B585B004461920B2
:10191000CDE9001040200290002003904FF4806039
:10192000049069462046FFF75AFE41F28832192199
:10193000204600F01BF805B010BD10B585B0044678
:101940001820CDE9001040200290002003904FF4B1
:101950008060049069462046FFF741FE41F28832DC
:101960001821204600F002F805B010BD454B10B517
:101970001B684FF4FA54B3FBF4F353435B1E02D2DB
:101980004FF0004010BD426B12F0450FF6D012052B
:10199000F4D4426B520703D504218163084610BD7D
:1019A000426BD20702D00121816305E0C522826328
:1019B0000269D2B28A4201D0012010BD0021FFF796
:1019C000F2FD3149084201D1002010BD002802DAA1
:1019D0004FF0007010BD410001D5402010BD8100C6
:1019E00001D5802010BDC10002D54FF4807010BD1C
:1019F000010102D54FF4007010BD410102D54FF432
:101A0000806010BDC10102D54FF4006010BD01021D
:101A100002D54FF4805010BD410202D54FF4005062
:101A200010BD810202D54FF4804010BDC10202D525
:101A30004FF4004010BD410302D54FF4003010BDFB
:101A4000810302D54FF4802010BDC10302D54FF4AD
:101A5000002010BD010402D54FF4801010BD4104D8
:101A600002D54FF4001010BD810402D54FF4800060
:101A700010BD000702D54FF4000010BD4FF48030B8
:101A800010BD00006400002008E0FFFD12494FF483
:101A9000FA520968B1FBF2F141F288325143491E12
:101AA00002D24FF000407047426B12F0450FF6D063
:101AB0001205F4D4416B490703D50421816308461C
:101AC0007047416BC90703D0012181630846704705
:101AD000C521816300207047640000200F494FF446
:101AE000FA520968B1FBF2F141F288325143491EC2
:101AF00002D24FF000407047426B12F0450FF6D013
:101B00001205F4D4416B490703D5042181630846CB
:101B10007047C521816300207047000064000020E9
:101B200030B5204B4FF4FA541B68B3FBF4F341F289
:101B3000883463435B1E02D24FF0004030BD446BDB
:101B400014F0450FF6D02405F4D4436B5B0703D59E
:101B500004218163084630BD436BDB0702D00121BD
:101B6000816303E00369DBB28B4201D0012030BD09
:101B7000C52181630021FFF716FD10F4604F04D0EA
:101B8000410406D54FF4005030BD000C10800020F9
:101B900030BD000402D54FF4805030BD4FF480308A
:101BA00030BD00006400002014494FF4FA52096867
:101BB000B1FBF2F141F288325143491E02D24FF09B
:101BC00000407047426B12F0450FF6D01205F4D476
:101BD000416B490703D50421816308467047416B77
:101BE000C90703D00121816308467047416B49064C
:101BF00001D540218163002070470000640000206F
:101C00002DE9F04788B00D460446FEF7E3FC0026B8
:101C1000824600960196374608212068FFF728FD86
:101C2000002829D1B4F8500001042068FFF7ECFC2B
:101C3000002821D1401E4FF00808CDE902083020CD
:101C40004FF00209CDE904090120CDE9067002A98F
:101C50002068FFF792FC2068FFF7F3FD00280BD106
:101C60006F462068416B11F02A0F08D0416B0907BD
:101C70001AD5C0F83880082008B0BDE8F087416B5D
:101C8000890205D5FFF7A8FC47F82600761C02E07C
:101C9000416B8904EAD5FEF79DFCA0EB0A00401CCD
:101CA000DFD14FF00040E7E7416B890703D5C0F86B
:101CB00038900220E0E7416B890603D5202181633B
:101CC0000846D9E740F23A518163019800BA28608A
:101CD000009800BA68600020CEE710B590B00446C6
:101CE0000120ADF838002068FFF759FC002854D0D7
:101CF000606C032842D02068FFF777FD00284AD1A6
:101D000000212068FFF74FFC606704212068FFF77F
:101D10004AFCA06708212068FFF745FCE0670C211A
:101D20002068FFF740FCC4F88000606C032825D0D1
:101D30000EA92068FFF7B6FD00282CD1606C03289F
:101D40001CD0BDF83800206501042068FFF763FD52
:101D5000002820D100212068FFF725FC60660421BF
:101D60002068FFF720FCA06608212068FFF71BFC15
:101D7000E0660C212068FFF716FC2067042120682C
:101D8000FFF711FC000DE06403A92046FEF7AAFF4F
:101D900030B14FF0805010B010BD4FF08060FAE7C6
:101DA000B4F85000002302042068FFF705FD002866
:101DB000F1D104F1100007C88DE8070094E80F0086
:101DC000FFF7F4FB0020E6E72DE9F84F0026044674
:101DD00000963546B0460068FFF77CFC002827D106
:101DE0002068FFF79FFC4FF0805B4FF001094FF632
:101DF000FF7748B1A6642068FFF76CFC002817D174
:101E0000A06C012802D020E0C4F84890002120688E
:101E1000FFF7FAFB58B918E000212068FFF7F4FB40
:101E2000002805D151462068FFF708FC10B158463C
:101E3000BDE8F88F00212068FFF7B5FB05464FEAA3
:101E4000D0780098401C009002E0DFF82CA00098A9
:101E5000B84202D2B8F1000FDED00098B84202D3E7
:101E60004FF08070E4E7680002D5C4F8449000E0C9
:101E700066640020DCE70000000010C110B5064CCD
:101E800001202070FEF7BCF918B9207820F001007D
:101E90002070207810BD00005400002010B51248BA
:101EA00088B014460078C00702D0032008B010BDE7
:101EB000B9B1012905D0022908D003290CD004208A
:101EC000F4E76846FEF78AF9069809E06846FEF7E7
:101ED00085F90798208004E06846FEF77FF90798A7
:101EE00020600020E2E70000540000202DE9F041CE
:101EF0001E46174608460125094C0A4B324639460C
:101F0000FEF7E6F928B109E0641E02D20120BDE81F
:101F1000F081FEF769F90028F6D100252846F6E79A
:101F2000A086010000E1F50510B5064C01202070E7
:101F3000FEF75AF918B9207820F0010020702078B7
:101F400010BD0000540000202DE9F0411E46174648
:101F500008460125094C0A4B32463946FEF7C6F9B8
:101F600028B109E0641E02D20120BDE8F081FEF72D
:101F70003BF90028F6D100252846F6E7A0860100A7
:101F800000E1F5057047FEF72BBB30B58FB0282177
:101F90006846FEF7F0F814210AA8FEF7ECF80121D4
:101FA0000804CDE900100024029402250491CDE933
:101FB00007504FF4E01009906846FEF777FC08B12F
:101FC00072B6FEE70F20CDE90A054FF48060CDE937
:101FD0000C4002210AA80E94FEF78CFB002801D0C9
:101FE00072B6FEE70FB030BD7047000070B5044612
:101FF00000680169E26821F44051114301612169DF
:10200000A0680843616908432168CA6841F20C630B
:102010009A430243CA6020684169A26921F4407171
:10202000114341611E492068884202D1FEF708FC35
:1020300001E0FEF7F5FB00EBC00101EB0012606868
:1020400064218000B2FBF0F3B3FBF1F36FF01806EC
:102050007343B2FBF0F5B2FBF0F605EB83053223D8
:1020600003EB0515B5FBF1F5B6FBF1F605F0F00550
:1020700005EB0615B2FBF0F6B2FBF0F0B0FBF1F0A9
:102080006FF01802504306EB800003EB0010B0FB2A
:10209000F1F0216800F00F002844886070BD000056
:1020A000003801402DE9F041984617460E46044697
:1020B000069D27E0681C25D02DB1FEF78BFAA0EB1A
:1020C0000800A8421ED920680C3050E8001F21F4F7
:1020D000D07140E80012002AF5D12068143050E891
:1020E000001F21F0010140E80012002AF5D1202054
:1020F00084F8410084F84200002084F84000032066
:10210000BDE8F0812068006836EA000004D00020B5
:10211000B842CFD00020F3E70120F9E7FEE7000046
:102120000FB4054B10B503A9044A029800F03CF81F
:1021300010BC5DF814FB0000F53B000868000020AF
:102140000FB4084B10B504A902AA039800F02CF8AC
:10215000044602A9002000F003F9204610BC5DF8F7
:1021600014FB0000612300080907090E002804DBA6
:1021700000F1E02080F80014704700F00F0000F13B
:10218000E02080F8141D704702E008C8121F08C143
:10219000002AFAD170477047002001E001C1121FE8
:1021A000002AFBD1704700002DE9FF4F8BB09A4603
:1021B0000F460546002606E025280BD052460D990D
:1021C00090476D1C761C28780028F5D10FB030465A
:1021D000BDE8F08F0024A0460122604900E00443DE
:1021E00015F8013F203B02FA03F00842F7D12878A6
:1021F0002E2817D115F8010F44F004042A280ED018
:102200006FF02F022878A0F1300109290AD808EBD5
:10221000880102EB410100EB01086D1CF2E757F861
:10222000048B6D1C287869283ED006DC0028CDD0B0
:1022300063280BD0642804D136E0732810D07528A9
:102240004BD052460D999047761C85E017F8040B49
:102250008DF8000000208DF80100E946012003E020
:1022600057F8049B4FF0FF3061074FF0000401D492
:102270000AE0641C44450DDA8442FADB19F80410C4
:102280000029F6D106E0641C8442FCDB19F8041036
:102290000029F8D1264404E019F8010B52460D99A3
:1022A0009047641EF8D257E001CF4FF00A0B002888
:1022B00002DA40422D2102E0210504D52B218DF8C0
:1022C0002410012103E0E10705D02021F7E70DF1FB
:1022D000200908910CE00021F9E701CF4FF00A0B2B
:1022E000F9E75946FDF752FF01F1300209F8012DD7
:1022F0000028F6D1ADEB090000F1200B600701D4F6
:102300004FF00108D84502DDA8EB0B0000E00020EB
:102310008046002406E009A85246005D0D999047CA
:10232000641C761C08988442F5DB04E03020524699
:102330000D999047761CB8F10001A8F10108F5DC71
:1023400005E019F8010B52460D999047761CBBF138
:102350000001ABF1010BF4DC6D1C34E7092801002E
:102360000A68531C0B6010707047000010B50446DB
:10237000002084F80402401EC4F82C02204601F01C
:1023800093FF08B1032010BDB4F8FE01A0F52A4167
:10239000553901D0022010BD94F83600B4F837103A
:1023A00040EA01210848B0EB012F08D094F8521000
:1023B000B4F8532041EA0221B0EB012F01D10020F3
:1023C00010BD012010BD00000046415400E0401C3B
:1023D00002780AB18A42FAD1D0B27047F0B5002231
:1023E000184B144602EB420653F8265085B1D0F83C
:1023F0000072BD420DD103EB8605D0F808626F680C
:10240000B74206D12D89B0F80662B54204D000E08B
:102410000124521C022AE5D3022A01D079B904E032
:102420005CB9022909D01220F0BD02EB420003EB97
:1024300080004089B0F5807F01D00020F0BD1020E1
:10244000F0BD00001C0A002030B50021064A0C46F1
:1024500001EB410352F82350854201D142F8234059
:10246000491C0229F4D330BD1C0A0020D0F82422D4
:10247000D0F80002490A90F80202B1FBF0F0121DF8
:1024800002CA19B1884203D3401AF8E70020704706
:10249000116808447047D0F81422891E921E8A429F
:1024A00001D800207047D0F8282290F8020201FBE2
:1024B000002070472DE9F0410F00054606D001F0DD
:1024C000EBFB02280BD20120BDE8F081D5F80C62AD
:1024D0001EB1D5F81402B04208D8012606E0411C0E
:1024E000F2D0D5F814128142EED83E463446D5F8E3
:1024F0001402641CA04202D80224022E0AD32146F0
:10250000284601F0C9FB38B1411CDDD00128DBD0E1
:10251000B442ECD10020D7E76FF070422146284644
:1025200002F004F830B957B122463946284601F086
:10253000FDFF20B1012812D001242046C4E7C5F8D0
:102540000C42D5F81002411CF7D0401EC5F810020D
:1025500095F8050240F0010085F80502EDE74FF01F
:10256000FF34EAE72DE9F84F884682460F6800E01D
:102570007F1C38782F28FBD05C28F9D00024DAF8AB
:1025800020622546785D6D1C202827D32F2825D072
:102590005C2823D0FF2C42D2A0F181017D290BD8E9
:1025A000795D6D1C01EB0020A1F1400280B23F2A51
:1025B00002D380397F2932D2012101F07DF95FEA0F
:1025C00000092CD0B9F1800F04D2014671A0FFF7A9
:1025D000FDFE20BB26F81490641CD3E77A19C8F8D6
:1025E0000020202801D2042517E0002515E000BFB7
:1025F00006EB440030F8020C20280DD02E280BD01A
:102600006CB1002026F814000B222021DAF8180201
:1026100001F043FE002706E0641E002CE8D10620EE
:10262000BDE8F88F7F1C36F817002028FAD02E2836
:10263000F8D01FB145F0030500E0641E2CB106EB95
:10264000440030F8020C2E28F7D1002081464FF0CC
:10265000080B009036F8170007F101075FEA000841
:1026600024D0B8F1200F04D0B8F12E0F04D1A74226
:1026700002D045F00305EDE70099594501D2A74284
:102680001AD1BBF10B0F0FD0A74201D045F00305C3
:102690000CD84FF0080000904FEA896027464FF0B1
:1026A0000B0B4FEA1069D5E745F00305DAF818027D
:1026B0000178E52949D04AE04046B8F1800F07D3B8
:1026C00001F020F9002101F0F7F8804645F00205FD
:1026D000B8F1FF0F13D90099ABF10100814204D387
:1026E00045F00305CDF800B0B4E7DAF818220098F9
:1026F0004FEA182111540098401C00901CE0B8F1DA
:10270000000F04D0014626A0FFF760FE20B14FF075
:102710005F0845F003050FE0A8F14100192802D831
:1027200049F0020908E0A8F16100192804D84130F5
:1027300049F001091FFA80F8DAF81822009902F826
:1027400001800098401C009084E705210170BBF1D6
:10275000080F03D14FEA89604FEA1069C9F381007D
:10276000032803D06FEA0901890701D145F002056A
:10277000A90709D409F00301012901D145F0100589
:10278000012801D145F00805DAF81802C5720020C9
:1027900046E70000222A3A3C3E3F7C7F00000000D2
:1027A0002B2C3B3D5B5D0000401E022815D20C4BDC
:1027B00000EB400203EB82014889B0F5807F05D031
:1027C00008B1401E80B2488110B104E00020FAE751
:1027D000002043F8220000207047022070470000CC
:1027E0001C0A00202DE9FC5F0546002100F014FAC8
:1027F00000286ED1FF204FF6FF7A00908146A5F8A1
:1028000024A200BFD5F81012D5F8000201F04CFD4B
:1028100006000ED1D5F81442207848B1E17AE528B7
:1028200001F03F0170D00A0704D50F296CD107E0F1
:10283000042674E00F2903D0B9F1000F4DD052E007
:10284000D5F8201291B3420608D5627B009220F0A1
:102850004000B5F806228146A5F82422484534D127
:10286000627B0098824230D101912078A04620F00E
:102870004000401E00EB80010027DFF8A8B001EB0C
:10288000C00601241BF8071001EB0800008874B192
:1028900001F038F80446FF2E17D2019830F81600E0
:1028A000761C01F02FF8A0420FD102E030E0504535
:1028B0000BD17F1C0D2FE5D398F80000400609D5F9
:1028C00044B1019830F8160020B1FF2000F0FF0954
:1028D0001EE025E0A9F10100F8E7204601F0E1FE45
:1028E000009988421BD0D5F81802C17AC9070BD1CC
:1028F0000A2101E0491E06D314F8012B10F8013B10
:10290000D21AF7D000E052B14FF0FF09A5F824A287
:102910000021284600F008F806003FF473AF304667
:10292000BDE8FC9FFE4700082DE9F041B0F80662C3
:102930000446761C30040F46000C37D0D4F8100241
:1029400098B3310773D1401CC4F81002D4F80C12AC
:10295000D4F8000231B190F80222521E12EA161F7A
:1029600005D064E0B0F80802B0421FD95FE001F082
:1029700093F9054601281ED9681C3AD0D4F8000204
:10298000D0F81412A94249D87FB1D4F80C12FFF73D
:1029900091FD05000DD0012D0DD0681C29D0D4F873
:1029A000000201F0E6FE20BB07E0FFE70420BDE8DF
:1029B000F0810720FBE70220F9E74FF400720021C5
:1029C000D4F8000201F069FC2946D4F80002FFF7B0
:1029D00062FDD4F8001200274FF00108C1F82C0264
:1029E00011E000BF80F80482D4F8000201F0C1FEBB
:1029F00008B10120DBE7D4F80002D0F82C12491C02
:102A00007F1CC0F82C12D4F8000290F80212B942D0
:102A1000E8D8D0F82C12C91BC0F82C12C4F80C52FC
:102A20002946D4F80002FFF736FDC4F81002A4F8D6
:102A30000662D4F8000206F00F0100EB4110C4F862
:102A400014020020B3E700002DE9FF5FD0F81872F0
:102A50000446D0F820620C223946684601F014FC86
:102A60009DF80B00C0071AD00020F8720125C4F8A9
:102A700020022B4632466946384601F0C7F8204608
:102A8000FFF7B0FE10B96D1C642DF2D3642D0CD08D
:102A900004280BD19DF80B00F872C4F820629DF851
:102AA0000B0080070FD5002004E0072004B0BDE82C
:102AB000F09F401C36F810100029FAD10D21193072
:102AC000B0FBF1F600E001260021204600F0A4F85A
:102AD000A0B90027D4F81012D4F8000201F0E4FBEA
:102AE00060B9D4F814020078E5280AD048B100276C
:102AF00001212046FFF718FF0028EBD0042812D050
:102B000012E07F1C3046B742F2D1461E5FEA060A49
:102B10005FD0B4F806122046A1EB0A0100F07CF861
:102B2000050003D074E00720054671E0D4F81802D0
:102B300001F0B7FDCDF80C00D4F81012D4F8000263
:102B400001F0B2FB050063D1D4F81412D4F820923E
:102B5000039848730F20C8720020087388760AF023
:102B6000FF0BC876ABF1010000EB800202EBC00561
:102B700000234FF6FF7E274E4A1C01E0604503D03C
:102B800039F81500F4466D1CF75CC85516F803803B
:102B9000070A08F8027000B960465B1C0D2BEDD3E4
:102BA000704502D039F8150008B94BF0400B81F898
:102BB00000B0D4F80012012081F804020021204660
:102BC000FFF7B2FE050023D1AAF101005FEA000A77
:102BD000B2D1D4F81012D4F8000201F065FB050060
:102BE00016D1D4F814022022002104F5007401F05B
:102BF00054FBD4E905010B2201F046FBA069616991
:102C0000C07A00F0180008732168012081F80402DE
:102C100028464BE7FE47000870B5A0F80612D0F82A
:102C200008320D460446012B40D0D4F80002D0F8FB
:102C3000141299423AD933B990F80012032906D1F7
:102C4000D0F824321BB190F80202060114E0B0F86B
:102C50000812A9422AD9D0F8240214E001F01CF885
:102C60000346401C20D0022B20D3D4F80002D0F819
:102C7000140298421AD9AD1BD4F80002B542194685
:102C8000ECD2FFF708FCC4F80C3278B100EB151059
:102C9000C4F81002D4F8000205F00F0100EB411057
:102CA000C4F81402002070BD012070BD022070BD68
:102CB000084910B50B5C002253B901220A540A18C6
:102CC00001EB8000127A406801681046884702468E
:102CD000104610BD340C002030B4054C231804EB12
:102CE00080001B7A406804691846A44630BC6047DF
:102CF000340C002030B4054D2C1805EB8000247AEC
:102D0000406885682046AC4630BC6047340C0020E3
:102D1000044A111802EB8000097A406842680846AC
:102D200010470000340C002030B4054D2C1805EB82
:102D30008000247A4068C5682046AC4630BC6047B5
:102D4000340C002010B5044600F072FC00280DD1B0
:102D5000204601F03EFD002808D1D4F82802FFF7F4
:102D600023FD002802D10021C4F8001210BD00008C
:102D70002DE9F74F8EB015460F98012803D913207F
:102D800011B0BDE8F08F0EA800F0E7FF002801DACF
:102D90000B20F5E7FE4951F8204054B1002184F89A
:102DA0000012C0B20390FFF783FFC10703D00320D6
:102DB000E6E70C20E4E7400701D50A20E0E707AA90
:102DC00001210398FFF788FF00287DD1079980290A
:102DD0007AD30F9808B1002000E03F208046A1EB95
:102DE0000801681E0542079100D17DB94FF4FA60D1
:102DF000B1FBF0F20020E74B00E0401C33F810502C
:102E00009542FAD8E34A163232F81050B5F5007FF1
:102E100000D36D0A85B1802D00D98025B1FBF5F076
:102E2000012640F6F672904200D302264FF6F67263
:102E3000904203D3032620E00125EFE7032E1CD0A8
:102E4000012E23D04000001D00F2FF10470A4FF072
:102E500001092020834608EB090A0AEB07005844C1
:102E600042190890A2EB0800884247D809AA03211A
:102E70000398FFF731FFA0B90EE040F2072202EB02
:102E80008000470A4FF020090020E3E700EB4000F4
:102E9000401C4008C01CD7E7099810B1B0F5004F9E
:102EA00001D901200990DDE908010844401E491EAE
:102EB00088430899401A0990032E12D007440798B6
:102EC000A0EB0901CA1B00E0DFE0A2EB0B01B1FBA4
:102ED000F5F10891022E07D0032E0AD0012E15D04D
:102EE00019E081448244EAE740F6F672914205D344
:102EF00011E008464FF6F671884201D20E203FE7F6
:102F00000C2002900F9868B1F02045E0B0F5803FAA
:102F100006D20120F5E7B0F5803F01D20420F0E7AA
:102F20000620EEE74FF400720021204601F0B5F9CB
:102F300004F5DF700121417081700021C170029A97
:102F40000271FE224271079B08EB030243F6C16344
:102F5000B2FBF3F23F2343EA920C099280F806C0D9
:102F6000C271037241728172C172079901730A0AB8
:102F700042730A0C8273090EC173552084F8FE0156
:102F8000AA2084F8FF010123002221460398FFF7BD
:102F9000CBFE002879D1F82002904FF40072002176
:102FA000204601F07AF90B227BA1204601F06CF952
:102FB0000021E17202202073657384F80E904FEABD
:102FC0001920E07301202074032E0BD0400260749E
:102FD000000AA0740798B0F5803F05D2E074000A9B
:102FE00020750CE00020F2E784F82000020A84F843
:102FF0002120020C84F82220000E84F8230002987D
:1030000060753F202076002060764FF0FF0984F83D
:103010001A90E07684F81C804FEA182060774FEA17
:103020001840A0774FEA1860E0775E488021A1221F
:10303000462309904FF0290C032E4FF0000025D0B5
:1030400084F8270084F8280084F8292084F82A309E
:10305000380AA775E07584F8241084F826C0132276
:1030600051A104F12B0000BF01F00EF9552084F8A6
:10307000FE01AA2084F8FF0101234246214603985D
:10308000FFF752FE002800D12FE0A3E084F84300B0
:1030900084F8440084F8452084F8463084F824708D
:1030A0003A0A84F825203A0C84F826203A0E84F84F
:1030B0002720022284F82C2084F82D0084F82E008A
:1030C00084F82F00012284F8302084F83100062291
:1030D00084F8322084F8330084F8401084F842C029
:1030E000132236A104F14700BEE7032E06D10123C7
:1030F00008F1060221460398FFF716FE4FF400720E
:103100000021204601F0C9F802980990032E12D040
:10311000012E0ED06FF0FF01014309912170099833
:10312000000A60700998000CA0700998000EE07009
:103130001EE02749F0E760F0FF0009902070099831
:10314000000A60700998000CA0700998000EE070E9
:1031500084F8049084F8059084F8069084F8079029
:1031600084F8089084F8099084F80A900F20E0729F
:1031700052460AF10109012321460398FFF7D4FDC5
:1031800040BB4FF400720021204601F086F822E097
:10319000500000200C480008EBFE904D53444F5364
:1031A000352E30000000A1464E4F204E414D4520A7
:1031B0002020204641542020202020004E4F204E29
:1031C000414D45202020204641543332202020000C
:1031D00000FFFF0048E001200AE04A4609F101092A
:1031E000012321460398FFF79FFDE8BB0998401C87
:1031F0000990B842F1D3032E00D05D464A4609F14A
:103200000109012321460398FFF78EFD60BB6D1E67
:10321000F4D1032E3CD15220207060706120A07048
:103220004121E170722284F8E42184F8E52184F8D8
:10323000E61184F8E7010898401E84F8E801010AC5
:1032400084F8E911010C84F8EA11000E84F8EB010E
:10325000022084F8EC01002084F8ED0184F8EE01EE
:1032600084F8EF01552000E01AE084F8FE01AA205E
:1032700084F8FF01012308F1010221460398FFF7BA
:1032800053FD012308F1070221460398FFF74CFD87
:10329000002211460398FFF71FFD00283FF479AD87
:1032A00001206DE52DE9F74181B09046029800902C
:1032B000684600F052FD040003D50B2004B0BDE8C1
:1032C000F0810E4E002756F8245025B12846FFF70E
:1032D000BBF885F800720198002801D080F80072D0
:1032E00046F8240002D0B8F1010F01D00020E5E734
:1032F000002202A901A800F017FBDFE75000002020
:103300002DE9F747ADF50D7D06000ED04FF0000812
:1033100002F01F0727F001028EA980A8C6F80082DC
:1033200000F002FB040005D0B6E009200DF5107D89
:10333000BDE8F0878AA886905948889068468E999B
:1033400000F01EFC859D04000BD11DB1780803D050
:10335000012102E0062404E000216846FFF73EF860
:10336000044617F01C0F5FD04FF0010ADCB1042CAB
:1033700014D14B490020183902E0401C022805D224
:1033800000EB400251F82220002AF6D1022804D096
:103390006846FFF759FB044600E01224859D47F07C
:1033A000080754B178E0E87A10F0110F01D0072433
:1033B00072E0780701D508246EE0380742D585F819
:1033C0000E8085F80F80A12129744621697485F843
:1033D0000B8085F81C8085F81D8085F81E8085F897
:1033E0001F802946809800F027FD8146002128464D
:1033F00001F04FF98099B9F1000F81F804A21FD0B4
:1034000080984946D0F82CA201F00CF9040043D171
:103410008099A9F10100C1F80C025146809800F092
:1034200043FF04000AD037E0B4BBE87AC10601D5F7
:10343000042431E0B90701D5C007B8D1380701D558
:1034400047F020078098D0F82C02C6E98705780855
:1034500001D0012100E00021684600F09DFCC6F883
:103460002802D8B186F8067286F8078247462946B0
:1034700006F50076809800F0DFFC3061287FD5F8F3
:103480001D1040EA0120C6E90270B761776280989A
:103490003060B0F80602B080204647E70224FBE720
:1034A000340A00202DE9F84F884600219946154638
:1034B0000446196001F08DF9002812D194F8070232
:1034C00000280ED194F80602C00709D0D4E9820181
:1034D000081A01274FF0020A854200D90546A2E0EA
:1034E0000720BDE8F88F00BFD4F80812C8057CD1CA
:1034F000D4F8000290F80222521E02EA512212F081
:10350000FF0614D131B1D4F8242232B12046FEF79F
:10351000ADFF06E0D4F8100203E0D4F8141200F076
:10352000BBFB022823D3411C5BD0C4F81402D4F89F
:103530001412D4F80002FEF7AEFFC0B13044009080
:10354000680A5FEA000B2AD0D4F8001206EB0B02DF
:1035500091F80202824201D9A0EB060B91F8010218
:103560005B464146009AFFF7C5FBD0BB03E084F8F9
:1035700007A20220B5E794F8060240060CD5D4F85D
:1035800018120098081A584506D208EB40204FF44C
:103590000072214600F078FE4FEA4B2637E0D4F85F
:1035A00018220098824221D094F8060240060ED5D7
:1035B000D4F800020123214690F80102FFF7B4FB82
:1035C00078B994F8060220F0400084F80602D4F896
:1035D00000020123214690F80102009AFFF78AFBBE
:1035E00020B184F8077201207BE702E00098C4F85C
:1035F0001802B4F80802C0F30800C0F50076AE4225
:1036000000D92E4601193246404600F03DFED4F85E
:103610000802B0443044C4F80802D9F80000811907
:10362000AD1BC9F80010002D7FF45EAF002058E7F5
:1036300070B5044601F0CDF8002811D194F80612B7
:103640008A060DD5480612D5D4F80002012321467A
:1036500090F80102D4F81822FFF766FB08B10120A8
:1036600070BD94F8060220F0400084F80602D4F8F9
:103670001C12D4F8000200F017FE0028F0D1D4F894
:103680002052E87A40F02000E87294F80C02287783
:10369000B4F80C02000A6877D4F80C02000CA87782
:1036A000D4F80C02000EE877D4F81012284604F57E
:1036B000007400F0EEFF0020A875E875A1212976BE
:1036C00046216976A874E874A07920F02000A071E2
:1036D0002168012081F804022068BDE8704000F0F4
:1036E000EDBF2DE9F84F884600219946154604465E
:1036F000196001F06EF8002808D194F8070200283C
:1037000004D194F80602800702D40720BDE8F88FA0
:10371000D4F80802012741194FF0020A81427BD3F5
:10372000B9E0D4F80812C80577D1D4F8002292F88D
:103730000202401E00EA512010F0FF061ED131B1F6
:10374000D4F8240240B12046FEF790FE09E0D4F8F8
:10375000100240B9002101E0D4F814121046FEF71F
:10376000A9FE002858D001283DD0411C6CD0C4F8D7
:103770001402D4F8101209B9C4F8100294F8060221
:10378000400610D5D4F800020123214690F801022A
:10379000D4F81822FFF7C8FAE8BB94F8060220F024
:1037A000400084F80602D4F81412D4F80002FEF7A0
:1037B00072FEC0B130440090680A5FEA000B30D05E
:1037C000D4F8000206EB0B0290F802128A4201D9EB
:1037D000A1EB060B90F801025B464146009AFFF709
:1037E000A3FAC0B903E084F807A202208EE7D4F858
:1037F00018120098081A58450CD208EB40214FF4D3
:103800000072204600F040FD94F8060220F04000CF
:1038100084F8060202E017E040E01CE04FEA4B2685
:103820002DE0D4F818120098814211D0D4E9820119
:1038300088420DD2D4F800020123214690F80102FB
:10384000009AFFF757FA18B184F8077201205DE774
:103850000098C4F81802B4F80802C0F30800C0F5D4
:103860000076AE4200D92E4620443246414600F052
:103870000BFD94F8060240F0400084F80602D4F8EC
:103880000802B0443044C4F80802D9F80000811995
:10389000AD1BC9F80010002D7FF443AFD4E98201BD
:1038A000884201D9C4F80C0294F8060240F02000C6
:1038B00084F80602002029E770B580281BD345F262
:1038C000205309B10D4D00E00D4D002110245A1A6E
:1038D00002EBD27201EB620235F82260864206D01A
:1038E00001D2114600E01346641EF0D104E01CB181
:1038F00005EB8200408870BD002070BDD09C01089F
:103900004C4800080021064B00E0491C33F8112008
:10391000002A04D08242F8D1024830F811007047E2
:1039200054F1020834F302082DE9FF474FF0000973
:103930000746C0F800901646084600F00EFA05004B
:1039400003D50B2004B0BDE8F0878A4850F8254025
:10395000A4B13C6094F8000228B194F80102FFF78A
:10396000D7F9C1070CD084F80092E8B284F80102BC
:10397000FFF79EF9C10708D00320E3E70C20E1E739
:103980000EB1400704D40020DCE71EB1400701D58A
:103990000A20D7E7002529462046FEF7E7FC012844
:1039A00023D100204FEA0D0704EB001191F8C2214A
:1039B00001F5DF712AB10A7AD1F8091042EA012132
:1039C00000E0002147F82010401C0428ECD300261A
:1039D00057F826502DB129462046FEF7C7FC08B9F6
:1039E00009E00220761C042EF2D3032801D0E0BBAC
:1039F00001E00120A6E7B4F80B00B0F5007F60D12C
:103A0000E28A2AB994F82400D4F8251040EA012269
:103A1000C4F81822217C84F80312012901D002295C
:103A20004FD1607B514384F80202F0B1431E18422B
:103A300047D1B4F81130A4F808321E0741D1B4F8C8
:103A400013602EB994F82060D4F8217046EA072656
:103A5000B4F80EC0BCF1000F33D00CEB010707EB3C
:103A60001317BE422DD3F61B00E02AE0B6FBF0F0A0
:103A700038B3012640F6F678404500D302264FF6CB
:103A8000F678404500D30326801C2F44C4F82872E2
:103A9000AC44C4F81402C4E9875C032E13D083B18C
:103AA0006144C4F82412022E19D000F0010100EB89
:103AB000400001EB500000BF00F2FF10B2EB502FAE
:103AC0000FD20D203EE7002BFBD194F82C10D4F838
:103AD0002D30800041EA0321C4F82412ECE74000B5
:103AE000EAE74FF0FF30C4F81002C4F80C0280205F
:103AF00084F80502032E30D1208E01282DD12046D6
:103B0000691C00F0D1FB40BB84F80592B4F8FE01BB
:103B1000A0F52A41553920D12078D4F8011040EA87
:103B200001201549884218D194F8E401D4F8E51130
:103B300040EA0120114988420FD194F8E801D4F8F5
:103B4000E91140EA0120C4F8100294F8EC01D4F81D
:103B5000ED1140EA0120C4F80C02064984F8006225
:103B6000091F0888401C0880A4F806022046FEF7BA
:103B70006BFC08E7500000205252614172724161B3
:103B800073B50446019801782F2901D05C2901D131
:103B9000401C01900025C4F80852019800782028A4
:103BA00006D200212046FFF737F8C4F814527CBD36
:103BB00001A92046FEF7D6FC0028F8D12046FEF7E2
:103BC00011FED4F81812C97A28B10428EFD1490798
:103BD000EDD405207CBD4907FCD4D4F81412C87A72
:103BE000C006F6D5D4F8000200F026F9C4F80802A1
:103BF000DEE7000013B54FF47A73012269460248EC
:103C0000FDF700FC00981CBDC80800207CB51646D6
:103C10001C4605460B2200F037FB052C11D91D4A26
:103C20000CE00021B61C2346044663F35F04400801
:103C3000E30300D55440491C1029F4D330880028F0
:103C4000EFD107214FEA0D0304F00F00303039287F
:103C500000D9C01D5854491E2409F5D17E200022E8
:103C600058544C1E06E081387D2802D8A24206D066
:103C7000521C521C8A4202D2A85C2028F3D1082987
:103C800002D2585C491C00E02020A854521C082A8B
:103C9000F5D37CBD211001002DE9F0410D4604460D
:103CA00002290DD3D4F81402A84209D994F80002CD
:103CB0004FF0FF36012807D002282AD0032836D03B
:103CC00001263046BDE8F081D4F8200205EB550707
:103CD00000EB5721204600F0E7FA0028F1D1C7F3A6
:103CE00008007F1C14F80080D4F8200200EB572154
:103CF000204600F0D9FA0028E3D1C7F30800215C80
:103D000048EA0120E90701D00609DAE7C0F30B060B
:103D1000D7E7D4F8200200EB1521204600F0C4FAC2
:103D20000028CED1E8B204EB40000688C9E7D4F8F9
:103D3000200200EBD511204600F0B6FA0028C0D1D1
:103D400040F2FF1000EA850020440178D0F801001D
:103D500041EA002020F07046B3E710B504464FF06A
:103D6000FF302268002A13D0114600E0491C0B786E
:103D7000202B0ED33A2BF9D112F8013B303B0A2B02
:103D800006D28A4204D1002B02D1491C1846216078
:103D900010BD002010BD0000F0B50346254AD3F841
:103DA0000042002000EB400552F82560A6420BD1EE
:103DB00002EB8505D3F808626F68B74204D12D89FC
:103DC000B3F80662B54202D0401C0228EAD30228AA
:103DD0001AD1002002E0401C022805D200EB400569
:103DE00052F82550002DF6D1022815D000EB4005E1
:103DF00042F8254002EB8504D3F808626660B3F808
:103E00000632238100236381002900EB400102EB8D
:103E10008101498902D019B10020F0BD491C01E09F
:103E20004FF4807100EB400302EB8302401C518190
:103E3000F0BD00001C0A00200246488B92F80022C8
:103E4000032A02D1898A40EA0140704790B0FCF70A
:103E5000CFFBFEF79AF8FDF74FFB634D4FF02009BB
:103E6000C5F8009001262E6070042860FDF718FB4D
:103E7000FCF74CFA5DA0FEF753F967496748FCF779
:103E80005AFA00286FD1012263496548FFF70AFA00
:103E9000614C641E207000F023FA217802274FF451
:103EA00000180D2908D0002928D05EA0FEF738F9A7
:103EB000207800F015FAFEE763A0FEF731F9002242
:103EC00011465548FEF754FF207038B1C5F8008000
:103ED0002E602F6067A0FEF723F9FEE76BA0FEF7C8
:103EE0001FF901224C490020FFF7DCF92070012264
:103EF00049494B48FFF7D6F9207002E06BA0FEF766
:103F00000FF974A0FEF70CF97DA3434A82A168461D
:103F1000FEF716F90A2269468148FFF7F1F9207089
:103F2000002824D0C5F800802E602F607DA0FEF709
:103F3000F7F883A0FEF7F4F8012269467848FFF706
:103F4000DFF9207000282FD0C5F800802E602F6088
:103F500085A0FEF7E5F87248FEF7F4FE01222E492F
:103F60000020FFF79FF92C48FCF708FAFEE784A031
:103F7000FEF7D6F8284B4022DB1D191D6848FFF7D5
:103F8000B0FB2070010007D08CA000BFFEF7C8F87E
:103F90006348FEF7D7FECCE78FA0A168FEF7C0F814
:103FA0001D4996A00B31F1E7C5F800904FF4803021
:103FB00028602F6098A0FEF7B3F8174B4FF480628B
:103FC000DB1D9A495648FFF76DFA2070010004D0B6
:103FD00097A000BFFEF7A4F8BDE79BA0A168FEF77D
:103FE0009FF89249A1A0F5E7100C01402A2A2A2A3D
:103FF0002A2A20D5E2CAC7D2BBB8F65344BFA820AC
:10400000CEC4BCFECFB5CDB3CAB5D1E9202A2A2A89
:104010002A2A2A0D0A000000010000203848000862
:104020006C040020A3A1A3A15344BFA8B9D2D4D843
:10403000CEC4BCFECFB5CDB3CAA7B0DCA1A32825A2
:1040400064290D0A00000000A1B75344BFA8BBB902
:10405000C3BBD3D0CEC4BCFECFB5CDB3A3ACBCB430
:10406000BDABBDF8D0D0B8F1CABDBBAF2E2E2E2E41
:104070000D0A0000A1B6A1B620B8F1CABDBBAFCAF7
:10408000A7B0DC20A1B7A1B70D0A0000A1B7534427
:10409000BFA8D2D1B3C9B9A6B8F1CABDBBAFCEC40F
:1040A000BCFECFB5CDB30D0A00000000A1B7CEC451
:1040B000BCFECFB5CDB3B9D2D4D8B3C9B9A6A3ACE1
:1040C000BFC9D2D4BDF8D0D0B6C1D0B4B2E2CAD440
:1040D000200D0A000D0A202A2A2A2A2A2A20BCB4E6
:1040E000BDABBDF8D0D0CEC4BCFED0B4C8EBB2E2FC
:1040F000CAD42E2E2E202A2A2A2A2A2A200D0A0045
:104100005344BFA8B6C1D0B4B2E2CAD4CEC4BCFE38
:104110002E747874000000002573257300000000E1
:104120009C060020A3A1A3A1B4F2BFAA2FB4B4BDE2
:10413000A8CEC4BCFECAA7B0DCA1A30D0A00000033
:104140002A2A2A2A2A2A20BCB4BDABBDF8D0D0CE58
:10415000C4BCFEB6C1C8A1B2E2CAD42E2E2E202AFB
:104160002A2A2A2A2A0D0A00A3A1A3A1B4F2BFAACF
:10417000CEC4BCFECAA7B0DCA1A30D0A000000009B
:10418000A1B7B4F2BFAA2FB4B4BDA85344BFA8B618
:10419000C1D0B4B2E2CAD4CEC4BCFE2C747874CE02
:1041A000C4BCFEB3C9B9A6A3ACCFF2CEC4BCFED08A
:1041B000B4C8EBCAFDBEDDA1A30D0A00A3A1A3A153
:1041C000CEC4BCFED0B4C8EBCAFDBEDDCAA7B0DC0D
:1041D000A3BA25640D0A0000A1B7CEC4BCFED0B4BA
:1041E000C8EBB3C9B9A6A3ACD0B4C8EBD7D6BDDA77
:1041F000CAFDBEDDA3BA25640D0A0000A1B7CFF247
:10420000CEC4BCFED0B4C8EBCAFDBEDDCEAA0D0A3A
:1042100025730D0A00000000A1B7B4F2BFAACEC4F6
:10422000BCFEB3C9B9A60D0A000000006C00002056
:10423000A3A1A3A1CEC4BCFEB6C1C8A1CAA7B0DCCD
:104240003A25640D0A000000A1B7CEC4BCFEB6C179
:10425000C8A1B3C9B9A6A3ACB6C1B5BDD7D6BDDA9E
:10426000CAFDBEDD3A25640D0A000000A1B7B6C143
:10427000C8A1B5C3B5C4CEC4BCFECAFDBEDDCEAABE
:104280003A0D0A25730D0A0004E000BF11F8013B46
:1042900000F8013B521EF9D27047C9B201E000F8A4
:1042A000011B521EFBD2704770B50546D0F82C0298
:1042B0000C460026A04210D0284600F05AFA06000C
:1042C0000BD195F80102012322462946FEF712FD83
:1042D00008B1741E0126C5F82C42304670BD00009E
:1042E000142832D2DFE800F00A0C0E10121416184F
:1042F000181A1C1E20222426282A2C2E13A022E065
:1043000016A020E01DA01EE021A01CE027A01AE0BE
:104310002CA018E031A016E036A014E03AA012E07C
:1043200040A010E045A00EE04AA00CE04FA00AE03B
:1043300054A008E05FA006E063A004E067A002E0EC
:104340006FA000E074A0FDF7EBBE7047A1B7B2D933
:10435000D7F7B3C9B9A6A1A30D0A0000A3A1A3A1D1
:10436000D3B2BCFECAE4C8EBCAE4B3F6C7FDB6AF2D
:10437000B3F6B4EDA1A30D0A00000000A3A1A3A110
:10438000B6CFD1D4B4EDCEF3A1A30D0A0000000046
:10439000A3A1A3A1CEEFC0EDC9E8B1B8CEDEB7A806
:1043A000B9A4D7F7A1A30D0A00000000A3A1A3A1FF
:1043B000CEDEB7A8D5D2B5BDCEC4BCFEA1A30D0A32
:1043C00000000000A3A1A3A1CEDEB7A8D5D2B5BD41
:1043D000C2B7BEB6A1A30D0A00000000A3A1A3A10D
:1043E000CEDED0A7B5C4C2B7BEB6C3FBA1A30D0A2B
:1043F00000000000A3A1A3A1BEDCBEF8B7C3CECAD3
:10440000A1A30D0A00000000A3A1A3A1CEDED0A7A6
:10441000B5C4CEC4BCFEBBF2C2B7BEB6A1A30D0AE2
:1044200000000000A3A1A3A1C2DFBCADC9E8B1B8E0
:10443000D0B4B1A3BBA4A1A30D0A0000A3A1A3A162
:10444000CEDED0A7B5C4C2DFBCADC9E8B1B8A1A368
:104450000D0A0000A3A1A3A1CEDED0A7B5C4B9A4C4
:10446000D7F7C7F8A1A30D0A00000000A3A1A3A1DC
:10447000CEDED0A7B5C4CEC4BCFECFB5CDB3A1A30C
:104480000D0A0000A3A1A3A1D2F2BAAFCAFDB2CE19
:10449000CAFDCECACCE2B5BCD6C2665F6D6B667390
:1044A000BAAFCAFDB2D9D7F7CAA7B0DCA1A30D0A2B
:1044B00000000000A3A1A3A1B2D9D7F7B3ACCAB141
:1044C000A1A30D0A00000000A3A1A3A1CEC4BCFEBD
:1044D000B1BBB1A3BBA4A1A30D0A0000A3A1A3A1DA
:1044E000B3A4CEC4BCFEC3FBD6A7B3D6BBF1C8A150
:1044F000B6D1BFD5BCE4CAA7B0DCA1A30D0A0000A9
:10450000A3A1A3A1B4F2BFAACCABB6E0CEC4BCFEBB
:10451000A1A30D0A00000000A3A1A3A1B2CECAFD71
:10452000CEDED0A7A1A30D0A000000002DE9F047C0
:1045300017460D460446022903D3D4F81402A842B4
:1045400002D80220BDE8F08794F8001207F0FF08B7
:104550004FF00109012920D0022950D00329F0D1C0
:10456000D4F8200200EBD5112046FFF79DFE00286D
:10457000E8D140F2FF1101EA85010A194FF07043BA
:10458000D2F8011003EA0121394311700B0A53706C
:104590000B0C9370090ED17041E0D4F8200205EBAA
:1045A000550600EB56212046FFF77EFE0028C9D1B4
:1045B000C6F30800761C2044E90703D0017868F3AD
:1045C0001F1100E03946017084F80492D4F82002EB
:1045D00000EB56212046FFF767FE0028B2D1C6F354
:1045E00008012144EA0702D0C7F3071205E00A7860
:1045F000C7F3032302F0F0021A430A700FE0D4F865
:10460000200200EB15212046FFF74EFE002899D12D
:10461000E9B204EB41013A0A81F800804A7084F85B
:1046200004928FE72DE9F0410F460646022917D381
:10463000D6F81402B84213D9002523E03946304693
:10464000FFF72AFB040021D0012C09D0601C09D0FF
:10465000002239463046FFF769FF050016D103E016
:10466000022513E0012511E0D6F81002411C08D004
:10467000401CC6F8100296F8050240F0010086F8CA
:1046800005022746D6F81402B842D7D82846BDE816
:10469000F08181760A0AC2760A0C0275090E41750C
:1046A0007047014600200B22430803EBC01011F8AD
:1046B000013B521E1844C0B2F6D1704770B5044693
:1046C00000F057F8050052D194F80002032846D1B3
:1046D00094F80502012842D1420200212046FFF74A
:1046E000DCFD552084F8FE01AA2084F8FF01522049
:1046F000207060706120A0704121E170722284F806
:10470000E42184F8E52184F8E61184F8E701D4F87F
:10471000100284F8E801010A84F8E911010C84F818
:10472000EA11000E84F8EB01D4F80C0284F8EC01D5
:10473000010A84F8ED11010C84F8EE11000E84F8E2
:10474000EF01D4F81C220123521CC4F82C2294F847
:1047500001022146FEF7E8FA002084F80502002253
:1047600094F801021146FEF7B7FA00B10125284678
:1047700070BD2DE9F041044690F80402002728B3EB
:10478000D4F82C5294F8010201232A462146FEF760
:10479000CBFA08B1012719E0002084F80402D4F80C
:1047A0002002D4F81812281A88420FD294F8036213
:1047B0000AE0D4F818020123054494F801022A46BD
:1047C0002146FEF7B1FA761E022EF2D23846BDE837
:1047D000F08110B588B1D0F8001271B191F80022C3
:1047E0005AB1B1F80622B0F80402824205D191F81C
:1047F0000102FEF78DFAC00700D0092010BD0103A9
:104800000507090E10121416181C1E0000040002E1
:104810000001800040002000100008000400020099
:104820000000008000400020001000080040002030
:1048300000100008000400027D1E0008291F000867
:10484000ED1E0008491F00089D1E0008A400E8A1F5
:10485000A700ECA1A800A7A1B000E3A1B100C0A1EE
:10486000B700A4A1D700C1A1E000A4A8E100A2A8BC
:10487000E800A8A8E900A6A8EA00BAA8EC00ACA83D
:10488000ED00AAA8F200B0A8F300AEA8F700C2A1FC
:10489000F900B4A8FA00B2A8FC00B9A80101A1A8C7
:1048A0001301A5A81B01A7A82B01A9A84401BDA815
:1048B0004801BEA84D01ADA86B01B1A8CE01A3A8C7
:1048C000D001ABA8D201AFA8D401B3A8D601B5A836
:1048D000D801B6A8DA01B7A8DC01B8A85102BBA874
:1048E0006102C0A8C702A6A1C902A5A1CA0240A828
:1048F000CB0241A8D90242A89103A1A69203A2A685
:104900009303A3A69403A4A69503A5A69603A6A61F
:104910009703A7A69803A8A69903A9A69A03AAA6EF
:104920009B03ABA69C03ACA69D03ADA69E03AEA6BF
:104930009F03AFA6A003B0A6A103B1A6A303B2A68E
:10494000A403B3A6A503B4A6A603B5A6A703B6A65B
:10495000A803B7A6A903B8A6B103C1A6B203C2A60D
:10496000B303C3A6B403C4A6B503C5A6B603C6A6BF
:10497000B703C7A6B803C8A6B903C9A6BA03CAA68F
:10498000BB03CBA6BC03CCA6BD03CDA6BE03CEA65F
:10499000BF03CFA6C003D0A6C103D1A6C303D2A62E
:1049A000C403D3A6C503D4A6C603D5A6C703D6A6FB
:1049B000C803D7A6C903D8A60104A7A71004A1A7B6
:1049C0001104A2A71204A3A71304A4A71404A5A763
:1049D0001504A6A71604A8A71704A9A71804AAA730
:1049E0001904ABA71A04ACA71B04ADA71C04AEA7FF
:1049F0001D04AFA71E04B0A71F04B1A72004B2A7CF
:104A00002104B3A72204B4A72304B5A72404B6A79E
:104A10002504B7A72604B8A72704B9A72804BAA76E
:104A20002904BBA72A04BCA72B04BDA72C04BEA73E
:104A30002D04BFA72E04C0A72F04C1A73004D1A7FF
:104A40003104D2A73204D3A73304D4A73404D5A7A2
:104A50003504D6A73604D8A73704D9A73804DAA76F
:104A60003904DBA73A04DCA73B04DDA73C04DEA73E
:104A70003D04DFA73E04E0A73F04E1A74004E2A70E
:104A80004104E3A74204E4A74304E5A74404E6A7DE
:104A90004504E7A74604E8A74704E9A74804EAA7AE
:104AA0004904EBA74A04ECA74B04EDA74C04EEA77E
:104AB0004D04EFA74E04F0A74F04F1A75104D7A768
:104AC00010205CA9132043A81420AAA1152044A8F3
:104AD0001620ACA11820AEA11920AFA11C20B0A1B6
:104AE0001D20B1A1252045A82620ADA13020EBA195
:104AF0003220E4A13320E5A1352046A83B20F9A1CE
:104B0000AC2080000321E6A1052147A8092148A87F
:104B10001621EDA1212159A96021F1A26121F2A262
:104B20006221F3A26321F4A26421F5A26521F6A219
:104B30006621F7A26721F8A26821F9A26921FAA2E9
:104B40006A21FBA26B21FCA27021A1A27121A2A269
:104B50007221A3A27321A4A27421A5A27521A6A2E9
:104B60007621A7A27721A8A27821A9A27921AAA2B9
:104B70009021FBA19121FCA19221FAA19321FDA1F9
:104B8000962149A897214AA898214BA899214CA879
:104B90000822CAA10F22C7A11122C6A115224DA821
:104BA0001A22CCA11D22D8A11E22DEA11F224EA8AE
:104BB0002022CFA123224FA82522CEA12722C4A1A3
:104BC0002822C5A12922C9A12A22C8A12B22D2A10B
:104BD0002E22D3A13422E0A13522DFA13622C3A1A7
:104BE0003722CBA13D22D7A14822D6A14C22D5A164
:104BF000522250A86022D9A16122D4A16422DCA152
:104C00006522DDA1662251A8672252A86E22DAA190
:104C10006F22DBA1952292A89922D1A1A522CDA134
:104C2000BF2253A81223D0A16024D9A26124DAA202
:104C30006224DBA26324DCA26424DDA26524DEA25C
:104C40006624DFA26724E0A26824E1A26924E2A22C
:104C50007424C5A27524C6A27624C7A27724C8A24C
:104C60007824C9A27924CAA27A24CBA27B24CCA21C
:104C70007C24CDA27D24CEA27E24CFA27F24D0A2EC
:104C80008024D1A28124D2A28224D3A28324D4A2BC
:104C90008424D5A28524D6A28624D7A28724D8A28C
:104CA0008824B1A28924B2A28A24B3A28B24B4A2FC
:104CB0008C24B5A28D24B6A28E24B7A28F24B8A2CC
:104CC0009024B9A29124BAA29224BBA29324BCA29C
:104CD0009424BDA29524BEA29624BFA29724C0A26C
:104CE0009824C1A29924C2A29A24C3A29B24C4A23C
:104CF0000025A4A90125A5A90225A6A90325A7A9E0
:104D00000425A8A90525A9A90625AAA90725ABA9AF
:104D10000825ACA90925ADA90A25AEA90B25AFA97F
:104D20000C25B0A90D25B1A90E25B2A90F25B3A94F
:104D30001025B4A91125B5A91225B6A91325B7A91F
:104D40001425B8A91525B9A91625BAA91725BBA9EF
:104D50001825BCA91925BDA91A25BEA91B25BFA9BF
:104D60001C25C0A91D25C1A91E25C2A91F25C3A98F
:104D70002025C4A92125C5A92225C6A92325C7A95F
:104D80002425C8A92525C9A92625CAA92725CBA92F
:104D90002825CCA92925CDA92A25CEA92B25CFA9FF
:104DA0002C25D0A92D25D1A92E25D2A92F25D3A9CF
:104DB0003025D4A93125D5A93225D6A93325D7A99F
:104DC0003425D8A93525D9A93625DAA93725DBA96F
:104DD0003825DCA93925DDA93A25DEA93B25DFA93F
:104DE0003C25E0A93D25E1A93E25E2A93F25E3A90F
:104DF0004025E4A94125E5A94225E6A94325E7A9DF
:104E00004425E8A94525E9A94625EAA94725EBA9AE
:104E10004825ECA94925EDA94A25EEA94B25EFA97E
:104E2000502554A8512555A8522556A8532557A8B2
:104E3000542558A8552559A856255AA857255BA882
:104E400058255CA859255DA85A255EA85B255FA852
:104E50005C2560A85D2561A85E2562A85F2563A822
:104E6000602564A8612565A8622566A8632567A8F2
:104E7000642568A8652569A866256AA867256BA8C2
:104E800068256CA869256DA86A256EA86B256FA892
:104E90006C2570A86D2571A86E2572A86F2573A862
:104EA000702574A8712575A8722576A8732577A832
:104EB000812578A8822579A883257AA884257BA8CE
:104EC00085257CA886257DA887257EA8882580A89D
:104ED000892581A88A2582A88B2583A88C2584A86A
:104EE0008D2585A88E2586A88F2587A8932588A837
:104EF000942589A895258AA8A025F6A1A125F5A124
:104F0000B225F8A1B325F7A1BC258BA8BD258CA897
:104F1000C625F4A1C725F3A1CB25F0A1CE25F2A18A
:104F2000CF25F1A1E2258DA8E3258EA8E4258FA841
:104F3000E52590A80526EFA10626EEA1092691A851
:104F40004026E2A14226E1A10030A1A10130A2A1A8
:104F50000230A3A10330A8A10530A9A1063065A99C
:104F6000073096A90830B4A10930B5A10A30B6A11E
:104F70000B30B7A10C30B8A10D30B9A10E30BAA1D9
:104F80000F30BBA11030BEA11130BFA1123093A8C9
:104F90001330FEA11430B2A11530B3A11630BCA15C
:104FA0001730BDA11D3094A81E3095A8213040A90E
:104FB000223041A9233042A9243043A9253044A9F5
:104FC000263045A9273046A9283047A9293048A9C5
:104FD0004130A1A44230A2A44330A3A44430A4A4ED
:104FE0004530A5A44630A6A44730A7A44830A8A4BD
:104FF0004930A9A44A30AAA44B30ABA44C30ACA48D
:105000004D30ADA44E30AEA44F30AFA45030B0A45C
:105010005130B1A45230B2A45330B3A45430B4A42C
:105020005530B5A45630B6A45730B7A45830B8A4FC
:105030005930B9A45A30BAA45B30BBA45C30BCA4CC
:105040005D30BDA45E30BEA45F30BFA46030C0A49C
:105050006130C1A46230C2A46330C3A46430C4A46C
:105060006530C5A46630C6A46730C7A46830C8A43C
:105070006930C9A46A30CAA46B30CBA46C30CCA40C
:105080006D30CDA46E30CEA46F30CFA47030D0A4DC
:105090007130D1A47230D2A47330D3A47430D4A4AC
:1050A0007530D5A47630D6A47730D7A47830D8A47C
:1050B0007930D9A47A30DAA47B30DBA47C30DCA44C
:1050C0007D30DDA47E30DEA47F30DFA48030E0A41C
:1050D0008130E1A48230E2A48330E3A48430E4A4EC
:1050E0008530E5A48630E6A48730E7A48830E8A4BC
:1050F0008930E9A48A30EAA48B30EBA48C30ECA48C
:105100008D30EDA48E30EEA48F30EFA49030F0A45B
:105110009130F1A49230F2A49330F3A49B3061A9B2
:105120009C3062A99D3066A99E3067A9A130A1A5D7
:10513000A230A2A5A330A3A5A430A4A5A530A5A5FF
:10514000A630A6A5A730A7A5A830A8A5A930A9A5CF
:10515000AA30AAA5AB30ABA5AC30ACA5AD30ADA59F
:10516000AE30AEA5AF30AFA5B030B0A5B130B1A56F
:10517000B230B2A5B330B3A5B430B4A5B530B5A53F
:10518000B630B6A5B730B7A5B830B8A5B930B9A50F
:10519000BA30BAA5BB30BBA5BC30BCA5BD30BDA5DF
:1051A000BE30BEA5BF30BFA5C030C0A5C130C1A5AF
:1051B000C230C2A5C330C3A5C430C4A5C530C5A57F
:1051C000C630C6A5C730C7A5C830C8A5C930C9A54F
:1051D000CA30CAA5CB30CBA5CC30CCA5CD30CDA51F
:1051E000CE30CEA5CF30CFA5D030D0A5D130D1A5EF
:1051F000D230D2A5D330D3A5D430D4A5D530D5A5BF
:10520000D630D6A5D730D7A5D830D8A5D930D9A58E
:10521000DA30DAA5DB30DBA5DC30DCA5DD30DDA55E
:10522000DE30DEA5DF30DFA5E030E0A5E130E1A52E
:10523000E230E2A5E330E3A5E430E4A5E530E5A5FE
:10524000E630E6A5E730E7A5E830E8A5E930E9A5CE
:10525000EA30EAA5EB30EBA5EC30ECA5ED30EDA59E
:10526000EE30EEA5EF30EFA5F030F0A5F130F1A56E
:10527000F230F2A5F330F3A5F430F4A5F530F5A53E
:10528000F630F6A5FC3060A9FD3063A9FE3064A9B4
:105290000531C5A80631C6A80731C7A80831C8A876
:1052A0000931C9A80A31CAA80B31CBA80C31CCA846
:1052B0000D31CDA80E31CEA80F31CFA81031D0A816
:1052C0001131D1A81231D2A81331D3A81431D4A8E6
:1052D0001531D5A81631D6A81731D7A81831D8A8B6
:1052E0001931D9A81A31DAA81B31DBA81C31DCA886
:1052F0001D31DDA81E31DEA81F31DFA82031E0A856
:105300002131E1A82231E2A82331E3A82431E4A825
:105310002531E5A82631E6A82731E7A82831E8A8F5
:105320002931E9A82032E5A22132E6A22232E7A201
:105330002332E8A22432E9A22532EAA22632EBA2E5
:105340002732ECA22832EDA22932EEA231325AA93C
:10535000A33249A98E334AA98F334BA99C334CA958
:105360009D334DA99E334EA9A1334FA9C43350A9F3
:10537000CE3351A9D13352A9D23353A9D53354A92D
:10538000004EBBD2014EA1B6024E4081034EDFC695
:10539000044E4181054E4281064E4381074EF2CDB7
:1053A000084EC9D5094EFDC80A4ECFC90B4EC2CF13
:1053B0000C4EA2D80D4EBBB20E4EEBD30F4E448115
:1053C000104EA4D8114EF3B3124E4581134EA8D7F8
:1053D000144ED2C7154EA7D8164EC0CA174E4681D6
:1053E000184EF0C7194EFBB11A4EB5D21B4ED4B4AD
:1053F0001C4EABB61D4EBFCB1E4EA9D81F4E4781CB
:10540000204E4881214E4981224EAAB6234E4A8120
:10541000244EBDC1254ECFD1264E4B81274EA5C966
:10542000284EADD8294E4C812A4EF6B82B4EBED10F
:105430002C4EDCE32D4ED0D62E4E4D812F4E4E817C
:10544000304EE1B7314E4F81324EAEB4334E5081C3
:10545000344ED9C1354E5181364EBCD8374E52816B
:10546000384EE8CD394EA4B53A4EAACE3B4EF7D6CB
:105470003C4E53813D4EF6C03E4ED9BE3F4EAFD856
:10548000404E5481414E5581424E5681434ECBC4CD
:10549000444E5781454EC3BE464E5881474EB1D803
:1054A000484EB4C3494EE5D24A4E59814B4EAED612
:1054B0004C4EDACE4D4EA7D54E4EF5BA4F4EA6B74E
:1054C000504ED6C0514E5A81524EB9C6534ED2C5D7
:1054D000544EC7C7554E5B81564ED4B9574E5C816A
:1054E000584ECBB3594ED2D25A4E5D815B4E5E813F
:1054F0005C4EBFD85D4EC5BE5E4EF2C65F4EB2D2A8
:10550000604EB0CF614EE7CF624E5F81634E6081E7
:10551000644E6181654E6281664EE9CA674E638161
:10552000684E6481694EC0D86A4E65816B4E668153
:105530006C4E67816D4E68816E4E69816F4E6A81D7
:10554000704EF2C2714ED2C2724E6B81734EE9C878
:10555000744E6C81754E6D81764E6E81774E6F8183
:10556000784E7081794E71817A4E72817B4E738153
:105570007C4E74817D4E75817E4EACC77F4E7681A8
:10558000804E7781814E7881824E7981834E7A81F7
:10559000844E7B81854E7C81864ECBC1874E7D813A
:1055A000884EE8D3894EF9D58A4E7E818B4EC2CA89
:1055B0008C4EFEB68D4EA1D88E4EDAD38F4EF7BFED
:1055C000904E8081914EC6D4924EA5BB934EC1D8C9
:1055D000944EE5CE954EAEBE964E8181974E828119
:1055E000984EA8D8994E83819A4EC7D19B4EA9D088
:1055F0009C4E84819D4E85819E4E86819F4EBDD856
:10560000A04EEFD9A14EF6CDA24EBABFA34E8781D0
:10561000A44EBBBDA54EA5BAA64EE0D2A74EFAB287
:10562000A84EE0BAA94EB6C4AA4E8881AB4EEDCFC3
:10563000AC4EA9BEAD4EA4CDAE4EC1C1AF4E898118
:10564000B04E8A81B14E8B81B24ED7C7B34EF1D9DD
:10565000B44E8C81B54EF4D9B64E8D81B74E8E8145
:10566000B84E8F81B94E9081BA4ECBC8BB4EE9D8A7
:10567000BC4E9181BD4E9281BE4E9381BF4EDAD217
:10568000C04EB2CAC14ECAC8C24EECD8C34EEAD848
:10569000C44EC6D8C54EF6BDC64ECDC6C74EF0B335
:1056A000C84E9481C94EEBD8CA4EF1BDCB4EE9BD70
:1056B000CC4E9581CD4ED4C8CE4ED3B4CF4E96812C
:1056C000D04E9781D14ED8C2D24E9881D34ED6B209
:1056D000D44ED0D7D54ECBCAD64EFBCBD74ECCD599
:1056E000D84EB6B8D94EC9CFDA4E9981DB4E9A81E1
:1056F000DC4E9B81DD4EDAD9DE4EF0D8DF4EAAC7F4
:10570000E04E9C81E14EEED8E24E9D81E34EFAB42C
:10571000E44EEEC1E54ED4D2E64E9E81E74E9F8127
:10572000E84EEDD8E94EA081EA4EC7D2EB4EEFD855
:10573000EC4EC7C3ED4EA181EE4EA281EF4EA38188
:10574000F04EF6D1F14EA481F24ED9D6F34EF2D8F6
:10575000F44EA581F54EF5D8F64EFEBCF74EDBBCF7
:10576000F84EA681F94EA781FA4EA881FB4ECEC80D
:10577000FC4EA981FD4EDDB7FE4EAA81FF4EC2B799
:10578000004FAB81014FF3C6024FAC81034FAD8197
:10579000044FAE81054FAF81064FB081074FB181F5
:1057A000084FB281094FF8D80A4FC1D20B4FB381CD
:1057B0000C4FB4810D4FE9CE0E4FBFBC0F4FFCB75D
:1057C000104FA5B7114FDDD0124FB581134FB681E1
:1057D000144FB781154FB881164FB981174FDAD6DC
:1057E000184FC5D3194FEFBB1A4FE1BB1B4FF1D870
:1057F0001C4FBA811D4FBB811E4FA1C91F4FB0CE98
:10580000204FABB4214FBC81224FF3D8234FBD8131
:10581000244FCBC9254FF6D8264FD7C2274FF7D8EC
:10582000284FBE81294FBF812A4FB1CE2B4FF9D8C7
:105830002C4FC0812D4FC1812E4FC2812F4FAEB250
:10584000304FC0B9314FC381324FA3D9334FC481D8
:10585000344FE9B0354FC581364FE6C1374FC68169
:10586000384FECC9394FC7813A4FC5CB3B4FC88140
:105870003C4FC6CB3D4FA4D93E4FC9813F4FCA8153
:10588000404FCB81414FCC81424FCD81434FE8B552
:10589000444FCE81454FCF81464FABB5474FD08166
:1058A000484FD181494FD2814A4FD3814B4FD48148
:1058B0004C4FD5814D4FBBCE4E4FCDB54F4FA1D79D
:1058C000504FF4D7514FD3D3524FD681534FE5CCDD
:1058D000544FD781554FCEBA564FD881574FA2D982
:1058E000584FDCD9594FE0D35A4FFDD85B4FF0B732
:1058F0005C4FF7D75D4FFED85E4FFAD85F4FA1D906
:10590000604FE3C4614FD981624FDA81634FB6D3F0
:10591000644FF4D8654FDDD9664FDB81674FFBD804
:10592000684FDC81694FE5C56A4FDD816B4FDE81D1
:105930006C4FD0C06D4FDF816E4FE0816F4FF0D163
:10594000704FDBB0714FE181724FE281734FD1BC78
:10595000744FA6D9754FE381764FA5D9774FE4816F
:10596000784FE581794FE6817A4FE7817B4FACD95B
:105970007C4FAED97D4FE8817E4FABD97F4FB9CAFE
:10598000804FE981814FEA81824FEB81834FA9D912
:10599000844FB6D6854FEC81864FED81874FEE81DF
:1059A000884FDEB3894FA8D98A4FEF818B4FFDC056
:1059B0008C4FF0818D4FCCCA8E4FF1818F4FAAD979
:1059C000904FF281914FA7D9924FF381934FF48179
:1059D000944FB0D9954FF581964FF681974FB1B658
:1059E000984FF781994FF8819A4FF9819B4FA9B948
:1059F0009C4FFA819D4FC0D29E4FFB819F4FFC81EF
:105A0000A04FC0CFA14FFD81A24FFE81A34FC2C2C4
:105A1000A44F4082A54FC4BDA64FECD5A74FE0B21E
:105A2000A84FC8C7A94FEBBFAA4FADD9AB4F418212
:105A3000AC4FAFD9AD4F4282AE4FEACEAF4FEEBAC8
:105A4000B04F4382B14F4482B24F4582B34F46823A
:105A5000B44F4782B54FD6C7B64F4882B74F498239
:105A6000B84F4A82B94F4B82BA4F4C82BB4F4D82DE
:105A7000BC4F4E82BD4F4F82BE4F5082BF4FE3B1ED
:105A8000C04F5182C14F5282C24F5382C34FD9B4CB
:105A9000C44FEDB6C54FB4D9C64F5482C74F5582D7
:105AA000C84F5682C94F5782CA4FA1BFCB4F5882A9
:105AB000CC4F5982CD4F5A82CE4FDED9CF4FCEC771
:105AC000D04FFEC0D14FB8D9D24F5B82D34F5C824A
:105AD000D44F5D82D54F5E82D64F5F82D74FD7CBF2
