:020000040800F2
:10000000583B002045010008BF0D00083F0D0008C7
:10001000BD0D000831020008E112000800000000D8
:100020000000000000000000000000003111000886
:100030005D02000800000000C10D00083311000837
:100040005F0100085F0100085F0100085F01000810
:100050005F0100085F0100085F0100085F01000800
:100060005F0100085F0100085F0100085F010008F0
:100070005F0100085F0100085F0100085F010008E0
:100080005F0100085F0100085F0100085F010008D0
:100090005F0100085F0100085F0100085F010008C0
:1000A0005F0100085F0100085F0100085F010008B0
:1000B0005F0100085F0100085F0100085F010008A0
:1000C0005F0100085F0100085F0100085F01000890
:1000D0005F010008C91200085F0100085F01000805
:1000E0005F0100085F0100085F0100085F01000870
:1000F0005F0100085F0100085F0100085F01000860
:100100005F0100085F0100085F0100085F0100084F
:100110005F0100085F0100085F0100085F0100083F
:100120005F0100085F0100085F0100085F0100082F
:10013000DFF80CD000F06AF8004800478D2F000867
:10014000583B00200648804706480047FEE7FEE788
:10015000FEE7FEE7FEE7FEE7FEE7FEE7FEE7FEE777
:10016000951100083101000840EA01039B0703D004
:1001700009E008C9121F08C0042AFAD203E011F8E6
:10018000013B00F8013B521EF9D27047D2B201E0A8
:1001900000F8012B491EFBD270470022F6E710B58C
:1001A00013460A4604461946FFF7F0FF204610BDE5
:1001B000CAB2401E10F8011F8A4202D00029F9D1AC
:1001C0000020704730B504460020034600E05B1C69
:1001D000934203D2E05CCD5C401BF8D030BD30B51B
:1001E0000B46014600202022012409E021FA02F5F5
:1001F0009D4205D303FA02F5491B04FA02F528448F
:10020000151EA2F10102F1DC30BD0000064C074DC5
:1002100006E0E06840F0010394E8070098471034D6
:10022000AC42F6D3FFF788FF04E6020824E6020892
:10023000FEE700000848074901604FF4E1314160E2
:1002400000218160C160016181610C21416100F088
:10025000BFBC000000380140B434002070470000EB
:100260002DE9F84FDFF8C8910024A9F1040B2346CB
:100270000F2709F1040AABF1040ED1E00125A540D6
:1002800006EA0502AA4276D1DFF8A8C14E68A6EBBD
:100290000C0866452BD00DDC032E34D005DC36B3BC
:1002A000012E19D0022E2FD11BE0112E16D0122EA6
:1002B0002AD119E0B8F5881F19D006DCB8F5803FBF
:1002C00015D0B8F5801F1FD111E0B8F5001F0ED072
:1002D000B8F5041F18D10AE0CB6815E0CB681B1DE8
:1002E00012E0CB6808330FE0CB680C330CE08B686E
:1002F0002BB1012B4FF0080303D0456104E0042328
:1003000002E0056100E00023FF2A01D8064601E073
:1003100000F104064FEA840501D9A5F12005D6F8BD
:10032000008007FA05FC28EA0C0803FA05F548EAFC
:100330000508C6F800804D68ED0070D53E4DAE69E9
:1003400046F00106AE61AD6924F0030605F0010533
:1003500000953A4D06EB050CDCF80850A607360F61
:1003600007FA06F825EA0805DFF8D480404503D1EE
:100370004FF0000825E052E0DFF8C880404502D188
:100380004FF001081DE0DFF8C080404502D14FF07A
:10039000020816E0DFF8B480404502D14FF00308B0
:1003A0000FE0DFF8AC80404502D14FF0040808E0D0
:1003B000DFF8A080404502D14FF0050801E04FF082
:1003C000060808FA06F848EA0508CCF808804D68DF
:1003D000D9F80060ED024D4601D5164300E0964382
:1003E0002E604D68DAF80060AD02554601D516431F
:1003F00000E096432E604D68DBF80060AD035D467B
:1004000001D5164300E096432E604D68DEF800608B
:10041000ED03754601D5164300E096432E60641C3B
:100420000A681646E2407FF429AFBDE8F88F000065
:1004300008040140000011100010024000000140BB
:1004400000080140000C0140001001400014014070
:1004500000180140001C01400148806870470000FE
:1004600030000020024881680278114481607047A2
:1004700030000020074810B5016841F0100101600C
:10048000032000F067F80F2000F006F800F024F8D1
:10049000002010BD0020024070B50D4D04464FF401
:1004A0007A712878B1FBF0F00A490968B1FBF0F0E5
:1004B00000F07AFB48B9102C07D200222146501ECA
:1004C00000F028F800206C6070BD012070BD0000B5
:1004D00030000020480000200C4808B5816941F038
:1004E00001018161816901F001010091C16941F05F
:1004F0008051C161C06900F080500090044841689B
:1005000021F0E06141F00071416008BD001002403F
:1005100000000140F0B40E4B1B680C46C3F30223ED
:10052000C3F10705042D00D90425191D072901D29F
:10053000002300E0DB1E012606FA05F1491E2140DA
:1005400099409E40761E16403143F0BC00F0DABE62
:100550000CED00E0064900F0070208684FF6FF03C3
:10056000184040EA0220034A104308607047000028
:100570000CED00E00000FA052DE9F0470F460500FC
:1005800061D0434E306800F00700B84209D23068AD
:1005900020F0070038433060306800F00700B842B0
:1005A00051D128683B4C810712D5400703D56068BC
:1005B00040F4E06060602878000703D5606840F48C
:1005C000605060606068A96820F0F00008436060D7
:1005D0002878C00728D06868012810D02168022830
:1005E00010D0890700292EDA616821F00301014348
:1005F0006160FFF731FF804641F288390DE02168E4
:100600008903EFE78901EDE7FFF726FFA0EB08017B
:10061000494502D90320BDE8F0876068696800F0A9
:100620000C00B0EB810FEFD1306800F00700B8424A
:100630000BD9306820F0070038433060306800F094
:100640000700B84201D00120E5E72878400705D52A
:100650006068E96820F4E06008436060287800077B
:1006600006D56068296920F4605040EAC1006060E6
:1006700000F038F86168084AC1F30311515CC840C2
:100680000649086006480068FFF706FF0020C2E739
:1006900000200240001002405AE5020848000020F5
:1006A000340000200448054900684968044AC1F341
:1006B0000221515CC84070474800002000100240F1
:1006C0006AE502080448054900684968044AC1F31C
:1006D000C221515CC8407047480000200010024011
:1006E0006AE502080E4A51680E4801F00C03042B1B
:1006F00011D0082B0FD10C48C1F38343C903C05C50
:100700000AD55168084AC1F34041921E515C054A1E
:100710005043B0FBF1F07047044948437047000074
:100720000010024000127A005839000800093D000C
:100730002DE9F84F040070D02078C04DC00749D093
:100740006868C0F38100012807D06868C0F38100A1
:10075000022809D16868C00306D52868800339D506
:1007600060680028E7D035E06068B0F5803F0BD0C6
:1007700010B1B0F5A02F11D0286820F48030286087
:10078000286820F4802002E0286840F48030286047
:10079000606890B1FFF760FE06460AE0286840F402
:1007A00080202860F0E700BFFFF756FE801B64281A
:1007B00073D828688003F7D50CE0FFF74DFE064696
:1007C00005E000BFFFF748FE801B6428F0D82868CA
:1007D0008003F7D420789A4E80074FF001094FF03C
:1007E000000839D5686810F00C0F07D06868C0F3AE
:1007F0008100022809D16868C00306D428688007F0
:1008000014D52069012808D110E02069B0B1C6F8DC
:100810000090FFF721FE074605E00AE1FFF71CFE06
:10082000C01B0228C4D828688007F7D528686169EA
:1008300020F0F80040EAC10028600DE0C6F8008012
:10084000FFF70AFE074604E0FFF706FEC01B02287A
:1008500023D828688007F7D4207800072CD579485A
:10086000A169D9B1C0F80090FFF7F6FD074604E092
:10087000FFF7F2FDC01B02280FD8686A8007F7D582
:1008800071484FF4FA510068B0FBF1F0009000BFDE
:100890000098411E0091FAD20EE080E0C0F800807E
:1008A000FFF7DAFD074604E0FFF7D6FDC01B02287C
:1008B00075D8686A8007F7D42078400760D5E86962
:1008C0000027C00008D4E86940F08050E861E8697A
:1008D000012700F0805000905C480168C90513D4DE
:1008E0000168834641F480710160FFF7B5FD8246DF
:1008F00006E000BFFFF7B0FDA0EB0A0064284ED869
:10090000DBF80000C005F5D5E06801280AD008B181
:10091000052813D0286A20F001002862286A20F0F8
:10092000040002E0286A40F001002862E06841F219
:10093000883B98B1FFF790FD82460BE0286A40F0B3
:1009400004002862EEE700BFFFF786FDA0EB0A0176
:1009500059455AD8286A8007F6D50CE0FFF77CFD88
:10096000824605E0FFF778FDA0EB0A0159454CD817
:10097000286A8007F6D41FB1E86920F08050E8614A
:10098000E06988B36968C1F38101022944D0022873
:10099000C6F8608004D0FFF75FFD044638E034E01D
:1009A000FFF75AFD074604E0FFF756FDC01B02287B
:1009B0002BD828688001F7D4206AB0F5803F05D194
:1009C0006868A16820F4003008436860D4E9080131
:1009D0000843696821F4741108436860C6F86090A0
:1009E000FFF73AFD044606E025E000BFFFF734FDBF
:1009F000001B022809D828688001F7D51BE000BF3A
:100A0000FFF72AFD001B022802D90320BDE8F88F5A
:100A100028688001F4D40EE00128F7D06868226AC3
:100A200000F48031914204D1616A00F47010884270
:100A300001D00120EAE70020E8E7000000100240B2
:100A40000000424280044242480000200070004002
:100A500070B5040009D0606A002540B12561656168
:100A6000A56294F8510040B10CE0012070BD6068AF
:100A7000B0F5827FF4D0E561F2E784F8505020466B
:100A800000F040F8022084F851002068016821F04D
:100A900040010160A088218900F4827001F40441C2
:100AA0000843A18901F400610843217C01F002019F
:100AB0000843217D01F001010843218B01F40071FD
:100AC0000843217F01F03801084394F8201001F019
:100AD00080010843218D01F400510843216808601A
:100AE000A069042101EA1040216848602068C169BA
:100AF00021F40061C1616565012084F85100002086
:100B000070BD000030B5254885B0816941F4805141
:100B10008161816901F480510491816941F004018E
:100B20008161816901F004010491816941F004014E
:100B30008161816901F004010491816941F004013E
:100B40008161816901F004010491816941F0100122
:100B500081618069012400F0100004902020009041
:100B60000220CDE9010403200D4D0390694628467B
:100B7000FFF776FB4020009069462846FFF770FBA0
:100B80008020009069462846FFF76AFB009469467A
:100B900004480194FFF764FB05B030BD001002402B
:100BA000000801400010014010B5401EB0F1807FE8
:100BB00001D3012010BD4FF0E02460610F216017C8
:100BC00000F0A0FB0020A06107202061002010BDE4
:100BD00070B5040004D094F84100002510B106E07F
:100BE000012070BD84F84050204600F023F82420F6
:100BF00084F841002068C16821F40051C16020469A
:100C000000F0CAFA2068016921F49041016120686E
:100C1000416921F02A0141612068C16841F4005115
:100C2000C1606564202084F8410084F84200656357
:100C3000002070BD194810B5816986B041F480412B
:100C40008161816901F480410491816941F004016D
:100C50008161816901F004010491816941F004011D
:100C6000816180690E4C00F0040004904FF4007024
:100C70000090022001900120029003200390694619
:100C80002046FFF7EDFA20150090002001906946FC
:100C90002046FFF7E5FA06B010BD00000010024044
:100CA000000801402DE9F843044690F841001F4632
:100CB00016460D46202802D00220BDE8F8837DB1FB
:100CC00076B100206064212084F84100FFF7C4FB66
:100CD000A6848046E684A068B0F5805F02D003E079
:100CE0000120EAE7206910B12E4600250EE000261B
:100CF0000CE08021204600F0ABFAA0B9AEB116F8A6
:100D0000010B21684860E08C401EE084E08C434683
:100D10004FF0000200970028EBD14FF04001204631
:100D200000F096FA30B10320C7E735F8020BC0F3A4
:100D30000800E6E7202084F841000020BDE7FEE738
:100D4000F0B51C4885B0816941F008018161816975
:100D500001F008010491816941F008018161816914
:100D600001F008010491816941F008018161806905
:100D7000012400F00800049003202026CDE9024061
:100D8000CDE900640C4F69463846FFF769FA6946B9
:100D900038460094FFF764FA022569463846009504
:100DA000FFF75EFA0448103006600460056005B085
:100DB000F0BD000000100240000C0140FEE7FEE71D
:100DC000704700002DE9F041104F06464FF4803087
:100DD00014460D463861032000F024F9C5F307409E
:100DE00000F020F9C5F3072000F01CF9E8B200F08C
:100DF00019F904E0FF2000F015F906F8010B641E54
:100E0000A4B2F7D201203861BDE8F08100100140A2
:100E10002DE9F04707460E4611F0FF00C0F1000132
:100E2000CDB24FEA122402F0FF094FF4807A13D0BA
:100E3000F0B24042C0B206EB00080CB3501B80B2C7
:100E4000040A00F0FF092A463146384600F062F8ED
:100E50007E19454657462AE06CB15546641EE4B2F9
:100E60000CD32A463146384600F054F806F5807611
:100E700007F58077F2E73146384621E04A46FAE73F
:100E8000A945F8D9A9EB0500C4B22A46314638462F
:100E900000F040F841467819224611E03A462946CA
:100EA000304600F037F805F5807506F58076641E4B
:100EB000E4B2F3D25FEA090006D002462946304682
:100EC000BDE8F04700F026B8BDE8F08710B5104C3B
:100ED0000E48022120604FF4827060600020A06004
:100EE000C4E90301012161614902A1610821C4E94A
:100EF00007106062A0620720E0622046FFF7A8FDAD
:100F00002068016841F04001016010BD00300140DF
:100F1000FC3400202DE9F04114460D46064600F051
:100F2000D9F8134F4FF480303861022000F07AF87E
:100F3000C5F3074000F076F8C5F3072000F072F81B
:100F4000E8B200F06FF8B4F5807F07D909A000F08F
:100F5000C9F9FF24307800F065F8761C641EA4B24D
:100F6000F8D201203861BDE8F04100F085B80000FA
:100F7000001001403C3C2D464C4153482D455252F7
:100F80004F522D3E3E205350495F464C4153485FDF
:100F900050616765577269746520746F6F206C616A
:100FA0007267650A0000000070B50D4D4FF4803087
:100FB00028619F2000F036F8FF2000F033F8044647
:100FC000FF2000F02FF80646FF2000F02BF8014626
:100FD00001202861200440EA0620084370BD00007B
:100FE0000010014070B5044600F074F800F044F8B9
:100FF0000B4D4FF480302861202000F013F8C4F32B
:10100000074000F00FF8C4F3072000F00BF8E0B23F
:1010100000F008F801202861BDE8704000F02CB80D
:101020000010014070B512494FF480550D60114B0E
:101030001C6805E00A68561E0E6001D200200CE014
:10104000A268D2439207F5D4E0600D601A6808E008
:101050000868431E0B6004D2012000F049F8C0B2BA
:1010600070BD9068C043C007F2D1D068F7E70000B8
:101070002C000020FC34002070B50D4D4FF4803062
:1010800028610520FFF7CEFF0A4CA8142060FF203E
:10109000FFF7C8FF21684A1E226004D2BDE87040F5
:1010A000042000F025B8C007F1D10120286170BDEF
:1010B000001001402C00002010B5054C4FF480308A
:1010C0002061AB20FFF7AEFF0120206110BD0000C2
:1010D0000010014010B5054C4FF48030206106200F
:1010E000FFF7A0FF0120206110BD000000100140AB
:1010F00010B5014602A000F0F5F8002010BD000078
:101100003C3C2D464C4153482D4552524F522D3EAA
:101110003E2053504920B5C8B4FDB3ACCAB121201C
:101120006572726F72436F6465203D2025640A000A
:101130007047FFF797B930B58FB028216846FFF7A1
:101140002CF814210AA8FFF728F801210804CDE99A
:1011500000100024029402250491CDE907504FF4B9
:10116000E01009906846FFF7E3FA08B172B6FEE7AF
:101170000F20CDE90A054FF48060CDE90C40022133
:101180000AA80E94FFF7F8F9002801D072B6FEE71E
:101190000FB030BD7047000070B5044600680169AB
:1011A000E26821F44051114301612169A0680843BC
:1011B000616908432168CA6841F20C639A4302439B
:1011C000CA6020684169A26921F4407111434161FC
:1011D0001E492068884202D1FFF774FA01E0FFF748
:1011E00061FA00EBC00101EB00126068642180002D
:1011F000B2FBF0F3B3FBF1F36FF018067343B2FBED
:10120000F0F5B2FBF0F605EB8305322303EB051591
:10121000B5FBF1F5B6FBF1F605F0F00505EB0615AB
:10122000B2FBF0F6B2FBF0F0B0FBF1F06FF0180299
:10123000504306EB800003EB0010B0FBF1F0216897
:1012400000F00F002844886070BD000000380140A5
:101250002DE9F041984617460E460446069D27E0C4
:10126000681C25D02DB1FFF7F7F8A0EB0800A842C5
:101270001ED920680C3050E8001F21F4D07140E8DE
:101280000012002AF5D12068143050E8001F21F028
:10129000010140E80012002AF5D1202084F8410025
:1012A00084F84200002084F840000320BDE8F0816B
:1012B0002068006836EA000004D00020B842CFD091
:1012C0000020F3E70120F9E7044800680168C943FA
:1012D000890602D44168C9B241607047B434002025
:1012E000FEE700000FB4054B10B503A9044A0298AD
:1012F00000F028F810BC5DF814FB0000692D000810
:101300004C0000200907090E002804DB00F1E02052
:1013100080F80014704700F00F0000F1E02080F822
:10132000141D704702E008C8121F08C1002AFAD134
:1013300070477047002001E001C1121F002AFBD155
:10134000704700002DE9FF4F8BB09A460F460546C7
:10135000002606E025280BD052460D9990476D1CBB
:10136000761C28780028F5D10FB03046BDE8F08F04
:101370000024A0460122604900E0044315F8013F23
:10138000203B02FA03F00842F7D128782E2817D123
:1013900015F8010F44F004042A280ED06FF02F0234
:1013A0002878A0F1300109290AD808EB880102EB5E
:1013B000410100EB01086D1CF2E757F8048B6D1C2E
:1013C000287869283ED006DC0028CDD063280BD0D1
:1013D000642804D136E0732810D075284BD05246CB
:1013E0000D999047761C85E017F8040B8DF80000E6
:1013F00000208DF80100E946012003E057F8049B26
:101400004FF0FF3061074FF0000401D40AE0641C84
:1014100044450DDA8442FADB19F804100029F6D1AC
:1014200006E0641C8442FCDB19F804100029F8D1A2
:10143000264404E019F8010B52460D999047641EAA
:10144000F8D257E001CF4FF00A0B002802DA4042F1
:101450002D2102E0210504D52B218DF82410012136
:1014600003E0E10705D02021F7E70DF120090891FD
:101470000CE00021F9E701CF4FF00A0BF9E75946DC
:10148000FEF7ADFE01F1300209F8012D0028F6D17A
:10149000ADEB090000F1200B600701D44FF001080B
:1014A000D84502DDA8EB0B0000E0002080460024B8
:1014B00006E009A85246005D0D999047641C761C11
:1014C00008988442F5DB04E0302052460D9990479D
:1014D000761CB8F10001A8F10108F5DC05E019F867
:1014E000010B52460D999047761CBBF10001ABF100
:1014F000010BF4DC6D1C34E70928010070B50446CB
:101500000020E070401E6063204602F093F808B1AE
:10151000042070BD04F2362001F032FD054694F837
:1015200038004AF65526EB2803D0E92801D0E828F0
:101530003FD1B54207D1082221A104F18A00FEF76C
:1015400041FE0028E5D004F1430001F019FD94F8B4
:101550004510421E10422CD1B0F5007F29D3B0F5C2
:10156000805F26D829B3481E014222D104F14600EB
:1015700001F006FDE8B194F84800401E012818D893
:1015800004F1490001F0FCFC98B104F14B0001F0BA
:10159000F7FC802806D204F1580001F0E6FCB0F513
:1015A000803F06D304F14E0001F0EAFC08B10020B0
:1015B00070BDB54201D1022070BD032070BD000096
:1015C0004641543332202020000000000268806A27
:1015D000938952895343B1FBF3F1001D04C81AB13A
:1015E000914203D3891AF8E7002070470068084445
:1015F0007047C269891E921E8A4201D80020704736
:10160000026B408900FB0120704700002DE9F05F6C
:1016100082460C4601F11A0001F0B2FC78BB20783A
:10162000012700F03F00401E00EB8001DFF85890DA
:1016300001EBC00500264FF6FF7B00BF19F806003E
:10164000204401F09DFC80466FB1FF2D17D801F0BA
:1016500009FB07463AF815006D1C01F003FB8742B1
:101660000DD1474601E0D84509D1761C0D2EE5D3B2
:101670002078400606D52FB13AF8150010B10020A9
:10168000BDE8F09F0120FBE7683900082DE9F04133
:1016900006680F00804606D001F0C0FB022809D280
:1016A0000120BDE8F081746914B1F069A04207D847
:1016B000012405E0411CF4D0F1698142F1D83C4697
:1016C000B0690028EDD0BC4216D1F069651CA84273
:1016D00000D802252946404601F0A0FB0128E0D0B1
:1016E000411CDED038B17069022805D3F16981420E
:1016F00002D9044600E0A5B92546F0696D1CA84250
:1017000002D80225022C0AD32946404601F086FB66
:1017100038B10128C5D0411CC3D0A542EDD100206D
:10172000BFE74FF0FF3422462946304601F09BFFC9
:1017300030B95FB12A463946304601F094FF28B1EE
:10174000012800D0012425462846AAE77561D6E97C
:101750000601891E884201D8401EB061307940F0F0
:1017600001003071F0E700002DE9F84F8246006873
:101770000E680024D0F810708846A14616F8015B68
:10178000284600F0B9F960B116F8010B40284BD398
:101790007E2803D9A0F180017E2945D800EB0520E1
:1017A00085B235B14FF46A71284601F00DFA050093
:1017B0003AD0681C38D0B5F5803F03D3280C27F801
:1017C0001400641C202D1AD32F2D0FD05C2D0DD0AA
:1017D000802D04D2294675A0FEF7EAFC20BBFF2C21
:1017E00022D227F81450641CC8E7761C30782F28C2
:1017F000FBD05C28F9D00025C0B2202800D20425F7
:10180000C8F8006009E000BF07EB440030F8020CA4
:10181000202801D02E2802D1641E002CF4D127F8F4
:1018200014900CB1002603E00620BDE8F88F761C6A
:1018300037F816002028FAD016B938882E2803D198
:1018400045F0030500E0641E2CB107EB440030F8BE
:10185000020C2E28F7D120220B210AF12000FEF7DE
:1018600095FC4FF000084FF0080BCDF8008000BF4A
:1018700037F8160006F101065FEA000924D0B9F135
:10188000200F04D0B9F12E0F04D1A64202D045F0AA
:101890000305EDE70098584501D2A64219D1BBF1E6
:1018A0000B0F0FD0A64201D045F003050CD84FF026
:1018B000080000904FEA886026464FF00B0B4FEA75
:1018C0001068D5E745F003059AF82000E52849D0CF
:1018D0004BE04846B9F1800F08D345F0020501F00E
:1018E000C1F94FF46A7101F095F98146B9F1FF0F22
:1018F00013D90099ABF10100814204D345F00305EF
:10190000CDF800B0B4E70AEB01004FEA192280F8E5
:1019100020200098401C00901BE0B9F1000F04D07B
:10192000014625A0FEF744FC20B14FF05F0945F0C9
:1019300003050EE0A9F14100192801D848F002087A
:10194000A9F16100192804D8413048F001081FFAB4
:1019500080F9009A0AEB020181F820900098401C5F
:10196000009085E705218AF82010BBF1080F03D10C
:101970004FEA88604FEA1068C8F38100032803D05B
:101980006FEA0800800701D145F00205A80709D4D5
:101990005FEAC87001D045F010055FEA487001D5D4
:1019A00045F008058AF82B5000203EE72A3A3C3ED5
:1019B0007C223F7F000000002B2C3B3D5B5D000044
:1019C0002DE9FF4F81B09B466A460121019800F046
:1019D000D8FA00287DD108264FF03F09F101009F79
:1019E00003E0700010F0FF0606D006FB09F0B7FB1D
:1019F000F0F08842F5D806B9FF264FF480515846DA
:101A0000FEF7CBFB0BF5DF754FF0000A4C465DE0AF
:101A1000029951F82A80B8F1640F09D801D13846EB
:101A200005E04FF06400B7FBF0F000FB08F08046E3
:101A300004EB0800B84201D8A04201D2A7EB040889
:101A4000B8F1000F44D0214605F1080001F0EBFE8B
:101A5000414605F10C0001F0E6FEB4FBF9F2B2FBE1
:101A6000F6F303982871B4FBF9FC09FB06F1B4FB0B
:101A7000F1F006FB132209FB1C4C6A70C02303EA39
:101A800090020CF1010C42EA0C02AA70E87004EB1F
:101A90000800441EB4FBF9FCBCFBF6F2B4FBF9F8F9
:101AA000B4FBF1F106FB12CC09FB184203EA9103E7
:101AB000521C85F805C01343AB71E9710AF1010AA4
:101AC00010350446BAF1040F02D20CB1BC429FD3C8
:101AD00000E00DE04AF655210BF5FF7001F0ABFE7A
:101AE000012300225946019800F088FA002800D00E
:101AF000012005B0BDE8F08F812803D3FE2801D86E
:101B000001207047002070472DE9F0410C46054642
:101B100001F0E4FEF8B921462846FFF76AFD0646C3
:101B2000686305F138004FF480510446FEF735FB39
:101B3000A0460127002400E03C446889A04207D960
:101B4000321968783B46414600F058FA0028F3D035
:101B50006889A04202D00120BDE8F0810020FBE7A7
:101B60002DE9F04705460021D0F8009000F0ACF9CF
:101B7000002852D1FF24471EA046EF624846A969BB
:101B800001F058FD060047D1E969087850B1CA7ADA
:101B9000E52802F03F02AA7136D0130704D50F2AB8
:101BA00032D105E0042637E00F2A01D0E4B120E06D
:101BB00095F82B20520629D4420606D591F80D80BF
:101BC00000F0BF002A690446EA62A04209D14A7BBC
:101BD000424506D1D9F81000FFF718FD08B1641E80
:101BE00000E0FF24E4B211E0084601F028FE404581
:101BF00012D095F82B00C00706D10B2205F1200169
:101C0000E869FEF7DFFA38B1FF24EF6200212846C9
:101C100000F005F80600B1D03046BDE8F0872DE9A8
:101C2000F047076906682037894604464FF00008E8
:101C3000B7F5001F39D2A06930B1B189B7FBF1F215
:101C400001FB127119B13DE00420BDE8F087401C92
:101C5000A061616929B3B0897289B7FBF0F0521EA7
:101C600010422FD1204601F0D9F80546012821D98C
:101C7000681C14D0F069A8421ED8B9F1000F14D026
:101C800020466169FFF702FD050011D0012D11D03A
:101C9000681C04D029463046FFF736FF60B10120AA
:101CA000D3E73089B0EB571F0CD8C4F81880CBE7C6
:101CB0000720CAE70220C8E7294630466561FFF7DA
:101CC00098FCA0612761B089B7FBF0F100FB1170AF
:101CD00030443830E0610020B7E700002DE9F04FD4
:101CE0000446D0F8009090F82B0087B010F0A00FB9
:101CF00003D0062007B0BDE8F08F0025D9F810000A
:101D000000E06D1C30F815100029FAD104F1200014
:101D100004F1200A07C88DE807009DF80B00C107F1
:101D200019D0402084F82B000126334669465046DE
:101D3000D9F8102001F024F82046FFF711FF10B960
:101D4000761C642EF1D3642E0FD00428D2D19DF8D6
:101D50000B0084F82B009DF80B00800707D50D20A1
:101D60000C35B5FBF0F56D1C02E00720C2E701253C
:101D700000212046276800F0A7F888B900263846D9
:101D8000A16901F057FC58B9E0690078E5280AD04C
:101D900048B1002601212046FFF741FF0028EED080
:101DA000042812D012E0761C2846AE42F2D1451E1D
:101DB000049567D02169684201EB4011204600F08C
:101DC00083F85FEA000803D079E00720804676E0D8
:101DD000504601F034FD4FF6FF7B06904846A1695E
:101DE00001F028FC5FEA000869D1D9F810000590DD
:101DF0000498D4F81C80C0B20390069988F80D109E
:101E00000F2188F80B10002188F80C1008F11A0037
:101E100001F011FD0398DFF8ACA0401E00EB80013B
:101E200001EBC006002701E05D4503D0059830F8BE
:101E30001650761C1AF8071001EB0800294601F02D
:101E4000FAFC05B95D467F1C0D2FEDD35D4505D02D
:101E5000059830F8160008B1039803E0039840F0A5
:101E60004000039088F80000012089F80300002159
:101E70002046FFF7D4FE5FEA000820D10498401EF8
:101E80000490ABD14846A16901F0D4FB5FEA000899
:101E900015D154F81C0F2021FEF77FF920686168E6
:101EA0000160A1684160A1890181A17B8172E07B11
:101EB000216800F018000873012089F803004046EB
:101EC00018E70000683900082DE9F04104680F4662
:101ED0000646B1F5001F3CD2F8063AD13761B56825
:101EE00025B92078032806D3E56A25B16089A18940
:101EF00000FB01F812E02089B0EB571F29D9E06AF6
:101F000012E0304600F08AFF0546401C1FD0022D2B
:101F10001FD3E069A8421CD9A7EB0807474529460B
:101F2000EFD22046FFF765FBC6E9055088B1A189CD
:101F3000B7FBF1F10844B061A089B7FBF0F100FBF9
:101F4000117020443830F0610020BDE8F08101209C
:101F5000FBE70220F9E710B501004FF001000FD0B8
:101F600001290DD1FEF7B2FF40F2F310401E80B2FE
:101F7000FCD2FFF7A1F8BDE81040012000F02EB818
:101F800010BD03004FF004000FD0012B0DD101292B
:101F900004D0022905D0032906D107E04FF4C06020
:101FA00001E04FF480501060002070470120FAE7F4
:101FB00010B50C4601004FF004000DD001290BD1E3
:101FC0004FF6FF70110300EA03300246204601F588
:101FD0000011FEF7F7FE002010BD000010B501242F
:101FE00038B1012805D1FEF7DFFF0349884200D14F
:101FF0000024204610BD00001740EF0070B50E46CB
:1020000001461D004FF0040013D0002910D0012913
:102010000ED1140304F500142046FEF7E3FF4FF63B
:10202000FF7000EA053221463046FEF7F1FE00203F
:1020300070BD042070BD38B5044600F0A5FC002832
:1020400007D16946204601F06CFC002801D100212F
:10205000216038BD2DE9FF4F97B0994690460D4657
:1020600017A800F053FF002803DA0B201BB0BDE8CF
:10207000F08FF849002451F8201001B10C70C0B263
:10208000049005B9F44DFFF766FFC10701D00320A6
:10209000ECE7400701D50A20E8E768680127FE035E
:1020A0000F9048B90FAA03210498FFF76AFF08B1FF
:1020B0000F9703E00F9828B1B04203D80F98411E44
:1020C000084200D00F970AAA02210498FFF759FF8F
:1020D00000286ED1BDF82800A0F50071B1F5606F41
:1020E00067D8411E0842F4D1297801F00F011591FB
:1020F00069784A1E012A00D901218B46A9684A1E27
:10210000B24205D24209B1FBF2F302FB13120AB14B
:102110004FF400711691E968B1F1807F02D84A1E30
:10212000114200D00021B1FBF0F7B9FBF0F05FEAFB
:1021300000090DD05FEA08050AD000200C9002903B
:102140000CAA01210498FFF71CFF0028C1D101E06F
:1021500011208BE71598000706D40C983F2803D967
:102160003F213F3802910C900C9880287ED3802F1D
:1021700000D980271598800715984FEAC07002D5BE
:1021800010B9032601E078B1022600F0BBFE01463B
:102190000C983C46864608444FF6F57240F6F573B7
:1021A0000990032E07D002E013205FE73C4644B3BA
:1021B00037E0ABE13C467CB9A749002001244FEA57
:1021C0005E48103901E06400401C31F810C0BCF1D9
:1021D000000F01D0C445F6D9BEFBF4F0BDF82810BD
:1021E0004FF0200A01EB800C0CF1070CBCFBF1F165
:1021F000059100210D91904238D99849884235D8EF
:102200002CE0DFF854C200204FEA1E380124ACF164
:102210001E0C01E06400401C3CF8101009B141455F
:10222000F8D9BEFBF4F0984203D9042101EB400039
:1022300006E0012600EB40000321401C01EB5000AA
:10224000BDF828104FF0010A0844401EB0FBF1F021
:10225000059016984001B0FBF1F00D9002980D9991
:10226000504400EB010C1090059900E05EE001FB8A
:102270000BC10F9801EB000C401EACF1010C2CEAD5
:10228000000CACEB0100032E2AD0B0FBFBF80BFBDB
:10229000180CBCF1000F08D0DDF840C00AF1010AAB
:1022A0000CF1010C401ECDF840C0B0FBFBFC0598C2
:1022B00060440590029801EB0411091A714535D864
:1022C0000598AEEB0A0C00FB1BC10D98081AB0FB79
:1022D000F4F8032E0AD0022E0FD0012E24D027E0CE
:1022E000DDF840C0824460441090E3E790451FD879
:1022F000E7B967087FF45EAF18E090450FD92FB9B2
:102300004020B0EB440F01D367004FE715988007DA
:1023100007D503264EE76700802FF6D906E09845DB
:1023200006D8002FF7D001E0984501D90E209DE690
:10233000BDF828102846FDF730FF49A00168296044
:1023400041686960008928813020A872BDF8281092
:1023500005F10B0001F06FFA6C731FFA8AF105F1B9
:102360000E0001F068FA85F810B0032E0FD0169811
:1023700081B205F1110001F05EFA0C99B1F5803FD0
:1023800007D289B205F1130001F055FA05E00020EB
:10239000EEE705F1200001F046FAF82068753F21CC
:1023A00005F1180001F047FAFF2105F11A0001F0CC
:1023B00042FA05F11C00029901F035FA80270999CB
:1023C0004FF0290A032E24D005F1270001F02BFA43
:1023D000059881B205F1160001F02DFA85F82470F8
:1023E00085F826A0132221A105F12B00FDF7BCFEE4
:1023F0004AF6552705F5FF703946824601F01BFA6B
:1024000001232946029A0498FFF7F8FD00287DD1A0
:1024100040E005F1430001F006FA05F124000599BA
:1024200001F001FA022105F12C0001F0FCF9012173
:1024300005F1300001F0FFF9062105F1320001F04D
:10244000FAF985F8407085F842A013220CA105F135
:102450004700CBE74000002094390008F5FFFF0F4C
:10246000EBFE904D53444F53352E30004E4F204ECF
:10247000414D45202020204641542020202020008E
:102480004E4F204E414D45202020204641543332AE
:1024900020202000032E31D1029A01232946921DCB
:1024A0000498FFF7ABFDBDF828102846FDF775FE30
:1024B0005249284601F0B7F9514905F5F27001F08B
:1024C000B2F9A8F1010105F5F47001F0ACF90221AF
:1024D00005F5F67001F0A7F93946504601F0ABF961
:1024E000029A01232946D21D0498FFF787FD029A1C
:1024F00001232946521C0498FFF780FDBDF82800EF
:1025000009FB00F12846FDF748FE00E054E00020FA
:10251000DDF8408032E0032E14D0012E21D06FF080
:102520000701284601F07FF9059F48464F4500D82E
:10253000384682460346424629460498FFF75EFD28
:10254000D0BB10E06FF00701284601F06CF94FF0A6
:10255000FF31281D01F067F96FF0704105F10800A7
:10256000E0E72849DDE7BDF828102846FDF715FE0D
:10257000D044B7EB0A07D8D10798401C07905845BC
:10258000C9D3032E00D00D9C48464C4501D90746BF
:1025900000E027463B46424629460498FFF72EFDB9
:1025A00050B9B844E41BEFD1032E06D00C98B0F517
:1025B000803F04D3062205E01BE00C2202E0022E3D
:1025C00019D00122159800070BD40C981390002005
:1025D00014902B4613A90498FFF7F2F900287FF412
:1025E00057AD002211460498FFF7CBFC00283FF4BA
:1025F0004FAD01203AE50422E4E700005252614168
:1026000072724161F8FFFF0017B581B0144602985D
:102610000090684600F07AFC002802DA0B2004B033
:1026200010BD0A4A002352F8201001B10B70019925
:1026300001B10B7042F820102CB1002201A902A8B0
:1026400000F0B4FEEBE70020E9E7000040000020C6
:102650002DE9F7438EB005000BD002F03F0632465D
:1026600069460FA800F0A2FE04004FF0000804D055
:10267000C9E0092011B0BDE8F0830098019001A8DD
:102680000F9900F033FB040004D19DF82F000006E1
:1026900000D5062416F01C0F4ED04CB1042C03D1EB
:1026A00001A8FFF71BFB044646F008065CB1AAE050
:1026B0009DF80A0010F0110F01D00724A3E0700765
:1026C00001D508249FE0300745D500F01BFC0746E4
:1026D000089839460E3001F0A6F8089839461630A9
:1026E00001F0A1F80899009800F02CFC0899074621
:1026F0002020C87200220899009801F080F80898FC
:1027000000211C3001F08FF800980121C17007B33F
:10271000D0F834900022394601A801F036F80400C0
:1027200071D14946009800F085FF04000098A7F198
:10273000010747610BD066E0D4BB9DF80A00C106D3
:1027400001D504245FE0B10701D5C007B5D130073A
:1027500001D546F040060098416B296208996962EC
:10276000089900F0EFFBA86008981C3000F0FDFB12
:10277000C5F82880E8600099296005F12C00C98817
:10278000A9802E7485F81180C5F81C804FF4805103
:102790008146C5F81480FDF700FDB00635D5EE681A
:1027A0009EB36E610098A9684789808947430FE00E
:1027B00029E0284600F032FB0146012800D8022417
:1027C000481C02D0F61B1CB104E00124F61B01E0FA
:1027D000BE42EED8A961B4B900988289B6FBF2F383
:1027E00002FB13628AB1FEF704FF80B10099012356
:1027F0008A89B6FBF2F20244EA6148784946FFF75B
:10280000D7FB10B10124C5F80080204632E702242E
:10281000F9E72DE9F04F884689B000211960994603
:102820001546044604A901F07CF8002812D1607C0A
:1028300000280FD1207CC0070BD06169E068012718
:10284000401A4FF0020A04F12C0B854200D90546CC
:1028500095E0072009B0BDE8F08F049A616990897E
:10286000B1FBF0F300FB1313002B69D1B1FBF0F6C1
:102870005089401E064011D129B1A06A28B12046D6
:10288000FEF7A4FE05E0A06803E02046A16900F081
:10289000C5FA02281DD3411C4DD0A061A16904983E
:1028A000FEF7A7FEA8B13044009004988189B5FBDB
:1028B000F1F1059131B3721841898A4201D9891B1E
:1028C000059140784146059B009AFFF771FB90BB4C
:1028D00003E084F811A00220BCE7207C00060CD5A0
:1028E000E1690098081A0599884206D204998A89F4
:1028F000594600FB0280FDF737FC0498868905984D
:10290000464332E0E26900998A4217D0217C0906E9
:1029100009D5407801235946FFF770FB58B9207C50
:1029200000F07F0020740498012359464078009AF3
:10293000FFF73EFB10B1677401208BE70098E06160
:10294000049861698089B1FBF0F200FB1212861ACB
:10295000AE4200D92E46B1FBF0F200FB1210011975
:10296000324640462C31FDF7FFFBD9F80000AD1B85
:102970008119C9F800106069B04430446061002DCD
:102980007FF46BAF002065E7F8B50446694600F0B8
:10299000C8FF00280ED1217C4A060BD508060ED5AB
:1029A0000098E2690123407804F12C01FFF726FB2F
:1029B00008B10120F8BD207C00F07F00207400F0F9
:1029C000A1FA0646216A009800F034FE0028F1D1F1
:1029D000656A2946E87A40F02000E872A26820681B
:1029E00000F00DFF05F11C00E16800F01CFF31460E
:1029F00005F1160000F017FF002105F1120000F0AC
:102A00001AFF00980121C17000F026FF217C01F01F
:102A1000BF012174F8BD2DE9F04F884689B000212F
:102A2000196099461546044606A900F07AFF002869
:102A300006D1607C002803D1207C800703D40720C6
:102A400009B0BDE8F08F6069012742194FF0020A12
:102A500004F12C0B824200D2C543ACE0069A6169B6
:102A60009089B1FBF0F300FB1313002B79D1B1FB7C
:102A7000F0F65089401E064018D129B1A06A38B13D
:102A80002046FEF7A3FD07E0A06838B9002100E06A
:102A9000A1692046FEF7FAFD00287DD001282FD03D
:102AA000411C58D0A061A16801B9A060207C00063B
:102AB0000BD50698E269012340785946FFF79EFA44
:102AC000C0BB207C00F07F002074A1690698FEF74F
:102AD00090FDA8B13044009006988189B5FBF1F1D2
:102AE000029141B3721841898A4201D9891B02912E
:102AF00040784146029B009AFFF780FAD0B903E084
:102B000084F811A002209BE7E1690098081A029955
:102B100088420AD206998A8900FB02815846FDF74D
:102B200023FB207C00F07F002074069886890298A1
:102B300046432FE00FE0FFE7E26900998A420ED09A
:102B4000E268616991420AD2407801235946009AAD
:102B5000FFF72EFA18B16774012071E701E00098C1
:102B6000E061069861698089B1FBF0F200FB121206
:102B7000861AAE4200D92E46B1FBF0F200FB1210CD
:102B80002044324641462C30FDF7EEFA207C40F0DE
:102B900080002074AD1B00E010E0D9F80000B044C4
:102BA0008119C9F80010606930446061E1688842A9
:102BB00000D80846E060002D7FF450AF207C40F044
:102BC0004000207400203BE7F0B502460020802A38
:102BD00001D21046F0BDB1F56A7FFBD10C4E002347
:102BE00045F220551024E91A03EB510136F8217003
:102BF000974206D001D20B4600E00D46641EF2D18A
:102C0000F0BD002CFCD006EB81004088F0BD000038
:102C1000288E0108F0B50023802801D283B21DE080
:102C2000B0F5803F1AD2B1F56A7F17D10C4D002163
:102C300086B245F220541022601A01EB500035F89C
:102C40002070B74206D001D2014600E00446521E71
:102C5000F2D103E012B105EB800043881846F0BDC5
:102C6000A439000830B5B0F5803F1FD280B2B0F56E
:102C7000805F01D21B4900E01B4931F8022B002A7A
:102C800014D0904212D331F8024B230AE4B2151942
:102C9000854221D9092B09D2DFE803F005090E107E
:102CA000121416181A00801A31F8100030BD811A5B
:102CB00001F00101401A0DE010380BE0203809E066
:102CC000303807E01A3805E0083003E0503801E0FA
:102CD000A0F5E35080B230BD002BCED101EB440112
:102CE000CBE70000ACE202089EE4020873B504469C
:102CF0000568019801E0401C019001782F29FAD065
:102D00005C29F8D00020A06001980078202807D224
:102D1000802084F82B0000212046FFF7D5F87CBDE9
:102D200001A92046FEF720FD0028F8D12046FEF735
:102D300017FF94F82B1028B10428F0D14907EED4DE
:102D400005207CBD4907FCD4A079C006F8D5A98927
:102D50002069B0FBF1F201FB12004119284638311D
:102D600000F0F0F8A060DBE713B54FF47A730122AE
:102D700069460248FDF796FF00981CBDB434002058
:102D80002DE9FC4106460868306048687060088993
:102D90003081887AB072052B11D91F4C0CE00021CC
:102DA000921C1D46034665F35F034008DD0300D512
:102DB0006340491C1029F4D310880028EFD1072460
:102DC0004FEA0D0503F00F001B093030392800D9F8
:102DD000C01D2855641E01D0002BF3D17E2028553C
:102DE0000027A4F1010806E0FEF786FE10B1474572
:102DF00006D07F1C7F1CA74202D2F05D2028F3D1B1
:102E0000082C02D2285D641C00E02020F0557F1CB5
:102E1000082FF5D3BDE8FC81211001002DE9F04118
:102E200004680D4602290BD3E069A84208D920782E
:102E30004FF0FF36012807D0022834D0032849D0AC
:102E400001263046BDE8F081A08905EB5507B7FBA8
:102E5000F0F0A16A0144204600F0ECFB0028F0D11C
:102E6000A089B7FBF0F100FB11717F1CB7FBF0F0FC
:102E7000214491F83880A16A0144204600F0DAFB31
:102E80000028DED1A089B7FBF0F100FB11702044CF
:102E900090F8381048EA0120E90701D00609D0E788
:102EA000C0F30B06CDE7A089A16A4008B5FBF0F09E
:102EB0000144204600F0BEFB0028C2D1A189680071
:102EC000B0FBF1F201FB12002044383000F058F85A
:102ED0000646B6E7A089A16A8008B5FBF0F0014478
:102EE000204600F0A7FB0028ABD1A189A800B0FBC9
:102EF000F1F201FB12002044383000F036F820F0E7
:102F000070469EE7004870472108215210B50446DC
:102F10004FF0FF3021680A0011D000BF11F8013BCB
:102F2000202B0DD33A2BF9D11378303B092B06D83F
:102F3000921C8A4203D1022B01DA1846216010BD8F
:102F4000002010BD70B506460D4601F11A0000F0D4
:102F500017F804463078032805D105F1140000F075
:102F60000FF844EA0044204670BDC178827842EAF6
:102F700001214278007842EA012140EA01207047AD
:102F80004178007840EA012070470000FDF772FAAE
:102F9000FEF7D1F8FDF7D4FE594D4FF02009C5F8E2
:102FA000009001262E6070042860FDF743F955A0BB
:102FB000FEF798F901225FA15F48FFF725FB5F4C00
:102FC0000227014620704FF400180D2808D0002970
:102FD0002AD05BA0FEF786F96348FEF783F9FEE787
:102FE00062A0FEF77FF94FF480536B4A002151A095
:102FF000FFF730F8207038B1C5F800802E602F60E0
:1030000066A0FEF76FF9FEE76AA0FEF76BF90122F2
:1030100048A10020FFF7F8FA2070012245A1464898
:10302000FFF7F2FA207002E06AA0FEF75BF973A0E6
:10303000FEF758F90A227CA18148FFF709FB2070AE
:10304000002821D0C5F800802E602F607DA0FEF7FB
:1030500049F983A0FEF746F9012273A17848FFF7EA
:10306000F7FA207000282BD0C5F800802E602F6062
:1030700085A0FEF737F97248FEF7DDFF01222DA18A
:103080000020FFF7C1FAFEE785A0FEF72BF92B4BD6
:1030900021221B1D191D6A48FFF7BDFC207001008D
:1030A00006D08FA0FEF71EF96548FEF7C4FFD0E7F3
:1030B00092A06168FEF716F9204999A00831F1E75E
:1030C000C5F800904FF4803028602F609BA0FEF779
:1030D00009F91A4B4FF480621B1D9D495848FFF7B0
:1030E00098FB2070010004D09AA000BFFEF7FAF808
:1030F000C1E79EA06168FEF7F5F89549A4A0F5E741
:10310000100C01402A2A2A2A2A2A20D5E2CAC7D22C
:10311000BBB8F653504920464C41534820CEC4BC5E
:10312000FECFB5CDB3CAB5D1E9202A2A2A2A2A2A48
:103130000D0A0000313A0000501400200000002069
:10314000A3A1A3A1CDE2B2BF464C415348B9D2D40A
:10315000D8CEC4BCFECFB5CDB3CAA7B0DCA1A328DE
:103160002564290D0A00000074E50208A1B7464C49
:10317000415348BBB9C3BBD3D0CEC4BCFECFB5CD41
:10318000B3A3ACBCB4BDABBDF8D0D0B8F1CABDBB25
:10319000AF2E2E2E2E0D0A0050040020A1B6A1B68F
:1031A00020B8F1CABDBBAFCAA7B0DC20A1B7A1B798
:1031B0000D0A0000A1B7464C415348D2D1B3C9B95A
:1031C000A6B8F1CABDBBAFCEC4BCFECFB5CDB30D62
:1031D0000A000000A1B7CEC4BCFECFB5CDB3B9D2B2
:1031E000D4D8B3C9B9A6A3ACBFC9D2D4BDF8D0D086
:1031F000B6C1D0B4B2E2CAD4200D0A000D0A202A0A
:103200002A2A2A2A2A20BCB4BDABBDF8D0D0CEC40D
:10321000BCFED0B4C8EBB2E2CAD42E2E2E202A2A8D
:103220002A2A2A2A200D0A00313A4661744673B6CA
:10323000C1D0B4B2E2CAD4CEC4BCFE2E747874003D
:1032400088240020A3A1A3A1B4F2BFAA2FB4B4BDC7
:10325000A8CEC4BCFECAA7B0DCA1A30D0A00000022
:103260002A2A2A2A2A2A20BCB4BDABBDF8D0D0CE47
:10327000C4BCFEB6C1C8A1B2E2CAD42E2E2E202AEA
:103280002A2A2A2A2A0D0A00A3A1A3A1B4F2BFAABE
:10329000CEC4BCFECAA7B0DCA1A30D0A000000008A
:1032A000A1B7B4F2BFAA2FB4B4BDA84661744673E7
:1032B000B6C1D0B4B2E2CAD4CEC4BCFE2C74787409
:1032C000CEC4BCFEB3C9B9A6A3ACCFF2CEC4BCFE7B
:1032D000D0B4C8EBCAFDBEDDA1A30D0A00000000FA
:1032E000A3A1A3A1CEC4BCFED0B4C8EBCAFDBEDD71
:1032F000CAA7B0DCA3BA25640D0A0000A1B7CEC4EA
:10330000BCFED0B4C8EBB3C9B9A6A3ACD0B4C8EB6B
:10331000D7D6BDDACAFDBEDDA3BA25640D0A00000A
:10332000A1B7CFF2CEC4BCFED0B4C8EBCAFDBEDD9F
:10333000CEAA0D0A25730D0A00000000A1B7B4F251
:10334000BFAACEC4BCFEB3C9B9A60D0A00000000D6
:1033500050000020A3A1A3A1CEC4BCFEB6C1C8A149
:10336000CAA7B0DC3A25640D0A000000A1B7CEC49C
:10337000BCFEB6C1C8A1B3C9B9A6A3ACB6C1B5BDA0
:10338000D7D6BDDACAFDBEDD3A25640D0A000000BD
:10339000A1B7B6C1C8A1B5C3B5C4CEC4BCFECAFDF1
:1033A000BEDDCEAA3A0D0A25730D0A002DE9FF41B4
:1033B000002790460E460F60FFF7A8FD050003D5D5
:1033C0000B2004B0BDE8F081954850F825409CB131
:1033D0003460207808F0FE0620B16078FEF7FEFD2C
:1033E000C1070BD02770E8B2B8466070FEF7B3FD96
:1033F000C10708D00320E4E70C20E2E70EB1400744
:1034000004D40020DDE71EB1400701D50A20D8E72B
:10341000607804F10C020221FEF7B3FDD8BBA0894D
:10342000A0F50071B1F5606F36D8411E084233D166
:1034300000212046FEF762F802281AD100256E46C8
:1034400004EB051000F5FF70FFF78FFD46F825002F
:103450006D1C042DF4D3002556F8251029B1204603
:10346000FEF74CF8022801D203E003206D1C042D66
:10347000F2D3042810D002287ED204F14300676BF7
:10348000FFF77EFDA189884276D104F14E00FFF757
:1034900077FD18B106E0FFE7012092E704F15C0038
:1034A000FFF763FD206294F84860A670012E01D0FA
:1034B000022E61D1464394F845006081F0B3411E6D
:1034C000084259D104F14900FFF75AFD2081A18932
:1034D0004909B0FBF1F201FB120078BB04F14B008B
:1034E000FFF74EFD050004D104F15800FFF73DFD44
:1034F000054604F14600FFF743FD01003CD0A089DA
:1035000023894009B3FBF0F08A190244954233D372
:10351000A81A6589B0FBF5F080B1DFF808C1002575
:10352000604500D803254FF6F57C604500D802259C
:1035300040F6F57C604502D8012501E01CE0DDB1D4
:10354000801C3A4422633944E061C4E90971032DC7
:1035500014D08BB13144E162022D20D000F0010182
:1035600000EB400001EB5000A189401E0844B0FB75
:10357000F1F0216A884214D90D2022E704F162009B
:10358000FFF7FEFC0028F7D120890028F4D104F1D0
:103590006400FFF7EAFCE062E0698000E4E74000D5
:1035A000E2E74FF0FF30A061606180202071032DC1
:1035B0002CD104F16800FFF7E3FC012826D1791C27
:1035C000204600F037F808BB84F8048004F2362067
:1035D000FFF7D6FCA0F52A41553917D104F1380080
:1035E000FFF7C3FC1049884210D104F50770FFF7BC
:1035F000BCFC0E49884209D104F50870FFF7B5FC00
:10360000A06104F50970FFF7B0FC60610448257003
:10361000001F0188491C0180E18005482061F0E617
:1036200040000020F5FFFF0F52526141727241616C
:103630005435002070B50446406B0D460026A84264
:103640000FD0204600F04AF906000AD16078012325
:103650002A4604F13801FEF7ABFC08B1751E0126BD
:103660006563304670BD2DE9F047022617460D46CA
:10367000044602297DD3E069A8427AD920784FF028
:103680000109012804D0022840D003287AD154E04F
:10369000A18905EB5508B8FBF1F0A16A0144204669
:1036A000FFF7C8FF06006DD1A189B8FBF1F201FB5D
:1036B00012802044383008F10108E90704D001786D
:1036C000FAB262F31F1100E03946017084F80390EA
:1036D000A189B8FBF1F0A16A01442046FFF7AAFFD7
:1036E00006004FD1A189B8FBF1F201FB1280204402
:1036F0003830E90702D0C7F3071105E00178C7F3B6
:10370000032201F0F0011143017039E0A089A16AA0
:103710004008B5FBF0F001442046FFF78BFF0600A0
:1037200030D1A1896800B0FBF1F201FB1200204406
:10373000B9B2383000F07FF822E0A089A16A800891
:10374000B5FBF0F001442046FFF774FF060019D1E5
:10375000A089AD00B5FBF0F100FB115020443830DA
:10376000FFF703FC67F31B000146A089B5FBF0F2ED
:1037700000E007E000FB12502044383000F053F81E
:1037800084F803903046BDE8F0872DE9F0410568E4
:1037900013460E46074602292DD3E869B0422AD9BE
:1037A0003BB14FF0FF3219462846FFF75CFF002877
:1037B0001FD131463846FFF731FB040018D0012CE9
:1037C00019D0601C19D0002231462846FFF74BFF64
:1037D00000280ED1D5E90610821E914205D2491C5F
:1037E000A961297941F0010129712646B042E0D84A
:1037F0000020BDE8F0810220FBE70120F9E770B569
:103800000C460646154691B204F11A0000F013F872
:103810003078032806D1290C04F11400BDE870406B
:1038200000F009B870BD0170090A4170090A817081
:10383000090AC17070470170090A4170704701465A
:1038400000200B22430803EBC01011F8013B521E6D
:103850001844C0B2F6D1704770B5044600F03EF887
:10386000050035D1207803282BD12079012828D1D3
:10387000010304F138000646FCF78FFC4AF6552197
:1038800004F23620FFF7D7FF12493046FFF7CBFF8F
:10389000114904F50770FFF7C6FF04F50870A16928
:1038A000FFF7C1FF04F509706169FFF7BCFF626AA9
:1038B0000123521C626360783146FEF79FFB0020B3
:1038C0002071002260781146FEF75BFB00B10125F4
:1038D000284670BD525261417272416170B5044612
:1038E000C078002548B104F13801607801230E4604
:1038F000626BFEF783FB10B10125284670BD0020E6
:10390000E070616BA06A0A1A206A8242F5D2A2783E
:10391000022AF2D10A18607801233146FEF76EFBC5
:10392000EBE770B50E4604004FF009050CD0206897
:1039300050B1017841B1A188C288914204D1407848
:10394000FEF74CFBC00703D000203060284670BD56
:1039500000252068F9E701020203040506070809AB
:103960000A0B0C0D0E0F101001030507090E1012A3
:103970001416181C1E000100040010004000000175
:1039800000020000010002000400080010002000F6
:103990000000000007000000000000000000000020
:1039A00000000000A400E8A1A700ECA1A800A7A1C6
:1039B000B000E3A1B100C0A1B700A4A1D700C1A18C
:1039C000E000A4A8E100A2A8E800A8A8E900A6A831
:1039D000EA00BAA8EC00ACA8ED00AAA8F200B0A8D2
:1039E000F300AEA8F700C2A1F900B4A8FA00B2A88B
:1039F000FC00B9A80101A1A81301A5A81B01A7A853
:103A00002B01A9A84401BDA84801BEA84D01ADA83D
:103A10006B01B1A8CE01A3A8D001ABA8D201AFA879
:103A2000D401B3A8D601B5A8D801B6A8DA01B7A8C1
:103A3000DC01B8A85102BBA86102C0A8C702A6A1B8
:103A4000C902A5A1CA0240A8CB0241A8D90242A836
:103A50009103A1A69203A2A69303A3A69403A4A6EE
:103A60009503A5A69603A6A69703A7A69803A8A6BE
:103A70009903A9A69A03AAA69B03ABA69C03ACA68E
:103A80009D03ADA69E03AEA69F03AFA6A003B0A65E
:103A9000A103B1A6A303B2A6A403B3A6A503B4A62B
:103AA000A603B5A6A703B6A6A803B7A6A903B8A6FA
:103AB000B103C1A6B203C2A6B303C3A6B403C4A68E
:103AC000B503C5A6B603C6A6B703C7A6B803C8A65E
:103AD000B903C9A6BA03CAA6BB03CBA6BC03CCA62E
:103AE000BD03CDA6BE03CEA6BF03CFA6C003D0A6FE
:103AF000C103D1A6C303D2A6C403D3A6C503D4A6CB
:103B0000C603D5A6C703D6A6C803D7A6C903D8A699
:103B10000104A7A71004A1A71104A2A71204A3A738
:103B20001304A4A71404A5A71504A6A71604A8A700
:103B30001704A9A71804AAA71904ABA71A04ACA7CD
:103B40001B04ADA71C04AEA71D04AFA71E04B0A79D
:103B50001F04B1A72004B2A72104B3A72204B4A76D
:103B60002304B5A72404B6A72504B7A72604B8A73D
:103B70002704B9A72804BAA72904BBA72A04BCA70D
:103B80002B04BDA72C04BEA72D04BFA72E04C0A7DD
:103B90002F04C1A73004D1A73104D2A73204D3A780
:103BA0003304D4A73404D5A73504D6A73604D8A740
:103BB0003704D9A73804DAA73904DBA73A04DCA70D
:103BC0003B04DDA73C04DEA73D04DFA73E04E0A7DD
:103BD0003F04E1A74004E2A74104E3A74204E4A7AD
:103BE0004304E5A74404E6A74504E7A74604E8A77D
:103BF0004704E9A74804EAA74904EBA74A04ECA74D
:103C00004B04EDA74C04EEA74D04EFA74E04F0A71C
:103C10004F04F1A75104D7A710205CA9132043A893
:103C20001420AAA1152044A81620ACA11820AEA1EA
:103C30001920AFA11C20B0A11D20B1A1252045A8AD
:103C40002620ADA13020EBA13220E4A13320E5A154
:103C5000352046A83B20F9A1AC2080000321E6A135
:103C6000052147A8092148A81621EDA1212159A91C
:103C70006021F1A26121F2A26221F3A26321F4A2E8
:103C80006421F5A26521F6A26621F7A26721F8A2B8
:103C90006821F9A26921FAA26A21FBA26B21FCA288
:103CA0007021A1A27121A2A27221A3A27321A4A2B8
:103CB0007421A5A27521A6A27621A7A27721A8A288
:103CC0007821A9A27921AAA29021FBA19121FCA18E
:103CD0009221FAA19321FDA1962149A897214AA8F2
:103CE00098214BA899214CA80822CAA10F22C7A14C
:103CF0001122C6A115224DA81A22CCA11D22D8A19D
:103D00001E22DEA11F224EA82022CFA123224FA8CF
:103D10002522CEA12722C4A12822C5A12922C9A1DA
:103D20002A22C8A12B22D2A12E22D3A13422E0A183
:103D30003522DFA13622C3A13722CBA13D22D7A154
:103D40004822D6A14C22D5A1522250A86022D9A146
:103D50006122D4A16422DCA16522DDA1662251A8E2
:103D6000672252A86E22DAA16F22DBA1952292A8C7
:103D70009922D1A1A522CDA1BF2253A81223D0A15F
:103D80006024D9A26124DAA26224DBA26324DCA22B
:103D90006424DDA26524DEA26624DFA26724E0A2FB
:103DA0006824E1A26924E2A27424C5A27524C6A2F3
:103DB0007624C7A27724C8A27824C9A27924CAA2EB
:103DC0007A24CBA27B24CCA27C24CDA27D24CEA2BB
:103DD0007E24CFA27F24D0A28024D1A28124D2A28B
:103DE0008224D3A28324D4A28424D5A28524D6A25B
:103DF0008624D7A28724D8A28824B1A28924B2A27B
:103E00008A24B3A28B24B4A28C24B5A28D24B6A29A
:103E10008E24B7A28F24B8A29024B9A29124BAA26A
:103E20009224BBA29324BCA29424BDA29524BEA23A
:103E30009624BFA29724C0A29824C1A29924C2A20A
:103E40009A24C3A29B24C4A20025A4A90125A5A944
:103E50000225A6A90325A7A90425A8A90525A9A97E
:103E60000625AAA90725ABA90825ACA90925ADA94E
:103E70000A25AEA90B25AFA90C25B0A90D25B1A91E
:103E80000E25B2A90F25B3A91025B4A91125B5A9EE
:103E90001225B6A91325B7A91425B8A91525B9A9BE
:103EA0001625BAA91725BBA91825BCA91925BDA98E
:103EB0001A25BEA91B25BFA91C25C0A91D25C1A95E
:103EC0001E25C2A91F25C3A92025C4A92125C5A92E
:103ED0002225C6A92325C7A92425C8A92525C9A9FE
:103EE0002625CAA92725CBA92825CCA92925CDA9CE
:103EF0002A25CEA92B25CFA92C25D0A92D25D1A99E
:103F00002E25D2A92F25D3A93025D4A93125D5A96D
:103F10003225D6A93325D7A93425D8A93525D9A93D
:103F20003625DAA93725DBA93825DCA93925DDA90D
:103F30003A25DEA93B25DFA93C25E0A93D25E1A9DD
:103F40003E25E2A93F25E3A94025E4A94125E5A9AD
:103F50004225E6A94325E7A94425E8A94525E9A97D
:103F60004625EAA94725EBA94825ECA94925EDA94D
:103F70004A25EEA94B25EFA9502554A8512555A84F
:103F8000522556A8532557A8542558A8552559A851
:103F900056255AA857255BA858255CA859255DA821
:103FA0005A255EA85B255FA85C2560A85D2561A8F1
:103FB0005E2562A85F2563A8602564A8612565A8C1
:103FC000622566A8632567A8642568A8652569A891
:103FD00066256AA867256BA868256CA869256DA861
:103FE0006A256EA86B256FA86C2570A86D2571A831
:103FF0006E2572A86F2573A8702574A8712575A801
:10400000722576A8732577A8812578A8822579A8B6
:1040100083257AA884257BA885257CA886257DA86C
:1040200087257EA8882580A8892581A88A2582A839
:104030008B2583A88C2584A88D2585A88E2586A808
:104040008F2587A8932588A8942589A895258AA8CF
:10405000A025F6A1A125F5A1B225F8A1B325F7A1C8
:10406000BC258BA8BD258CA8C625F4A1C725F3A126
:10407000CB25F0A1CE25F2A1CF25F1A1E2258DA877
:10408000E3258EA8E4258FA8E52590A80526EFA1B5
:104090000626EEA1092691A84026E2A14226E1A12A
:1040A0000030A1A10130A2A10230A3A10330A8A138
:1040B0000530A9A1063065A9073096A90830B4A13A
:1040C0000930B5A10A30B6A10B30B7A10C30B8A1A8
:1040D0000D30B9A10E30BAA10F30BBA11030BEA176
:1040E0001130BFA1123093A81330FEA11430B2A139
:1040F0001530B3A11630BCA11730BDA11D3094A856
:104100001E3095A8213040A9223041A9233042A970
:10411000243043A9253044A9263045A9273046A993
:10412000283047A9293048A94130A1A44230A2A48F
:104130004330A3A44430A4A44530A5A44630A6A48B
:104140004730A7A44830A8A44930A9A44A30AAA45B
:104150004B30ABA44C30ACA44D30ADA44E30AEA42B
:104160004F30AFA45030B0A45130B1A45230B2A4FB
:104170005330B3A45430B4A45530B5A45630B6A4CB
:104180005730B7A45830B8A45930B9A45A30BAA49B
:104190005B30BBA45C30BCA45D30BDA45E30BEA46B
:1041A0005F30BFA46030C0A46130C1A46230C2A43B
:1041B0006330C3A46430C4A46530C5A46630C6A40B
:1041C0006730C7A46830C8A46930C9A46A30CAA4DB
:1041D0006B30CBA46C30CCA46D30CDA46E30CEA4AB
:1041E0006F30CFA47030D0A47130D1A47230D2A47B
:1041F0007330D3A47430D4A47530D5A47630D6A44B
:104200007730D7A47830D8A47930D9A47A30DAA41A
:104210007B30DBA47C30DCA47D30DDA47E30DEA4EA
:104220007F30DFA48030E0A48130E1A48230E2A4BA
:104230008330E3A48430E4A48530E5A48630E6A48A
:104240008730E7A48830E8A48930E9A48A30EAA45A
:104250008B30EBA48C30ECA48D30EDA48E30EEA42A
:104260008F30EFA49030F0A49130F1A49230F2A4FA
:104270009330F3A49B3061A99C3062A99D3066A95C
:104280009E3067A9A130A1A5A230A2A5A330A3A505
:10429000A430A4A5A530A5A5A630A6A5A730A7A59E
:1042A000A830A8A5A930A9A5AA30AAA5AB30ABA56E
:1042B000AC30ACA5AD30ADA5AE30AEA5AF30AFA53E
:1042C000B030B0A5B130B1A5B230B2A5B330B3A50E
:1042D000B430B4A5B530B5A5B630B6A5B730B7A5DE
:1042E000B830B8A5B930B9A5BA30BAA5BB30BBA5AE
:1042F000BC30BCA5BD30BDA5BE30BEA5BF30BFA57E
:10430000C030C0A5C130C1A5C230C2A5C330C3A54D
:10431000C430C4A5C530C5A5C630C6A5C730C7A51D
:10432000C830C8A5C930C9A5CA30CAA5CB30CBA5ED
:10433000CC30CCA5CD30CDA5CE30CEA5CF30CFA5BD
:10434000D030D0A5D130D1A5D230D2A5D330D3A58D
:10435000D430D4A5D530D5A5D630D6A5D730D7A55D
:10436000D830D8A5D930D9A5DA30DAA5DB30DBA52D
:10437000DC30DCA5DD30DDA5DE30DEA5DF30DFA5FD
:10438000E030E0A5E130E1A5E230E2A5E330E3A5CD
:10439000E430E4A5E530E5A5E630E6A5E730E7A59D
:1043A000E830E8A5E930E9A5EA30EAA5EB30EBA56D
:1043B000EC30ECA5ED30EDA5EE30EEA5EF30EFA53D
:1043C000F030F0A5F130F1A5F230F2A5F330F3A50D
:1043D000F430F4A5F530F5A5F630F6A5FC3060A96B
:1043E000FD3063A9FE3064A90531C5A80631C6A811
:1043F0000731C7A80831C8A80931C9A80A31CAA815
:104400000B31CBA80C31CCA80D31CDA80E31CEA8E4
:104410000F31CFA81031D0A81131D1A81231D2A8B4
:104420001331D3A81431D4A81531D5A81631D6A884
:104430001731D7A81831D8A81931D9A81A31DAA854
:104440001B31DBA81C31DCA81D31DDA81E31DEA824
:104450001F31DFA82031E0A82131E1A82231E2A8F4
:104460002331E3A82431E4A82531E5A82631E6A8C4
:104470002731E7A82831E8A82931E9A82032E5A2A8
:104480002132E6A22232E7A22332E8A22432E9A2B4
:104490002532EAA22632EBA22732ECA22832EDA284
:1044A0002932EEA231325AA9A33249A98E334AA940
:1044B0008F334BA99C334CA99D334DA99E334EA9F4
:1044C000A1334FA9C43350A9CE3351A9D13352A936
:1044D000D23353A9D53354A9004EBBD2014EA1B655
:1044E000024E4081034EDFC6044E4181054E42819B
:1044F000064E4381074EF2CD084EC9D5094EFDC880
:104500000A4ECFC90B4EC2CF0C4EA2D80D4EBBB235
:104510000E4EEBD30F4E4481104EA4D8114EF3B380
:10452000124E4581134EA8D7144ED2C7154EA7D8A8
:10453000164EC0CA174E4681184EF0C7194EFBB131
:104540001A4EB5D21B4ED4B41C4EABB61D4EBFCBCB
:104550001E4EA9D81F4E4781204E4881214E4981C9
:10456000224EAAB6234E4A81244EBDC1254ECFD13C
:10457000264E4B81274EA5C9284EADD8294E4C81D9
:104580002A4EF6B82B4EBED12C4EDCE32D4ED0D6A3
:104590002E4E4D812F4E4E81304EE1B7314E4F8120
:1045A000324EAEB4334E5081344ED9C1354E518166
:1045B000364EBCD8374E5281384EE8CD394EA4B570
:1045C0003A4EAACE3B4EF7D63C4E53813D4EF6C0F6
:1045D0003E4ED9BE3F4EAFD8404E5481414E5581DC
:1045E000424E5681434ECBC4444E5781454EC3BEC6
:1045F000464E5881474EB1D8484EB4C3494EE5D2D5
:104600004A4E59814B4EAED64C4EDACE4D4EA7D5C2
:104610004E4EF5BA4F4EA6B7504ED6C0514E5A81A7
:10462000524EB9C6534ED2C5544EC7C7554E5B8184
:10463000564ED4B9574E5C81584ECBB3594ED2D258
:104640005A4E5D815B4E5E815C4EBFD85D4EC5BEED
:104650005E4EF2C65F4EB2D2604EB0CF614EE7CF33
:10466000624E5F81634E6081644E6181654E6281FE
:10467000664EE9CA674E6381684E6481694EC0D850
:104680006A4E65816B4E66816C4E67816D4E6881A6
:104690006E4E69816F4E6A81704EF2C2714ED2C207
:1046A000724E6B81734EE9C8744E6C81754E6D818C
:1046B000764E6E81774E6F81784E7081794E718122
:1046C0007A4E72817B4E73817C4E74817D4E7581F2
:1046D0007E4EACC77F4E7681804E7781814E788149
:1046E000824E7981834E7A81844E7B81854E7C8196
:1046F000864ECBC1874E7D81884EE8D3894EF9D551
:104700008A4E7E818B4EC2CA8C4EFEB68D4EA1D88B
:104710008E4EDAD38F4EF7BF904E8081914EC6D425
:10472000924EA5BB934EC1D8944EE5CE954EAEBEEB
:10473000964E8181974E8281984EA8D8994E83815A
:104740009A4EC7D19B4EA9D09C4E84819D4E8581A7
:104750009E4E86819F4EBDD8A04EEFD9A14EF6CD7C
:10476000A24EBABFA34E8781A44EBBBDA54EA5BA2B
:10477000A64EE0D2A74EFAB2A84EE0BAA94EB6C4F1
:10478000AA4E8881AB4EEDCFAC4EA9BEAD4EA4CDA6
:10479000AE4EC1C1AF4E8981B04E8A81B14E8B8180
:1047A000B24ED7C7B34EF1D9B44E8C81B54EF4D9C1
:1047B000B64E8D81B74E8E81B84E8F81B94E9081A5
:1047C000BA4ECBC8BB4EE9D8BC4E9181BD4E92814A
:1047D000BE4E9381BF4EDAD2C04EB2CAC14ECAC8D5
:1047E000C24EECD8C34EEAD8C44EC6D8C54EF6BDAC
:1047F000C64ECDC6C74EF0B3C84E9481C94EEBD855
:10480000CA4EF1BDCB4EE9BDCC4E9581CD4ED4C83C
:10481000CE4ED3B4CF4E9681D04E9781D14ED8C2D2
:10482000D24E9881D34ED6B2D44ED0D7D54ECBCA25
:10483000D64EFBCBD74ECCD5D84EB6B8D94EC9CF75
:10484000DA4E9981DB4E9A81DC4E9B81DD4EDAD9BE
:10485000DE4EF0D8DF4EAAC7E04E9C81E14EEED886
:10486000E24E9D81E34EFAB4E44EEEC1E54ED4D261
:10487000E64E9E81E74E9F81E84EEDD8E94EA0813D
:10488000EA4EC7D2EB4EEFD8EC4EC7C3ED4EA18136
:10489000EE4EA281EF4EA381F04EF6D1F14EA481EF
:1048A000F24ED9D6F34EF2D8F44EA581F54EF5D896
:1048B000F64EFEBCF74EDBBCF84EA681F94EA78142
:1048C000FA4EA881FB4ECEC8FC4EA981FD4EDDB745
:1048D000FE4EAA81FF4EC2B7004FAB81014FF3C617
:1048E000024FAC81034FAD81044FAE81054FAF81C4
:1048F000064FB081074FB181084FB281094FF8D8F8
:104900000A4FC1D20B4FB3810C4FB4810D4FE9CE8A
:104910000E4FBFBC0F4FFCB7104FA5B7114FDDD0E6
:10492000124FB581134FB681144FB781154FB8811F
:10493000164FB981174FDAD6184FC5D3194FEFBBB1
:104940001A4FE1BB1B4FF1D81C4FBA811D4FBB81E1
:104950001E4FA1C91F4FB0CE204FABB4214FBC8119
:10496000224FF3D8234FBD81244FCBC9254FF6D812
:10497000264FD7C2274FF7D8284FBE81294FBF8176
:104980002A4FB1CE2B4FF9D82C4FC0812D4FC1816A
:104990002E4FC2812F4FAEB2304FC0B9314FC381BD
:1049A000324FA3D9334FC481344FE9B0354FC5815D
:1049B000364FE6C1374FC681384FECC9394FC781F2
:1049C0003A4FC5CB3B4FC8813C4FC6CB3D4FA4D9D6
:1049D0003E4FC9813F4FCA81404FCB81414FCC816F
:1049E000424FCD81434FE8B5444FCE81454FCF81F3
:1049F000464FABB5474FD081484FD181494FD28107
:104A00004A4FD3814B4FD4814C4FD5814D4FBBCEB4
:104A10004E4FCDB54F4FA1D7504FF4D7514FD3D3B1
:104A2000524FD681534FE5CC544FD781554FCEBA14
:104A3000564FD881574FA2D9584FDCD9594FE0D3A0
:104A40005A4FFDD85B4FF0B75C4FF7D75D4FFED89C
:104A50005E4FFAD85F4FA1D9604FE3C4614FD9814F
:104A6000624FDA81634FB6D3644FF4D8654FDDD916
:104A7000664FDB81674FFBD8684FDC81694FE5C526
:104A80006A4FDD816B4FDE816C4FD0C06D4FDF818F
:104A90006E4FE0816F4FF0D1704FDBB0714FE1810D
:104AA000724FE281734FD1BC744FA6D9754FE38129
:104AB000764FA5D9774FE481784FE581794FE6812C
:104AC0007A4FE7817B4FACD97C4FAED97D4FE881DF
:104AD0007E4FABD97F4FB9CA804FE981814FEA81C0
:104AE000824FEB81834FA9D9844FB6D6854FEC8195
:104AF000864FED81874FEE81884FDEB3894FA8D96D
:104B00008A4FEF818B4FFDC08C4FF0818D4FCCCA07
:104B10008E4FF1818F4FAAD9904FF281914FA7D933
:104B2000924FF381934FF481944FB0D9954FF58113
:104B3000964FF681974FB1B6984FF781994FF8810C
:104B40009A4FF9819B4FA9B99C4FFA819D4FC0D2D2
:104B50009E4FFB819F4FFC81A04FC0CFA14FFD8195
:104B6000A24FFE81A34FC2C2A44F4082A54FC4BD35
:104B7000A64FECD5A74FE0B2A84FC8C7A94FEBBFCF
:104B8000AA4FADD9AB4F4182AC4FAFD9AD4F4282A6
:104B9000AE4FEACEAF4FEEBAB04F4382B14F448230
:104BA000B24F4582B34F4682B44F4782B54FD6C706
:104BB000B64F4882B74F4982B84F4A82B94F4B82AD
:104BC000BA4F4C82BB4F4D82BC4F4E82BD4F4F827D
:104BD000BE4F5082BF4FE3B1C04F5182C14F52828E
:104BE000C24F5382C34FD9B4C44FEDB6C54FB4D9E9
:104BF000C64F5482C74F5582C84F5682C94F5782FD
:104C0000CA4FA1BFCB4F5882CC4F5982CD4F5A8249
:104C1000CE4FDED9CF4FCEC7D04FFEC0D14FB8D97F
:104C2000D24F5B82D34F5C82D44F5D82D54F5E8280
:104C3000D64F5F82D74FD7CBD84FFDB7D94F6082C1
:104C4000DA4FB5D9DB4F6182DC4FB7D9DD4FA3B165
:104C5000DE4FE1D3DF4FB9D9E04F6282E14FC5D0DB
:104C6000E24F6382E34FB6D9E44F6482E54F658239
:104C7000E64FB1D9E74F6682E84FB2D9E94FA9C1F3
:104C8000EA4FB3D9EB4F6782EC4F6882ED4FF3BC2C
:104C9000EE4FDED0EF4FA9B8F04F6982F14FE3BE7F
:104CA000F24F6A82F34FBDD9F44F6B82F54F6C829D
:104CB000F64F6D82F74F6E82F84FBAD9F94F6F8277
:104CC000FA4FB3B0FB4F7082FC4F7182FD4F72827E
:104CD000FE4FC2D9FF4F738200507482015075821B
:104CE0000250768203507782045078820550798290
:104CF00006507A8207507B8208507C8209507D8260
:104D00000A507E820B5080820C50C4D90D50B6B12F
:104D10000E5081820F50BFD9105082821150838271
:104D20001250B9B5135084821450F3BE15508582C9
:104D300016508682175087821850C8CC1950F2BA84
:104D40001A50D0D21B5088821C50C3D91D50898262
:104D50001E508A821F50E8BD20508B822150ABB379
:104D600022508C8223508D8224508E822550C5D9AA
:104D70002650EBBE27508F822850C6D92950BBD968
:104D80002A50DFC42B5090822C50BED92D50C1D94F
:104D90002E50C0D92F509182305092823150938240
:104DA0003250948233509582345096823550978297
:104DB000365098823750998238509A8239509B8267
:104DC0003A50AED53B509C823C50B5D63D509D826A
:104DD0003E50E3C73F509E8240509F824150A08288
:104DE0004250A1824350C8D94450A2824550A38268
:104DF0004650A4824750D9BC4850CAD94950A582D0
:104E00004A50A6824B50A7824C50BCD94D50A88224
:104E10004E50CBD94F50ABC65050A9825150AA82A8
:104E20005250AB825350AC825450AD825550C9D9C8
:104E30005650AE825750AF825850B0825950B1820E
:104E40005A50F6D75B50B2825C50A3CD5D50B3820E
:104E50005E50B4825F50B5826050B6826150B782B6
:104E60006250B8826350B9826450BA826550A1BD65
:104E70006650BB826750BC826850BD826950BE825A
:104E80006A50BF826B50C0826C50CCD96D50C182C9
:104E90006E50C2826F50C3827050C4827150C582FE
:104EA0007250C6827350C7827450C8827550C982CE
:104EB0007650BCC57750B5CD7850CA827950CB8238
:104EC0007A50CC827B50CDD97C50CD827D50CE8221
:104ED0007E50C7D97F50A5B38050FEBF8150CF828E
:104EE0008250D0828350D1828450D2828550B5B80E
:104EF0008650D3828750D4828850FCC08950D58296
:104F00008A50D6828B50D7828C50D8828D50F8B080
:104F10008E50D9828F50DA829050DB829150DC82A1
:104F20009250DD829350DE829450DF829550E08271
:104F30009650E1829750E2829850E3829950E48241
:104F40009A50E5829B50E6829C50E7829D50E88211
:104F50009E50E9829F50EA82A050EB82A150EC82E1
:104F6000A250ED82A350F6B4A450EE82A550CED943
:104F7000A650EF82A750CFD9A850A2B4A950D0D93B
:104F8000AA50F082AB50F182AC50DFB4AD50F28247
:104F9000AE50F382AF50F482B050F582B150F68239
:104FA000B250C1B0B350F782B450F882B550F98214
:104FB000B650FA82B750FB82B850FC82B950FD82DD
:104FC000BA50D1D9BB50B5C9BC50FE82BD50408348
:104FD000BE504183BF504283C0504383C15044837D
:104FE000C2504583C3504683C4504783C55048834D
:104FF000C6504983C7504A83C8504B83C9504C831D
:10500000CA504D83CB504E83CC504F83CD505083EC
:10501000CE505183CF50F1CFD0505283D1505383D3
:10502000D2505483D3505583D4505683D550578390
:10503000D650D2D9D7505883D8505983D9505A8393
:10504000DA50C5C1DB505B83DC505C83DD505D838F
:10505000DE505E83DF505F83E0506083E150618308
:10506000E2506283E3506383E4506483E5506583D8
:10507000E650D6D9E750AEC9E8506683E950678359
:10508000EA506883EB506983EC50D5D9ED50D4D900
:10509000EE50D7D9EF506A83F0506B83F1506C8398
:1050A000F2506D83F350DBCBF4506E83F550A9BD05
:1050B000F6506F83F7507083F8507183F950728304
:1050C000FA507383FB50A7C6FC507483FD50758360
:1050D000FE507683FF5077830051788301517983A6
:1050E00002517A8303517B8304517C8305517D8374
:1050F0000651D3D90751D8D908517E8309518083ED
:105100000A5181830B51D9D90C5182830D5183836C
:105110000E5184830F5185831051868311518783EB
:105120001251E5C8135188831451898315518A831C
:1051300016518B8317518C8318518D8319518E838F
:105140001A518F831B5190831C5191831D5192835F
:105150001E5193831F519483205195832151DCC0AC
:105160002251968323519783245198832551998303
:1051700026519A8327519B8328519C8329519D83D3
:105180002A519E832B519F832C51A0832D51A183A3
:105190002E51A2832F51A3833051A4833151A58373
:1051A0003251A6833351A7833451A8833551A98343
:1051B0003651AA833751AB833851AC833951AD8313
:1051C0003A51AE833B51AF833C51B0833D51B183E3
:1051D0003E51B2833F51F9B64051A3D84151CAD490
:1051E0004251B3834351AAD44451D6D04551E4B37C
:1051F0004651D7D54751B4834851C8CF4951E2B938
:105200004A51B5834B51CBBF4C51B6834D51E2C38C
:105210004E51B7834F51B8835051B9835151D2B6D3
:105220005251BA835351BB835451C3CD5551EED91A
:105230005651F0D95751BC835851BD835951BE8343
:105240005A51B3B55B51BF835C51B5B65D51C08354
:105250005E51C1835F51C2836051C3836151C48376
:105260006251A4BE6351C5836451C6836551EBC8C6
:105270006651C7836751C8836851ABC86951C983F8
:105280006A51CA836B51CBB06C51ABB96D51F9C146
:105290006E51E2D96F51CB837051BCC07151B2B91C
:1052A0007251CC837351D8B97451CBD07551F8B1C8
:1052B0007651E4C67751DFBE7851E4B57951C8D74D
:1052C0007A51CD837B51F8D17C51E6BC7D51DECA49
:1052D0007E51CE837F51CF838051BDBC8151E6D9B1
:1052E0008251E7D88351D0838451D1838551DAC468
:1052F0008651D2838751D3838851D4B88951BDC890
:105300008A51D4838B51D5838C51E1B28D51D9D43C
:105310008E51D6838F51D7839051D8839151D983A1
:105320009251B0C39351DA839451DB839551E1C319
:105330009651A2DA9751DFC89851DC839951B4D0C5
:105340009A51DD839B51FCBE9C51A9C59D51DE83C2
:105350009E51DF839F51E083A051DAB9A151E183CF
:10536000A251A3DAA351E283A451A9D4A551A4DA8E
:10537000A651E383A751E483A851E583A951E683AD
:10538000AA51E783AB51FBD9AC51ACB6AD51E88320
:10539000AE51E983AF51EBB7B051F9B1B151FCD97E
:1053A000B251E5B3B351F6BEB451EA83B551F6BF7D
:1053B000B651B1D2B751E4C0B851EB83B951EC83C7
:1053C000BA51ED83BB51B3B6BC51FED9BD51FDD925
:1053D000BE51EE83BF51EF83C051BBBEC151F083BC
:1053E000C251F183C351F283C451E0C6C551F38366
:1053F000C651BCD7C751A1DAC851F483C951B9C14C
:10540000CA51F583CB51F2B5CC51E8C1CD51F683E9
:10541000CE51F783CF51F5BCD051F883D151D5B4DB
:10542000D251F983D351FA83D451FB83D551FC83F4
:10543000D651FD83D751FE83D8514084D951418440
:10544000DA514284DB51DDC1DC514384DD51FDC4BE
:10545000DE514484DF514584E051B8BCE151B2B71C
:10546000E2514684E3514784E451EFB7E551488463
:10547000E6514984E7514A84E8514B84E9514C8410
:10548000EA514D84EB51ECD9EC514E84ED51BEC63E
:10549000EE514F84EF51ADBFF051CBBBF151508471
:1054A000F2515184F351CAB5F4515284F551C9DB1C
:1054B000F651D7D0F7515384F851B9CDF951BCB05A
:1054C000FA51F6B3FB51F7BBFC51CADBFD51AFBA41
:1054D000FE515484FF51E4D40052B6B50152F3B5E5
:1054E0000252D6D80352D0C804525584055256846D
:1054F0000652D6B70752D0C70852D7D80952578498
:105500000A52AFBF0B5258840C5259840D52BBDB68
:105510000E52D8D80F525A8410525B841152CCD0FC
:105520001252AEBB13525C8414525D8415525E84D9
:105530001652BEEB1752D0C11852F5C11952F2D40F
:105540001A52D5B81B52B4B41C525F841D52F5B325
:105550001E5260841F5261842052BEC9215262844F
:1055600022526384235264842452D0C52552658418
:1055700026526684275267842852D9C52952FBC017
:105580002A5268842B52F0B12C5269842D52D9D8FA
:105590002E52CEB92F526A843052BDB531526B842F
:1055A00032526C843352DAD834526D8435526E8460
:1055B0003652C6D63752A2CB3852AFC83952B2C9CA
:1055C0003A52CCB43B52CCBF3C526F843D52F4B9FA
:1055D0003E5270843F52DBD84052DCD84152E7B68D
:1055E0004252C1BC4352EACC445271844552728447
:1055F0004652738447527484485275844952768463
:105600004A52F7CF4B5277844C52DDD84D52B0C737
:105610004E5278844F5279845052D0B95152A3BD22
:1056200052527A8453527B845452DECC55527C843D
:105630005652CAC657527D8458527E84595280842D
:105640005A5281845B5282845C52E0D85D528384DA
:105650005E52DED85F528484605285846152DFD806
:105660006252868463528784645288846552FEB095
:10567000665289846752E7BE68528A846952A3CA17
:105680006A52F4BC6B528B846C528C846D528D8444
:105690006E528E846F52B1B870528F847152908462
:1056A0007252EEB8735291847452928475529384FC
:1056B000765294847752958478529684795297845E
:1056C0007A5298847B5299847C529A847D52E2D893
:1056D0007E529B847F52CBBD80529C848152E4D801
:1056E0008252E3D883529D8484529E8485529F8443
:1056F0008652A0848752A1848852FCC58952A28414
:105700008A52A3848B52A4848C52A5848D52A68481
:105710008E52A7848F52A8849052E5D89152A984C2
:105720009252AA849352E6D89452AB849552AC8498
:105730009652AD849752AE849852AF849952B084F9
:105740009A52B1849B52A6C19C52B2849D52B0C859
:105750009E52ECB09F52A6B9A052D3BCA152F1CE3A
:10576000A252BDDBA352D3C1A452B384A552B484C8
:10577000A652B584A752B684A852AFB6A952FAD69B
:10578000AA52ACC5AB52D9BDAC52BEDBAD52BFDBE9
:10579000AE52B784AF52B884B052B984B152F8C097
:1057A000B252A2BEB352CDC0B452BA84B552BB8479
:1057B000B652BC84B752BD84B852BE84B952BF84BD
:1057C000BA52C084BB52C184BC52C284BD52C3848D
:1057D000BE52C0DBBF52C6CAC052C484C152C584C7
:1057E000C252C684C352AAB2C452C784C552C88426
:1057F000C652C984C752C2D3C852CA84C952E3C36D
:10580000CA52CB84CB52ABD1CC52CC84CD52CD84B6
:10581000CE52CE84CF52CF84D052C2DBD152D0846C
:10582000D252D5C0D352D184D452D284D552D3844B
:10583000D652C3DBD752D484D852B1BFD952D58403
:10584000DA52D684DB52D784DC52D884DD52D98434
:10585000DE52DA84DF52BCC4E052DB84E152DC84E5
:10586000E252DD84E352DE84E452DAC7E552DF849B
:10587000E652E084E752E184E852E284E952E384AC
:10588000EA52E484EB52E584EC52E684ED52E7847C
:10589000EE52E884EF52E984F052C4DBF152EA841C
:1058A000F252EB84F352EC84F452ED84F552EE8420
:1058B000F652EF84F752F084F852F184F952E8D9A5
:1058C000FA52D7C9FB52F284FC52F384FD52F4849D
:1058D000FE52B4B9FF52F0CE0053C8D40153F58440
:1058E0000253F6840353F7840453F8840553FCB041
:1058F0000653D2B40753F9840853D9D00953FA8414
:105900000A53FB840B53FC840C53FD840D53E9D9DB
:105910000E53FE840F53CBDE1053EBD91153408549
:105920001253418513534285145343851553B0D800
:105930001653AFBB1753B1B1185344851953D7B39E
:105940001A53CED81B5345851C5346851D53D1D4BD
:105950001E5347851F5348852053B3BD2153EFBFC6
:10596000225349852353BBCF24534A8525534B8566
:105970002653D0D827534C8528534D8529534E851F
:105980002A53CBB72B534F852C5350852D5351851C
:105990002E53D1D82F5352853053538531535485CC
:1059A000325355853353568534535785355358856F
:1059B0003653598537535A8538535B853953A5C6B5
:1059C0003A53F8C73B53BDD23C535C853D535D858C
:1059D0003E53D2D83F53E4C440535E854153AECAD0
:1059E00042535F854353A7C7445360854553A6D8A8
:1059F000465361854753FDC94853E7CE4953DCBB45
:105A00004A53EBB04B5362854C5363854D536485C9
:105A10004E53AABB4F53ADD0505365855153B0B1CF
:105A20005253E4D75353BFD7545366855553A5B546
:105A30005653F4C25753CFC458536785595368859A
:105A40005A53A9B25B5369855C53B7B25D536A85FB
:105A50005E53E5B15F53B2DF6053BCD56153A8BF5D
:105A60006253ACC26353D5D86453B1C265536B85DE
:105A70006653D4D86753D4CE68536C856953E0DA43
:105A80006A536D856B53C0CE6C536E856D536F85B5
:105A90006E53B4D86F53AEC37053A1D37153A3CE1A
:105AA000725370857353B4BC7453B4C87553D1C268
:105AB000765371857753EDBE7853B6D0795372859E
:105AC0007A53E1DA7B5373857C5374857D537585F6
:105AD0007E5376857F53E4C78053778581537885DD
