:020000040800F2
:10000000D8040020450100086B130008EB1200081B
:10001000691300085D0300080515000800000000D2
:100020000000000000000000000000006F13000846
:10003000B3030008000000006D13000871130008EE
:100040005F0100085F0100085F0100085F01000810
:100050005F0100085F0100085F0100085F01000800
:100060005F0100085F0100085F0100085F010008F0
:100070005F0100085F0100085F0100085F010008E0
:100080005F0100085F0100085F0100085F010008D0
:100090005F0100085F0100085F0100085F010008C0
:1000A0005F0100085F0100085F0100085F010008B0
:1000B0005F0100085F0100085F0100085F010008A0
:1000C0005F0100085F0100085F0100085F01000890
:1000D0005F0100085F0100085F0100085F01000880
:1000E0005F0100085F0100085F0100085F01000870
:1000F0005F0100085F0100085F0100085F01000860
:100100005F0100085F0100085F0100085F0100084F
:100110005F0100085F0100085F0100085F0100083F
:100120005F0100085F0100085F0100085F0100082F
:10013000DFF80CD000F040F800480047C518000870
:10014000D80400200648804706480047FEE7FEE73F
:10015000FEE7FEE7FEE7FEE7FEE7FEE7FEE7FEE777
:10016000D313000831010008D2B201E000F8012BDE
:10017000491EFBD270470022F6E710B513460A4627
:1001800004461946FFF7F0FF204610BD30B50B4678
:10019000014600202022012409E021FA02F59D42B7
:1001A00005D303FA02F5491B04FA02F52844151E8B
:1001B000A2F10102F1DC30BD064C074D06E0E0681B
:1001C00040F0010394E8070098471034AC42F6D39E
:1001D000FFF7B2FFC8190008E819000870B5044617
:1001E00000688168C943C90717D1816821F00101FE
:1001F000816000F099FC05460AE000BF00F094FC25
:10020000401B022804D920688068C043C00706D07C
:1002100020688068C043C007F0D0002070BDA06A8D
:1002200040F01000A062E06A40F00100E0620120AE
:1002300070BD10B50146406A826A12F0500F05D0B9
:10024000006A026BBDE8104008461047816A41F41D
:100250000071816201688968C1F3424107290CD1AC
:10026000017B51B9816A21F480718162816AC9047C
:1002700003D4816A41F00101816200F085F910BD6B
:1002800010B5406A816A41F040018162C16A41F063
:100290000401C16200F07AF910BD10B5406A00F0A7
:1002A00074F910BDF8B50026044600960068816810
:1002B000C943C9072DD0816841F00101816016480A
:1002C00016490068B0FBF1F000E0401E00900028E5
:1002D000FBD100F029FC054616E000BF00F024FC2D
:1002E000401B022810D920688068C043C0070BD08B
:1002F000A06A40F01000A062E06A40F00100E062F5
:1003000084F824600120F8BD20688068C043C007DD
:10031000E4D10020F8BD00001000002040420F0092
:100320003EB50D480B490124016000214160816008
:100330000473046101754FF46021C16100F028F974
:100340001020CDE90004052002906946024800F023
:100350009DF83EBD00240140A4000020FEE70000FF
:100360000848074901604FF4E13141600021816094
:10037000C160016181610C21416100F0FFBE00009C
:10038000003801401800002030B590F8405001249A
:10039000AC40C56B6C60046863604368102B0368F5
:1003A00003D099600068C26030BD9A600068C16087
:1003B00030BD7047F8B500250446009590F824003C
:1003C00001280BD0012084F824002046FFF706FF07
:1003D0002046FFF767FF060002D050E00220F8BD7C
:1003E000A06A20F4885040F00200A062022000F0D1
:1003F000E9FB25490968B1FBF0F0400000E0401E30
:1004000000900028FBD12068816841F008018160DC
:1004100000F08AFB074608E000F086FBC01B0A28B4
:1004200003D920688068000715D420688068000719
:10043000F2D42068816841F00401816000F074FB0F
:10044000074612E000F070FBC01B0A280DD9206897
:100450008068400709D5A06A20F0020040F0100033
:10046000A06284F824500120F8BD2068806840070D
:10047000E8D4A06A20F0020040F00100A06284F8F5
:1004800024503046F8BD000010000020F8B50024CC
:10049000009490F824202546012A12D0012280F8E9
:1004A00024204A681F23072A0DD20668776B521E44
:1004B00002EB820293409F430B6893401F43776394
:1004C00019E00220F8BD06680D2A0AD2376BD21F48
:1004D00002EB820293409F430B6893401F433763B4
:1004E00009E0F76A0D3A02EB820293409F430B68E2
:1004F00093401F43F7620A68072306680A2A0AD353
:10050000F7680A3A02EB420293409F438B6893409C
:100510001F43F76008E0376902EB420293409F43B4
:100520008B6893401F4337610A68102A01D0112A53
:1005300020D1124B02689A4217D193681B0219D43A
:10054000936843F4000393600968102912D10C49A1
:100550000C4A0968B1FBF2F101EB8101490000E0AE
:10056000491E00910029FBD104E0816A41F020017D
:100570008162012480F824502046F8BD0024014007
:100580001000002040420F00704770477047000085
:100590002DE9F04104004FF0000514D0A06A0026B8
:1005A00028B9E66284F82460204600F083F82046EB
:1005B000FFF714FEA16A01F01001014304D0A06A04
:1005C00040F01000A0626BE0A16A21F4885141F074
:1005D0000201A162334923688B42E16904D1B1F57C
:1005E000402F01D14FF40021277B4FF4807C41EA5A
:1005F000470261680A43A168614509D0012907D013
:100600005FF0000194F814E0BEF1010F02D00AE09F
:100610006146F7E7C7B1A76A47F02007A762E76A14
:1006200047F00107E7625F6827F469470F435F609F
:10063000236899681C4F394011439960A16861454E
:100640000BD0012909D00CE0DFF860E0A7690EEBC0
:1006500047370F4347F40061E5E7218A0D05A5F50B
:1006600080152168CB6A23F470032B43CB62216889
:1006700089680F4B1940914208D1E662A16A21F0C6
:10068000020141F00101A162BDE8F081A06A20F001
:10069000020040F01000A062E06A40F00100E06259
:1006A0000120F1E7003C0140FDF7E1FF00E0FFFF22
:1006B000FE0E1FFF38B514490546886940F40070E6
:1006C0008861886900F400700090486940F001007A
:1006D000486148690E4C00F0010000900B48206012
:1006E00000206060A0608020E06040002061800009
:1006F00060612020A0610002E061204600F090F8D7
:100700002C62656238BD0000001002400800024003
:10071000600000202DE9F047894604463B49006807
:100720003B4F0E1D9046884201D0B84207D1306839
:1007300010F4702F03D001252846BDE8F08794F807
:10074000240001280CD0012084F824002046FFF763
:10075000A9FD05004FF0000004D084F82400EBE769
:100760000220EAE7A16A40F60162914341F48071F8
:10077000A1622168B94218D1326812F4702F14D0E6
:10078000A16A41F48011A1623168490505D5A16AC9
:1007900021F4005141F48051A162A16AC9040AD533
:1007A000E16A21F00601E16206E0A26A22F4801209
:1007B000A2624968E9E7E06284F82400216A1548EA
:1007C0008862216A1448C862216A14480863216853
:1007D0006FF0020008602068816841F480718160D8
:1007E000216843464A464C31206A00F057F8206899
:1007F0008168C1F342410729816803D041F4801127
:10080000816099E741F4A001FAE70000002401406B
:1008100000280140330200089B0200088102000802
:1008200030B560B11A4B026814219A4209D2194BB3
:100830001344B3FBF1F18900016417490AE0012078
:1008400030BD134B5B421344B3FBF1F189000164EB
:100850000F490839C163022180F82110136843F65B
:10086000F0718B43F0E901142143D0E902452C4398
:100870002143046921434469214384692143194385
:10088000116000214163012242770177084630BDA3
:1008900008040240F8FFFDBF0000024070B50446A6
:1008A00090F82000002501280CD0012084F82000B9
:1008B00094F821600020012E06D084F82000022543
:1008C000284670BD022070BD022684F82160A06316
:1008D0002068066826F0010606602046FFF754FDF2
:1008E000E06A00282068016802D041F00E0106E0AD
:1008F00021F0040101602068016841F00A010160F3
:100900002068016841F001010160D9E770B5044633
:1009100000F00AF90546601C02D00448007804443F
:1009200000F002F9401BA042FAD370BD0400002081
:100930002DE9F84FDFF8C8910024A9F1040B2346F4
:100940000F2709F1040AABF1040ED1E00125A540FF
:1009500006EA0502AA4276D1DFF8A8C14E68A6EBE6
:100960000C0866452BD00DDC032E34D005DC36B3E5
:10097000012E19D0022E2FD11BE0112E16D0122ECF
:100980002AD119E0B8F5881F19D006DCB8F5803FE8
:1009900015D0B8F5801F1FD111E0B8F5001F0ED09B
:1009A000B8F5041F18D10AE0CB6815E0CB681B1D11
:1009B00012E0CB6808330FE0CB680C330CE08B6897
:1009C0002BB1012B4FF0080303D0456104E0042351
:1009D00002E0056100E00023FF2A01D8064601E09D
:1009E00000F104064FEA840501D9A5F12005D6F8E7
:1009F000008007FA05FC28EA0C0803FA05F548EA26
:100A00000508C6F800804D68ED0070D53E4DAE6912
:100A100046F00106AE61AD6924F0030605F001055C
:100A200000953A4D06EB050CDCF80850A607360F8A
:100A300007FA06F825EA0805DFF8D480404503D117
:100A40004FF0000825E052E0DFF8C880404502D1B1
:100A50004FF001081DE0DFF8C080404502D14FF0A3
:100A6000020816E0DFF8B480404502D14FF00308D9
:100A70000FE0DFF8AC80404502D14FF0040808E0F9
:100A8000DFF8A080404502D14FF0050801E04FF0AB
:100A9000060808FA06F848EA0508CCF808804D6808
:100AA000D9F80060ED024D4601D5164300E09643AB
:100AB0002E604D68DAF80060AD02554601D5164348
:100AC00000E096432E604D68DBF80060AD035D46A4
:100AD00001D5164300E096432E604D68DEF80060B5
:100AE000ED03754601D5164300E096432E60641C65
:100AF0000A681646E2407FF429AFBDE8F88F00008F
:100B000008040140000011100010024000000140E4
:100B100000080140000C0140001001400014014099
:100B200000180140001C0140014880687047000027
:100B300004000020024881680278114481607047F7
:100B40000400002070B50D4D04464FF47A712878EA
:100B5000B1FBF0F00A490968B1FBF0F000F0FAFAD5
:100B600048B9102C07D200222146501E00F00AF886
:100B700000206C6070BD012070BD000004000020EA
:100B800010000020F0B40E4B1B680C46C3F3022388
:100B9000C3F10705042D00D90425191D072901D229
:100BA000002300E0DB1E012606FA05F1491E214064
:100BB00099409E40761E16403143F0BC00F0B4BC14
:100BC0000CED00E010B501460020284C04292FD080
:100BD0000BDC012930D0022929D100F0F5F8616839
:100BE000C1F38131491C49001FE0082920D0102998
:100BF0001DD161682268D20119D51D48C1F3834215
:100C0000C903805C0AD56168194AC1F34041921E4C
:100C1000515C184AB2FBF1F1484301E016494843E0
:100C20006168490203D440000321B0FBF1F010BD1C
:100C3000BDE8104000F0D8B8226AC2F301210129B2
:100C400003D1920701D5C80310BD022905D1626AFC
:100C5000920702D549F6404010BD0329FCD1216816
:100C60008903F9D54FF2244010BD00000010024066
:100C7000A019000800127A0000093D002DE9F04794
:100C80000F46050061D0434E306800F00700B842BF
:100C900009D2306820F0070038433060306800F037
:100CA0000700B84251D128683B4C810712D5400754
:100CB00003D5606840F4E06060602878000703D5E1
:100CC000606840F4605060606068A96820F0F000DF
:100CD000084360602878C00728D06868012810D0D1
:100CE0002168022810D0890700292EDA616821F0D6
:100CF000030101436160FFF717FF804641F2883925
:100D00000DE021688903EFE78901EDE7FFF70CFFAC
:100D1000A0EB0801494502D90320BDE8F0876068CF
:100D2000696800F00C00B0EB810FEFD1306800F083
:100D30000700B8420BD9306820F007003843306014
:100D4000306800F00700B84201D00120E5E72878BC
:100D5000400705D56068E96820F4E06008436060FA
:100D60002878000706D56068296920F4605040EAB9
:100D7000C100606000F038F86168084AC1F30311EF
:100D8000515CC8400649086006480068FFF7DAFE73
:100D90000020C2E70020024000100240B019000805
:100DA0001000002008000020044805490068496838
:100DB000044AC1F30221515CC84070471000002072
:100DC00000100240C019000804480549006849683D
:100DD000044AC1F3C221515CC84070471000002092
:100DE00000100240C01900080E4A51680E4801F078
:100DF0000C03042B11D0082B0FD10C48C1F38343F3
:100E0000C903C05C0AD55168084AC1F34041921E2B
:100E1000515C054A5043B0FBF1F070470449484328
:100E2000704700000010024000127A008E1900087E
:100E300000093D002DE9F84F040070D02078C04D26
:100E4000C00749D06868C0F38100012807D06868EE
:100E5000C0F38100022809D16868C00306D528685C
:100E6000800339D560680028E7D035E06068B0F5C8
:100E7000803F0BD010B1B0F5A02F11D0286820F41E
:100E800080302860286820F4802002E0286840F440
:100E900080302860606890B1FFF746FE06460AE0A1
:100EA000286840F480202860F0E700BFFFF73CFE90
:100EB000801B642873D828688003F7D50CE0FFF7FF
:100EC00033FE064605E000BFFFF72EFE801B6428B8
:100ED000F0D828688003F7D420789A4E80074FF026
:100EE00001094FF0000839D5686810F00C0F07D0E1
:100EF0006868C0F38100022809D16868C00306D47D
:100F00002868800714D52069012808D110E02069DD
:100F1000B0B1C6F80090FFF707FE074605E00AE10A
:100F2000FFF702FEC01B0228C4D828688007F7D547
:100F30002868616920F0F80040EAC10028600DE0EF
:100F4000C6F80080FFF7F0FD074604E0FFF7ECFD70
:100F5000C01B022823D828688007F7D42078000710
:100F60002CD57948A169D9B1C0F80090FFF7DCFD14
:100F7000074604E0FFF7D8FDC01B02280FD8686AB7
:100F80008007F7D571484FF4FA510068B0FBF1F0D3
:100F9000009000BF0098411E0091FAD20EE080E060
:100FA000C0F80080FFF7C0FD074604E0FFF7BCFD76
:100FB000C01B022875D8686A8007F7D420784007DC
:100FC00060D5E8690027C00008D4E86940F0805087
:100FD000E861E869012700F0805000905C480168F2
:100FE000C90513D40168834641F480710160FFF79D
:100FF0009BFD824606E000BFFFF796FDA0EB0A00CE
:1010000064284ED8DBF80000C005F5D5E06801285B
:101010000AD008B1052813D0286A20F00100286200
:10102000286A20F0040002E0286A40F001002862EB
:10103000E06841F2883B98B1FFF776FD82460BE00D
:10104000286A40F004002862EEE700BFFFF76CFD5D
:10105000A0EB0A0159455AD8286A8007F6D50CE05A
:10106000FFF762FD824605E0FFF75EFDA0EB0A0197
:1010700059454CD8286A8007F6D41FB1E86920F09A
:101080008050E861E06988B36968C1F38101022991
:1010900044D00228C6F8608004D0FFF745FD04461E
:1010A00038E034E0FFF740FD074604E0FFF73CFD81
:1010B000C01B02282BD828688001F7D4206AB0F51D
:1010C000803F05D16868A16820F40030084368605B
:1010D000D4E908010843696821F474110843686081
:1010E000C6F86090FFF720FD044606E025E000BF4B
:1010F000FFF71AFD001B022809D828688001F7D5E0
:101100001BE000BFFFF710FD001B022802D90320DF
:10111000BDE8F88F28688001F4D40EE00128F7D0EC
:101120006868226A00F48031914204D1616A00F457
:101130007010884201D00120EAE70020E8E70000B3
:101140000010024000004242800442421000002091
:101150000070004010B5401EB0F1807F01D3012027
:1011600010BD4FF0E02460610F21601700F0DCF942
:101170000020A06107202061002010BD70B5040090
:1011800004D094F84100002510B106E0012070BDA4
:1011900084F84050204600F023F8242084F84100D1
:1011A0002068C16821F40051C160204600F012F9A6
:1011B0002068016921F4904101612068416921F0B2
:1011C0002A0141612068C16841F40051C160656431
:1011D000202084F8410084F842006563002070BD3F
:1011E000194810B5816986B041F4804181618169F7
:1011F00001F480410491816941F0040181618169B8
:1012000001F004010491816941F004018161806968
:101210000E4C00F0040004904FF400700090022087
:101220000190012002900320039069462046FFF7B9
:101230007FFB201500900020019069462046FFF7B3
:1012400077FB06B010BD000000100240000801400E
:101250002DE9F843044690F841001F4616460D4616
:10126000202802D00220BDE8F8837DB176B10020AD
:101270006064212084F84100FFF756FCA684804674
:10128000E684A068B0F5805F02D003E00120EAE7C1
:10129000206910B12E4600250EE000260CE08021CA
:1012A000204600F0F3F8A0B9AEB116F8010B2168A2
:1012B0004860E08C401EE084E08C43464FF0000222
:1012C00000970028EBD14FF04001204600F0DEF8F7
:1012D00030B10320C7E735F8020BC0F30800E6E79A
:1012E000202084F841000020BDE7FEE7F0B51C484F
:1012F00085B0816941F008018161816901F00801CF
:101300000491816941F008018161816901F008015E
:101310000491816941F0080181618069012400F034
:101320000800049003202026CDE90240CDE90064A6
:101330000C4F69463846FFF7FBFA69463846009479
:10134000FFF7F6FA0225694638460095FFF7F0FAEE
:101350000448103006600460056005B0F0BD000070
:1013600000100240000C0140FEE7FEE770477047A6
:10137000FFF7E0BB30B58FB028216846FEF7FBFED3
:1013800014210AA8FEF7F7FE01210804CDE9001098
:101390000024029402250491CDE907504FF4E01097
:1013A00009906846FFF746FD08B172B6FEE70F20C8
:1013B000CDE90A054FF48060CDE90C4002210AA86E
:1013C0000E94FFF75BFC002801D072B6FEE70FB069
:1013D00030BD704770B5044600680169E26821F4C9
:1013E0004051114301612169A068084361690843C4
:1013F0002168CA6841F20C639A430243CA602068BC
:101400004169A26921F44071114341611E4920687C
:10141000884202D1FFF7D8FC01E0FFF7C5FC00EBE2
:10142000C00101EB0012606864218000B2FBF0F3A0
:10143000B3FBF1F36FF018067343B2FBF0F5B2FBA8
:10144000F0F605EB8305322303EB0515B5FBF1F54B
:10145000B6FBF1F605F0F00505EB0615B2FBF0F66C
:10146000B2FBF0F0B0FBF1F06FF01802504306EB66
:10147000800003EB0010B0FBF1F0216800F00F00DA
:101480002844886070BD0000003801402DE9F0411B
:10149000984617460E460446069D27E0681C25D050
:1014A0002DB1FFF741FBA0EB0800A8421ED9206830
:1014B0000C3050E8001F21F4D07140E80012002ADF
:1014C000F5D12068143050E8001F21F0010140E8F8
:1014D0000012002AF5D1202084F8410084F842004F
:1014E000002084F840000320BDE8F08120680068F7
:1014F00036EA000004D00020B842CFD00020F3E745
:101500000120F9E7FEE700000FB4054B10B503A971
:10151000044A029800F028F810BC5DF814FB0000A3
:10152000AD180008140000200907090E002804DB8C
:1015300000F1E02080F80014704700F00F0000F187
:10154000E02080F8141D704702E008C8121F08C18F
:10155000002AFAD170477047002001E001C1121F34
:10156000002AFBD1704700002DE9FF4F8BB0884661
:101570000546002606E025280BD0DDE90D12904730
:101580006D1C761C28780028F5D10FB03046BDE8D8
:10159000F08F0024A146A2460122AE4900E0044398
:1015A00015F8013F203B02FA03F00842F7D12878F2
:1015B0002A2810D06FF02F022878A0F130010929D5
:1015C00015D809EB890102EB410144F0020400EB5C
:1015D00001096D1CF0E758F8041B5FEA010903D507
:1015E00044F40054C9F1000944F002046D1C287849
:1015F0002E2817D115F8010F44F004042A280ED024
:101600006FF02F022878A0F1300109290AD80AEBDF
:101610008A0102EB410100EB010A6D1CF2E758F868
:1016200004AB6D1C28786C280FD006DC4C2817D032
:1016300068280DD06A2814D104E0742810D07A28C4
:101640000FD10DE044F400140AE044F4801401E0EA
:1016500044F440146978814202D104F580146D1C71
:101660006D1C2878692865D006DC00288DD0632899
:1016700027D0642806D15DE06E2808D073282AD0D0
:10168000752877D0DDE90D129047761CE0E0C4F3B1
:101690000250022809D003280DD0D8F800100428E1
:1016A0000DD00E6008F10408D2E0D8F80010F2174F
:1016B000C1E90062F6E7D8F800100E80F2E70E707C
:1016C000F0E718F8041B8DF8001000208DF80100D9
:1016D000EB46012003E058F804BB4FF0FF306107F0
:1016E0004FF0000701D40AE07F1C57450DDA87420E
:1016F000FADB1BF807100029F6D106E07F1C8742B1
:10170000FCDB1BF807100029F8D1DDE90D23A9EB5C
:1017100007008146214600F0B1F83044C61904E0C4
:10172000DDE90D121BF8010B90477F1EF8D2214610
:10173000484688E058F8040BC4F302514FF00A0BF6
:10174000032900D100B2042900D140B2002802DAF6
:1017500040422D2102E0210505D52B218DF82410D2
:10176000012104E006E0E10710D02021F6E708AFF0
:10177000089113E058F8040BC4F302514FF00A0B20
:10178000032900D180B2042900D1C0B20021EEE7C4
:101790005946FEF7FBFC303107F8011D0028F7D150
:1017A000ADEB070000F1200B600702D524F4803474
:1017B00001E04FF0010ADA4502DDAAEB0B0000E080
:1017C0000020824600EB0B0108980144A9EB0100C0
:1017D0000A90E00306D4DDE90D2321460A9800F0C3
:1017E0004DF806444FF0000908E009A911F8090076
:1017F000DDE90D12904709F10109761C0899894528
:10180000F3DBE0030CD5DDE90D2321460A9800F057
:1018100035F8064404E0DDE90D1230209047761CCF
:10182000BAF10001AAF1010AF5DC05E0DDE90D12CB
:1018300017F8010B9047761CBBF10001ABF1010BCF
:10184000F4DC0A982146DDE90D2300F005F8064492
:101850006D1C97E6092801002DE9F041044600259A
:101860001E461746880404D405E039462020B047B8
:101870006D1C641EF9D52846BDE8F0812DE9F041C4
:10188000044600251E469046C80301D5302700E0D7
:101890002027880404D505E041463846B0476D1C32
:1018A000641EF9D52846BDE8F081000013B54FF459
:1018B0007A73012269460248FFF7CAFC00981CBDF2
:1018C00018000020FFF756FDFFF710FDFEF748FD5A
:1018D00011A0FFF719FE19A0FFF716FEFEF720FD75
:1018E0001E48FEF767FD02221D491C48FEF712FF45
:1018F0001B4C1C4EA41E05253046FFF707F86088D8
:10190000A0F2EE60404290FBF5F119312180218870
:1019100015A0FFF7F9FDEFE70D0A20D5E2CAC7D2FF
:10192000BBB8F6C4DAB2BFCEC2B6C8B4ABB8D0C684
:10193000F7CAB5D1E9200D0A000000000D0A2050B9
:1019400072696E742063757272656E742054656D71
:101950007065726174757265200D0A00A400002024
:1019600002000020A08601000D0A2054686520496D
:10197000432063757272656E742074656D70203DCE
:101980002025336420A1E6200D0A00000102020395
:101990000405060708090A0B0C0D0E0F10100102B2
:1019A00002030405060708090A0B0C0D0E0F1010A0
:1019B00000000000000000000102030406070809FF
:1019C0000000000001020304E819000800000020E4
:1019D0001800000048150008001A00081800002030
:1019E000C0040000581500080000000001000000BD
:1019F00010000000000000000024F40000000000BF
:0400000508000131BD
:00000001FF
