:020000040800F2
:1000000060040020450100086B0C0008930B0008F9
:10001000690C0008B1010008090E0008000000008A
:10002000000000000000000000000000730C000849
:10003000DD01000800000000710C0008750C0008CC
:100040005F0100086D0C00085F0100085F010008F7
:100050005F0100085F0100085F0100085F01000800
:100060005F0100085F0100085F0100085F010008F0
:100070005F0100085F0100085F0100085F010008E0
:100080005F0100085F0100085F0100085F010008D0
:100090005F0100085F0100085F0100085F010008C0
:1000A0005F0100085F0100085F0100085F010008B0
:1000B0005F0100085F0100085F0100085F010008A0
:1000C0005F0100085F0100085F0100085F01000890
:1000D0005F0100085F0100085F0100085F01000880
:1000E0005F0100085F0100085F0100085F01000870
:1000F0005F0100085F0100085F0100085F01000860
:100100005F0100085F0100085F0100085F0100084F
:100110005F0100085F0100085F0100085F0100083F
:100120005F0100085F0100085F0100085F0100082F
:10013000DFF80CD000F02AF800480047950E0008C0
:10014000600400200648804706480047FEE7FEE7B7
:10015000FEE7FEE7FEE7FEE7FEE7FEE7FEE7FEE777
:10016000D70C000831010008D2B201E000F8012BE1
:10017000491EFBD270470022F6E710B513460A4627
:1001800004461946FFF7F0FF204610BD064C074D08
:1001900006E0E06840F0010394E807009847103457
:1001A000AC42F6D3FFF7C8FFE811000808120008B8
:1001B000FEE700000848074901604FF4E131416063
:1001C00000218160C160016181610C21416100F009
:1001D00028BC0000003801401400002070470000D7
:1001E00070B5044600F010F90546601C02D00448C2
:1001F0000078044400F008F9401BA042FAD370BD17
:10020000000000202DE9F84FDFF8C8910024A9F183
:10021000040B23460F2709F1040AABF1040ED1E0C9
:100220000125A54006EA0502AA4276D1DFF8A8C159
:100230004E68A6EB0C0866452BD00DDC032E34D09F
:1002400005DC36B3012E19D0022E2FD11BE0112E62
:1002500016D0122E2AD119E0B8F5881F19D006DC65
:10026000B8F5803F15D0B8F5801F1FD111E0B8F563
:10027000001F0ED0B8F5041F18D10AE0CB6815E0B6
:10028000CB681B1D12E0CB6808330FE0CB680C3342
:100290000CE08B682BB1012B4FF0080303D04561B4
:1002A00004E0042302E0056100E00023FF2A01D8F6
:1002B000064601E000F104064FEA840501D9A5F1E4
:1002C0002005D6F8008007FA05FC28EA0C0803FA96
:1002D00005F548EA0508C6F800804D68ED0070D5C0
:1002E0003E4DAE6946F00106AE61AD6924F00306ED
:1002F00005F0010500953A4D06EB050CDCF80850B9
:10030000A607360F07FA06F825EA0805DFF8D480B5
:10031000404503D14FF0000825E052E0DFF8C880E7
:10032000404502D14FF001081DE0DFF8C080404594
:1003300002D14FF0020816E0DFF8B480404502D148
:100340004FF003080FE0DFF8AC80404502D14FF0DA
:10035000040808E0DFF8A080404502D14FF005080E
:1003600001E04FF0060808FA06F848EA0508CCF85C
:1003700008804D68D9F80060ED024D4601D516435E
:1003800000E096432E604D68DAF80060AD025546F5
:1003900001D5164300E096432E604D68DBF80060FF
:1003A000AD035D4601D5164300E096432E604D68CF
:1003B000DEF80060ED03754601D5164300E0964374
:1003C0002E60641C0A681646E2407FF429AFBDE83F
:1003D000F88F0000080401400000111000100240D6
:1003E0000000014000080140000C014000100140E5
:1003F0000014014000180140001C014080680840C2
:1004000000D001207047000001488068704700005C
:100410000000002002488168027811448160704722
:100420000000002070B50D4D04464FF47A71287815
:10043000B1FBF0F00A490968B1FBF0F000F0D6FA20
:1004400048B9102C07D200222146501E00F00AF8AD
:1004500000206C6070BD012070BD00000000002015
:100460000C000020F0B40E4B1B680C46C3F30223B3
:10047000C3F10705042D00D90425191D072901D250
:10048000002300E0DB1E012606FA05F1491E21408B
:1004900099409E40761E16403143F0BC00F0BEBC31
:1004A0000CED00E090FAA0F0044AB0FA80F002EB04
:1004B00080000121C0F880107047000000000E424B
:1004C0000548016841F0020101600448016841F0FB
:1004D0000401016030BF70470070004010ED00E083
:1004E00004484FF400110160012101600221016004
:1004F00070470000100C014010B5054C2068C00387
:1005000004D5FFF7EDFF4FF48030206010BD0000F0
:10051000140401402DE9F0470F46050061D0434E19
:10052000306800F00700B84209D2306820F00700B8
:1005300038433060306800F00700B84251D1286875
:100540003B4C810712D5400703D5606840F4E0605A
:1005500060602878000703D5606840F460506060F0
:100560006068A96820F0F000084360602878C00740
:1005700028D06868012810D02168022810D0890787
:1005800000292EDA616821F0030101436160FFF761
:100590003BFF804641F288390DE021688903EFE78F
:1005A0008901EDE7FFF730FFA0EB0801494502D9CB
:1005B0000320BDE8F0876068696800F00C00B0EBCC
:1005C000810FEFD1306800F00700B8420BD93068D6
:1005D00020F0070038433060306800F00700B84270
:1005E00001D00120E5E72878400705D56068E96873
:1005F00020F4E060084360602878000706D5606852
:10060000296920F4605040EAC100606000F038F8C9
:100610006168084AC1F30311515CC840064908608B
:1006200006480068FFF7FEFE0020C2E700200240F7
:1006300000100240721000080C000020040000208E
:100640000448054900684968044AC1F30221515C25
:10065000C84070470C0000200010024082100008C3
:100660000448054900684968044AC1F3C221515C45
:10067000C84070470C0000200010024082100008A3
:100680000E4A51680E4801F00C03042B11D0082BC0
:100690000FD10C48C1F38343C903C05C0AD551682C
:1006A000084AC1F34041921E515C054A5043B0FBD9
:1006B000F1F07047044948437047000000100240C1
:1006C00000127A006210000800093D002DE9F84F81
:1006D000040070D02078C04DC00749D06868C0F3CE
:1006E0008100012807D06868C0F38100022809D181
:1006F0006868C00306D52868800339D5606800287B
:10070000E7D035E06068B0F5803F0BD010B1B0F5B0
:10071000A02F11D0286820F480302860286820F4A9
:10072000802002E0286840F480302860606890B142
:10073000FFF76AFE06460AE0286840F48020286039
:10074000F0E700BFFFF760FE801B642873D82868BD
:100750008003F7D50CE0FFF757FE064605E000BF23
:10076000FFF752FE801B6428F0D828688003F7D476
:1007700020789A4E80074FF001094FF0000839D5D4
:10078000686810F00C0F07D06868C0F38100022879
:1007900009D16868C00306D42868800714D5206989
:1007A000012808D110E02069B0B1C6F80090FFF729
:1007B0002BFE074605E00AE1FFF726FEC01B0228D4
:1007C000C4D828688007F7D52868616920F0F80048
:1007D00040EAC10028600DE0C6F80080FFF714FE73
:1007E000074604E0FFF710FEC01B022823D8286844
:1007F0008007F7D4207800072CD57948A169D9B1B2
:10080000C0F80090FFF700FE074604E0FFF7FCFD8C
:10081000C01B02280FD8686A8007F7D571484FF4CB
:10082000FA510068B0FBF1F0009000BF0098411E43
:100830000091FAD20EE080E0C0F80080FFF7E4FDFE
:10084000074604E0FFF7E0FDC01B022875D8686A80
:100850008007F7D42078400760D5E8690027C000FA
:1008600008D4E86940F08050E861E869012700F0A9
:10087000805000905C480168C90513D40168834624
:1008800041F480710160FFF7BFFD824606E000BFC2
:10089000FFF7BAFDA0EB0A0064284ED8DBF8000091
:1008A000C005F5D5E06801280AD008B1052813D0A5
:1008B000286A20F001002862286A20F0040002E083
:1008C000286A40F001002862E06841F2883B98B154
:1008D000FFF79AFD82460BE0286A40F00400286288
:1008E000EEE700BFFFF790FDA0EB0A0159455AD88B
:1008F000286A8007F6D50CE0FFF786FD824605E002
:10090000FFF782FDA0EB0A0159454CD8286A800701
:10091000F6D41FB1E86920F08050E861E06988B33F
:100920006968C1F38101022944D00228C6F86080B9
:1009300004D0FFF769FD044638E034E0FFF764FDBA
:10094000074604E0FFF760FDC01B02282BD828688B
:100950008001F7D4206AB0F5803F05D16868A168AE
:1009600020F4003008436860D4E90801084369684E
:1009700021F4741108436860C6F86090FFF744FDE5
:10098000044606E025E000BFFFF73EFD001B0228FD
:1009900009D828688001F7D51BE000BFFFF734FDB8
:1009A000001B022802D90320BDE8F88F28688001C7
:1009B000F4D40EE00128F7D06868226A00F4803190
:1009C000914204D1616A00F47010884201D0012084
:1009D000EAE70020E8E70000001002400000424281
:1009E000800442420C0000200070004010B5401E00
:1009F000B0F1807F01D3012010BD4FF0E024606191
:100A00000F21601700F00AFA0020A0610720206182
:100A1000002010BD4FF0E020016921F002010161CA
:100A2000704770B5040004D094F84100002510B15F
:100A300006E0012070BD84F84050204600F024F804
:100A4000242084F841002068C16821F40051C1606D
:100A5000204600F041F92068016921F490410161CC
:100A60002068416921F02A0141612068C16841F490
:100A70000051C1606564202084F8410084F8420080
:100A80006563002070BD0000194810B5816986B00B
:100A900041F480418161816901F48041049181695F
:100AA00041F004018161816901F0040104918169CF
:100AB00041F00401816180690E4C00F00400049053
:100AC0004FF400700090022001900120029003205A
:100AD000039069462046FFF795FB20150090002003
:100AE000019069462046FFF78DFB06B010BD00005F
:100AF00000100240000801402DE9F843044690F838
:100B000041001F4616460D46202802D00220BDE8AF
:100B1000F8837DB176B100206064212084F8410023
:100B2000FFF772FCA6848046E684A068B0F5805F7B
:100B300002D003E00120EAE7206910B12E4600252B
:100B40000EE000260CE08021204600F021F9A0B93B
:100B5000AEB116F8010B21684860E08C401EE084BD
:100B6000E08C43464FF0000200970028EBD14FF095
:100B70004001204600F00CF930B10320C7E735F8FA
:100B8000020BC0F30800E6E7202084F841000020B3
:100B9000BDE7FEE7124800B5816985B041F0040168
:100BA0008161816901F004010491816941F01001C2
:100BB00081618069002100F0100004900120CDE9DE
:100BC0000001029169460748FFF71CFB4FF40050F3
:100BD000009069460448FFF715FB05B000BD000012
:100BE000001002400008014000100140F0B51C4810
:100BF00085B0816941F008018161816901F00801D6
:100C00000491816941F008018161816901F0080165
:100C10000491816941F0080181618069012400F03B
:100C20000800049003202026CDE90240CDE90064AD
:100C30000C4F69463846FFF7E5FA69463846009496
:100C4000FFF7E0FA0225694638460095FFF7DAFA21
:100C50000448103006600460056005B0F0BD000077
:100C600000100240000C0140FEE7FEE7FFF744BC25
:100C700070477047FFF7CEBB30B58FB0282168466C
:100C8000FFF779FA14210AA8FFF775FA0121080481
:100C9000CDE900100024029402250491CDE907500B
:100CA0004FF4E01009906846FFF710FD08B172B6E6
:100CB000FEE70F20CDE90A054FF48060CDE90C4036
:100CC00002210AA80E94FFF725FC002801D072B675
:100CD000FEE70FB030BD704770B50446006801698B
:100CE000E26821F44051114301612169A068084381
:100CF000616908432168CA6841F20C639A43024360
:100D0000CA6020684169A26921F4407111434161C0
:100D10001E492068884202D1FFF7A2FC01E0FFF7DC
:100D20008FFC00EBC00101EB0012606864218000C1
:100D3000B2FBF0F3B3FBF1F36FF018067343B2FBB1
:100D4000F0F5B2FBF0F605EB8305322303EB051556
:100D5000B5FBF1F5B6FBF1F605F0F00505EB061570
:100D6000B2FBF0F6B2FBF0F0B0FBF1F06FF018025E
:100D7000504306EB800003EB0010B0FBF1F021685C
:100D800000F00F002844886070BD0000003801406A
:100D90002DE9F041984617460E460446069D27E089
:100DA000681C25D02DB1FFF72FFBA0EB0800A8424F
:100DB0001ED920680C3050E8001F21F4D07140E8A3
:100DC0000012002AF5D12068143050E8001F21F0ED
:100DD000010140E80012002AF5D1202084F84100EA
:100DE00084F84200002084F840000320BDE8F08130
:100DF0002068006836EA000004D00020B842CFD056
:100E00000020F3E70120F9E7FEE70000014A02496C
:100E100000F023B87D0E0008100000200907090E1D
:100E2000002804DB00F1E02080F80014704700F097
:100E30000F0000F1E02080F8141D704702E008C8A0
:100E4000121F08C1002AFAD170477047002001E044
:100E500001C1121F002AFBD170472DE9F04116464F
:100E60000F460446002503E03946B047641C6D1C5C
:100E700020780028F8D12846BDE8F08113B54FF45A
:100E80007A73012269460248FFF736FE00981CBDBE
:100E900014000020FFF7F0FEFFF7A8FE354C2026D7
:100EA00026604FF48039C4F800904FF00208C4F86F
:100EB0000080FFF77FF9FFF76DFE2FA0FFF7A6FF79
:100EC00037A0FFF7A3FF3DA0FFF7A0FF3F48FFF7C4
:100ED0009DFF3FA0FFF79AFF4748FFF797FF47A006
:100EE000FFF794FF4F48FFF791FF4F4D68684FF0B1
:100EF0000107C043800709D4286840F00800286033
:100F0000266027603003206048A005E02660C4F812
:100F10000090C4F800804AA0FFF778FFDFF838A1FE
:100F20004FF4005900261420FFF75AF9494650465D
:100F3000FFF764FA0128F6D1761CF6B2642EF2D3DC
:100F40004648FFF763FF4FF4001020602760C4F8A5
:100F500000804FF47A70FFF743F9286840F00400EE
:100F600028604FF48070FFF79DFAFFF753FDFFF7FD
:100F7000A7FAD7E7100C01400D0A20BBB6D3ADCAC3
:100F8000B9D3C3D2B0BBF0202053544D33322046E6
:100F900031303320BFAAB7A2B0E5A1A30D0A0000EB
:100FA0000D0A20D2B0BBF04631303320B4FDBBFA7D
:100FB000C4A3CABDC0FDB3CC0D0A00000D0A20CAEF
:100FC000B5D1E9CBB5C3F7A3BA0D0A00E810000804
:100FD0000D0A20322EB3A4B0B44B455932B0B4BC84
:100FE000FCBAF3A3ACBBE1BDF8C8EBB4FDBBFAC4DB
:100FF000A3CABD0D0A000000541100080D0A2034D8
:101000002EBFC9CDA8B9FDBCECB2E25755B1EAD6A6
:10101000BECEBBC8B7B6A8B8B4CEBBC0B4D4B40DAE
:101020000A000000A4110008007000400D0A20B45E
:10103000FDBBFABBBDD0D1B8B4CEBB200D0A0000B9
:101040000D0A20B7C7B4FDBBFABBBDD0D1B8B4CE32
:10105000BB200D0A00000000001001408C100008A9
:10106000010202030405060708090A0B0C0D0E0F06
:101070001010000000000000000001020304060739
:101080000809000000000102030400000D0A20BC52
:10109000B4BDABBDF8C8EBB4FDBBFAC4A3CABDA3D5
:1010A000ACBDF8C8EBB4FDBBFAC4A3CABDBAF3BF6C
:1010B000C9B0B44B455931B0B4BCFCBBBDD0D1A311
:1010C000ACBBBDD0D1BAF3BBE1BDF8D0D0B8B4CE83
:1010D000BBA3ACB3CCD0F2B4D3CDB7BFAACABCD6F5
:1010E000B4D0D0200D0A00000D0A20312EB1BEB3BD
:1010F000CCD0F2D6D0A3ACC2CCB5C6B1EDCABEB18D
:10110000BEB4CEB8B4CEBBCAC7C9CFB5E7BBF2D266
:10111000FDBDC5B8B4CEBBA3ACBAECB5C6B1EDCA83
:10112000BEBCB4BDABBDF8C8EBB4FDBBFAD7B4CC04
:10113000ACA3ACC0B6B5C6B1EDCABEB1BEB4CECAE2
:10114000C7B4FDBBFABBBDD0D1B5C4B8B4CEBB0DDE
:101150000A0000000D0A20332ED4DAB4FDBBFAC415
:10116000A3CABDCFC2A3ACB0B44B455931B0B4BCD7
:10117000FCBFC9BBBDD0D1A3ACBBBDD0D1BAF3CFEE
:10118000B5CDB3BBE1BDF8D0D0B8B4CEBBA3ACB342
:10119000CCD0F2B4D3CDB7BFAACABCD6B4D0D00D90
:1011A0000A0000000D0A20352ED4DAB4FDBBFAD7B0
:1011B000B4CCACCFC2A3AC444150CFC2D4D8C6F754
:1011C000CEDEB7A8B8F853544D3332CFC2D4D8B31B
:1011D000CCD0F2A3ACD0E8D2AABBBDD0D1BAF3B286
:1011E000C5C4DCCFC2D4D80008120008000000201B
:1011F000140000003C0E00081C120008140000201F
:101200004C0400004C0E000801000000100000001B
:0C121000000000000024F40000000000BA
:0400000508000131BD
:00000001FF
